{
	"contracts/Wallet/Simplewallet02.sol": {
		"Wallet": {
			"abi": [
				{
					"inputs": [
						{
							"internalType": "address[]",
							"name": "_owners",
							"type": "address[]"
						},
						{
							"internalType": "uint256",
							"name": "_threshold",
							"type": "uint256"
						}
					],
					"stateMutability": "nonpayable",
					"type": "constructor"
				},
				{
					"anonymous": false,
					"inputs": [
						{
							"indexed": true,
							"internalType": "address",
							"name": "owner",
							"type": "address"
						}
					],
					"name": "AddOwner",
					"type": "event"
				},
				{
					"anonymous": false,
					"inputs": [
						{
							"indexed": true,
							"internalType": "address",
							"name": "sender",
							"type": "address"
						},
						{
							"indexed": false,
							"internalType": "uint256",
							"name": "value",
							"type": "uint256"
						},
						{
							"indexed": false,
							"internalType": "bytes",
							"name": "data",
							"type": "bytes"
						}
					],
					"name": "Callfallback",
					"type": "event"
				},
				{
					"anonymous": false,
					"inputs": [
						{
							"indexed": false,
							"internalType": "uint256",
							"name": "threshold",
							"type": "uint256"
						}
					],
					"name": "ChangeThreshold",
					"type": "event"
				},
				{
					"anonymous": false,
					"inputs": [
						{
							"indexed": true,
							"internalType": "bytes32",
							"name": "txhash",
							"type": "bytes32"
						}
					],
					"name": "ExecutionFailure",
					"type": "event"
				},
				{
					"anonymous": false,
					"inputs": [
						{
							"indexed": true,
							"internalType": "bytes32",
							"name": "txhash",
							"type": "bytes32"
						}
					],
					"name": "ExecutionSuccess",
					"type": "event"
				},
				{
					"anonymous": false,
					"inputs": [
						{
							"indexed": true,
							"internalType": "address",
							"name": "initiator",
							"type": "address"
						},
						{
							"indexed": false,
							"internalType": "address[]",
							"name": "owners",
							"type": "address[]"
						},
						{
							"indexed": false,
							"internalType": "uint256",
							"name": "threshold",
							"type": "uint256"
						}
					],
					"name": "InitialSuccess",
					"type": "event"
				},
				{
					"anonymous": false,
					"inputs": [
						{
							"indexed": true,
							"internalType": "address",
							"name": "sender",
							"type": "address"
						},
						{
							"indexed": false,
							"internalType": "uint256",
							"name": "value",
							"type": "uint256"
						}
					],
					"name": "Receiveeth",
					"type": "event"
				},
				{
					"anonymous": false,
					"inputs": [
						{
							"indexed": true,
							"internalType": "address",
							"name": "preowner",
							"type": "address"
						}
					],
					"name": "RemoveOwner",
					"type": "event"
				},
				{
					"stateMutability": "payable",
					"type": "fallback"
				},
				{
					"inputs": [
						{
							"internalType": "address",
							"name": "owner",
							"type": "address"
						},
						{
							"internalType": "uint256",
							"name": "new_threshold",
							"type": "uint256"
						}
					],
					"name": "addOwnersAndThreshold",
					"outputs": [],
					"stateMutability": "nonpayable",
					"type": "function"
				},
				{
					"inputs": [
						{
							"internalType": "address",
							"name": "x",
							"type": "address"
						},
						{
							"internalType": "uint256",
							"name": "y",
							"type": "uint256"
						}
					],
					"name": "addOwnersencode",
					"outputs": [
						{
							"internalType": "bytes",
							"name": "result",
							"type": "bytes"
						}
					],
					"stateMutability": "pure",
					"type": "function"
				},
				{
					"inputs": [
						{
							"internalType": "uint256",
							"name": "new_threshold",
							"type": "uint256"
						}
					],
					"name": "changeThreshold",
					"outputs": [],
					"stateMutability": "nonpayable",
					"type": "function"
				},
				{
					"inputs": [
						{
							"internalType": "uint256",
							"name": "new_threshold",
							"type": "uint256"
						}
					],
					"name": "changeThresholdencode",
					"outputs": [
						{
							"internalType": "bytes",
							"name": "result",
							"type": "bytes"
						}
					],
					"stateMutability": "pure",
					"type": "function"
				},
				{
					"inputs": [],
					"name": "checkOwners",
					"outputs": [
						{
							"internalType": "address[]",
							"name": "",
							"type": "address[]"
						}
					],
					"stateMutability": "view",
					"type": "function"
				},
				{
					"inputs": [
						{
							"internalType": "bytes32",
							"name": "datatxhash",
							"type": "bytes32"
						},
						{
							"internalType": "bytes",
							"name": "signatures",
							"type": "bytes"
						}
					],
					"name": "checkSignature",
					"outputs": [],
					"stateMutability": "view",
					"type": "function"
				},
				{
					"inputs": [],
					"name": "checkThreshold",
					"outputs": [
						{
							"internalType": "uint256",
							"name": "",
							"type": "uint256"
						}
					],
					"stateMutability": "view",
					"type": "function"
				},
				{
					"inputs": [
						{
							"internalType": "address",
							"name": "to",
							"type": "address"
						},
						{
							"internalType": "uint256",
							"name": "value",
							"type": "uint256"
						},
						{
							"internalType": "bytes",
							"name": "data",
							"type": "bytes"
						},
						{
							"internalType": "bytes",
							"name": "signatures",
							"type": "bytes"
						}
					],
					"name": "exertransact",
					"outputs": [
						{
							"internalType": "bool",
							"name": "success",
							"type": "bool"
						}
					],
					"stateMutability": "payable",
					"type": "function"
				},
				{
					"inputs": [
						{
							"internalType": "address",
							"name": "owner",
							"type": "address"
						},
						{
							"internalType": "bool",
							"name": "_direction",
							"type": "bool"
						}
					],
					"name": "getAdjacent",
					"outputs": [
						{
							"internalType": "bool",
							"name": "",
							"type": "bool"
						},
						{
							"internalType": "address",
							"name": "",
							"type": "address"
						}
					],
					"stateMutability": "view",
					"type": "function"
				},
				{
					"inputs": [
						{
							"internalType": "address",
							"name": "to",
							"type": "address"
						},
						{
							"internalType": "uint256",
							"name": "value",
							"type": "uint256"
						},
						{
							"internalType": "bytes",
							"name": "data",
							"type": "bytes"
						}
					],
					"name": "getTxhash",
					"outputs": [
						{
							"internalType": "bytes32",
							"name": "",
							"type": "bytes32"
						}
					],
					"stateMutability": "view",
					"type": "function"
				},
				{
					"inputs": [],
					"name": "nonce",
					"outputs": [
						{
							"internalType": "uint256",
							"name": "",
							"type": "uint256"
						}
					],
					"stateMutability": "view",
					"type": "function"
				},
				{
					"inputs": [
						{
							"internalType": "address",
							"name": "_owner",
							"type": "address"
						}
					],
					"name": "ownerExist",
					"outputs": [
						{
							"internalType": "bool",
							"name": "",
							"type": "bool"
						}
					],
					"stateMutability": "view",
					"type": "function"
				},
				{
					"inputs": [],
					"name": "owners_num",
					"outputs": [
						{
							"internalType": "uint256",
							"name": "",
							"type": "uint256"
						}
					],
					"stateMutability": "view",
					"type": "function"
				},
				{
					"inputs": [
						{
							"internalType": "address",
							"name": "preowner",
							"type": "address"
						},
						{
							"internalType": "uint256",
							"name": "new_threshold",
							"type": "uint256"
						}
					],
					"name": "removeOwners",
					"outputs": [],
					"stateMutability": "nonpayable",
					"type": "function"
				},
				{
					"inputs": [
						{
							"internalType": "address",
							"name": "x",
							"type": "address"
						},
						{
							"internalType": "uint256",
							"name": "y",
							"type": "uint256"
						}
					],
					"name": "removeOwnersencode",
					"outputs": [
						{
							"internalType": "bytes",
							"name": "result",
							"type": "bytes"
						}
					],
					"stateMutability": "pure",
					"type": "function"
				},
				{
					"stateMutability": "payable",
					"type": "receive"
				}
			],
			"devdoc": {
				"kind": "dev",
				"methods": {},
				"version": 1
			},
			"evm": {
				"assembly": "    /* \"contracts/Wallet/Simplewallet02.sol\":145:6133  contract Wallet is ManageOwner , GetAbi{... */\n  mstore(0x40, 0x80)\n    /* \"contracts/Wallet/Simplewallet02.sol\":580:778  constructor(... */\n  callvalue\n  dup1\n  iszero\n  tag_1\n  jumpi\n  0x00\n  dup1\n  revert\ntag_1:\n  pop\n  mload(0x40)\n  sub(codesize, bytecodeSize)\n  dup1\n  bytecodeSize\n  dup4\n  codecopy\n  dup2\n  dup2\n  add\n  0x40\n  mstore\n  dup2\n  add\n  swap1\n  tag_2\n  swap2\n  swap1\n  tag_3\n  jump\t// in\ntag_2:\n    /* \"contracts/Wallet/Simplewallet02.sol\":673:708  _initialwallet(_owners, _threshold) */\n  tag_6\n    /* \"contracts/Wallet/Simplewallet02.sol\":688:695  _owners */\n  dup3\n    /* \"contracts/Wallet/Simplewallet02.sol\":697:707  _threshold */\n  dup3\n    /* \"contracts/Wallet/Simplewallet02.sol\":673:687  _initialwallet */\n  shl(0x20, tag_7)\n    /* \"contracts/Wallet/Simplewallet02.sol\":673:708  _initialwallet(_owners, _threshold) */\n  0x20\n  shr\n  jump\t// in\ntag_6:\n    /* \"contracts/Wallet/Simplewallet02.sol\":739:749  msg.sender */\n  caller\n    /* \"contracts/Wallet/Simplewallet02.sol\":724:770  InitialSuccess(msg.sender, _owners,_threshold) */\n  0xffffffffffffffffffffffffffffffffffffffff\n  and\n  0xc2299a3f10cab8985284b1cf766783d642bb5b112256e73f1d32cdaf64ff3e54\n    /* \"contracts/Wallet/Simplewallet02.sol\":751:758  _owners */\n  dup4\n    /* \"contracts/Wallet/Simplewallet02.sol\":759:769  _threshold */\n  dup4\n    /* \"contracts/Wallet/Simplewallet02.sol\":724:770  InitialSuccess(msg.sender, _owners,_threshold) */\n  mload(0x40)\n  tag_8\n  swap3\n  swap2\n  swap1\n  tag_9\n  jump\t// in\ntag_8:\n  mload(0x40)\n  dup1\n  swap2\n  sub\n  swap1\n  log2\n    /* \"contracts/Wallet/Simplewallet02.sol\":580:778  constructor(... */\n  pop\n  pop\n    /* \"contracts/Wallet/Simplewallet02.sol\":145:6133  contract Wallet is ManageOwner , GetAbi{... */\n  jump(tag_10)\n    /* \"contracts/Wallet/ManageOwner.sol\":798:1617  function _initialwallet(address[] memory _owners,uint256 _threshold)internal {... */\ntag_7:\n    /* \"contracts/Wallet/ManageOwner.sol\":953:954  0 */\n  0x00\n    /* \"contracts/Wallet/ManageOwner.sol\":940:949  threshold */\n  sload(0x01)\n    /* \"contracts/Wallet/ManageOwner.sol\":940:954  threshold == 0 */\n  eq\n    /* \"contracts/Wallet/ManageOwner.sol\":932:966  require(threshold == 0, \"error01\") */\n  tag_12\n  jumpi\n  mload(0x40)\n  0x08c379a000000000000000000000000000000000000000000000000000000000\n  dup2\n  mstore\n  0x04\n  add\n  tag_13\n  swap1\n  tag_14\n  jump\t// in\ntag_13:\n  mload(0x40)\n  dup1\n  swap2\n  sub\n  swap1\n  revert\ntag_12:\n    /* \"contracts/Wallet/ManageOwner.sol\":1048:1055  _owners */\n  dup2\n    /* \"contracts/Wallet/ManageOwner.sol\":1048:1062  _owners.length */\n  mload\n    /* \"contracts/Wallet/ManageOwner.sol\":1034:1044  _threshold */\n  dup2\n    /* \"contracts/Wallet/ManageOwner.sol\":1034:1062  _threshold <= _owners.length */\n  gt\n  iszero\n    /* \"contracts/Wallet/ManageOwner.sol\":1026:1074  require(_threshold <= _owners.length, \"error02\") */\n  tag_15\n  jumpi\n  mload(0x40)\n  0x08c379a000000000000000000000000000000000000000000000000000000000\n  dup2\n  mstore\n  0x04\n  add\n  tag_16\n  swap1\n  tag_17\n  jump\t// in\ntag_16:\n  mload(0x40)\n  dup1\n  swap2\n  sub\n  swap1\n  revert\ntag_15:\n    /* \"contracts/Wallet/ManageOwner.sol\":1145:1146  1 */\n  0x01\n    /* \"contracts/Wallet/ManageOwner.sol\":1131:1141  _threshold */\n  dup2\n    /* \"contracts/Wallet/ManageOwner.sol\":1131:1146  _threshold >= 1 */\n  lt\n  iszero\n    /* \"contracts/Wallet/ManageOwner.sol\":1123:1158  require(_threshold >= 1, \"error03\") */\n  tag_18\n  jumpi\n  mload(0x40)\n  0x08c379a000000000000000000000000000000000000000000000000000000000\n  dup2\n  mstore\n  0x04\n  add\n  tag_19\n  swap1\n  tag_20\n  jump\t// in\ntag_19:\n  mload(0x40)\n  dup1\n  swap2\n  sub\n  swap1\n  revert\ntag_18:\n    /* \"contracts/Wallet/ManageOwner.sol\":1208:1214  uint i */\n  0x00\n    /* \"contracts/Wallet/ManageOwner.sol\":1203:1508  for (uint i=0; i<_owners.length;i++)... */\ntag_21:\n    /* \"contracts/Wallet/ManageOwner.sol\":1220:1227  _owners */\n  dup3\n    /* \"contracts/Wallet/ManageOwner.sol\":1220:1234  _owners.length */\n  mload\n    /* \"contracts/Wallet/ManageOwner.sol\":1218:1219  i */\n  dup2\n    /* \"contracts/Wallet/ManageOwner.sol\":1218:1234  i<_owners.length */\n  lt\n    /* \"contracts/Wallet/ManageOwner.sol\":1203:1508  for (uint i=0; i<_owners.length;i++)... */\n  iszero\n  tag_22\n  jumpi\n    /* \"contracts/Wallet/ManageOwner.sol\":1264:1277  address owner */\n  0x00\n    /* \"contracts/Wallet/ManageOwner.sol\":1280:1287  _owners */\n  dup4\n    /* \"contracts/Wallet/ManageOwner.sol\":1288:1289  i */\n  dup3\n    /* \"contracts/Wallet/ManageOwner.sol\":1280:1290  _owners[i] */\n  dup2\n  mload\n  dup2\n  lt\n  tag_24\n  jumpi\n  tag_25\n  tag_26\n  jump\t// in\ntag_25:\ntag_24:\n  0x20\n  mul\n  0x20\n  add\n  add\n  mload\n    /* \"contracts/Wallet/ManageOwner.sol\":1264:1290  address owner = _owners[i] */\n  swap1\n  pop\n    /* \"contracts/Wallet/ManageOwner.sol\":1405:1406  0 */\n  0x00\n    /* \"contracts/Wallet/ManageOwner.sol\":1388:1407  owner != address(0) */\n  0xffffffffffffffffffffffffffffffffffffffff\n  and\n    /* \"contracts/Wallet/ManageOwner.sol\":1388:1393  owner */\n  dup2\n    /* \"contracts/Wallet/ManageOwner.sol\":1388:1407  owner != address(0) */\n  0xffffffffffffffffffffffffffffffffffffffff\n  and\n  eq\n  iszero\n    /* \"contracts/Wallet/ManageOwner.sol\":1388:1433  owner != address(0) && owner != address(this) */\n  dup1\n  iszero\n  tag_27\n  jumpi\n  pop\n    /* \"contracts/Wallet/ManageOwner.sol\":1428:1432  this */\n  address\n    /* \"contracts/Wallet/ManageOwner.sol\":1411:1433  owner != address(this) */\n  0xffffffffffffffffffffffffffffffffffffffff\n  and\n    /* \"contracts/Wallet/ManageOwner.sol\":1411:1416  owner */\n  dup2\n    /* \"contracts/Wallet/ManageOwner.sol\":1411:1433  owner != address(this) */\n  0xffffffffffffffffffffffffffffffffffffffff\n  and\n  eq\n  iszero\n    /* \"contracts/Wallet/ManageOwner.sol\":1388:1433  owner != address(0) && owner != address(this) */\ntag_27:\n    /* \"contracts/Wallet/ManageOwner.sol\":1388:1455  owner != address(0) && owner != address(this) && !ownerExist(owner) */\n  dup1\n  iszero\n  tag_28\n  jumpi\n  pop\n    /* \"contracts/Wallet/ManageOwner.sol\":1438:1455  ownerExist(owner) */\n  tag_29\n    /* \"contracts/Wallet/ManageOwner.sol\":1449:1454  owner */\n  dup2\n    /* \"contracts/Wallet/ManageOwner.sol\":1438:1448  ownerExist */\n  shl(0x20, tag_30)\n    /* \"contracts/Wallet/ManageOwner.sol\":1438:1455  ownerExist(owner) */\n  0x20\n  shr\n  jump\t// in\ntag_29:\n    /* \"contracts/Wallet/ManageOwner.sol\":1437:1455  !ownerExist(owner) */\n  iszero\n    /* \"contracts/Wallet/ManageOwner.sol\":1388:1455  owner != address(0) && owner != address(this) && !ownerExist(owner) */\ntag_28:\n    /* \"contracts/Wallet/ManageOwner.sol\":1380:1466  require(owner != address(0) && owner != address(this) && !ownerExist(owner),\"error04\") */\n  tag_31\n  jumpi\n  mload(0x40)\n  0x08c379a000000000000000000000000000000000000000000000000000000000\n  dup2\n  mstore\n  0x04\n  add\n  tag_32\n  swap1\n  tag_33\n  jump\t// in\ntag_32:\n  mload(0x40)\n  dup1\n  swap2\n  sub\n  swap1\n  revert\ntag_31:\n    /* \"contracts/Wallet/ManageOwner.sol\":1481:1496  addowner(owner) */\n  tag_34\n    /* \"contracts/Wallet/ManageOwner.sol\":1490:1495  owner */\n  dup2\n    /* \"contracts/Wallet/ManageOwner.sol\":1481:1489  addowner */\n  shl(0x20, tag_35)\n    /* \"contracts/Wallet/ManageOwner.sol\":1481:1496  addowner(owner) */\n  0x20\n  shr\n  jump\t// in\ntag_34:\n    /* \"contracts/Wallet/ManageOwner.sol\":1249:1508  {... */\n  pop\n    /* \"contracts/Wallet/ManageOwner.sol\":1235:1238  i++ */\n  dup1\n  dup1\n  tag_36\n  swap1\n  tag_37\n  jump\t// in\ntag_36:\n  swap2\n  pop\n  pop\n    /* \"contracts/Wallet/ManageOwner.sol\":1203:1508  for (uint i=0; i<_owners.length;i++)... */\n  jump(tag_21)\ntag_22:\n  pop\n    /* \"contracts/Wallet/ManageOwner.sol\":1561:1571  _threshold */\n  dup1\n    /* \"contracts/Wallet/ManageOwner.sol\":1549:1558  threshold */\n  0x01\n    /* \"contracts/Wallet/ManageOwner.sol\":1549:1571  threshold = _threshold */\n  dup2\n  swap1\n  sstore\n  pop\n    /* \"contracts/Wallet/ManageOwner.sol\":1595:1602  _owners */\n  dup2\n    /* \"contracts/Wallet/ManageOwner.sol\":1595:1609  _owners.length */\n  mload\n    /* \"contracts/Wallet/ManageOwner.sol\":1582:1592  owners_num */\n  0x00\n    /* \"contracts/Wallet/ManageOwner.sol\":1582:1609  owners_num = _owners.length */\n  dup2\n  swap1\n  sstore\n  pop\n    /* \"contracts/Wallet/ManageOwner.sol\":798:1617  function _initialwallet(address[] memory _owners,uint256 _threshold)internal {... */\n  pop\n  pop\n  jump\t// out\n    /* \"contracts/Wallet/ManageOwner.sol\":5713:5866  function ownerExist(address _owner)public view returns (bool){... */\ntag_30:\n    /* \"contracts/Wallet/ManageOwner.sol\":5769:5773  bool */\n  0x00\n    /* \"contracts/Wallet/ManageOwner.sol\":734:735  0 */\n  dup1\n    /* \"contracts/Wallet/ManageOwner.sol\":5793:5822  owners[_owner][_PRE] != _NULL */\n  0xffffffffffffffffffffffffffffffffffffffff\n  and\n    /* \"contracts/Wallet/ManageOwner.sol\":5793:5799  owners */\n  0x02\n    /* \"contracts/Wallet/ManageOwner.sol\":5793:5807  owners[_owner] */\n  0x00\n    /* \"contracts/Wallet/ManageOwner.sol\":5800:5806  _owner */\n  dup5\n    /* \"contracts/Wallet/ManageOwner.sol\":5793:5807  owners[_owner] */\n  0xffffffffffffffffffffffffffffffffffffffff\n  and\n  0xffffffffffffffffffffffffffffffffffffffff\n  and\n  dup2\n  mstore\n  0x20\n  add\n  swap1\n  dup2\n  mstore\n  0x20\n  add\n  0x00\n  keccak256\n    /* \"contracts/Wallet/ManageOwner.sol\":5793:5813  owners[_owner][_PRE] */\n  0x00\n    /* \"contracts/Wallet/ManageOwner.sol\":593:598  false */\n  dup1\n    /* \"contracts/Wallet/ManageOwner.sol\":5793:5813  owners[_owner][_PRE] */\n  iszero\n  iszero\n  iszero\n  iszero\n  dup2\n  mstore\n  0x20\n  add\n  swap1\n  dup2\n  mstore\n  0x20\n  add\n  0x00\n  keccak256\n  0x00\n  swap1\n  sload\n  swap1\n  0x0100\n  exp\n  swap1\n  div\n  0xffffffffffffffffffffffffffffffffffffffff\n  and\n    /* \"contracts/Wallet/ManageOwner.sol\":5793:5822  owners[_owner][_PRE] != _NULL */\n  0xffffffffffffffffffffffffffffffffffffffff\n  and\n  eq\n  iszero\n    /* \"contracts/Wallet/ManageOwner.sol\":5793:5856  owners[_owner][_PRE] != _NULL || owners[_owner][_NEXT] != _NULL */\n  dup1\n  tag_39\n  jumpi\n  pop\n    /* \"contracts/Wallet/ManageOwner.sol\":734:735  0 */\n  0x00\n    /* \"contracts/Wallet/ManageOwner.sol\":5826:5856  owners[_owner][_NEXT] != _NULL */\n  0xffffffffffffffffffffffffffffffffffffffff\n  and\n    /* \"contracts/Wallet/ManageOwner.sol\":5826:5832  owners */\n  0x02\n    /* \"contracts/Wallet/ManageOwner.sol\":5826:5840  owners[_owner] */\n  0x00\n    /* \"contracts/Wallet/ManageOwner.sol\":5833:5839  _owner */\n  dup5\n    /* \"contracts/Wallet/ManageOwner.sol\":5826:5840  owners[_owner] */\n  0xffffffffffffffffffffffffffffffffffffffff\n  and\n  0xffffffffffffffffffffffffffffffffffffffff\n  and\n  dup2\n  mstore\n  0x20\n  add\n  swap1\n  dup2\n  mstore\n  0x20\n  add\n  0x00\n  keccak256\n    /* \"contracts/Wallet/ManageOwner.sol\":5826:5847  owners[_owner][_NEXT] */\n  0x00\n    /* \"contracts/Wallet/ManageOwner.sol\":636:640  true */\n  0x01\n    /* \"contracts/Wallet/ManageOwner.sol\":5826:5847  owners[_owner][_NEXT] */\n  iszero\n  iszero\n  iszero\n  iszero\n  dup2\n  mstore\n  0x20\n  add\n  swap1\n  dup2\n  mstore\n  0x20\n  add\n  0x00\n  keccak256\n  0x00\n  swap1\n  sload\n  swap1\n  0x0100\n  exp\n  swap1\n  div\n  0xffffffffffffffffffffffffffffffffffffffff\n  and\n    /* \"contracts/Wallet/ManageOwner.sol\":5826:5856  owners[_owner][_NEXT] != _NULL */\n  0xffffffffffffffffffffffffffffffffffffffff\n  and\n  eq\n  iszero\n    /* \"contracts/Wallet/ManageOwner.sol\":5793:5856  owners[_owner][_PRE] != _NULL || owners[_owner][_NEXT] != _NULL */\ntag_39:\n    /* \"contracts/Wallet/ManageOwner.sol\":5785:5857  return (owners[_owner][_PRE] != _NULL || owners[_owner][_NEXT] != _NULL) */\n  swap1\n  pop\n    /* \"contracts/Wallet/ManageOwner.sol\":5713:5866  function ownerExist(address _owner)public view returns (bool){... */\n  swap2\n  swap1\n  pop\n  jump\t// out\n    /* \"contracts/Wallet/ManageOwner.sol\":3846:5060  function addowner(address owner)private {... */\ntag_35:\n    /* \"contracts/Wallet/ManageOwner.sol\":3922:3923  0 */\n  0x00\n    /* \"contracts/Wallet/ManageOwner.sol\":3905:3924  owner != address(0) */\n  0xffffffffffffffffffffffffffffffffffffffff\n  and\n    /* \"contracts/Wallet/ManageOwner.sol\":3905:3910  owner */\n  dup2\n    /* \"contracts/Wallet/ManageOwner.sol\":3905:3924  owner != address(0) */\n  0xffffffffffffffffffffffffffffffffffffffff\n  and\n  eq\n  iszero\n    /* \"contracts/Wallet/ManageOwner.sol\":3905:3950  owner != address(0) && owner != address(this) */\n  dup1\n  iszero\n  tag_41\n  jumpi\n  pop\n    /* \"contracts/Wallet/ManageOwner.sol\":3945:3949  this */\n  address\n    /* \"contracts/Wallet/ManageOwner.sol\":3928:3950  owner != address(this) */\n  0xffffffffffffffffffffffffffffffffffffffff\n  and\n    /* \"contracts/Wallet/ManageOwner.sol\":3928:3933  owner */\n  dup2\n    /* \"contracts/Wallet/ManageOwner.sol\":3928:3950  owner != address(this) */\n  0xffffffffffffffffffffffffffffffffffffffff\n  and\n  eq\n  iszero\n    /* \"contracts/Wallet/ManageOwner.sol\":3905:3950  owner != address(0) && owner != address(this) */\ntag_41:\n    /* \"contracts/Wallet/ManageOwner.sol\":3905:3972  owner != address(0) && owner != address(this) && !ownerExist(owner) */\n  dup1\n  iszero\n  tag_42\n  jumpi\n  pop\n    /* \"contracts/Wallet/ManageOwner.sol\":3955:3972  ownerExist(owner) */\n  tag_43\n    /* \"contracts/Wallet/ManageOwner.sol\":3966:3971  owner */\n  dup2\n    /* \"contracts/Wallet/ManageOwner.sol\":3955:3965  ownerExist */\n  shl(0x20, tag_30)\n    /* \"contracts/Wallet/ManageOwner.sol\":3955:3972  ownerExist(owner) */\n  0x20\n  shr\n  jump\t// in\ntag_43:\n    /* \"contracts/Wallet/ManageOwner.sol\":3954:3972  !ownerExist(owner) */\n  iszero\n    /* \"contracts/Wallet/ManageOwner.sol\":3905:3972  owner != address(0) && owner != address(this) && !ownerExist(owner) */\ntag_42:\n    /* \"contracts/Wallet/ManageOwner.sol\":3897:3983  require(owner != address(0) && owner != address(this) && !ownerExist(owner),\"error04\") */\n  tag_44\n  jumpi\n  mload(0x40)\n  0x08c379a000000000000000000000000000000000000000000000000000000000\n  dup2\n  mstore\n  0x04\n  add\n  tag_45\n  swap1\n  tag_33\n  jump\t// in\ntag_45:\n  mload(0x40)\n  dup1\n  swap2\n  sub\n  swap1\n  revert\ntag_44:\n    /* \"contracts/Wallet/ManageOwner.sol\":3994:4014  address currentowner */\n  0x00\n    /* \"contracts/Wallet/ManageOwner.sol\":785:788  0x1 */\n  0x01\n    /* \"contracts/Wallet/ManageOwner.sol\":3994:4022  address currentowner = _HEAD */\n  swap1\n  pop\n    /* \"contracts/Wallet/ManageOwner.sol\":4033:4050  address nextowner */\n  0x00\n    /* \"contracts/Wallet/ManageOwner.sol\":4076:4107  getAdjacent(currentowner,_NEXT) */\n  tag_46\n    /* \"contracts/Wallet/ManageOwner.sol\":4088:4100  currentowner */\n  dup3\n    /* \"contracts/Wallet/ManageOwner.sol\":636:640  true */\n  0x01\n    /* \"contracts/Wallet/ManageOwner.sol\":4076:4087  getAdjacent */\n  shl(0x20, tag_47)\n    /* \"contracts/Wallet/ManageOwner.sol\":4076:4107  getAdjacent(currentowner,_NEXT) */\n  0x20\n  shr\n  jump\t// in\ntag_46:\n    /* \"contracts/Wallet/ManageOwner.sol\":4061:4107  (,nextowner) = getAdjacent(currentowner,_NEXT) */\n  swap1\n  pop\n  dup1\n  swap2\n  pop\n  pop\n    /* \"contracts/Wallet/ManageOwner.sol\":4161:4896  while (nextowner != _NULL){... */\ntag_48:\n    /* \"contracts/Wallet/ManageOwner.sol\":734:735  0 */\n  0x00\n    /* \"contracts/Wallet/ManageOwner.sol\":4168:4186  nextowner != _NULL */\n  0xffffffffffffffffffffffffffffffffffffffff\n  and\n    /* \"contracts/Wallet/ManageOwner.sol\":4168:4177  nextowner */\n  dup2\n    /* \"contracts/Wallet/ManageOwner.sol\":4168:4186  nextowner != _NULL */\n  0xffffffffffffffffffffffffffffffffffffffff\n  and\n  eq\n    /* \"contracts/Wallet/ManageOwner.sol\":4161:4896  while (nextowner != _NULL){... */\n  tag_49\n  jumpi\n    /* \"contracts/Wallet/ManageOwner.sol\":4261:4266  owner */\n  dup3\n    /* \"contracts/Wallet/ManageOwner.sol\":4249:4266  nextowner > owner */\n  0xffffffffffffffffffffffffffffffffffffffff\n  and\n    /* \"contracts/Wallet/ManageOwner.sol\":4249:4258  nextowner */\n  dup2\n    /* \"contracts/Wallet/ManageOwner.sol\":4249:4266  nextowner > owner */\n  0xffffffffffffffffffffffffffffffffffffffff\n  and\n  gt\n    /* \"contracts/Wallet/ManageOwner.sol\":4249:4290  nextowner > owner && currentowner < owner */\n  dup1\n  iszero\n  tag_50\n  jumpi\n  pop\n    /* \"contracts/Wallet/ManageOwner.sol\":4285:4290  owner */\n  dup3\n    /* \"contracts/Wallet/ManageOwner.sol\":4270:4290  currentowner < owner */\n  0xffffffffffffffffffffffffffffffffffffffff\n  and\n    /* \"contracts/Wallet/ManageOwner.sol\":4270:4282  currentowner */\n  dup3\n    /* \"contracts/Wallet/ManageOwner.sol\":4270:4290  currentowner < owner */\n  0xffffffffffffffffffffffffffffffffffffffff\n  and\n  lt\n    /* \"contracts/Wallet/ManageOwner.sol\":4249:4290  nextowner > owner && currentowner < owner */\ntag_50:\n    /* \"contracts/Wallet/ManageOwner.sol\":4245:4881  if (nextowner > owner && currentowner < owner){... */\n  iszero\n  tag_51\n  jumpi\n    /* \"contracts/Wallet/ManageOwner.sol\":4314:4349  _insert(currentowner, owner, _NEXT) */\n  tag_52\n    /* \"contracts/Wallet/ManageOwner.sol\":4322:4334  currentowner */\n  dup3\n    /* \"contracts/Wallet/ManageOwner.sol\":4336:4341  owner */\n  dup5\n    /* \"contracts/Wallet/ManageOwner.sol\":636:640  true */\n  0x01\n    /* \"contracts/Wallet/ManageOwner.sol\":4314:4321  _insert */\n  shl(0x20, tag_53)\n    /* \"contracts/Wallet/ManageOwner.sol\":4314:4349  _insert(currentowner, owner, _NEXT) */\n  0x20\n  shr\n  jump\t// in\ntag_52:\n    /* \"contracts/Wallet/ManageOwner.sol\":4372:4377  break */\n  jump(tag_49)\n    /* \"contracts/Wallet/ManageOwner.sol\":4245:4881  if (nextowner > owner && currentowner < owner){... */\ntag_51:\n    /* \"contracts/Wallet/ManageOwner.sol\":4496:4501  owner */\n  dup3\n    /* \"contracts/Wallet/ManageOwner.sol\":4484:4501  nextowner > owner */\n  0xffffffffffffffffffffffffffffffffffffffff\n  and\n    /* \"contracts/Wallet/ManageOwner.sol\":4484:4493  nextowner */\n  dup2\n    /* \"contracts/Wallet/ManageOwner.sol\":4484:4501  nextowner > owner */\n  0xffffffffffffffffffffffffffffffffffffffff\n  and\n  gt\n    /* \"contracts/Wallet/ManageOwner.sol\":4480:4862  if (nextowner > owner){... */\n  iszero\n  tag_55\n  jumpi\n    /* \"contracts/Wallet/ManageOwner.sol\":4541:4553  currentowner */\n  dup2\n    /* \"contracts/Wallet/ManageOwner.sol\":4529:4553  nextowner = currentowner */\n  swap1\n  pop\n    /* \"contracts/Wallet/ManageOwner.sol\":4598:4629  getAdjacent(currentowner, _PRE) */\n  tag_56\n    /* \"contracts/Wallet/ManageOwner.sol\":4610:4622  currentowner */\n  dup3\n    /* \"contracts/Wallet/ManageOwner.sol\":593:598  false */\n  0x00\n    /* \"contracts/Wallet/ManageOwner.sol\":4598:4609  getAdjacent */\n  shl(0x20, tag_47)\n    /* \"contracts/Wallet/ManageOwner.sol\":4598:4629  getAdjacent(currentowner, _PRE) */\n  0x20\n  shr\n  jump\t// in\ntag_56:\n    /* \"contracts/Wallet/ManageOwner.sol\":4580:4629  (,currentowner) = getAdjacent(currentowner, _PRE) */\n  swap1\n  pop\n  dup1\n  swap3\n  pop\n  pop\n    /* \"contracts/Wallet/ManageOwner.sol\":4480:4862  if (nextowner > owner){... */\n  jump(tag_57)\ntag_55:\n    /* \"contracts/Wallet/ManageOwner.sol\":4758:4767  nextowner */\n  dup1\n    /* \"contracts/Wallet/ManageOwner.sol\":4743:4767  currentowner = nextowner */\n  swap2\n  pop\n    /* \"contracts/Wallet/ManageOwner.sol\":4809:4838  getAdjacent(nextowner, _NEXT) */\n  tag_58\n    /* \"contracts/Wallet/ManageOwner.sol\":4821:4830  nextowner */\n  dup2\n    /* \"contracts/Wallet/ManageOwner.sol\":636:640  true */\n  0x01\n    /* \"contracts/Wallet/ManageOwner.sol\":4809:4820  getAdjacent */\n  shl(0x20, tag_47)\n    /* \"contracts/Wallet/ManageOwner.sol\":4809:4838  getAdjacent(nextowner, _NEXT) */\n  0x20\n  shr\n  jump\t// in\ntag_58:\n    /* \"contracts/Wallet/ManageOwner.sol\":4794:4838  (,nextowner) = getAdjacent(nextowner, _NEXT) */\n  swap1\n  pop\n  dup1\n  swap2\n  pop\n  pop\n    /* \"contracts/Wallet/ManageOwner.sol\":4480:4862  if (nextowner > owner){... */\ntag_57:\n    /* \"contracts/Wallet/ManageOwner.sol\":4161:4896  while (nextowner != _NULL){... */\n  jump(tag_48)\ntag_49:\n    /* \"contracts/Wallet/ManageOwner.sol\":734:735  0 */\n  0x00\n    /* \"contracts/Wallet/ManageOwner.sol\":4974:4992  nextowner == _NULL */\n  0xffffffffffffffffffffffffffffffffffffffff\n  and\n    /* \"contracts/Wallet/ManageOwner.sol\":4974:4983  nextowner */\n  dup2\n    /* \"contracts/Wallet/ManageOwner.sol\":4974:4992  nextowner == _NULL */\n  0xffffffffffffffffffffffffffffffffffffffff\n  and\n  sub\n    /* \"contracts/Wallet/ManageOwner.sol\":4970:5029  if (nextowner == _NULL) _insert(currentowner, owner, _NEXT) */\n  tag_59\n  jumpi\n    /* \"contracts/Wallet/ManageOwner.sol\":4994:5029  _insert(currentowner, owner, _NEXT) */\n  tag_60\n    /* \"contracts/Wallet/ManageOwner.sol\":5002:5014  currentowner */\n  dup3\n    /* \"contracts/Wallet/ManageOwner.sol\":5016:5021  owner */\n  dup5\n    /* \"contracts/Wallet/ManageOwner.sol\":636:640  true */\n  0x01\n    /* \"contracts/Wallet/ManageOwner.sol\":4994:5001  _insert */\n  shl(0x20, tag_53)\n    /* \"contracts/Wallet/ManageOwner.sol\":4994:5029  _insert(currentowner, owner, _NEXT) */\n  0x20\n  shr\n  jump\t// in\ntag_60:\n    /* \"contracts/Wallet/ManageOwner.sol\":4970:5029  if (nextowner == _NULL) _insert(currentowner, owner, _NEXT) */\ntag_59:\n    /* \"contracts/Wallet/ManageOwner.sol\":5040:5050  owners_num */\n  0x00\n  dup1\n    /* \"contracts/Wallet/ManageOwner.sol\":5040:5052  owners_num++ */\n  dup2\n  sload\n  dup1\n  swap3\n  swap2\n  swap1\n  tag_61\n  swap1\n  tag_37\n  jump\t// in\ntag_61:\n  swap2\n  swap1\n  pop\n  sstore\n  pop\n    /* \"contracts/Wallet/ManageOwner.sol\":3886:5060  {... */\n  pop\n  pop\n    /* \"contracts/Wallet/ManageOwner.sol\":3846:5060  function addowner(address owner)private {... */\n  pop\n  jump\t// out\n    /* \"contracts/Wallet/ManageOwner.sol\":6132:6383  function getAdjacent(address owner, bool _direction)public view returns (bool, address) {... */\ntag_47:\n    /* \"contracts/Wallet/ManageOwner.sol\":6205:6209  bool */\n  0x00\n    /* \"contracts/Wallet/ManageOwner.sol\":6211:6218  address */\n  dup1\n    /* \"contracts/Wallet/ManageOwner.sol\":6236:6253  ownerExist(owner) */\n  tag_63\n    /* \"contracts/Wallet/ManageOwner.sol\":6247:6252  owner */\n  dup5\n    /* \"contracts/Wallet/ManageOwner.sol\":6236:6246  ownerExist */\n  shl(0x20, tag_30)\n    /* \"contracts/Wallet/ManageOwner.sol\":6236:6253  ownerExist(owner) */\n  0x20\n  shr\n  jump\t// in\ntag_63:\n    /* \"contracts/Wallet/ManageOwner.sol\":6231:6376  if (!ownerExist(owner)) {... */\n  tag_64\n  jumpi\n    /* \"contracts/Wallet/ManageOwner.sol\":6278:6283  false */\n  0x00\n    /* \"contracts/Wallet/ManageOwner.sol\":734:735  0 */\n  dup1\n    /* \"contracts/Wallet/ManageOwner.sol\":6270:6291  return (false, _NULL) */\n  swap2\n  pop\n  swap2\n  pop\n  jump(tag_62)\n    /* \"contracts/Wallet/ManageOwner.sol\":6231:6376  if (!ownerExist(owner)) {... */\ntag_64:\n    /* \"contracts/Wallet/ManageOwner.sol\":6332:6336  true */\n  0x01\n    /* \"contracts/Wallet/ManageOwner.sol\":6338:6344  owners */\n  0x02\n    /* \"contracts/Wallet/ManageOwner.sol\":6338:6351  owners[owner] */\n  0x00\n    /* \"contracts/Wallet/ManageOwner.sol\":6345:6350  owner */\n  dup7\n    /* \"contracts/Wallet/ManageOwner.sol\":6338:6351  owners[owner] */\n  0xffffffffffffffffffffffffffffffffffffffff\n  and\n  0xffffffffffffffffffffffffffffffffffffffff\n  and\n  dup2\n  mstore\n  0x20\n  add\n  swap1\n  dup2\n  mstore\n  0x20\n  add\n  0x00\n  keccak256\n    /* \"contracts/Wallet/ManageOwner.sol\":6338:6363  owners[owner][_direction] */\n  0x00\n    /* \"contracts/Wallet/ManageOwner.sol\":6352:6362  _direction */\n  dup6\n    /* \"contracts/Wallet/ManageOwner.sol\":6338:6363  owners[owner][_direction] */\n  iszero\n  iszero\n  iszero\n  iszero\n  dup2\n  mstore\n  0x20\n  add\n  swap1\n  dup2\n  mstore\n  0x20\n  add\n  0x00\n  keccak256\n  0x00\n  swap1\n  sload\n  swap1\n  0x0100\n  exp\n  swap1\n  div\n  0xffffffffffffffffffffffffffffffffffffffff\n  and\n    /* \"contracts/Wallet/ManageOwner.sol\":6324:6364  return (true, owners[owner][_direction]) */\n  swap2\n  pop\n  swap2\n  pop\n    /* \"contracts/Wallet/ManageOwner.sol\":6132:6383  function getAdjacent(address owner, bool _direction)public view returns (bool, address) {... */\ntag_62:\n  swap3\n  pop\n  swap3\n  swap1\n  pop\n  jump\t// out\n    /* \"contracts/Wallet/ManageOwner.sol\":5424:5662  function _insert( address _owner, address _newowner, bool _direction)internal {... */\ntag_53:\n    /* \"contracts/Wallet/ManageOwner.sol\":5513:5522  address c */\n  0x00\n    /* \"contracts/Wallet/ManageOwner.sol\":5525:5531  owners */\n  0x02\n    /* \"contracts/Wallet/ManageOwner.sol\":5525:5539  owners[_owner] */\n  0x00\n    /* \"contracts/Wallet/ManageOwner.sol\":5532:5538  _owner */\n  dup6\n    /* \"contracts/Wallet/ManageOwner.sol\":5525:5539  owners[_owner] */\n  0xffffffffffffffffffffffffffffffffffffffff\n  and\n  0xffffffffffffffffffffffffffffffffffffffff\n  and\n  dup2\n  mstore\n  0x20\n  add\n  swap1\n  dup2\n  mstore\n  0x20\n  add\n  0x00\n  keccak256\n    /* \"contracts/Wallet/ManageOwner.sol\":5525:5551  owners[_owner][_direction] */\n  0x00\n    /* \"contracts/Wallet/ManageOwner.sol\":5540:5550  _direction */\n  dup4\n    /* \"contracts/Wallet/ManageOwner.sol\":5525:5551  owners[_owner][_direction] */\n  iszero\n  iszero\n  iszero\n  iszero\n  dup2\n  mstore\n  0x20\n  add\n  swap1\n  dup2\n  mstore\n  0x20\n  add\n  0x00\n  keccak256\n  0x00\n  swap1\n  sload\n  swap1\n  0x0100\n  exp\n  swap1\n  div\n  0xffffffffffffffffffffffffffffffffffffffff\n  and\n    /* \"contracts/Wallet/ManageOwner.sol\":5513:5551  address c = owners[_owner][_direction] */\n  swap1\n  pop\n    /* \"contracts/Wallet/ManageOwner.sol\":5562:5604  _createLink(_owner, _newowner, _direction) */\n  tag_67\n    /* \"contracts/Wallet/ManageOwner.sol\":5574:5580  _owner */\n  dup5\n    /* \"contracts/Wallet/ManageOwner.sol\":5582:5591  _newowner */\n  dup5\n    /* \"contracts/Wallet/ManageOwner.sol\":5593:5603  _direction */\n  dup5\n    /* \"contracts/Wallet/ManageOwner.sol\":5562:5573  _createLink */\n  shl(0x20, tag_68)\n    /* \"contracts/Wallet/ManageOwner.sol\":5562:5604  _createLink(_owner, _newowner, _direction) */\n  0x20\n  shr\n  jump\t// in\ntag_67:\n    /* \"contracts/Wallet/ManageOwner.sol\":5615:5652  _createLink(_newowner, c, _direction) */\n  tag_69\n    /* \"contracts/Wallet/ManageOwner.sol\":5627:5636  _newowner */\n  dup4\n    /* \"contracts/Wallet/ManageOwner.sol\":5638:5639  c */\n  dup3\n    /* \"contracts/Wallet/ManageOwner.sol\":5641:5651  _direction */\n  dup5\n    /* \"contracts/Wallet/ManageOwner.sol\":5615:5626  _createLink */\n  shl(0x20, tag_68)\n    /* \"contracts/Wallet/ManageOwner.sol\":5615:5652  _createLink(_newowner, c, _direction) */\n  0x20\n  shr\n  jump\t// in\ntag_69:\n    /* \"contracts/Wallet/ManageOwner.sol\":5502:5662  {... */\n  pop\n    /* \"contracts/Wallet/ManageOwner.sol\":5424:5662  function _insert( address _owner, address _newowner, bool _direction)internal {... */\n  pop\n  pop\n  pop\n  jump\t// out\n    /* \"contracts/Wallet/ManageOwner.sol\":5896:6096  function _createLink(address _preowner, address _nextowner, bool _direction)internal {... */\ntag_68:\n    /* \"contracts/Wallet/ManageOwner.sol\":6026:6035  _preowner */\n  dup3\n    /* \"contracts/Wallet/ManageOwner.sol\":5992:5998  owners */\n  0x02\n    /* \"contracts/Wallet/ManageOwner.sol\":5992:6010  owners[_nextowner] */\n  0x00\n    /* \"contracts/Wallet/ManageOwner.sol\":5999:6009  _nextowner */\n  dup5\n    /* \"contracts/Wallet/ManageOwner.sol\":5992:6010  owners[_nextowner] */\n  0xffffffffffffffffffffffffffffffffffffffff\n  and\n  0xffffffffffffffffffffffffffffffffffffffff\n  and\n  dup2\n  mstore\n  0x20\n  add\n  swap1\n  dup2\n  mstore\n  0x20\n  add\n  0x00\n  keccak256\n    /* \"contracts/Wallet/ManageOwner.sol\":5992:6023  owners[_nextowner][!_direction] */\n  0x00\n    /* \"contracts/Wallet/ManageOwner.sol\":6012:6022  _direction */\n  dup4\n    /* \"contracts/Wallet/ManageOwner.sol\":6011:6022  !_direction */\n  iszero\n    /* \"contracts/Wallet/ManageOwner.sol\":5992:6023  owners[_nextowner][!_direction] */\n  iszero\n  iszero\n  iszero\n  iszero\n  dup2\n  mstore\n  0x20\n  add\n  swap1\n  dup2\n  mstore\n  0x20\n  add\n  0x00\n  keccak256\n  0x00\n    /* \"contracts/Wallet/ManageOwner.sol\":5992:6035  owners[_nextowner][!_direction] = _preowner */\n  0x0100\n  exp\n  dup2\n  sload\n  dup2\n  0xffffffffffffffffffffffffffffffffffffffff\n  mul\n  not\n  and\n  swap1\n  dup4\n  0xffffffffffffffffffffffffffffffffffffffff\n  and\n  mul\n  or\n  swap1\n  sstore\n  pop\n    /* \"contracts/Wallet/ManageOwner.sol\":6078:6088  _nextowner */\n  dup2\n    /* \"contracts/Wallet/ManageOwner.sol\":6046:6052  owners */\n  0x02\n    /* \"contracts/Wallet/ManageOwner.sol\":6046:6063  owners[_preowner] */\n  0x00\n    /* \"contracts/Wallet/ManageOwner.sol\":6053:6062  _preowner */\n  dup6\n    /* \"contracts/Wallet/ManageOwner.sol\":6046:6063  owners[_preowner] */\n  0xffffffffffffffffffffffffffffffffffffffff\n  and\n  0xffffffffffffffffffffffffffffffffffffffff\n  and\n  dup2\n  mstore\n  0x20\n  add\n  swap1\n  dup2\n  mstore\n  0x20\n  add\n  0x00\n  keccak256\n    /* \"contracts/Wallet/ManageOwner.sol\":6046:6075  owners[_preowner][_direction] */\n  0x00\n    /* \"contracts/Wallet/ManageOwner.sol\":6064:6074  _direction */\n  dup4\n    /* \"contracts/Wallet/ManageOwner.sol\":6046:6075  owners[_preowner][_direction] */\n  iszero\n  iszero\n  iszero\n  iszero\n  dup2\n  mstore\n  0x20\n  add\n  swap1\n  dup2\n  mstore\n  0x20\n  add\n  0x00\n  keccak256\n  0x00\n    /* \"contracts/Wallet/ManageOwner.sol\":6046:6088  owners[_preowner][_direction] = _nextowner */\n  0x0100\n  exp\n  dup2\n  sload\n  dup2\n  0xffffffffffffffffffffffffffffffffffffffff\n  mul\n  not\n  and\n  swap1\n  dup4\n  0xffffffffffffffffffffffffffffffffffffffff\n  and\n  mul\n  or\n  swap1\n  sstore\n  pop\n    /* \"contracts/Wallet/ManageOwner.sol\":5896:6096  function _createLink(address _preowner, address _nextowner, bool _direction)internal {... */\n  pop\n  pop\n  pop\n  jump\t// out\n    /* \"#utility.yul\":7:82   */\ntag_71:\n    /* \"#utility.yul\":40:46   */\n  0x00\n    /* \"#utility.yul\":73:75   */\n  0x40\n    /* \"#utility.yul\":67:76   */\n  mload\n    /* \"#utility.yul\":57:76   */\n  swap1\n  pop\n    /* \"#utility.yul\":7:82   */\n  swap1\n  jump\t// out\n    /* \"#utility.yul\":88:205   */\ntag_72:\n    /* \"#utility.yul\":197:198   */\n  0x00\n    /* \"#utility.yul\":194:195   */\n  dup1\n    /* \"#utility.yul\":187:199   */\n  revert\n    /* \"#utility.yul\":211:328   */\ntag_73:\n    /* \"#utility.yul\":320:321   */\n  0x00\n    /* \"#utility.yul\":317:318   */\n  dup1\n    /* \"#utility.yul\":310:322   */\n  revert\n    /* \"#utility.yul\":334:451   */\ntag_74:\n    /* \"#utility.yul\":443:444   */\n  0x00\n    /* \"#utility.yul\":440:441   */\n  dup1\n    /* \"#utility.yul\":433:445   */\n  revert\n    /* \"#utility.yul\":457:559   */\ntag_75:\n    /* \"#utility.yul\":498:504   */\n  0x00\n    /* \"#utility.yul\":549:551   */\n  0x1f\n    /* \"#utility.yul\":545:552   */\n  not\n    /* \"#utility.yul\":540:542   */\n  0x1f\n    /* \"#utility.yul\":533:538   */\n  dup4\n    /* \"#utility.yul\":529:543   */\n  add\n    /* \"#utility.yul\":525:553   */\n  and\n    /* \"#utility.yul\":515:553   */\n  swap1\n  pop\n    /* \"#utility.yul\":457:559   */\n  swap2\n  swap1\n  pop\n  jump\t// out\n    /* \"#utility.yul\":565:745   */\ntag_76:\n    /* \"#utility.yul\":613:690   */\n  0x4e487b7100000000000000000000000000000000000000000000000000000000\n    /* \"#utility.yul\":610:611   */\n  0x00\n    /* \"#utility.yul\":603:691   */\n  mstore\n    /* \"#utility.yul\":710:714   */\n  0x41\n    /* \"#utility.yul\":707:708   */\n  0x04\n    /* \"#utility.yul\":700:715   */\n  mstore\n    /* \"#utility.yul\":734:738   */\n  0x24\n    /* \"#utility.yul\":731:732   */\n  0x00\n    /* \"#utility.yul\":724:739   */\n  revert\n    /* \"#utility.yul\":751:1032   */\ntag_77:\n    /* \"#utility.yul\":834:861   */\n  tag_116\n    /* \"#utility.yul\":856:860   */\n  dup3\n    /* \"#utility.yul\":834:861   */\n  tag_75\n  jump\t// in\ntag_116:\n    /* \"#utility.yul\":826:832   */\n  dup2\n    /* \"#utility.yul\":822:862   */\n  add\n    /* \"#utility.yul\":964:970   */\n  dup2\n    /* \"#utility.yul\":952:962   */\n  dup2\n    /* \"#utility.yul\":949:971   */\n  lt\n    /* \"#utility.yul\":928:946   */\n  0xffffffffffffffff\n    /* \"#utility.yul\":916:926   */\n  dup3\n    /* \"#utility.yul\":913:947   */\n  gt\n    /* \"#utility.yul\":910:972   */\n  or\n    /* \"#utility.yul\":907:995   */\n  iszero\n  tag_117\n  jumpi\n    /* \"#utility.yul\":975:993   */\n  tag_118\n  tag_76\n  jump\t// in\ntag_118:\n    /* \"#utility.yul\":907:995   */\ntag_117:\n    /* \"#utility.yul\":1015:1025   */\n  dup1\n    /* \"#utility.yul\":1011:1013   */\n  0x40\n    /* \"#utility.yul\":1004:1026   */\n  mstore\n    /* \"#utility.yul\":794:1032   */\n  pop\n    /* \"#utility.yul\":751:1032   */\n  pop\n  pop\n  jump\t// out\n    /* \"#utility.yul\":1038:1167   */\ntag_78:\n    /* \"#utility.yul\":1072:1078   */\n  0x00\n    /* \"#utility.yul\":1099:1119   */\n  tag_120\n  tag_71\n  jump\t// in\ntag_120:\n    /* \"#utility.yul\":1089:1119   */\n  swap1\n  pop\n    /* \"#utility.yul\":1128:1161   */\n  tag_121\n    /* \"#utility.yul\":1156:1160   */\n  dup3\n    /* \"#utility.yul\":1148:1154   */\n  dup3\n    /* \"#utility.yul\":1128:1161   */\n  tag_77\n  jump\t// in\ntag_121:\n    /* \"#utility.yul\":1038:1167   */\n  swap2\n  swap1\n  pop\n  jump\t// out\n    /* \"#utility.yul\":1173:1484   */\ntag_79:\n    /* \"#utility.yul\":1250:1254   */\n  0x00\n    /* \"#utility.yul\":1340:1358   */\n  0xffffffffffffffff\n    /* \"#utility.yul\":1332:1338   */\n  dup3\n    /* \"#utility.yul\":1329:1359   */\n  gt\n    /* \"#utility.yul\":1326:1382   */\n  iszero\n  tag_123\n  jumpi\n    /* \"#utility.yul\":1362:1380   */\n  tag_124\n  tag_76\n  jump\t// in\ntag_124:\n    /* \"#utility.yul\":1326:1382   */\ntag_123:\n    /* \"#utility.yul\":1412:1416   */\n  0x20\n    /* \"#utility.yul\":1404:1410   */\n  dup3\n    /* \"#utility.yul\":1400:1417   */\n  mul\n    /* \"#utility.yul\":1392:1417   */\n  swap1\n  pop\n    /* \"#utility.yul\":1472:1476   */\n  0x20\n    /* \"#utility.yul\":1466:1470   */\n  dup2\n    /* \"#utility.yul\":1462:1477   */\n  add\n    /* \"#utility.yul\":1454:1477   */\n  swap1\n  pop\n    /* \"#utility.yul\":1173:1484   */\n  swap2\n  swap1\n  pop\n  jump\t// out\n    /* \"#utility.yul\":1490:1607   */\ntag_80:\n    /* \"#utility.yul\":1599:1600   */\n  0x00\n    /* \"#utility.yul\":1596:1597   */\n  dup1\n    /* \"#utility.yul\":1589:1601   */\n  revert\n    /* \"#utility.yul\":1613:1739   */\ntag_81:\n    /* \"#utility.yul\":1650:1657   */\n  0x00\n    /* \"#utility.yul\":1690:1732   */\n  0xffffffffffffffffffffffffffffffffffffffff\n    /* \"#utility.yul\":1683:1688   */\n  dup3\n    /* \"#utility.yul\":1679:1733   */\n  and\n    /* \"#utility.yul\":1668:1733   */\n  swap1\n  pop\n    /* \"#utility.yul\":1613:1739   */\n  swap2\n  swap1\n  pop\n  jump\t// out\n    /* \"#utility.yul\":1745:1841   */\ntag_82:\n    /* \"#utility.yul\":1782:1789   */\n  0x00\n    /* \"#utility.yul\":1811:1835   */\n  tag_128\n    /* \"#utility.yul\":1829:1834   */\n  dup3\n    /* \"#utility.yul\":1811:1835   */\n  tag_81\n  jump\t// in\ntag_128:\n    /* \"#utility.yul\":1800:1835   */\n  swap1\n  pop\n    /* \"#utility.yul\":1745:1841   */\n  swap2\n  swap1\n  pop\n  jump\t// out\n    /* \"#utility.yul\":1847:1969   */\ntag_83:\n    /* \"#utility.yul\":1920:1944   */\n  tag_130\n    /* \"#utility.yul\":1938:1943   */\n  dup2\n    /* \"#utility.yul\":1920:1944   */\n  tag_82\n  jump\t// in\ntag_130:\n    /* \"#utility.yul\":1913:1918   */\n  dup2\n    /* \"#utility.yul\":1910:1945   */\n  eq\n    /* \"#utility.yul\":1900:1963   */\n  tag_131\n  jumpi\n    /* \"#utility.yul\":1959:1960   */\n  0x00\n    /* \"#utility.yul\":1956:1957   */\n  dup1\n    /* \"#utility.yul\":1949:1961   */\n  revert\n    /* \"#utility.yul\":1900:1963   */\ntag_131:\n    /* \"#utility.yul\":1847:1969   */\n  pop\n  jump\t// out\n    /* \"#utility.yul\":1975:2118   */\ntag_84:\n    /* \"#utility.yul\":2032:2037   */\n  0x00\n    /* \"#utility.yul\":2063:2069   */\n  dup2\n    /* \"#utility.yul\":2057:2070   */\n  mload\n    /* \"#utility.yul\":2048:2070   */\n  swap1\n  pop\n    /* \"#utility.yul\":2079:2112   */\n  tag_133\n    /* \"#utility.yul\":2106:2111   */\n  dup2\n    /* \"#utility.yul\":2079:2112   */\n  tag_83\n  jump\t// in\ntag_133:\n    /* \"#utility.yul\":1975:2118   */\n  swap3\n  swap2\n  pop\n  pop\n  jump\t// out\n    /* \"#utility.yul\":2141:2873   */\ntag_85:\n    /* \"#utility.yul\":2248:2253   */\n  0x00\n    /* \"#utility.yul\":2273:2354   */\n  tag_135\n    /* \"#utility.yul\":2289:2353   */\n  tag_136\n    /* \"#utility.yul\":2346:2352   */\n  dup5\n    /* \"#utility.yul\":2289:2353   */\n  tag_79\n  jump\t// in\ntag_136:\n    /* \"#utility.yul\":2273:2354   */\n  tag_78\n  jump\t// in\ntag_135:\n    /* \"#utility.yul\":2264:2354   */\n  swap1\n  pop\n    /* \"#utility.yul\":2374:2379   */\n  dup1\n    /* \"#utility.yul\":2403:2409   */\n  dup4\n    /* \"#utility.yul\":2396:2401   */\n  dup3\n    /* \"#utility.yul\":2389:2410   */\n  mstore\n    /* \"#utility.yul\":2437:2441   */\n  0x20\n    /* \"#utility.yul\":2430:2435   */\n  dup3\n    /* \"#utility.yul\":2426:2442   */\n  add\n    /* \"#utility.yul\":2419:2442   */\n  swap1\n  pop\n    /* \"#utility.yul\":2490:2494   */\n  0x20\n    /* \"#utility.yul\":2482:2488   */\n  dup5\n    /* \"#utility.yul\":2478:2495   */\n  mul\n    /* \"#utility.yul\":2470:2476   */\n  dup4\n    /* \"#utility.yul\":2466:2496   */\n  add\n    /* \"#utility.yul\":2519:2522   */\n  dup6\n    /* \"#utility.yul\":2511:2517   */\n  dup2\n    /* \"#utility.yul\":2508:2523   */\n  gt\n    /* \"#utility.yul\":2505:2627   */\n  iszero\n  tag_137\n  jumpi\n    /* \"#utility.yul\":2538:2617   */\n  tag_138\n  tag_80\n  jump\t// in\ntag_138:\n    /* \"#utility.yul\":2505:2627   */\ntag_137:\n    /* \"#utility.yul\":2653:2659   */\n  dup4\n    /* \"#utility.yul\":2636:2867   */\ntag_139:\n    /* \"#utility.yul\":2670:2676   */\n  dup2\n    /* \"#utility.yul\":2665:2668   */\n  dup2\n    /* \"#utility.yul\":2662:2677   */\n  lt\n    /* \"#utility.yul\":2636:2867   */\n  iszero\n  tag_141\n  jumpi\n    /* \"#utility.yul\":2745:2748   */\n  dup1\n    /* \"#utility.yul\":2774:2822   */\n  tag_142\n    /* \"#utility.yul\":2818:2821   */\n  dup9\n    /* \"#utility.yul\":2806:2816   */\n  dup3\n    /* \"#utility.yul\":2774:2822   */\n  tag_84\n  jump\t// in\ntag_142:\n    /* \"#utility.yul\":2769:2772   */\n  dup5\n    /* \"#utility.yul\":2762:2823   */\n  mstore\n    /* \"#utility.yul\":2852:2856   */\n  0x20\n    /* \"#utility.yul\":2847:2850   */\n  dup5\n    /* \"#utility.yul\":2843:2857   */\n  add\n    /* \"#utility.yul\":2836:2857   */\n  swap4\n  pop\n    /* \"#utility.yul\":2712:2867   */\n  pop\n    /* \"#utility.yul\":2696:2700   */\n  0x20\n    /* \"#utility.yul\":2691:2694   */\n  dup2\n    /* \"#utility.yul\":2687:2701   */\n  add\n    /* \"#utility.yul\":2680:2701   */\n  swap1\n  pop\n    /* \"#utility.yul\":2636:2867   */\n  jump(tag_139)\ntag_141:\n    /* \"#utility.yul\":2640:2661   */\n  pop\n    /* \"#utility.yul\":2254:2873   */\n  pop\n  pop\n    /* \"#utility.yul\":2141:2873   */\n  swap4\n  swap3\n  pop\n  pop\n  pop\n  jump\t// out\n    /* \"#utility.yul\":2896:3281   */\ntag_86:\n    /* \"#utility.yul\":2978:2983   */\n  0x00\n    /* \"#utility.yul\":3027:3030   */\n  dup3\n    /* \"#utility.yul\":3020:3024   */\n  0x1f\n    /* \"#utility.yul\":3012:3018   */\n  dup4\n    /* \"#utility.yul\":3008:3025   */\n  add\n    /* \"#utility.yul\":3004:3031   */\n  slt\n    /* \"#utility.yul\":2994:3116   */\n  tag_144\n  jumpi\n    /* \"#utility.yul\":3035:3114   */\n  tag_145\n  tag_74\n  jump\t// in\ntag_145:\n    /* \"#utility.yul\":2994:3116   */\ntag_144:\n    /* \"#utility.yul\":3145:3151   */\n  dup2\n    /* \"#utility.yul\":3139:3152   */\n  mload\n    /* \"#utility.yul\":3170:3275   */\n  tag_146\n    /* \"#utility.yul\":3271:3274   */\n  dup5\n    /* \"#utility.yul\":3263:3269   */\n  dup3\n    /* \"#utility.yul\":3256:3260   */\n  0x20\n    /* \"#utility.yul\":3248:3254   */\n  dup7\n    /* \"#utility.yul\":3244:3261   */\n  add\n    /* \"#utility.yul\":3170:3275   */\n  tag_85\n  jump\t// in\ntag_146:\n    /* \"#utility.yul\":3161:3275   */\n  swap2\n  pop\n    /* \"#utility.yul\":2984:3281   */\n  pop\n    /* \"#utility.yul\":2896:3281   */\n  swap3\n  swap2\n  pop\n  pop\n  jump\t// out\n    /* \"#utility.yul\":3287:3364   */\ntag_87:\n    /* \"#utility.yul\":3324:3331   */\n  0x00\n    /* \"#utility.yul\":3353:3358   */\n  dup2\n    /* \"#utility.yul\":3342:3358   */\n  swap1\n  pop\n    /* \"#utility.yul\":3287:3364   */\n  swap2\n  swap1\n  pop\n  jump\t// out\n    /* \"#utility.yul\":3370:3492   */\ntag_88:\n    /* \"#utility.yul\":3443:3467   */\n  tag_149\n    /* \"#utility.yul\":3461:3466   */\n  dup2\n    /* \"#utility.yul\":3443:3467   */\n  tag_87\n  jump\t// in\ntag_149:\n    /* \"#utility.yul\":3436:3441   */\n  dup2\n    /* \"#utility.yul\":3433:3468   */\n  eq\n    /* \"#utility.yul\":3423:3486   */\n  tag_150\n  jumpi\n    /* \"#utility.yul\":3482:3483   */\n  0x00\n    /* \"#utility.yul\":3479:3480   */\n  dup1\n    /* \"#utility.yul\":3472:3484   */\n  revert\n    /* \"#utility.yul\":3423:3486   */\ntag_150:\n    /* \"#utility.yul\":3370:3492   */\n  pop\n  jump\t// out\n    /* \"#utility.yul\":3498:3641   */\ntag_89:\n    /* \"#utility.yul\":3555:3560   */\n  0x00\n    /* \"#utility.yul\":3586:3592   */\n  dup2\n    /* \"#utility.yul\":3580:3593   */\n  mload\n    /* \"#utility.yul\":3571:3593   */\n  swap1\n  pop\n    /* \"#utility.yul\":3602:3635   */\n  tag_152\n    /* \"#utility.yul\":3629:3634   */\n  dup2\n    /* \"#utility.yul\":3602:3635   */\n  tag_88\n  jump\t// in\ntag_152:\n    /* \"#utility.yul\":3498:3641   */\n  swap3\n  swap2\n  pop\n  pop\n  jump\t// out\n    /* \"#utility.yul\":3647:4357   */\ntag_3:\n    /* \"#utility.yul\":3751:3757   */\n  0x00\n    /* \"#utility.yul\":3759:3765   */\n  dup1\n    /* \"#utility.yul\":3808:3810   */\n  0x40\n    /* \"#utility.yul\":3796:3805   */\n  dup4\n    /* \"#utility.yul\":3787:3794   */\n  dup6\n    /* \"#utility.yul\":3783:3806   */\n  sub\n    /* \"#utility.yul\":3779:3811   */\n  slt\n    /* \"#utility.yul\":3776:3895   */\n  iszero\n  tag_154\n  jumpi\n    /* \"#utility.yul\":3814:3893   */\n  tag_155\n  tag_72\n  jump\t// in\ntag_155:\n    /* \"#utility.yul\":3776:3895   */\ntag_154:\n    /* \"#utility.yul\":3955:3956   */\n  0x00\n    /* \"#utility.yul\":3944:3953   */\n  dup4\n    /* \"#utility.yul\":3940:3957   */\n  add\n    /* \"#utility.yul\":3934:3958   */\n  mload\n    /* \"#utility.yul\":3985:4003   */\n  0xffffffffffffffff\n    /* \"#utility.yul\":3977:3983   */\n  dup2\n    /* \"#utility.yul\":3974:4004   */\n  gt\n    /* \"#utility.yul\":3971:4088   */\n  iszero\n  tag_156\n  jumpi\n    /* \"#utility.yul\":4007:4086   */\n  tag_157\n  tag_73\n  jump\t// in\ntag_157:\n    /* \"#utility.yul\":3971:4088   */\ntag_156:\n    /* \"#utility.yul\":4112:4201   */\n  tag_158\n    /* \"#utility.yul\":4193:4200   */\n  dup6\n    /* \"#utility.yul\":4184:4190   */\n  dup3\n    /* \"#utility.yul\":4173:4182   */\n  dup7\n    /* \"#utility.yul\":4169:4191   */\n  add\n    /* \"#utility.yul\":4112:4201   */\n  tag_86\n  jump\t// in\ntag_158:\n    /* \"#utility.yul\":4102:4201   */\n  swap3\n  pop\n    /* \"#utility.yul\":3905:4211   */\n  pop\n    /* \"#utility.yul\":4250:4252   */\n  0x20\n    /* \"#utility.yul\":4276:4340   */\n  tag_159\n    /* \"#utility.yul\":4332:4339   */\n  dup6\n    /* \"#utility.yul\":4323:4329   */\n  dup3\n    /* \"#utility.yul\":4312:4321   */\n  dup7\n    /* \"#utility.yul\":4308:4330   */\n  add\n    /* \"#utility.yul\":4276:4340   */\n  tag_89\n  jump\t// in\ntag_159:\n    /* \"#utility.yul\":4266:4340   */\n  swap2\n  pop\n    /* \"#utility.yul\":4221:4350   */\n  pop\n    /* \"#utility.yul\":3647:4357   */\n  swap3\n  pop\n  swap3\n  swap1\n  pop\n  jump\t// out\n    /* \"#utility.yul\":4363:4477   */\ntag_90:\n    /* \"#utility.yul\":4430:4436   */\n  0x00\n    /* \"#utility.yul\":4464:4469   */\n  dup2\n    /* \"#utility.yul\":4458:4470   */\n  mload\n    /* \"#utility.yul\":4448:4470   */\n  swap1\n  pop\n    /* \"#utility.yul\":4363:4477   */\n  swap2\n  swap1\n  pop\n  jump\t// out\n    /* \"#utility.yul\":4483:4667   */\ntag_91:\n    /* \"#utility.yul\":4582:4593   */\n  0x00\n    /* \"#utility.yul\":4616:4622   */\n  dup3\n    /* \"#utility.yul\":4611:4614   */\n  dup3\n    /* \"#utility.yul\":4604:4623   */\n  mstore\n    /* \"#utility.yul\":4656:4660   */\n  0x20\n    /* \"#utility.yul\":4651:4654   */\n  dup3\n    /* \"#utility.yul\":4647:4661   */\n  add\n    /* \"#utility.yul\":4632:4661   */\n  swap1\n  pop\n    /* \"#utility.yul\":4483:4667   */\n  swap3\n  swap2\n  pop\n  pop\n  jump\t// out\n    /* \"#utility.yul\":4673:4805   */\ntag_92:\n    /* \"#utility.yul\":4740:4744   */\n  0x00\n    /* \"#utility.yul\":4763:4766   */\n  dup2\n    /* \"#utility.yul\":4755:4766   */\n  swap1\n  pop\n    /* \"#utility.yul\":4793:4797   */\n  0x20\n    /* \"#utility.yul\":4788:4791   */\n  dup3\n    /* \"#utility.yul\":4784:4798   */\n  add\n    /* \"#utility.yul\":4776:4798   */\n  swap1\n  pop\n    /* \"#utility.yul\":4673:4805   */\n  swap2\n  swap1\n  pop\n  jump\t// out\n    /* \"#utility.yul\":4811:4919   */\ntag_93:\n    /* \"#utility.yul\":4888:4912   */\n  tag_164\n    /* \"#utility.yul\":4906:4911   */\n  dup2\n    /* \"#utility.yul\":4888:4912   */\n  tag_82\n  jump\t// in\ntag_164:\n    /* \"#utility.yul\":4883:4886   */\n  dup3\n    /* \"#utility.yul\":4876:4913   */\n  mstore\n    /* \"#utility.yul\":4811:4919   */\n  pop\n  pop\n  jump\t// out\n    /* \"#utility.yul\":4925:5104   */\ntag_94:\n    /* \"#utility.yul\":4994:5004   */\n  0x00\n    /* \"#utility.yul\":5015:5061   */\n  tag_166\n    /* \"#utility.yul\":5057:5060   */\n  dup4\n    /* \"#utility.yul\":5049:5055   */\n  dup4\n    /* \"#utility.yul\":5015:5061   */\n  tag_93\n  jump\t// in\ntag_166:\n    /* \"#utility.yul\":5093:5097   */\n  0x20\n    /* \"#utility.yul\":5088:5091   */\n  dup4\n    /* \"#utility.yul\":5084:5098   */\n  add\n    /* \"#utility.yul\":5070:5098   */\n  swap1\n  pop\n    /* \"#utility.yul\":4925:5104   */\n  swap3\n  swap2\n  pop\n  pop\n  jump\t// out\n    /* \"#utility.yul\":5110:5223   */\ntag_95:\n    /* \"#utility.yul\":5180:5184   */\n  0x00\n    /* \"#utility.yul\":5212:5216   */\n  0x20\n    /* \"#utility.yul\":5207:5210   */\n  dup3\n    /* \"#utility.yul\":5203:5217   */\n  add\n    /* \"#utility.yul\":5195:5217   */\n  swap1\n  pop\n    /* \"#utility.yul\":5110:5223   */\n  swap2\n  swap1\n  pop\n  jump\t// out\n    /* \"#utility.yul\":5259:5991   */\ntag_96:\n    /* \"#utility.yul\":5378:5381   */\n  0x00\n    /* \"#utility.yul\":5407:5461   */\n  tag_169\n    /* \"#utility.yul\":5455:5460   */\n  dup3\n    /* \"#utility.yul\":5407:5461   */\n  tag_90\n  jump\t// in\ntag_169:\n    /* \"#utility.yul\":5477:5563   */\n  tag_170\n    /* \"#utility.yul\":5556:5562   */\n  dup2\n    /* \"#utility.yul\":5551:5554   */\n  dup6\n    /* \"#utility.yul\":5477:5563   */\n  tag_91\n  jump\t// in\ntag_170:\n    /* \"#utility.yul\":5470:5563   */\n  swap4\n  pop\n    /* \"#utility.yul\":5587:5643   */\n  tag_171\n    /* \"#utility.yul\":5637:5642   */\n  dup4\n    /* \"#utility.yul\":5587:5643   */\n  tag_92\n  jump\t// in\ntag_171:\n    /* \"#utility.yul\":5666:5673   */\n  dup1\n    /* \"#utility.yul\":5697:5698   */\n  0x00\n    /* \"#utility.yul\":5682:5966   */\ntag_172:\n    /* \"#utility.yul\":5707:5713   */\n  dup4\n    /* \"#utility.yul\":5704:5705   */\n  dup2\n    /* \"#utility.yul\":5701:5714   */\n  lt\n    /* \"#utility.yul\":5682:5966   */\n  iszero\n  tag_174\n  jumpi\n    /* \"#utility.yul\":5783:5789   */\n  dup2\n    /* \"#utility.yul\":5777:5790   */\n  mload\n    /* \"#utility.yul\":5810:5873   */\n  tag_175\n    /* \"#utility.yul\":5869:5872   */\n  dup9\n    /* \"#utility.yul\":5854:5867   */\n  dup3\n    /* \"#utility.yul\":5810:5873   */\n  tag_94\n  jump\t// in\ntag_175:\n    /* \"#utility.yul\":5803:5873   */\n  swap8\n  pop\n    /* \"#utility.yul\":5896:5956   */\n  tag_176\n    /* \"#utility.yul\":5949:5955   */\n  dup4\n    /* \"#utility.yul\":5896:5956   */\n  tag_95\n  jump\t// in\ntag_176:\n    /* \"#utility.yul\":5886:5956   */\n  swap3\n  pop\n    /* \"#utility.yul\":5742:5966   */\n  pop\n    /* \"#utility.yul\":5729:5730   */\n  0x01\n    /* \"#utility.yul\":5726:5727   */\n  dup2\n    /* \"#utility.yul\":5722:5731   */\n  add\n    /* \"#utility.yul\":5717:5731   */\n  swap1\n  pop\n    /* \"#utility.yul\":5682:5966   */\n  jump(tag_172)\ntag_174:\n    /* \"#utility.yul\":5686:5700   */\n  pop\n    /* \"#utility.yul\":5982:5985   */\n  dup6\n    /* \"#utility.yul\":5975:5985   */\n  swap4\n  pop\n    /* \"#utility.yul\":5383:5991   */\n  pop\n  pop\n  pop\n    /* \"#utility.yul\":5259:5991   */\n  swap3\n  swap2\n  pop\n  pop\n  jump\t// out\n    /* \"#utility.yul\":5997:6115   */\ntag_97:\n    /* \"#utility.yul\":6084:6108   */\n  tag_178\n    /* \"#utility.yul\":6102:6107   */\n  dup2\n    /* \"#utility.yul\":6084:6108   */\n  tag_87\n  jump\t// in\ntag_178:\n    /* \"#utility.yul\":6079:6082   */\n  dup3\n    /* \"#utility.yul\":6072:6109   */\n  mstore\n    /* \"#utility.yul\":5997:6115   */\n  pop\n  pop\n  jump\t// out\n    /* \"#utility.yul\":6121:6604   */\ntag_9:\n    /* \"#utility.yul\":6292:6296   */\n  0x00\n    /* \"#utility.yul\":6330:6332   */\n  0x40\n    /* \"#utility.yul\":6319:6328   */\n  dup3\n    /* \"#utility.yul\":6315:6333   */\n  add\n    /* \"#utility.yul\":6307:6333   */\n  swap1\n  pop\n    /* \"#utility.yul\":6379:6388   */\n  dup2\n    /* \"#utility.yul\":6373:6377   */\n  dup2\n    /* \"#utility.yul\":6369:6389   */\n  sub\n    /* \"#utility.yul\":6365:6366   */\n  0x00\n    /* \"#utility.yul\":6354:6363   */\n  dup4\n    /* \"#utility.yul\":6350:6367   */\n  add\n    /* \"#utility.yul\":6343:6390   */\n  mstore\n    /* \"#utility.yul\":6407:6515   */\n  tag_180\n    /* \"#utility.yul\":6510:6514   */\n  dup2\n    /* \"#utility.yul\":6501:6507   */\n  dup6\n    /* \"#utility.yul\":6407:6515   */\n  tag_96\n  jump\t// in\ntag_180:\n    /* \"#utility.yul\":6399:6515   */\n  swap1\n  pop\n    /* \"#utility.yul\":6525:6597   */\n  tag_181\n    /* \"#utility.yul\":6593:6595   */\n  0x20\n    /* \"#utility.yul\":6582:6591   */\n  dup4\n    /* \"#utility.yul\":6578:6596   */\n  add\n    /* \"#utility.yul\":6569:6575   */\n  dup5\n    /* \"#utility.yul\":6525:6597   */\n  tag_97\n  jump\t// in\ntag_181:\n    /* \"#utility.yul\":6121:6604   */\n  swap4\n  swap3\n  pop\n  pop\n  pop\n  jump\t// out\n    /* \"#utility.yul\":6610:6779   */\ntag_98:\n    /* \"#utility.yul\":6694:6705   */\n  0x00\n    /* \"#utility.yul\":6728:6734   */\n  dup3\n    /* \"#utility.yul\":6723:6726   */\n  dup3\n    /* \"#utility.yul\":6716:6735   */\n  mstore\n    /* \"#utility.yul\":6768:6772   */\n  0x20\n    /* \"#utility.yul\":6763:6766   */\n  dup3\n    /* \"#utility.yul\":6759:6773   */\n  add\n    /* \"#utility.yul\":6744:6773   */\n  swap1\n  pop\n    /* \"#utility.yul\":6610:6779   */\n  swap3\n  swap2\n  pop\n  pop\n  jump\t// out\n    /* \"#utility.yul\":6785:6942   */\ntag_99:\n    /* \"#utility.yul\":6925:6934   */\n  0x6572726f72303100000000000000000000000000000000000000000000000000\n    /* \"#utility.yul\":6921:6922   */\n  0x00\n    /* \"#utility.yul\":6913:6919   */\n  dup3\n    /* \"#utility.yul\":6909:6923   */\n  add\n    /* \"#utility.yul\":6902:6935   */\n  mstore\n    /* \"#utility.yul\":6785:6942   */\n  pop\n  jump\t// out\n    /* \"#utility.yul\":6948:7313   */\ntag_100:\n    /* \"#utility.yul\":7090:7093   */\n  0x00\n    /* \"#utility.yul\":7111:7177   */\n  tag_185\n    /* \"#utility.yul\":7175:7176   */\n  0x07\n    /* \"#utility.yul\":7170:7173   */\n  dup4\n    /* \"#utility.yul\":7111:7177   */\n  tag_98\n  jump\t// in\ntag_185:\n    /* \"#utility.yul\":7104:7177   */\n  swap2\n  pop\n    /* \"#utility.yul\":7186:7279   */\n  tag_186\n    /* \"#utility.yul\":7275:7278   */\n  dup3\n    /* \"#utility.yul\":7186:7279   */\n  tag_99\n  jump\t// in\ntag_186:\n    /* \"#utility.yul\":7304:7306   */\n  0x20\n    /* \"#utility.yul\":7299:7302   */\n  dup3\n    /* \"#utility.yul\":7295:7307   */\n  add\n    /* \"#utility.yul\":7288:7307   */\n  swap1\n  pop\n    /* \"#utility.yul\":6948:7313   */\n  swap2\n  swap1\n  pop\n  jump\t// out\n    /* \"#utility.yul\":7319:7738   */\ntag_14:\n    /* \"#utility.yul\":7485:7489   */\n  0x00\n    /* \"#utility.yul\":7523:7525   */\n  0x20\n    /* \"#utility.yul\":7512:7521   */\n  dup3\n    /* \"#utility.yul\":7508:7526   */\n  add\n    /* \"#utility.yul\":7500:7526   */\n  swap1\n  pop\n    /* \"#utility.yul\":7572:7581   */\n  dup2\n    /* \"#utility.yul\":7566:7570   */\n  dup2\n    /* \"#utility.yul\":7562:7582   */\n  sub\n    /* \"#utility.yul\":7558:7559   */\n  0x00\n    /* \"#utility.yul\":7547:7556   */\n  dup4\n    /* \"#utility.yul\":7543:7560   */\n  add\n    /* \"#utility.yul\":7536:7583   */\n  mstore\n    /* \"#utility.yul\":7600:7731   */\n  tag_188\n    /* \"#utility.yul\":7726:7730   */\n  dup2\n    /* \"#utility.yul\":7600:7731   */\n  tag_100\n  jump\t// in\ntag_188:\n    /* \"#utility.yul\":7592:7731   */\n  swap1\n  pop\n    /* \"#utility.yul\":7319:7738   */\n  swap2\n  swap1\n  pop\n  jump\t// out\n    /* \"#utility.yul\":7744:7901   */\ntag_101:\n    /* \"#utility.yul\":7884:7893   */\n  0x6572726f72303200000000000000000000000000000000000000000000000000\n    /* \"#utility.yul\":7880:7881   */\n  0x00\n    /* \"#utility.yul\":7872:7878   */\n  dup3\n    /* \"#utility.yul\":7868:7882   */\n  add\n    /* \"#utility.yul\":7861:7894   */\n  mstore\n    /* \"#utility.yul\":7744:7901   */\n  pop\n  jump\t// out\n    /* \"#utility.yul\":7907:8272   */\ntag_102:\n    /* \"#utility.yul\":8049:8052   */\n  0x00\n    /* \"#utility.yul\":8070:8136   */\n  tag_191\n    /* \"#utility.yul\":8134:8135   */\n  0x07\n    /* \"#utility.yul\":8129:8132   */\n  dup4\n    /* \"#utility.yul\":8070:8136   */\n  tag_98\n  jump\t// in\ntag_191:\n    /* \"#utility.yul\":8063:8136   */\n  swap2\n  pop\n    /* \"#utility.yul\":8145:8238   */\n  tag_192\n    /* \"#utility.yul\":8234:8237   */\n  dup3\n    /* \"#utility.yul\":8145:8238   */\n  tag_101\n  jump\t// in\ntag_192:\n    /* \"#utility.yul\":8263:8265   */\n  0x20\n    /* \"#utility.yul\":8258:8261   */\n  dup3\n    /* \"#utility.yul\":8254:8266   */\n  add\n    /* \"#utility.yul\":8247:8266   */\n  swap1\n  pop\n    /* \"#utility.yul\":7907:8272   */\n  swap2\n  swap1\n  pop\n  jump\t// out\n    /* \"#utility.yul\":8278:8697   */\ntag_17:\n    /* \"#utility.yul\":8444:8448   */\n  0x00\n    /* \"#utility.yul\":8482:8484   */\n  0x20\n    /* \"#utility.yul\":8471:8480   */\n  dup3\n    /* \"#utility.yul\":8467:8485   */\n  add\n    /* \"#utility.yul\":8459:8485   */\n  swap1\n  pop\n    /* \"#utility.yul\":8531:8540   */\n  dup2\n    /* \"#utility.yul\":8525:8529   */\n  dup2\n    /* \"#utility.yul\":8521:8541   */\n  sub\n    /* \"#utility.yul\":8517:8518   */\n  0x00\n    /* \"#utility.yul\":8506:8515   */\n  dup4\n    /* \"#utility.yul\":8502:8519   */\n  add\n    /* \"#utility.yul\":8495:8542   */\n  mstore\n    /* \"#utility.yul\":8559:8690   */\n  tag_194\n    /* \"#utility.yul\":8685:8689   */\n  dup2\n    /* \"#utility.yul\":8559:8690   */\n  tag_102\n  jump\t// in\ntag_194:\n    /* \"#utility.yul\":8551:8690   */\n  swap1\n  pop\n    /* \"#utility.yul\":8278:8697   */\n  swap2\n  swap1\n  pop\n  jump\t// out\n    /* \"#utility.yul\":8703:8860   */\ntag_103:\n    /* \"#utility.yul\":8843:8852   */\n  0x6572726f72303300000000000000000000000000000000000000000000000000\n    /* \"#utility.yul\":8839:8840   */\n  0x00\n    /* \"#utility.yul\":8831:8837   */\n  dup3\n    /* \"#utility.yul\":8827:8841   */\n  add\n    /* \"#utility.yul\":8820:8853   */\n  mstore\n    /* \"#utility.yul\":8703:8860   */\n  pop\n  jump\t// out\n    /* \"#utility.yul\":8866:9231   */\ntag_104:\n    /* \"#utility.yul\":9008:9011   */\n  0x00\n    /* \"#utility.yul\":9029:9095   */\n  tag_197\n    /* \"#utility.yul\":9093:9094   */\n  0x07\n    /* \"#utility.yul\":9088:9091   */\n  dup4\n    /* \"#utility.yul\":9029:9095   */\n  tag_98\n  jump\t// in\ntag_197:\n    /* \"#utility.yul\":9022:9095   */\n  swap2\n  pop\n    /* \"#utility.yul\":9104:9197   */\n  tag_198\n    /* \"#utility.yul\":9193:9196   */\n  dup3\n    /* \"#utility.yul\":9104:9197   */\n  tag_103\n  jump\t// in\ntag_198:\n    /* \"#utility.yul\":9222:9224   */\n  0x20\n    /* \"#utility.yul\":9217:9220   */\n  dup3\n    /* \"#utility.yul\":9213:9225   */\n  add\n    /* \"#utility.yul\":9206:9225   */\n  swap1\n  pop\n    /* \"#utility.yul\":8866:9231   */\n  swap2\n  swap1\n  pop\n  jump\t// out\n    /* \"#utility.yul\":9237:9656   */\ntag_20:\n    /* \"#utility.yul\":9403:9407   */\n  0x00\n    /* \"#utility.yul\":9441:9443   */\n  0x20\n    /* \"#utility.yul\":9430:9439   */\n  dup3\n    /* \"#utility.yul\":9426:9444   */\n  add\n    /* \"#utility.yul\":9418:9444   */\n  swap1\n  pop\n    /* \"#utility.yul\":9490:9499   */\n  dup2\n    /* \"#utility.yul\":9484:9488   */\n  dup2\n    /* \"#utility.yul\":9480:9500   */\n  sub\n    /* \"#utility.yul\":9476:9477   */\n  0x00\n    /* \"#utility.yul\":9465:9474   */\n  dup4\n    /* \"#utility.yul\":9461:9478   */\n  add\n    /* \"#utility.yul\":9454:9501   */\n  mstore\n    /* \"#utility.yul\":9518:9649   */\n  tag_200\n    /* \"#utility.yul\":9644:9648   */\n  dup2\n    /* \"#utility.yul\":9518:9649   */\n  tag_104\n  jump\t// in\ntag_200:\n    /* \"#utility.yul\":9510:9649   */\n  swap1\n  pop\n    /* \"#utility.yul\":9237:9656   */\n  swap2\n  swap1\n  pop\n  jump\t// out\n    /* \"#utility.yul\":9662:9842   */\ntag_26:\n    /* \"#utility.yul\":9710:9787   */\n  0x4e487b7100000000000000000000000000000000000000000000000000000000\n    /* \"#utility.yul\":9707:9708   */\n  0x00\n    /* \"#utility.yul\":9700:9788   */\n  mstore\n    /* \"#utility.yul\":9807:9811   */\n  0x32\n    /* \"#utility.yul\":9804:9805   */\n  0x04\n    /* \"#utility.yul\":9797:9812   */\n  mstore\n    /* \"#utility.yul\":9831:9835   */\n  0x24\n    /* \"#utility.yul\":9828:9829   */\n  0x00\n    /* \"#utility.yul\":9821:9836   */\n  revert\n    /* \"#utility.yul\":9848:10005   */\ntag_105:\n    /* \"#utility.yul\":9988:9997   */\n  0x6572726f72303400000000000000000000000000000000000000000000000000\n    /* \"#utility.yul\":9984:9985   */\n  0x00\n    /* \"#utility.yul\":9976:9982   */\n  dup3\n    /* \"#utility.yul\":9972:9986   */\n  add\n    /* \"#utility.yul\":9965:9998   */\n  mstore\n    /* \"#utility.yul\":9848:10005   */\n  pop\n  jump\t// out\n    /* \"#utility.yul\":10011:10376   */\ntag_106:\n    /* \"#utility.yul\":10153:10156   */\n  0x00\n    /* \"#utility.yul\":10174:10240   */\n  tag_204\n    /* \"#utility.yul\":10238:10239   */\n  0x07\n    /* \"#utility.yul\":10233:10236   */\n  dup4\n    /* \"#utility.yul\":10174:10240   */\n  tag_98\n  jump\t// in\ntag_204:\n    /* \"#utility.yul\":10167:10240   */\n  swap2\n  pop\n    /* \"#utility.yul\":10249:10342   */\n  tag_205\n    /* \"#utility.yul\":10338:10341   */\n  dup3\n    /* \"#utility.yul\":10249:10342   */\n  tag_105\n  jump\t// in\ntag_205:\n    /* \"#utility.yul\":10367:10369   */\n  0x20\n    /* \"#utility.yul\":10362:10365   */\n  dup3\n    /* \"#utility.yul\":10358:10370   */\n  add\n    /* \"#utility.yul\":10351:10370   */\n  swap1\n  pop\n    /* \"#utility.yul\":10011:10376   */\n  swap2\n  swap1\n  pop\n  jump\t// out\n    /* \"#utility.yul\":10382:10801   */\ntag_33:\n    /* \"#utility.yul\":10548:10552   */\n  0x00\n    /* \"#utility.yul\":10586:10588   */\n  0x20\n    /* \"#utility.yul\":10575:10584   */\n  dup3\n    /* \"#utility.yul\":10571:10589   */\n  add\n    /* \"#utility.yul\":10563:10589   */\n  swap1\n  pop\n    /* \"#utility.yul\":10635:10644   */\n  dup2\n    /* \"#utility.yul\":10629:10633   */\n  dup2\n    /* \"#utility.yul\":10625:10645   */\n  sub\n    /* \"#utility.yul\":10621:10622   */\n  0x00\n    /* \"#utility.yul\":10610:10619   */\n  dup4\n    /* \"#utility.yul\":10606:10623   */\n  add\n    /* \"#utility.yul\":10599:10646   */\n  mstore\n    /* \"#utility.yul\":10663:10794   */\n  tag_207\n    /* \"#utility.yul\":10789:10793   */\n  dup2\n    /* \"#utility.yul\":10663:10794   */\n  tag_106\n  jump\t// in\ntag_207:\n    /* \"#utility.yul\":10655:10794   */\n  swap1\n  pop\n    /* \"#utility.yul\":10382:10801   */\n  swap2\n  swap1\n  pop\n  jump\t// out\n    /* \"#utility.yul\":10807:10987   */\ntag_107:\n    /* \"#utility.yul\":10855:10932   */\n  0x4e487b7100000000000000000000000000000000000000000000000000000000\n    /* \"#utility.yul\":10852:10853   */\n  0x00\n    /* \"#utility.yul\":10845:10933   */\n  mstore\n    /* \"#utility.yul\":10952:10956   */\n  0x11\n    /* \"#utility.yul\":10949:10950   */\n  0x04\n    /* \"#utility.yul\":10942:10957   */\n  mstore\n    /* \"#utility.yul\":10976:10980   */\n  0x24\n    /* \"#utility.yul\":10973:10974   */\n  0x00\n    /* \"#utility.yul\":10966:10981   */\n  revert\n    /* \"#utility.yul\":10993:11226   */\ntag_37:\n    /* \"#utility.yul\":11032:11035   */\n  0x00\n    /* \"#utility.yul\":11055:11079   */\n  tag_210\n    /* \"#utility.yul\":11073:11078   */\n  dup3\n    /* \"#utility.yul\":11055:11079   */\n  tag_87\n  jump\t// in\ntag_210:\n    /* \"#utility.yul\":11046:11079   */\n  swap2\n  pop\n    /* \"#utility.yul\":11101:11167   */\n  0xffffffffffffffffffffffffffffffffffffffffffffffffffffffffffffffff\n    /* \"#utility.yul\":11094:11099   */\n  dup3\n    /* \"#utility.yul\":11091:11168   */\n  sub\n    /* \"#utility.yul\":11088:11191   */\n  tag_211\n  jumpi\n    /* \"#utility.yul\":11171:11189   */\n  tag_212\n  tag_107\n  jump\t// in\ntag_212:\n    /* \"#utility.yul\":11088:11191   */\ntag_211:\n    /* \"#utility.yul\":11218:11219   */\n  0x01\n    /* \"#utility.yul\":11211:11216   */\n  dup3\n    /* \"#utility.yul\":11207:11220   */\n  add\n    /* \"#utility.yul\":11200:11220   */\n  swap1\n  pop\n    /* \"#utility.yul\":10993:11226   */\n  swap2\n  swap1\n  pop\n  jump\t// out\n    /* \"contracts/Wallet/Simplewallet02.sol\":145:6133  contract Wallet is ManageOwner , GetAbi{... */\ntag_10:\n  dataSize(sub_0)\n  dup1\n  dataOffset(sub_0)\n  0x00\n  codecopy\n  0x00\n  return\nstop\n\nsub_0: assembly {\n        /* \"contracts/Wallet/Simplewallet02.sol\":145:6133  contract Wallet is ManageOwner , GetAbi{... */\n      mstore(0x40, 0x80)\n      jumpi(tag_1, lt(calldatasize, 0x04))\n      shr(0xe0, calldataload(0x00))\n      dup1\n      0x694e80c3\n      gt\n      tag_18\n      jumpi\n      dup1\n      0xaffed0e0\n      gt\n      tag_19\n      jumpi\n      dup1\n      0xaffed0e0\n      eq\n      tag_14\n      jumpi\n      dup1\n      0xc0f0b3f1\n      eq\n      tag_15\n      jumpi\n      dup1\n      0xef11783c\n      eq\n      tag_16\n      jumpi\n      dup1\n      0xff87578c\n      eq\n      tag_17\n      jumpi\n      jump(tag_2)\n    tag_19:\n      dup1\n      0x694e80c3\n      eq\n      tag_10\n      jumpi\n      dup1\n      0x81244e5d\n      eq\n      tag_11\n      jumpi\n      dup1\n      0x831c9e2e\n      eq\n      tag_12\n      jumpi\n      dup1\n      0x8b30486c\n      eq\n      tag_13\n      jumpi\n      jump(tag_2)\n    tag_18:\n      dup1\n      0x0fce747a\n      gt\n      tag_20\n      jumpi\n      dup1\n      0x0fce747a\n      eq\n      tag_6\n      jumpi\n      dup1\n      0x2413478f\n      eq\n      tag_7\n      jumpi\n      dup1\n      0x54910298\n      eq\n      tag_8\n      jumpi\n      dup1\n      0x6876a95e\n      eq\n      tag_9\n      jumpi\n      jump(tag_2)\n    tag_20:\n      dup1\n      0x029c81e3\n      eq\n      tag_3\n      jumpi\n      dup1\n      0x0c3dfc1a\n      eq\n      tag_4\n      jumpi\n      dup1\n      0x0c546204\n      eq\n      tag_5\n      jumpi\n      jump(tag_2)\n    tag_1:\n      jumpi(tag_2, calldatasize)\n        /* \"contracts/Wallet/Simplewallet02.sol\":5955:5956  0 */\n      0x00\n        /* \"contracts/Wallet/Simplewallet02.sol\":5945:5954  msg.value */\n      callvalue\n        /* \"contracts/Wallet/Simplewallet02.sol\":5945:5956  msg.value>0 */\n      gt\n        /* \"contracts/Wallet/Simplewallet02.sol\":5941:6008  if (msg.value>0)... */\n      iszero\n      tag_23\n      jumpi\n        /* \"contracts/Wallet/Simplewallet02.sol\":5987:5997  msg.sender */\n      caller\n        /* \"contracts/Wallet/Simplewallet02.sol\":5976:6008  Receiveeth(msg.sender,msg.value) */\n      0xffffffffffffffffffffffffffffffffffffffff\n      and\n      0xf1ca750cb49a8b378da1fb044f0ee23f5680cb13efa35534d997ecd41fc2ab7d\n        /* \"contracts/Wallet/Simplewallet02.sol\":5998:6007  msg.value */\n      callvalue\n        /* \"contracts/Wallet/Simplewallet02.sol\":5976:6008  Receiveeth(msg.sender,msg.value) */\n      mload(0x40)\n      tag_24\n      swap2\n      swap1\n      tag_25\n      jump\t// in\n    tag_24:\n      mload(0x40)\n      dup1\n      swap2\n      sub\n      swap1\n      log2\n        /* \"contracts/Wallet/Simplewallet02.sol\":5941:6008  if (msg.value>0)... */\n    tag_23:\n        /* \"contracts/Wallet/Simplewallet02.sol\":145:6133  contract Wallet is ManageOwner , GetAbi{... */\n      stop\n    tag_2:\n        /* \"contracts/Wallet/Simplewallet02.sol\":6081:6091  msg.sender */\n      caller\n        /* \"contracts/Wallet/Simplewallet02.sol\":6068:6112  Callfallback(msg.sender,msg.value, msg.data) */\n      0xffffffffffffffffffffffffffffffffffffffff\n      and\n      0x2bea9f513d6a7645811142f0cca7029aff10f0a1475f5c8b65e953a735109e5a\n        /* \"contracts/Wallet/Simplewallet02.sol\":6092:6101  msg.value */\n      callvalue\n        /* \"contracts/Wallet/Simplewallet02.sol\":6103:6111  msg.data */\n      0x00\n      calldatasize\n        /* \"contracts/Wallet/Simplewallet02.sol\":6068:6112  Callfallback(msg.sender,msg.value, msg.data) */\n      mload(0x40)\n      tag_28\n      swap4\n      swap3\n      swap2\n      swap1\n      tag_29\n      jump\t// in\n    tag_28:\n      mload(0x40)\n      dup1\n      swap2\n      sub\n      swap1\n      log2\n        /* \"contracts/Wallet/Simplewallet02.sol\":145:6133  contract Wallet is ManageOwner , GetAbi{... */\n      stop\n        /* \"contracts/Wallet/ManageOwner.sol\":3396:3799  function checkOwners()public view returns(address[] memory){... */\n    tag_3:\n      callvalue\n      dup1\n      iszero\n      tag_30\n      jumpi\n      0x00\n      dup1\n      revert\n    tag_30:\n      pop\n      tag_31\n      tag_32\n      jump\t// in\n    tag_31:\n      mload(0x40)\n      tag_33\n      swap2\n      swap1\n      tag_34\n      jump\t// in\n    tag_33:\n      mload(0x40)\n      dup1\n      swap2\n      sub\n      swap1\n      return\n        /* \"contracts/Wallet/ManageOwner.sol\":338:363  uint256 public owners_num */\n    tag_4:\n      callvalue\n      dup1\n      iszero\n      tag_35\n      jumpi\n      0x00\n      dup1\n      revert\n    tag_35:\n      pop\n      tag_36\n      tag_37\n      jump\t// in\n    tag_36:\n      mload(0x40)\n      tag_38\n      swap2\n      swap1\n      tag_25\n      jump\t// in\n    tag_38:\n      mload(0x40)\n      dup1\n      swap2\n      sub\n      swap1\n      return\n        /* \"contracts/Wallet/ManageOwner.sol\":1709:2268  function addOwnersAndThreshold(address owner, uint256 new_threshold)public signed{... */\n    tag_5:\n      callvalue\n      dup1\n      iszero\n      tag_39\n      jumpi\n      0x00\n      dup1\n      revert\n    tag_39:\n      pop\n      tag_40\n      0x04\n      dup1\n      calldatasize\n      sub\n      dup2\n      add\n      swap1\n      tag_41\n      swap2\n      swap1\n      tag_42\n      jump\t// in\n    tag_41:\n      tag_43\n      jump\t// in\n    tag_40:\n      stop\n        /* \"contracts/Wallet/Simplewallet02.sol\":816:1712  function exertransact(... */\n    tag_6:\n      tag_44\n      0x04\n      dup1\n      calldatasize\n      sub\n      dup2\n      add\n      swap1\n      tag_45\n      swap2\n      swap1\n      tag_46\n      jump\t// in\n    tag_45:\n      tag_47\n      jump\t// in\n    tag_44:\n      mload(0x40)\n      tag_48\n      swap2\n      swap1\n      tag_49\n      jump\t// in\n    tag_48:\n      mload(0x40)\n      dup1\n      swap2\n      sub\n      swap1\n      return\n        /* \"contracts/Wallet/ManageOwner.sol\":6132:6383  function getAdjacent(address owner, bool _direction)public view returns (bool, address) {... */\n    tag_7:\n      callvalue\n      dup1\n      iszero\n      tag_50\n      jumpi\n      0x00\n      dup1\n      revert\n    tag_50:\n      pop\n      tag_51\n      0x04\n      dup1\n      calldatasize\n      sub\n      dup2\n      add\n      swap1\n      tag_52\n      swap2\n      swap1\n      tag_53\n      jump\t// in\n    tag_52:\n      tag_54\n      jump\t// in\n    tag_51:\n      mload(0x40)\n      tag_55\n      swap3\n      swap2\n      swap1\n      tag_56\n      jump\t// in\n    tag_55:\n      mload(0x40)\n      dup1\n      swap2\n      sub\n      swap1\n      return\n        /* \"contracts/Wallet/GetAbi.sol\":639:860  function removeOwnersencode(address x, uint256 y) public pure returns(bytes memory result) {... */\n    tag_8:\n      callvalue\n      dup1\n      iszero\n      tag_57\n      jumpi\n      0x00\n      dup1\n      revert\n    tag_57:\n      pop\n      tag_58\n      0x04\n      dup1\n      calldatasize\n      sub\n      dup2\n      add\n      swap1\n      tag_59\n      swap2\n      swap1\n      tag_42\n      jump\t// in\n    tag_59:\n      tag_60\n      jump\t// in\n    tag_58:\n      mload(0x40)\n      tag_61\n      swap2\n      swap1\n      tag_62\n      jump\t// in\n    tag_61:\n      mload(0x40)\n      dup1\n      swap2\n      sub\n      swap1\n      return\n        /* \"contracts/Wallet/GetAbi.sol\":133:339  function changeThresholdencode(uint256 new_threshold) public pure returns(bytes memory result) {... */\n    tag_9:\n      callvalue\n      dup1\n      iszero\n      tag_63\n      jumpi\n      0x00\n      dup1\n      revert\n    tag_63:\n      pop\n      tag_64\n      0x04\n      dup1\n      calldatasize\n      sub\n      dup2\n      add\n      swap1\n      tag_65\n      swap2\n      swap1\n      tag_66\n      jump\t// in\n    tag_65:\n      tag_67\n      jump\t// in\n    tag_64:\n      mload(0x40)\n      tag_68\n      swap2\n      swap1\n      tag_62\n      jump\t// in\n    tag_68:\n      mload(0x40)\n      dup1\n      swap2\n      sub\n      swap1\n      return\n        /* \"contracts/Wallet/ManageOwner.sol\":2894:3234  function changeThreshold(uint256 new_threshold)public signed{... */\n    tag_10:\n      callvalue\n      dup1\n      iszero\n      tag_69\n      jumpi\n      0x00\n      dup1\n      revert\n    tag_69:\n      pop\n      tag_70\n      0x04\n      dup1\n      calldatasize\n      sub\n      dup2\n      add\n      swap1\n      tag_71\n      swap2\n      swap1\n      tag_66\n      jump\t// in\n    tag_71:\n      tag_72\n      jump\t// in\n    tag_70:\n      stop\n        /* \"contracts/Wallet/ManageOwner.sol\":3269:3357  function checkThreshold()public view returns(uint256){... */\n    tag_11:\n      callvalue\n      dup1\n      iszero\n      tag_73\n      jumpi\n      0x00\n      dup1\n      revert\n    tag_73:\n      pop\n      tag_74\n      tag_75\n      jump\t// in\n    tag_74:\n      mload(0x40)\n      tag_76\n      swap2\n      swap1\n      tag_25\n      jump\t// in\n    tag_76:\n      mload(0x40)\n      dup1\n      swap2\n      sub\n      swap1\n      return\n        /* \"contracts/Wallet/Simplewallet02.sol\":1739:2047  function checkSignature(bytes32 datatxhash, bytes memory signatures)public view {... */\n    tag_12:\n      callvalue\n      dup1\n      iszero\n      tag_77\n      jumpi\n      0x00\n      dup1\n      revert\n    tag_77:\n      pop\n      tag_78\n      0x04\n      dup1\n      calldatasize\n      sub\n      dup2\n      add\n      swap1\n      tag_79\n      swap2\n      swap1\n      tag_80\n      jump\t// in\n    tag_79:\n      tag_81\n      jump\t// in\n    tag_78:\n      stop\n        /* \"contracts/Wallet/Simplewallet02.sol\":5223:5420  function getTxhash(... */\n    tag_13:\n      callvalue\n      dup1\n      iszero\n      tag_82\n      jumpi\n      0x00\n      dup1\n      revert\n    tag_82:\n      pop\n      tag_83\n      0x04\n      dup1\n      calldatasize\n      sub\n      dup2\n      add\n      swap1\n      tag_84\n      swap2\n      swap1\n      tag_85\n      jump\t// in\n    tag_84:\n      tag_86\n      jump\t// in\n    tag_83:\n      mload(0x40)\n      tag_87\n      swap2\n      swap1\n      tag_88\n      jump\t// in\n    tag_87:\n      mload(0x40)\n      dup1\n      swap2\n      sub\n      swap1\n      return\n        /* \"contracts/Wallet/Simplewallet02.sol\":547:567  uint256 public nonce */\n    tag_14:\n      callvalue\n      dup1\n      iszero\n      tag_89\n      jumpi\n      0x00\n      dup1\n      revert\n    tag_89:\n      pop\n      tag_90\n      tag_91\n      jump\t// in\n    tag_90:\n      mload(0x40)\n      tag_92\n      swap2\n      swap1\n      tag_25\n      jump\t// in\n    tag_92:\n      mload(0x40)\n      dup1\n      swap2\n      sub\n      swap1\n      return\n        /* \"contracts/Wallet/ManageOwner.sol\":2360:2805  function removeOwners(address preowner, uint256 new_threshold)public signed{... */\n    tag_15:\n      callvalue\n      dup1\n      iszero\n      tag_93\n      jumpi\n      0x00\n      dup1\n      revert\n    tag_93:\n      pop\n      tag_94\n      0x04\n      dup1\n      calldatasize\n      sub\n      dup2\n      add\n      swap1\n      tag_95\n      swap2\n      swap1\n      tag_42\n      jump\t// in\n    tag_95:\n      tag_96\n      jump\t// in\n    tag_94:\n      stop\n        /* \"contracts/Wallet/ManageOwner.sol\":5713:5866  function ownerExist(address _owner)public view returns (bool){... */\n    tag_16:\n      callvalue\n      dup1\n      iszero\n      tag_97\n      jumpi\n      0x00\n      dup1\n      revert\n    tag_97:\n      pop\n      tag_98\n      0x04\n      dup1\n      calldatasize\n      sub\n      dup2\n      add\n      swap1\n      tag_99\n      swap2\n      swap1\n      tag_100\n      jump\t// in\n    tag_99:\n      tag_101\n      jump\t// in\n    tag_98:\n      mload(0x40)\n      tag_102\n      swap2\n      swap1\n      tag_49\n      jump\t// in\n    tag_102:\n      mload(0x40)\n      dup1\n      swap2\n      sub\n      swap1\n      return\n        /* \"contracts/Wallet/GetAbi.sol\":387:589  function addOwnersencode(address x, uint256 y) public pure returns(bytes memory result) {... */\n    tag_17:\n      callvalue\n      dup1\n      iszero\n      tag_103\n      jumpi\n      0x00\n      dup1\n      revert\n    tag_103:\n      pop\n      tag_104\n      0x04\n      dup1\n      calldatasize\n      sub\n      dup2\n      add\n      swap1\n      tag_105\n      swap2\n      swap1\n      tag_42\n      jump\t// in\n    tag_105:\n      tag_106\n      jump\t// in\n    tag_104:\n      mload(0x40)\n      tag_107\n      swap2\n      swap1\n      tag_62\n      jump\t// in\n    tag_107:\n      mload(0x40)\n      dup1\n      swap2\n      sub\n      swap1\n      return\n        /* \"contracts/Wallet/ManageOwner.sol\":3396:3799  function checkOwners()public view returns(address[] memory){... */\n    tag_32:\n        /* \"contracts/Wallet/ManageOwner.sol\":3438:3454  address[] memory */\n      0x60\n        /* \"contracts/Wallet/ManageOwner.sol\":3466:3488  address[] memory array */\n      0x00\n        /* \"contracts/Wallet/ManageOwner.sol\":3505:3515  owners_num */\n      dup1\n      sload\n        /* \"contracts/Wallet/ManageOwner.sol\":3491:3516  new address[](owners_num) */\n      0xffffffffffffffff\n      dup2\n      gt\n      iszero\n      tag_109\n      jumpi\n      tag_110\n      tag_111\n      jump\t// in\n    tag_110:\n    tag_109:\n      mload(0x40)\n      swap1\n      dup1\n      dup3\n      mstore\n      dup1\n      0x20\n      mul\n      0x20\n      add\n      dup3\n      add\n      0x40\n      mstore\n      dup1\n      iszero\n      tag_112\n      jumpi\n      dup2\n      0x20\n      add\n      0x20\n      dup3\n      mul\n      dup1\n      calldatasize\n      dup4\n      calldatacopy\n      dup1\n      dup3\n      add\n      swap2\n      pop\n      pop\n      swap1\n      pop\n    tag_112:\n      pop\n        /* \"contracts/Wallet/ManageOwner.sol\":3466:3516  address[] memory array = new address[](owners_num) */\n      swap1\n      pop\n        /* \"contracts/Wallet/ManageOwner.sol\":3527:3547  address currentowner */\n      0x00\n        /* \"contracts/Wallet/ManageOwner.sol\":3550:3556  owners */\n      0x02\n        /* \"contracts/Wallet/ManageOwner.sol\":3550:3563  owners[_HEAD] */\n      0x00\n        /* \"contracts/Wallet/ManageOwner.sol\":785:788  0x1 */\n      0x01\n        /* \"contracts/Wallet/ManageOwner.sol\":3550:3563  owners[_HEAD] */\n      0xffffffffffffffffffffffffffffffffffffffff\n      and\n      0xffffffffffffffffffffffffffffffffffffffff\n      and\n      dup2\n      mstore\n      0x20\n      add\n      swap1\n      dup2\n      mstore\n      0x20\n      add\n      0x00\n      keccak256\n        /* \"contracts/Wallet/ManageOwner.sol\":3550:3570  owners[_HEAD][_NEXT] */\n      0x00\n        /* \"contracts/Wallet/ManageOwner.sol\":636:640  true */\n      0x01\n        /* \"contracts/Wallet/ManageOwner.sol\":3550:3570  owners[_HEAD][_NEXT] */\n      iszero\n      iszero\n      iszero\n      iszero\n      dup2\n      mstore\n      0x20\n      add\n      swap1\n      dup2\n      mstore\n      0x20\n      add\n      0x00\n      keccak256\n      0x00\n      swap1\n      sload\n      swap1\n      0x0100\n      exp\n      swap1\n      div\n      0xffffffffffffffffffffffffffffffffffffffff\n      and\n        /* \"contracts/Wallet/ManageOwner.sol\":3527:3570  address currentowner = owners[_HEAD][_NEXT] */\n      swap1\n      pop\n        /* \"contracts/Wallet/ManageOwner.sol\":3581:3594  uint256 index */\n      0x00\n        /* \"contracts/Wallet/ManageOwner.sol\":3609:3769  for (index=0; index < owners_num; index++){... */\n    tag_113:\n        /* \"contracts/Wallet/ManageOwner.sol\":3631:3641  owners_num */\n      sload(0x00)\n        /* \"contracts/Wallet/ManageOwner.sol\":3623:3628  index */\n      dup2\n        /* \"contracts/Wallet/ManageOwner.sol\":3623:3641  index < owners_num */\n      lt\n        /* \"contracts/Wallet/ManageOwner.sol\":3609:3769  for (index=0; index < owners_num; index++){... */\n      iszero\n      tag_114\n      jumpi\n        /* \"contracts/Wallet/ManageOwner.sol\":3681:3693  currentowner */\n      dup2\n        /* \"contracts/Wallet/ManageOwner.sol\":3666:3671  array */\n      dup4\n        /* \"contracts/Wallet/ManageOwner.sol\":3672:3677  index */\n      dup3\n        /* \"contracts/Wallet/ManageOwner.sol\":3666:3678  array[index] */\n      dup2\n      mload\n      dup2\n      lt\n      tag_116\n      jumpi\n      tag_117\n      tag_118\n      jump\t// in\n    tag_117:\n    tag_116:\n      0x20\n      mul\n      0x20\n      add\n      add\n        /* \"contracts/Wallet/ManageOwner.sol\":3666:3693  array[index] = currentowner */\n      swap1\n      0xffffffffffffffffffffffffffffffffffffffff\n      and\n      swap1\n      dup2\n      0xffffffffffffffffffffffffffffffffffffffff\n      and\n      dup2\n      mstore\n      pop\n      pop\n        /* \"contracts/Wallet/ManageOwner.sol\":3726:3757  getAdjacent(currentowner,_NEXT) */\n      tag_119\n        /* \"contracts/Wallet/ManageOwner.sol\":3738:3750  currentowner */\n      dup3\n        /* \"contracts/Wallet/ManageOwner.sol\":636:640  true */\n      0x01\n        /* \"contracts/Wallet/ManageOwner.sol\":3726:3737  getAdjacent */\n      tag_54\n        /* \"contracts/Wallet/ManageOwner.sol\":3726:3757  getAdjacent(currentowner,_NEXT) */\n      jump\t// in\n    tag_119:\n        /* \"contracts/Wallet/ManageOwner.sol\":3708:3757  (,currentowner) = getAdjacent(currentowner,_NEXT) */\n      swap1\n      pop\n      dup1\n      swap3\n      pop\n      pop\n        /* \"contracts/Wallet/ManageOwner.sol\":3643:3650  index++ */\n      dup1\n      dup1\n      tag_120\n      swap1\n      tag_121\n      jump\t// in\n    tag_120:\n      swap2\n      pop\n      pop\n        /* \"contracts/Wallet/ManageOwner.sol\":3609:3769  for (index=0; index < owners_num; index++){... */\n      jump(tag_113)\n    tag_114:\n        /* \"contracts/Wallet/ManageOwner.sol\":3786:3791  array */\n      dup3\n        /* \"contracts/Wallet/ManageOwner.sol\":3779:3791  return array */\n      swap4\n      pop\n      pop\n      pop\n      pop\n        /* \"contracts/Wallet/ManageOwner.sol\":3396:3799  function checkOwners()public view returns(address[] memory){... */\n      swap1\n      jump\t// out\n        /* \"contracts/Wallet/ManageOwner.sol\":338:363  uint256 public owners_num */\n    tag_37:\n      sload(0x00)\n      dup2\n      jump\t// out\n        /* \"contracts/Wallet/ManageOwner.sol\":1709:2268  function addOwnersAndThreshold(address owner, uint256 new_threshold)public signed{... */\n    tag_43:\n        /* \"contracts/Wallet/SelfAuthorize.sol\":349:364  requireSigned() */\n      tag_123\n        /* \"contracts/Wallet/SelfAuthorize.sol\":349:362  requireSigned */\n      tag_124\n        /* \"contracts/Wallet/SelfAuthorize.sol\":349:364  requireSigned() */\n      jump\t// in\n    tag_123:\n        /* \"contracts/Wallet/ManageOwner.sol\":1870:1883  new_threshold */\n      dup1\n        /* \"contracts/Wallet/ManageOwner.sol\":1865:1866  1 */\n      0x01\n        /* \"contracts/Wallet/ManageOwner.sol\":1852:1862  owners_num */\n      sload(0x00)\n        /* \"contracts/Wallet/ManageOwner.sol\":1852:1866  owners_num + 1 */\n      tag_126\n      swap2\n      swap1\n      tag_127\n      jump\t// in\n    tag_126:\n        /* \"contracts/Wallet/ManageOwner.sol\":1852:1883  owners_num + 1 >= new_threshold */\n      lt\n      iszero\n        /* \"contracts/Wallet/ManageOwner.sol\":1852:1905  owners_num + 1 >= new_threshold && new_threshold >= 0 */\n      dup1\n      iszero\n      tag_128\n      jumpi\n      pop\n        /* \"contracts/Wallet/ManageOwner.sol\":1904:1905  0 */\n      0x00\n        /* \"contracts/Wallet/ManageOwner.sol\":1887:1900  new_threshold */\n      dup2\n        /* \"contracts/Wallet/ManageOwner.sol\":1887:1905  new_threshold >= 0 */\n      lt\n      iszero\n        /* \"contracts/Wallet/ManageOwner.sol\":1852:1905  owners_num + 1 >= new_threshold && new_threshold >= 0 */\n    tag_128:\n        /* \"contracts/Wallet/ManageOwner.sol\":1844:1906  require(owners_num + 1 >= new_threshold && new_threshold >= 0) */\n      tag_129\n      jumpi\n      0x00\n      dup1\n      revert\n    tag_129:\n        /* \"contracts/Wallet/ManageOwner.sol\":1997:1998  0 */\n      0x00\n        /* \"contracts/Wallet/ManageOwner.sol\":1980:1999  owner != address(0) */\n      0xffffffffffffffffffffffffffffffffffffffff\n      and\n        /* \"contracts/Wallet/ManageOwner.sol\":1980:1985  owner */\n      dup3\n        /* \"contracts/Wallet/ManageOwner.sol\":1980:1999  owner != address(0) */\n      0xffffffffffffffffffffffffffffffffffffffff\n      and\n      eq\n      iszero\n        /* \"contracts/Wallet/ManageOwner.sol\":1980:2025  owner != address(0) && owner != address(this) */\n      dup1\n      iszero\n      tag_130\n      jumpi\n      pop\n        /* \"contracts/Wallet/ManageOwner.sol\":2020:2024  this */\n      address\n        /* \"contracts/Wallet/ManageOwner.sol\":2003:2025  owner != address(this) */\n      0xffffffffffffffffffffffffffffffffffffffff\n      and\n        /* \"contracts/Wallet/ManageOwner.sol\":2003:2008  owner */\n      dup3\n        /* \"contracts/Wallet/ManageOwner.sol\":2003:2025  owner != address(this) */\n      0xffffffffffffffffffffffffffffffffffffffff\n      and\n      eq\n      iszero\n        /* \"contracts/Wallet/ManageOwner.sol\":1980:2025  owner != address(0) && owner != address(this) */\n    tag_130:\n        /* \"contracts/Wallet/ManageOwner.sol\":1980:2047  owner != address(0) && owner != address(this) && !ownerExist(owner) */\n      dup1\n      iszero\n      tag_131\n      jumpi\n      pop\n        /* \"contracts/Wallet/ManageOwner.sol\":2030:2047  ownerExist(owner) */\n      tag_132\n        /* \"contracts/Wallet/ManageOwner.sol\":2041:2046  owner */\n      dup3\n        /* \"contracts/Wallet/ManageOwner.sol\":2030:2040  ownerExist */\n      tag_101\n        /* \"contracts/Wallet/ManageOwner.sol\":2030:2047  ownerExist(owner) */\n      jump\t// in\n    tag_132:\n        /* \"contracts/Wallet/ManageOwner.sol\":2029:2047  !ownerExist(owner) */\n      iszero\n        /* \"contracts/Wallet/ManageOwner.sol\":1980:2047  owner != address(0) && owner != address(this) && !ownerExist(owner) */\n    tag_131:\n        /* \"contracts/Wallet/ManageOwner.sol\":1972:2058  require(owner != address(0) && owner != address(this) && !ownerExist(owner),\"error04\") */\n      tag_133\n      jumpi\n      mload(0x40)\n      0x08c379a000000000000000000000000000000000000000000000000000000000\n      dup2\n      mstore\n      0x04\n      add\n      tag_134\n      swap1\n      tag_135\n      jump\t// in\n    tag_134:\n      mload(0x40)\n      dup1\n      swap2\n      sub\n      swap1\n      revert\n    tag_133:\n        /* \"contracts/Wallet/ManageOwner.sol\":2077:2092  addowner(owner) */\n      tag_136\n        /* \"contracts/Wallet/ManageOwner.sol\":2086:2091  owner */\n      dup3\n        /* \"contracts/Wallet/ManageOwner.sol\":2077:2085  addowner */\n      tag_137\n        /* \"contracts/Wallet/ManageOwner.sol\":2077:2092  addowner(owner) */\n      jump\t// in\n    tag_136:\n        /* \"contracts/Wallet/ManageOwner.sol\":2117:2122  owner */\n      dup2\n        /* \"contracts/Wallet/ManageOwner.sol\":2108:2123  AddOwner(owner) */\n      0xffffffffffffffffffffffffffffffffffffffff\n      and\n      0xac1e9ef41b54c676ccf449d83ae6f2624bcdce8f5b93a6b48ce95874c332693d\n      mload(0x40)\n      mload(0x40)\n      dup1\n      swap2\n      sub\n      swap1\n      log2\n        /* \"contracts/Wallet/ManageOwner.sol\":2219:2228  threshold */\n      sload(0x01)\n        /* \"contracts/Wallet/ManageOwner.sol\":2202:2215  new_threshold */\n      dup2\n        /* \"contracts/Wallet/ManageOwner.sol\":2202:2228  new_threshold != threshold */\n      eq\n        /* \"contracts/Wallet/ManageOwner.sol\":2198:2260  if (new_threshold != threshold) changeThreshold(new_threshold) */\n      tag_138\n      jumpi\n        /* \"contracts/Wallet/ManageOwner.sol\":2230:2260  changeThreshold(new_threshold) */\n      tag_139\n        /* \"contracts/Wallet/ManageOwner.sol\":2246:2259  new_threshold */\n      dup2\n        /* \"contracts/Wallet/ManageOwner.sol\":2230:2245  changeThreshold */\n      tag_72\n        /* \"contracts/Wallet/ManageOwner.sol\":2230:2260  changeThreshold(new_threshold) */\n      jump\t// in\n    tag_139:\n        /* \"contracts/Wallet/ManageOwner.sol\":2198:2260  if (new_threshold != threshold) changeThreshold(new_threshold) */\n    tag_138:\n        /* \"contracts/Wallet/ManageOwner.sol\":1709:2268  function addOwnersAndThreshold(address owner, uint256 new_threshold)public signed{... */\n      pop\n      pop\n      jump\t// out\n        /* \"contracts/Wallet/Simplewallet02.sol\":816:1712  function exertransact(... */\n    tag_47:\n        /* \"contracts/Wallet/Simplewallet02.sol\":1091:1103  bool success */\n      0x00\n        /* \"contracts/Wallet/Simplewallet02.sol\":1119:1133  bytes32 txhash */\n      dup1\n        /* \"contracts/Wallet/Simplewallet02.sol\":1192:1344  encodetx(... */\n      tag_141\n        /* \"contracts/Wallet/Simplewallet02.sol\":1219:1221  to */\n      dup8\n        /* \"contracts/Wallet/Simplewallet02.sol\":1240:1245  value */\n      dup8\n        /* \"contracts/Wallet/Simplewallet02.sol\":1265:1269  data */\n      dup8\n      dup8\n        /* \"contracts/Wallet/Simplewallet02.sol\":1192:1344  encodetx(... */\n      dup1\n      dup1\n      0x1f\n      add\n      0x20\n      dup1\n      swap2\n      div\n      mul\n      0x20\n      add\n      mload(0x40)\n      swap1\n      dup2\n      add\n      0x40\n      mstore\n      dup1\n      swap4\n      swap3\n      swap2\n      swap1\n      dup2\n      dup2\n      mstore\n      0x20\n      add\n      dup4\n      dup4\n      dup1\n      dup3\n      dup5\n      calldatacopy\n      0x00\n      dup2\n      dup5\n      add\n      mstore\n      not(0x1f)\n      0x1f\n      dup3\n      add\n      and\n      swap1\n      pop\n      dup1\n      dup4\n      add\n      swap3\n      pop\n      pop\n      pop\n      pop\n      pop\n      pop\n      pop\n        /* \"contracts/Wallet/Simplewallet02.sol\":1288:1293  nonce */\n      sload(0x03)\n        /* \"contracts/Wallet/Simplewallet02.sol\":1312:1325  block.chainid */\n      chainid\n        /* \"contracts/Wallet/Simplewallet02.sol\":1192:1200  encodetx */\n      tag_142\n        /* \"contracts/Wallet/Simplewallet02.sol\":1192:1344  encodetx(... */\n      jump\t// in\n    tag_141:\n        /* \"contracts/Wallet/Simplewallet02.sol\":1183:1344  txhash = encodetx(... */\n      swap1\n      pop\n        /* \"contracts/Wallet/Simplewallet02.sol\":1359:1364  nonce */\n      0x03\n      0x00\n        /* \"contracts/Wallet/Simplewallet02.sol\":1359:1366  nonce++ */\n      dup2\n      sload\n      dup1\n      swap3\n      swap2\n      swap1\n      tag_143\n      swap1\n      tag_121\n      jump\t// in\n    tag_143:\n      swap2\n      swap1\n      pop\n      sstore\n      pop\n        /* \"contracts/Wallet/Simplewallet02.sol\":1410:1444  checkSignature(txhash, signatures) */\n      tag_144\n        /* \"contracts/Wallet/Simplewallet02.sol\":1425:1431  txhash */\n      dup2\n        /* \"contracts/Wallet/Simplewallet02.sol\":1433:1443  signatures */\n      dup5\n        /* \"contracts/Wallet/Simplewallet02.sol\":1410:1424  checkSignature */\n      tag_81\n        /* \"contracts/Wallet/Simplewallet02.sol\":1410:1444  checkSignature(txhash, signatures) */\n      jump\t// in\n    tag_144:\n        /* \"contracts/Wallet/Simplewallet02.sol\":1516:1518  to */\n      dup7\n        /* \"contracts/Wallet/Simplewallet02.sol\":1516:1523  to.call */\n      0xffffffffffffffffffffffffffffffffffffffff\n      and\n        /* \"contracts/Wallet/Simplewallet02.sol\":1531:1536  value */\n      dup7\n        /* \"contracts/Wallet/Simplewallet02.sol\":1538:1542  data */\n      dup7\n      dup7\n        /* \"contracts/Wallet/Simplewallet02.sol\":1516:1543  to.call{value: value}(data) */\n      mload(0x40)\n      tag_145\n      swap3\n      swap2\n      swap1\n      tag_146\n      jump\t// in\n    tag_145:\n      0x00\n      mload(0x40)\n      dup1\n      dup4\n      sub\n      dup2\n      dup6\n      dup8\n      gas\n      call\n      swap3\n      pop\n      pop\n      pop\n      returndatasize\n      dup1\n      0x00\n      dup2\n      eq\n      tag_149\n      jumpi\n      mload(0x40)\n      swap2\n      pop\n      and(add(returndatasize, 0x3f), not(0x1f))\n      dup3\n      add\n      0x40\n      mstore\n      returndatasize\n      dup3\n      mstore\n      returndatasize\n      0x00\n      0x20\n      dup5\n      add\n      returndatacopy\n      jump(tag_148)\n    tag_149:\n      0x60\n      swap2\n      pop\n    tag_148:\n      pop\n        /* \"contracts/Wallet/Simplewallet02.sol\":1503:1543  (success,) = to.call{value: value}(data) */\n      pop\n      dup1\n      swap3\n      pop\n      pop\n        /* \"contracts/Wallet/Simplewallet02.sol\":1562:1569  success */\n      dup2\n        /* \"contracts/Wallet/Simplewallet02.sol\":1558:1684  if (success)... */\n      iszero\n      tag_150\n      jumpi\n        /* \"contracts/Wallet/Simplewallet02.sol\":1610:1616  txhash */\n      dup1\n        /* \"contracts/Wallet/Simplewallet02.sol\":1593:1617  ExecutionSuccess(txhash) */\n      0xdc29884a71d2bb98d3c53dc09718be05c7bfd142b7773a5c5cf2517629290ac0\n      mload(0x40)\n      mload(0x40)\n      dup1\n      swap2\n      sub\n      swap1\n      log2\n        /* \"contracts/Wallet/Simplewallet02.sol\":1558:1684  if (success)... */\n      jump(tag_151)\n    tag_150:\n        /* \"contracts/Wallet/Simplewallet02.sol\":1677:1683  txhash */\n      dup1\n        /* \"contracts/Wallet/Simplewallet02.sol\":1660:1684  ExecutionFailure(txhash) */\n      0xdbe42d02a4e07d7eeff2874efe172540c93b297d206f6d691c9782a257323e32\n      mload(0x40)\n      mload(0x40)\n      dup1\n      swap2\n      sub\n      swap1\n      log2\n        /* \"contracts/Wallet/Simplewallet02.sol\":1558:1684  if (success)... */\n    tag_151:\n        /* \"contracts/Wallet/Simplewallet02.sol\":1104:1712  {... */\n      pop\n        /* \"contracts/Wallet/Simplewallet02.sol\":816:1712  function exertransact(... */\n      swap6\n      swap5\n      pop\n      pop\n      pop\n      pop\n      pop\n      jump\t// out\n        /* \"contracts/Wallet/ManageOwner.sol\":6132:6383  function getAdjacent(address owner, bool _direction)public view returns (bool, address) {... */\n    tag_54:\n        /* \"contracts/Wallet/ManageOwner.sol\":6205:6209  bool */\n      0x00\n        /* \"contracts/Wallet/ManageOwner.sol\":6211:6218  address */\n      dup1\n        /* \"contracts/Wallet/ManageOwner.sol\":6236:6253  ownerExist(owner) */\n      tag_153\n        /* \"contracts/Wallet/ManageOwner.sol\":6247:6252  owner */\n      dup5\n        /* \"contracts/Wallet/ManageOwner.sol\":6236:6246  ownerExist */\n      tag_101\n        /* \"contracts/Wallet/ManageOwner.sol\":6236:6253  ownerExist(owner) */\n      jump\t// in\n    tag_153:\n        /* \"contracts/Wallet/ManageOwner.sol\":6231:6376  if (!ownerExist(owner)) {... */\n      tag_154\n      jumpi\n        /* \"contracts/Wallet/ManageOwner.sol\":6278:6283  false */\n      0x00\n        /* \"contracts/Wallet/ManageOwner.sol\":734:735  0 */\n      dup1\n        /* \"contracts/Wallet/ManageOwner.sol\":6270:6291  return (false, _NULL) */\n      swap2\n      pop\n      swap2\n      pop\n      jump(tag_152)\n        /* \"contracts/Wallet/ManageOwner.sol\":6231:6376  if (!ownerExist(owner)) {... */\n    tag_154:\n        /* \"contracts/Wallet/ManageOwner.sol\":6332:6336  true */\n      0x01\n        /* \"contracts/Wallet/ManageOwner.sol\":6338:6344  owners */\n      0x02\n        /* \"contracts/Wallet/ManageOwner.sol\":6338:6351  owners[owner] */\n      0x00\n        /* \"contracts/Wallet/ManageOwner.sol\":6345:6350  owner */\n      dup7\n        /* \"contracts/Wallet/ManageOwner.sol\":6338:6351  owners[owner] */\n      0xffffffffffffffffffffffffffffffffffffffff\n      and\n      0xffffffffffffffffffffffffffffffffffffffff\n      and\n      dup2\n      mstore\n      0x20\n      add\n      swap1\n      dup2\n      mstore\n      0x20\n      add\n      0x00\n      keccak256\n        /* \"contracts/Wallet/ManageOwner.sol\":6338:6363  owners[owner][_direction] */\n      0x00\n        /* \"contracts/Wallet/ManageOwner.sol\":6352:6362  _direction */\n      dup6\n        /* \"contracts/Wallet/ManageOwner.sol\":6338:6363  owners[owner][_direction] */\n      iszero\n      iszero\n      iszero\n      iszero\n      dup2\n      mstore\n      0x20\n      add\n      swap1\n      dup2\n      mstore\n      0x20\n      add\n      0x00\n      keccak256\n      0x00\n      swap1\n      sload\n      swap1\n      0x0100\n      exp\n      swap1\n      div\n      0xffffffffffffffffffffffffffffffffffffffff\n      and\n        /* \"contracts/Wallet/ManageOwner.sol\":6324:6364  return (true, owners[owner][_direction]) */\n      swap2\n      pop\n      swap2\n      pop\n        /* \"contracts/Wallet/ManageOwner.sol\":6132:6383  function getAdjacent(address owner, bool _direction)public view returns (bool, address) {... */\n    tag_152:\n      swap3\n      pop\n      swap3\n      swap1\n      pop\n      jump\t// out\n        /* \"contracts/Wallet/GetAbi.sol\":639:860  function removeOwnersencode(address x, uint256 y) public pure returns(bytes memory result) {... */\n    tag_60:\n        /* \"contracts/Wallet/GetAbi.sol\":709:728  bytes memory result */\n      0x60\n        /* \"contracts/Wallet/GetAbi.sol\":779:821  keccak256(\"removeOwners(address,uint256)\") */\n      0xc0f0b3f17d4cd2b558f2e7888914cd773111e1da10e55baf4d1f32e1f6c2222f\n        /* \"contracts/Wallet/GetAbi.sol\":824:825  x */\n      dup4\n        /* \"contracts/Wallet/GetAbi.sol\":826:827  y */\n      dup4\n        /* \"contracts/Wallet/GetAbi.sol\":749:828  abi.encodeWithSelector(bytes4(keccak256(\"removeOwners(address,uint256)\")), x,y) */\n      add(0x24, mload(0x40))\n      tag_157\n      swap3\n      swap2\n      swap1\n      tag_158\n      jump\t// in\n    tag_157:\n      mload(0x40)\n      0x20\n      dup2\n      dup4\n      sub\n      sub\n      dup2\n      mstore\n      swap1\n      0x40\n      mstore\n      swap1\n      not(0xffffffffffffffffffffffffffffffffffffffffffffffffffffffff)\n      and\n      0x20\n      dup3\n      add\n      dup1\n      mload\n      0xffffffffffffffffffffffffffffffffffffffffffffffffffffffff\n      dup4\n      dup2\n      dup4\n      and\n      or\n      dup4\n      mstore\n      pop\n      pop\n      pop\n      pop\n        /* \"contracts/Wallet/GetAbi.sol\":741:828  result =abi.encodeWithSelector(bytes4(keccak256(\"removeOwners(address,uint256)\")), x,y) */\n      swap1\n      pop\n        /* \"contracts/Wallet/GetAbi.sol\":639:860  function removeOwnersencode(address x, uint256 y) public pure returns(bytes memory result) {... */\n      swap3\n      swap2\n      pop\n      pop\n      jump\t// out\n        /* \"contracts/Wallet/GetAbi.sol\":133:339  function changeThresholdencode(uint256 new_threshold) public pure returns(bytes memory result) {... */\n    tag_67:\n        /* \"contracts/Wallet/GetAbi.sol\":207:226  bytes memory result */\n      0x60\n        /* \"contracts/Wallet/GetAbi.sol\":277:314  keccak256(\"changeThreshold(uint256)\") */\n      0x694e80c37192d74d6099f3d3b41506932ab644a24442ee51857cfeb9eb01ac2f\n        /* \"contracts/Wallet/GetAbi.sol\":317:330  new_threshold */\n      dup3\n        /* \"contracts/Wallet/GetAbi.sol\":247:331  abi.encodeWithSelector(bytes4(keccak256(\"changeThreshold(uint256)\")), new_threshold) */\n      add(0x24, mload(0x40))\n      tag_160\n      swap2\n      swap1\n      tag_25\n      jump\t// in\n    tag_160:\n      mload(0x40)\n      0x20\n      dup2\n      dup4\n      sub\n      sub\n      dup2\n      mstore\n      swap1\n      0x40\n      mstore\n      swap1\n      not(0xffffffffffffffffffffffffffffffffffffffffffffffffffffffff)\n      and\n      0x20\n      dup3\n      add\n      dup1\n      mload\n      0xffffffffffffffffffffffffffffffffffffffffffffffffffffffff\n      dup4\n      dup2\n      dup4\n      and\n      or\n      dup4\n      mstore\n      pop\n      pop\n      pop\n      pop\n        /* \"contracts/Wallet/GetAbi.sol\":239:331  result =abi.encodeWithSelector(bytes4(keccak256(\"changeThreshold(uint256)\")), new_threshold) */\n      swap1\n      pop\n        /* \"contracts/Wallet/GetAbi.sol\":133:339  function changeThresholdencode(uint256 new_threshold) public pure returns(bytes memory result) {... */\n      swap2\n      swap1\n      pop\n      jump\t// out\n        /* \"contracts/Wallet/ManageOwner.sol\":2894:3234  function changeThreshold(uint256 new_threshold)public signed{... */\n    tag_72:\n        /* \"contracts/Wallet/SelfAuthorize.sol\":349:364  requireSigned() */\n      tag_162\n        /* \"contracts/Wallet/SelfAuthorize.sol\":349:362  requireSigned */\n      tag_124\n        /* \"contracts/Wallet/SelfAuthorize.sol\":349:364  requireSigned() */\n      jump\t// in\n    tag_162:\n        /* \"contracts/Wallet/ManageOwner.sol\":3039:3049  owners_num */\n      sload(0x00)\n        /* \"contracts/Wallet/ManageOwner.sol\":3022:3035  new_threshold */\n      dup2\n        /* \"contracts/Wallet/ManageOwner.sol\":3022:3049  new_threshold <= owners_num */\n      gt\n      iszero\n        /* \"contracts/Wallet/ManageOwner.sol\":3014:3061  require(new_threshold <= owners_num, \"error02\") */\n      tag_164\n      jumpi\n      mload(0x40)\n      0x08c379a000000000000000000000000000000000000000000000000000000000\n      dup2\n      mstore\n      0x04\n      add\n      tag_165\n      swap1\n      tag_166\n      jump\t// in\n    tag_165:\n      mload(0x40)\n      dup1\n      swap2\n      sub\n      swap1\n      revert\n    tag_164:\n        /* \"contracts/Wallet/ManageOwner.sol\":3135:3136  1 */\n      0x01\n        /* \"contracts/Wallet/ManageOwner.sol\":3118:3131  new_threshold */\n      dup2\n        /* \"contracts/Wallet/ManageOwner.sol\":3118:3136  new_threshold >= 1 */\n      lt\n      iszero\n        /* \"contracts/Wallet/ManageOwner.sol\":3110:3148  require(new_threshold >= 1, \"error03\") */\n      tag_167\n      jumpi\n      mload(0x40)\n      0x08c379a000000000000000000000000000000000000000000000000000000000\n      dup2\n      mstore\n      0x04\n      add\n      tag_168\n      swap1\n      tag_169\n      jump\t// in\n    tag_168:\n      mload(0x40)\n      dup1\n      swap2\n      sub\n      swap1\n      revert\n    tag_167:\n        /* \"contracts/Wallet/ManageOwner.sol\":3171:3184  new_threshold */\n      dup1\n        /* \"contracts/Wallet/ManageOwner.sol\":3159:3168  threshold */\n      0x01\n        /* \"contracts/Wallet/ManageOwner.sol\":3159:3184  threshold = new_threshold */\n      dup2\n      swap1\n      sstore\n      pop\n        /* \"contracts/Wallet/ManageOwner.sol\":3200:3226  ChangeThreshold(threshold) */\n      0x9947ac58e204d2da07b9748298663b3b77da7fb0638201d778987ded7c90fbaa\n        /* \"contracts/Wallet/ManageOwner.sol\":3216:3225  threshold */\n      sload(0x01)\n        /* \"contracts/Wallet/ManageOwner.sol\":3200:3226  ChangeThreshold(threshold) */\n      mload(0x40)\n      tag_170\n      swap2\n      swap1\n      tag_25\n      jump\t// in\n    tag_170:\n      mload(0x40)\n      dup1\n      swap2\n      sub\n      swap1\n      log1\n        /* \"contracts/Wallet/ManageOwner.sol\":2894:3234  function changeThreshold(uint256 new_threshold)public signed{... */\n      pop\n      jump\t// out\n        /* \"contracts/Wallet/ManageOwner.sol\":3269:3357  function checkThreshold()public view returns(uint256){... */\n    tag_75:\n        /* \"contracts/Wallet/ManageOwner.sol\":3314:3321  uint256 */\n      0x00\n        /* \"contracts/Wallet/ManageOwner.sol\":3340:3349  threshold */\n      sload(0x01)\n        /* \"contracts/Wallet/ManageOwner.sol\":3333:3349  return threshold */\n      swap1\n      pop\n        /* \"contracts/Wallet/ManageOwner.sol\":3269:3357  function checkThreshold()public view returns(uint256){... */\n      swap1\n      jump\t// out\n        /* \"contracts/Wallet/Simplewallet02.sol\":1739:2047  function checkSignature(bytes32 datatxhash, bytes memory signatures)public view {... */\n    tag_81:\n        /* \"contracts/Wallet/Simplewallet02.sol\":1830:1848  uint256 _threshold */\n      0x00\n        /* \"contracts/Wallet/Simplewallet02.sol\":1851:1860  threshold */\n      sload(0x01)\n        /* \"contracts/Wallet/Simplewallet02.sol\":1830:1860  uint256 _threshold = threshold */\n      swap1\n      pop\n        /* \"contracts/Wallet/Simplewallet02.sol\":1929:1930  0 */\n      0x00\n        /* \"contracts/Wallet/Simplewallet02.sol\":1916:1926  _threshold */\n      dup2\n        /* \"contracts/Wallet/Simplewallet02.sol\":1916:1930  _threshold > 0 */\n      gt\n        /* \"contracts/Wallet/Simplewallet02.sol\":1908:1942  require(_threshold > 0, \"error05\") */\n      tag_173\n      jumpi\n      mload(0x40)\n      0x08c379a000000000000000000000000000000000000000000000000000000000\n      dup2\n      mstore\n      0x04\n      add\n      tag_174\n      swap1\n      tag_175\n      jump\t// in\n    tag_174:\n      mload(0x40)\n      dup1\n      swap2\n      sub\n      swap1\n      revert\n    tag_173:\n        /* \"contracts/Wallet/Simplewallet02.sol\":1984:2039  startCheckSignature(datatxhash, signatures, _threshold) */\n      tag_176\n        /* \"contracts/Wallet/Simplewallet02.sol\":2004:2014  datatxhash */\n      dup4\n        /* \"contracts/Wallet/Simplewallet02.sol\":2016:2026  signatures */\n      dup4\n        /* \"contracts/Wallet/Simplewallet02.sol\":2028:2038  _threshold */\n      dup4\n        /* \"contracts/Wallet/Simplewallet02.sol\":1984:2003  startCheckSignature */\n      tag_177\n        /* \"contracts/Wallet/Simplewallet02.sol\":1984:2039  startCheckSignature(datatxhash, signatures, _threshold) */\n      jump\t// in\n    tag_176:\n        /* \"contracts/Wallet/Simplewallet02.sol\":1819:2047  {... */\n      pop\n        /* \"contracts/Wallet/Simplewallet02.sol\":1739:2047  function checkSignature(bytes32 datatxhash, bytes memory signatures)public view {... */\n      pop\n      pop\n      jump\t// out\n        /* \"contracts/Wallet/Simplewallet02.sol\":5223:5420  function getTxhash(... */\n    tag_86:\n        /* \"contracts/Wallet/Simplewallet02.sol\":5342:5349  bytes32 */\n      0x00\n        /* \"contracts/Wallet/Simplewallet02.sol\":5369:5412  encodetx(to,value,data,nonce,block.chainid) */\n      tag_179\n        /* \"contracts/Wallet/Simplewallet02.sol\":5378:5380  to */\n      dup5\n        /* \"contracts/Wallet/Simplewallet02.sol\":5381:5386  value */\n      dup5\n        /* \"contracts/Wallet/Simplewallet02.sol\":5387:5391  data */\n      dup5\n        /* \"contracts/Wallet/Simplewallet02.sol\":5392:5397  nonce */\n      sload(0x03)\n        /* \"contracts/Wallet/Simplewallet02.sol\":5398:5411  block.chainid */\n      chainid\n        /* \"contracts/Wallet/Simplewallet02.sol\":5369:5377  encodetx */\n      tag_142\n        /* \"contracts/Wallet/Simplewallet02.sol\":5369:5412  encodetx(to,value,data,nonce,block.chainid) */\n      jump\t// in\n    tag_179:\n        /* \"contracts/Wallet/Simplewallet02.sol\":5362:5412  return encodetx(to,value,data,nonce,block.chainid) */\n      swap1\n      pop\n        /* \"contracts/Wallet/Simplewallet02.sol\":5223:5420  function getTxhash(... */\n      swap4\n      swap3\n      pop\n      pop\n      pop\n      jump\t// out\n        /* \"contracts/Wallet/Simplewallet02.sol\":547:567  uint256 public nonce */\n    tag_91:\n      sload(0x03)\n      dup2\n      jump\t// out\n        /* \"contracts/Wallet/ManageOwner.sol\":2360:2805  function removeOwners(address preowner, uint256 new_threshold)public signed{... */\n    tag_96:\n        /* \"contracts/Wallet/SelfAuthorize.sol\":349:364  requireSigned() */\n      tag_181\n        /* \"contracts/Wallet/SelfAuthorize.sol\":349:362  requireSigned */\n      tag_124\n        /* \"contracts/Wallet/SelfAuthorize.sol\":349:364  requireSigned() */\n      jump\t// in\n    tag_181:\n        /* \"contracts/Wallet/ManageOwner.sol\":2514:2527  new_threshold */\n      dup1\n        /* \"contracts/Wallet/ManageOwner.sol\":2510:2511  1 */\n      0x01\n        /* \"contracts/Wallet/ManageOwner.sol\":2497:2507  owners_num */\n      sload(0x00)\n        /* \"contracts/Wallet/ManageOwner.sol\":2497:2511  owners_num - 1 */\n      tag_183\n      swap2\n      swap1\n      tag_184\n      jump\t// in\n    tag_183:\n        /* \"contracts/Wallet/ManageOwner.sol\":2497:2527  owners_num - 1 >=new_threshold */\n      lt\n      iszero\n        /* \"contracts/Wallet/ManageOwner.sol\":2489:2538  require(owners_num - 1 >=new_threshold,\"error02\") */\n      tag_185\n      jumpi\n      mload(0x40)\n      0x08c379a000000000000000000000000000000000000000000000000000000000\n      dup2\n      mstore\n      0x04\n      add\n      tag_186\n      swap1\n      tag_166\n      jump\t// in\n    tag_186:\n      mload(0x40)\n      dup1\n      swap2\n      sub\n      swap1\n      revert\n    tag_185:\n        /* \"contracts/Wallet/ManageOwner.sol\":2597:2617  ownerExist(preowner) */\n      tag_187\n        /* \"contracts/Wallet/ManageOwner.sol\":2608:2616  preowner */\n      dup3\n        /* \"contracts/Wallet/ManageOwner.sol\":2597:2607  ownerExist */\n      tag_101\n        /* \"contracts/Wallet/ManageOwner.sol\":2597:2617  ownerExist(preowner) */\n      jump\t// in\n    tag_187:\n        /* \"contracts/Wallet/ManageOwner.sol\":2589:2628  require(ownerExist(preowner),\"error07\") */\n      tag_188\n      jumpi\n      mload(0x40)\n      0x08c379a000000000000000000000000000000000000000000000000000000000\n      dup2\n      mstore\n      0x04\n      add\n      tag_189\n      swap1\n      tag_190\n      jump\t// in\n    tag_189:\n      mload(0x40)\n      dup1\n      swap2\n      sub\n      swap1\n      revert\n    tag_188:\n        /* \"contracts/Wallet/ManageOwner.sol\":2667:2688  removeowner(preowner) */\n      tag_191\n        /* \"contracts/Wallet/ManageOwner.sol\":2679:2687  preowner */\n      dup3\n        /* \"contracts/Wallet/ManageOwner.sol\":2667:2678  removeowner */\n      tag_192\n        /* \"contracts/Wallet/ManageOwner.sol\":2667:2688  removeowner(preowner) */\n      jump\t// in\n    tag_191:\n        /* \"contracts/Wallet/ManageOwner.sol\":2716:2724  preowner */\n      dup2\n        /* \"contracts/Wallet/ManageOwner.sol\":2704:2725  RemoveOwner(preowner) */\n      0xffffffffffffffffffffffffffffffffffffffff\n      and\n      0xac6e8398676cf37429d530b81144d7079e99f4fe9d28b0d88c4a749ceccbe8cd\n      mload(0x40)\n      mload(0x40)\n      dup1\n      swap2\n      sub\n      swap1\n      log2\n        /* \"contracts/Wallet/ManageOwner.sol\":2756:2765  threshold */\n      sload(0x01)\n        /* \"contracts/Wallet/ManageOwner.sol\":2739:2752  new_threshold */\n      dup2\n        /* \"contracts/Wallet/ManageOwner.sol\":2739:2765  new_threshold != threshold */\n      eq\n        /* \"contracts/Wallet/ManageOwner.sol\":2736:2797  if(new_threshold != threshold) changeThreshold(new_threshold) */\n      tag_193\n      jumpi\n        /* \"contracts/Wallet/ManageOwner.sol\":2767:2797  changeThreshold(new_threshold) */\n      tag_194\n        /* \"contracts/Wallet/ManageOwner.sol\":2783:2796  new_threshold */\n      dup2\n        /* \"contracts/Wallet/ManageOwner.sol\":2767:2782  changeThreshold */\n      tag_72\n        /* \"contracts/Wallet/ManageOwner.sol\":2767:2797  changeThreshold(new_threshold) */\n      jump\t// in\n    tag_194:\n        /* \"contracts/Wallet/ManageOwner.sol\":2736:2797  if(new_threshold != threshold) changeThreshold(new_threshold) */\n    tag_193:\n        /* \"contracts/Wallet/ManageOwner.sol\":2360:2805  function removeOwners(address preowner, uint256 new_threshold)public signed{... */\n      pop\n      pop\n      jump\t// out\n        /* \"contracts/Wallet/ManageOwner.sol\":5713:5866  function ownerExist(address _owner)public view returns (bool){... */\n    tag_101:\n        /* \"contracts/Wallet/ManageOwner.sol\":5769:5773  bool */\n      0x00\n        /* \"contracts/Wallet/ManageOwner.sol\":734:735  0 */\n      dup1\n        /* \"contracts/Wallet/ManageOwner.sol\":5793:5822  owners[_owner][_PRE] != _NULL */\n      0xffffffffffffffffffffffffffffffffffffffff\n      and\n        /* \"contracts/Wallet/ManageOwner.sol\":5793:5799  owners */\n      0x02\n        /* \"contracts/Wallet/ManageOwner.sol\":5793:5807  owners[_owner] */\n      0x00\n        /* \"contracts/Wallet/ManageOwner.sol\":5800:5806  _owner */\n      dup5\n        /* \"contracts/Wallet/ManageOwner.sol\":5793:5807  owners[_owner] */\n      0xffffffffffffffffffffffffffffffffffffffff\n      and\n      0xffffffffffffffffffffffffffffffffffffffff\n      and\n      dup2\n      mstore\n      0x20\n      add\n      swap1\n      dup2\n      mstore\n      0x20\n      add\n      0x00\n      keccak256\n        /* \"contracts/Wallet/ManageOwner.sol\":5793:5813  owners[_owner][_PRE] */\n      0x00\n        /* \"contracts/Wallet/ManageOwner.sol\":593:598  false */\n      dup1\n        /* \"contracts/Wallet/ManageOwner.sol\":5793:5813  owners[_owner][_PRE] */\n      iszero\n      iszero\n      iszero\n      iszero\n      dup2\n      mstore\n      0x20\n      add\n      swap1\n      dup2\n      mstore\n      0x20\n      add\n      0x00\n      keccak256\n      0x00\n      swap1\n      sload\n      swap1\n      0x0100\n      exp\n      swap1\n      div\n      0xffffffffffffffffffffffffffffffffffffffff\n      and\n        /* \"contracts/Wallet/ManageOwner.sol\":5793:5822  owners[_owner][_PRE] != _NULL */\n      0xffffffffffffffffffffffffffffffffffffffff\n      and\n      eq\n      iszero\n        /* \"contracts/Wallet/ManageOwner.sol\":5793:5856  owners[_owner][_PRE] != _NULL || owners[_owner][_NEXT] != _NULL */\n      dup1\n      tag_196\n      jumpi\n      pop\n        /* \"contracts/Wallet/ManageOwner.sol\":734:735  0 */\n      0x00\n        /* \"contracts/Wallet/ManageOwner.sol\":5826:5856  owners[_owner][_NEXT] != _NULL */\n      0xffffffffffffffffffffffffffffffffffffffff\n      and\n        /* \"contracts/Wallet/ManageOwner.sol\":5826:5832  owners */\n      0x02\n        /* \"contracts/Wallet/ManageOwner.sol\":5826:5840  owners[_owner] */\n      0x00\n        /* \"contracts/Wallet/ManageOwner.sol\":5833:5839  _owner */\n      dup5\n        /* \"contracts/Wallet/ManageOwner.sol\":5826:5840  owners[_owner] */\n      0xffffffffffffffffffffffffffffffffffffffff\n      and\n      0xffffffffffffffffffffffffffffffffffffffff\n      and\n      dup2\n      mstore\n      0x20\n      add\n      swap1\n      dup2\n      mstore\n      0x20\n      add\n      0x00\n      keccak256\n        /* \"contracts/Wallet/ManageOwner.sol\":5826:5847  owners[_owner][_NEXT] */\n      0x00\n        /* \"contracts/Wallet/ManageOwner.sol\":636:640  true */\n      0x01\n        /* \"contracts/Wallet/ManageOwner.sol\":5826:5847  owners[_owner][_NEXT] */\n      iszero\n      iszero\n      iszero\n      iszero\n      dup2\n      mstore\n      0x20\n      add\n      swap1\n      dup2\n      mstore\n      0x20\n      add\n      0x00\n      keccak256\n      0x00\n      swap1\n      sload\n      swap1\n      0x0100\n      exp\n      swap1\n      div\n      0xffffffffffffffffffffffffffffffffffffffff\n      and\n        /* \"contracts/Wallet/ManageOwner.sol\":5826:5856  owners[_owner][_NEXT] != _NULL */\n      0xffffffffffffffffffffffffffffffffffffffff\n      and\n      eq\n      iszero\n        /* \"contracts/Wallet/ManageOwner.sol\":5793:5856  owners[_owner][_PRE] != _NULL || owners[_owner][_NEXT] != _NULL */\n    tag_196:\n        /* \"contracts/Wallet/ManageOwner.sol\":5785:5857  return (owners[_owner][_PRE] != _NULL || owners[_owner][_NEXT] != _NULL) */\n      swap1\n      pop\n        /* \"contracts/Wallet/ManageOwner.sol\":5713:5866  function ownerExist(address _owner)public view returns (bool){... */\n      swap2\n      swap1\n      pop\n      jump\t// out\n        /* \"contracts/Wallet/GetAbi.sol\":387:589  function addOwnersencode(address x, uint256 y) public pure returns(bytes memory result) {... */\n    tag_106:\n        /* \"contracts/Wallet/GetAbi.sol\":454:473  bytes memory result */\n      0x60\n        /* \"contracts/Wallet/GetAbi.sol\":524:575  keccak256(\"addOwnersAndThreshold(address,uint256)\") */\n      0x0c54620469a3eeff8e01e9971bcf46e640abbf3fa3139aa3afa97959f3d74499\n        /* \"contracts/Wallet/GetAbi.sol\":577:578  x */\n      dup4\n        /* \"contracts/Wallet/GetAbi.sol\":579:580  y */\n      dup4\n        /* \"contracts/Wallet/GetAbi.sol\":494:581  abi.encodeWithSelector(bytes4(keccak256(\"addOwnersAndThreshold(address,uint256)\")),x,y) */\n      add(0x24, mload(0x40))\n      tag_198\n      swap3\n      swap2\n      swap1\n      tag_158\n      jump\t// in\n    tag_198:\n      mload(0x40)\n      0x20\n      dup2\n      dup4\n      sub\n      sub\n      dup2\n      mstore\n      swap1\n      0x40\n      mstore\n      swap1\n      not(0xffffffffffffffffffffffffffffffffffffffffffffffffffffffff)\n      and\n      0x20\n      dup3\n      add\n      dup1\n      mload\n      0xffffffffffffffffffffffffffffffffffffffffffffffffffffffff\n      dup4\n      dup2\n      dup4\n      and\n      or\n      dup4\n      mstore\n      pop\n      pop\n      pop\n      pop\n        /* \"contracts/Wallet/GetAbi.sol\":486:581  result =abi.encodeWithSelector(bytes4(keccak256(\"addOwnersAndThreshold(address,uint256)\")),x,y) */\n      swap1\n      pop\n        /* \"contracts/Wallet/GetAbi.sol\":387:589  function addOwnersencode(address x, uint256 y) public pure returns(bytes memory result) {... */\n      swap3\n      swap2\n      pop\n      pop\n      jump\t// out\n        /* \"contracts/Wallet/SelfAuthorize.sol\":203:313  function requireSigned()internal view{... */\n    tag_124:\n        /* \"contracts/Wallet/SelfAuthorize.sol\":281:285  this */\n      address\n        /* \"contracts/Wallet/SelfAuthorize.sol\":259:286  msg.sender == address(this) */\n      0xffffffffffffffffffffffffffffffffffffffff\n      and\n        /* \"contracts/Wallet/SelfAuthorize.sol\":259:269  msg.sender */\n      caller\n        /* \"contracts/Wallet/SelfAuthorize.sol\":259:286  msg.sender == address(this) */\n      0xffffffffffffffffffffffffffffffffffffffff\n      and\n      eq\n        /* \"contracts/Wallet/SelfAuthorize.sol\":251:305  require(msg.sender == address(this), \"Not authorized\") */\n      tag_200\n      jumpi\n      mload(0x40)\n      0x08c379a000000000000000000000000000000000000000000000000000000000\n      dup2\n      mstore\n      0x04\n      add\n      tag_201\n      swap1\n      tag_202\n      jump\t// in\n    tag_201:\n      mload(0x40)\n      dup1\n      swap2\n      sub\n      swap1\n      revert\n    tag_200:\n        /* \"contracts/Wallet/SelfAuthorize.sol\":203:313  function requireSigned()internal view{... */\n      jump\t// out\n        /* \"contracts/Wallet/ManageOwner.sol\":3846:5060  function addowner(address owner)private {... */\n    tag_137:\n        /* \"contracts/Wallet/ManageOwner.sol\":3922:3923  0 */\n      0x00\n        /* \"contracts/Wallet/ManageOwner.sol\":3905:3924  owner != address(0) */\n      0xffffffffffffffffffffffffffffffffffffffff\n      and\n        /* \"contracts/Wallet/ManageOwner.sol\":3905:3910  owner */\n      dup2\n        /* \"contracts/Wallet/ManageOwner.sol\":3905:3924  owner != address(0) */\n      0xffffffffffffffffffffffffffffffffffffffff\n      and\n      eq\n      iszero\n        /* \"contracts/Wallet/ManageOwner.sol\":3905:3950  owner != address(0) && owner != address(this) */\n      dup1\n      iszero\n      tag_204\n      jumpi\n      pop\n        /* \"contracts/Wallet/ManageOwner.sol\":3945:3949  this */\n      address\n        /* \"contracts/Wallet/ManageOwner.sol\":3928:3950  owner != address(this) */\n      0xffffffffffffffffffffffffffffffffffffffff\n      and\n        /* \"contracts/Wallet/ManageOwner.sol\":3928:3933  owner */\n      dup2\n        /* \"contracts/Wallet/ManageOwner.sol\":3928:3950  owner != address(this) */\n      0xffffffffffffffffffffffffffffffffffffffff\n      and\n      eq\n      iszero\n        /* \"contracts/Wallet/ManageOwner.sol\":3905:3950  owner != address(0) && owner != address(this) */\n    tag_204:\n        /* \"contracts/Wallet/ManageOwner.sol\":3905:3972  owner != address(0) && owner != address(this) && !ownerExist(owner) */\n      dup1\n      iszero\n      tag_205\n      jumpi\n      pop\n        /* \"contracts/Wallet/ManageOwner.sol\":3955:3972  ownerExist(owner) */\n      tag_206\n        /* \"contracts/Wallet/ManageOwner.sol\":3966:3971  owner */\n      dup2\n        /* \"contracts/Wallet/ManageOwner.sol\":3955:3965  ownerExist */\n      tag_101\n        /* \"contracts/Wallet/ManageOwner.sol\":3955:3972  ownerExist(owner) */\n      jump\t// in\n    tag_206:\n        /* \"contracts/Wallet/ManageOwner.sol\":3954:3972  !ownerExist(owner) */\n      iszero\n        /* \"contracts/Wallet/ManageOwner.sol\":3905:3972  owner != address(0) && owner != address(this) && !ownerExist(owner) */\n    tag_205:\n        /* \"contracts/Wallet/ManageOwner.sol\":3897:3983  require(owner != address(0) && owner != address(this) && !ownerExist(owner),\"error04\") */\n      tag_207\n      jumpi\n      mload(0x40)\n      0x08c379a000000000000000000000000000000000000000000000000000000000\n      dup2\n      mstore\n      0x04\n      add\n      tag_208\n      swap1\n      tag_135\n      jump\t// in\n    tag_208:\n      mload(0x40)\n      dup1\n      swap2\n      sub\n      swap1\n      revert\n    tag_207:\n        /* \"contracts/Wallet/ManageOwner.sol\":3994:4014  address currentowner */\n      0x00\n        /* \"contracts/Wallet/ManageOwner.sol\":785:788  0x1 */\n      0x01\n        /* \"contracts/Wallet/ManageOwner.sol\":3994:4022  address currentowner = _HEAD */\n      swap1\n      pop\n        /* \"contracts/Wallet/ManageOwner.sol\":4033:4050  address nextowner */\n      0x00\n        /* \"contracts/Wallet/ManageOwner.sol\":4076:4107  getAdjacent(currentowner,_NEXT) */\n      tag_209\n        /* \"contracts/Wallet/ManageOwner.sol\":4088:4100  currentowner */\n      dup3\n        /* \"contracts/Wallet/ManageOwner.sol\":636:640  true */\n      0x01\n        /* \"contracts/Wallet/ManageOwner.sol\":4076:4087  getAdjacent */\n      tag_54\n        /* \"contracts/Wallet/ManageOwner.sol\":4076:4107  getAdjacent(currentowner,_NEXT) */\n      jump\t// in\n    tag_209:\n        /* \"contracts/Wallet/ManageOwner.sol\":4061:4107  (,nextowner) = getAdjacent(currentowner,_NEXT) */\n      swap1\n      pop\n      dup1\n      swap2\n      pop\n      pop\n        /* \"contracts/Wallet/ManageOwner.sol\":4161:4896  while (nextowner != _NULL){... */\n    tag_210:\n        /* \"contracts/Wallet/ManageOwner.sol\":734:735  0 */\n      0x00\n        /* \"contracts/Wallet/ManageOwner.sol\":4168:4186  nextowner != _NULL */\n      0xffffffffffffffffffffffffffffffffffffffff\n      and\n        /* \"contracts/Wallet/ManageOwner.sol\":4168:4177  nextowner */\n      dup2\n        /* \"contracts/Wallet/ManageOwner.sol\":4168:4186  nextowner != _NULL */\n      0xffffffffffffffffffffffffffffffffffffffff\n      and\n      eq\n        /* \"contracts/Wallet/ManageOwner.sol\":4161:4896  while (nextowner != _NULL){... */\n      tag_211\n      jumpi\n        /* \"contracts/Wallet/ManageOwner.sol\":4261:4266  owner */\n      dup3\n        /* \"contracts/Wallet/ManageOwner.sol\":4249:4266  nextowner > owner */\n      0xffffffffffffffffffffffffffffffffffffffff\n      and\n        /* \"contracts/Wallet/ManageOwner.sol\":4249:4258  nextowner */\n      dup2\n        /* \"contracts/Wallet/ManageOwner.sol\":4249:4266  nextowner > owner */\n      0xffffffffffffffffffffffffffffffffffffffff\n      and\n      gt\n        /* \"contracts/Wallet/ManageOwner.sol\":4249:4290  nextowner > owner && currentowner < owner */\n      dup1\n      iszero\n      tag_212\n      jumpi\n      pop\n        /* \"contracts/Wallet/ManageOwner.sol\":4285:4290  owner */\n      dup3\n        /* \"contracts/Wallet/ManageOwner.sol\":4270:4290  currentowner < owner */\n      0xffffffffffffffffffffffffffffffffffffffff\n      and\n        /* \"contracts/Wallet/ManageOwner.sol\":4270:4282  currentowner */\n      dup3\n        /* \"contracts/Wallet/ManageOwner.sol\":4270:4290  currentowner < owner */\n      0xffffffffffffffffffffffffffffffffffffffff\n      and\n      lt\n        /* \"contracts/Wallet/ManageOwner.sol\":4249:4290  nextowner > owner && currentowner < owner */\n    tag_212:\n        /* \"contracts/Wallet/ManageOwner.sol\":4245:4881  if (nextowner > owner && currentowner < owner){... */\n      iszero\n      tag_213\n      jumpi\n        /* \"contracts/Wallet/ManageOwner.sol\":4314:4349  _insert(currentowner, owner, _NEXT) */\n      tag_214\n        /* \"contracts/Wallet/ManageOwner.sol\":4322:4334  currentowner */\n      dup3\n        /* \"contracts/Wallet/ManageOwner.sol\":4336:4341  owner */\n      dup5\n        /* \"contracts/Wallet/ManageOwner.sol\":636:640  true */\n      0x01\n        /* \"contracts/Wallet/ManageOwner.sol\":4314:4321  _insert */\n      tag_215\n        /* \"contracts/Wallet/ManageOwner.sol\":4314:4349  _insert(currentowner, owner, _NEXT) */\n      jump\t// in\n    tag_214:\n        /* \"contracts/Wallet/ManageOwner.sol\":4372:4377  break */\n      jump(tag_211)\n        /* \"contracts/Wallet/ManageOwner.sol\":4245:4881  if (nextowner > owner && currentowner < owner){... */\n    tag_213:\n        /* \"contracts/Wallet/ManageOwner.sol\":4496:4501  owner */\n      dup3\n        /* \"contracts/Wallet/ManageOwner.sol\":4484:4501  nextowner > owner */\n      0xffffffffffffffffffffffffffffffffffffffff\n      and\n        /* \"contracts/Wallet/ManageOwner.sol\":4484:4493  nextowner */\n      dup2\n        /* \"contracts/Wallet/ManageOwner.sol\":4484:4501  nextowner > owner */\n      0xffffffffffffffffffffffffffffffffffffffff\n      and\n      gt\n        /* \"contracts/Wallet/ManageOwner.sol\":4480:4862  if (nextowner > owner){... */\n      iszero\n      tag_217\n      jumpi\n        /* \"contracts/Wallet/ManageOwner.sol\":4541:4553  currentowner */\n      dup2\n        /* \"contracts/Wallet/ManageOwner.sol\":4529:4553  nextowner = currentowner */\n      swap1\n      pop\n        /* \"contracts/Wallet/ManageOwner.sol\":4598:4629  getAdjacent(currentowner, _PRE) */\n      tag_218\n        /* \"contracts/Wallet/ManageOwner.sol\":4610:4622  currentowner */\n      dup3\n        /* \"contracts/Wallet/ManageOwner.sol\":593:598  false */\n      0x00\n        /* \"contracts/Wallet/ManageOwner.sol\":4598:4609  getAdjacent */\n      tag_54\n        /* \"contracts/Wallet/ManageOwner.sol\":4598:4629  getAdjacent(currentowner, _PRE) */\n      jump\t// in\n    tag_218:\n        /* \"contracts/Wallet/ManageOwner.sol\":4580:4629  (,currentowner) = getAdjacent(currentowner, _PRE) */\n      swap1\n      pop\n      dup1\n      swap3\n      pop\n      pop\n        /* \"contracts/Wallet/ManageOwner.sol\":4480:4862  if (nextowner > owner){... */\n      jump(tag_219)\n    tag_217:\n        /* \"contracts/Wallet/ManageOwner.sol\":4758:4767  nextowner */\n      dup1\n        /* \"contracts/Wallet/ManageOwner.sol\":4743:4767  currentowner = nextowner */\n      swap2\n      pop\n        /* \"contracts/Wallet/ManageOwner.sol\":4809:4838  getAdjacent(nextowner, _NEXT) */\n      tag_220\n        /* \"contracts/Wallet/ManageOwner.sol\":4821:4830  nextowner */\n      dup2\n        /* \"contracts/Wallet/ManageOwner.sol\":636:640  true */\n      0x01\n        /* \"contracts/Wallet/ManageOwner.sol\":4809:4820  getAdjacent */\n      tag_54\n        /* \"contracts/Wallet/ManageOwner.sol\":4809:4838  getAdjacent(nextowner, _NEXT) */\n      jump\t// in\n    tag_220:\n        /* \"contracts/Wallet/ManageOwner.sol\":4794:4838  (,nextowner) = getAdjacent(nextowner, _NEXT) */\n      swap1\n      pop\n      dup1\n      swap2\n      pop\n      pop\n        /* \"contracts/Wallet/ManageOwner.sol\":4480:4862  if (nextowner > owner){... */\n    tag_219:\n        /* \"contracts/Wallet/ManageOwner.sol\":4161:4896  while (nextowner != _NULL){... */\n      jump(tag_210)\n    tag_211:\n        /* \"contracts/Wallet/ManageOwner.sol\":734:735  0 */\n      0x00\n        /* \"contracts/Wallet/ManageOwner.sol\":4974:4992  nextowner == _NULL */\n      0xffffffffffffffffffffffffffffffffffffffff\n      and\n        /* \"contracts/Wallet/ManageOwner.sol\":4974:4983  nextowner */\n      dup2\n        /* \"contracts/Wallet/ManageOwner.sol\":4974:4992  nextowner == _NULL */\n      0xffffffffffffffffffffffffffffffffffffffff\n      and\n      sub\n        /* \"contracts/Wallet/ManageOwner.sol\":4970:5029  if (nextowner == _NULL) _insert(currentowner, owner, _NEXT) */\n      tag_221\n      jumpi\n        /* \"contracts/Wallet/ManageOwner.sol\":4994:5029  _insert(currentowner, owner, _NEXT) */\n      tag_222\n        /* \"contracts/Wallet/ManageOwner.sol\":5002:5014  currentowner */\n      dup3\n        /* \"contracts/Wallet/ManageOwner.sol\":5016:5021  owner */\n      dup5\n        /* \"contracts/Wallet/ManageOwner.sol\":636:640  true */\n      0x01\n        /* \"contracts/Wallet/ManageOwner.sol\":4994:5001  _insert */\n      tag_215\n        /* \"contracts/Wallet/ManageOwner.sol\":4994:5029  _insert(currentowner, owner, _NEXT) */\n      jump\t// in\n    tag_222:\n        /* \"contracts/Wallet/ManageOwner.sol\":4970:5029  if (nextowner == _NULL) _insert(currentowner, owner, _NEXT) */\n    tag_221:\n        /* \"contracts/Wallet/ManageOwner.sol\":5040:5050  owners_num */\n      0x00\n      dup1\n        /* \"contracts/Wallet/ManageOwner.sol\":5040:5052  owners_num++ */\n      dup2\n      sload\n      dup1\n      swap3\n      swap2\n      swap1\n      tag_223\n      swap1\n      tag_121\n      jump\t// in\n    tag_223:\n      swap2\n      swap1\n      pop\n      sstore\n      pop\n        /* \"contracts/Wallet/ManageOwner.sol\":3886:5060  {... */\n      pop\n      pop\n        /* \"contracts/Wallet/ManageOwner.sol\":3846:5060  function addowner(address owner)private {... */\n      pop\n      jump\t// out\n        /* \"contracts/Wallet/Simplewallet02.sol\":5454:5889  function encodetx(... */\n    tag_142:\n        /* \"contracts/Wallet/Simplewallet02.sol\":5623:5630  bytes32 */\n      0x00\n        /* \"contracts/Wallet/Simplewallet02.sol\":5642:5660  bytes32 safetxhash */\n      dup1\n        /* \"contracts/Wallet/Simplewallet02.sol\":5716:5718  to */\n      dup7\n        /* \"contracts/Wallet/Simplewallet02.sol\":5737:5742  value */\n      dup7\n        /* \"contracts/Wallet/Simplewallet02.sol\":5771:5775  data */\n      dup7\n        /* \"contracts/Wallet/Simplewallet02.sol\":5761:5776  keccak256(data) */\n      dup1\n      mload\n      swap1\n      0x20\n      add\n      keccak256\n        /* \"contracts/Wallet/Simplewallet02.sol\":5795:5801  _nonce */\n      dup7\n        /* \"contracts/Wallet/Simplewallet02.sol\":5820:5827  chainid */\n      dup7\n        /* \"contracts/Wallet/Simplewallet02.sol\":5687:5842  abi.encode(... */\n      add(0x20, mload(0x40))\n      tag_225\n      swap6\n      swap5\n      swap4\n      swap3\n      swap2\n      swap1\n      tag_226\n      jump\t// in\n    tag_225:\n      mload(0x40)\n      0x20\n      dup2\n      dup4\n      sub\n      sub\n      dup2\n      mstore\n      swap1\n      0x40\n      mstore\n        /* \"contracts/Wallet/Simplewallet02.sol\":5663:5853  keccak256(... */\n      dup1\n      mload\n      swap1\n      0x20\n      add\n      keccak256\n        /* \"contracts/Wallet/Simplewallet02.sol\":5642:5853  bytes32 safetxhash = keccak256(... */\n      swap1\n      pop\n        /* \"contracts/Wallet/Simplewallet02.sol\":5871:5881  safetxhash */\n      dup1\n        /* \"contracts/Wallet/Simplewallet02.sol\":5864:5881  return safetxhash */\n      swap2\n      pop\n      pop\n        /* \"contracts/Wallet/Simplewallet02.sol\":5454:5889  function encodetx(... */\n      swap6\n      swap5\n      pop\n      pop\n      pop\n      pop\n      pop\n      jump\t// out\n        /* \"contracts/Wallet/Simplewallet02.sol\":2053:3152  function startCheckSignature (bytes32 txhash, bytes memory signatures, uint256 numOfsignatures)internal view {... */\n    tag_177:\n        /* \"contracts/Wallet/Simplewallet02.sol\":2254:2256  65 */\n      0x41\n        /* \"contracts/Wallet/Simplewallet02.sol\":2236:2251  numOfsignatures */\n      dup2\n        /* \"contracts/Wallet/Simplewallet02.sol\":2236:2256  numOfsignatures * 65 */\n      tag_228\n      swap2\n      swap1\n      tag_229\n      jump\t// in\n    tag_228:\n        /* \"contracts/Wallet/Simplewallet02.sol\":2215:2225  signatures */\n      dup3\n        /* \"contracts/Wallet/Simplewallet02.sol\":2215:2232  signatures.length */\n      mload\n        /* \"contracts/Wallet/Simplewallet02.sol\":2215:2256  signatures.length >= numOfsignatures * 65 */\n      lt\n      iszero\n        /* \"contracts/Wallet/Simplewallet02.sol\":2207:2280  require(signatures.length >= numOfsignatures * 65,\"Signatures too short\") */\n      tag_230\n      jumpi\n      mload(0x40)\n      0x08c379a000000000000000000000000000000000000000000000000000000000\n      dup2\n      mstore\n      0x04\n      add\n      tag_231\n      swap1\n      tag_232\n      jump\t// in\n    tag_231:\n      mload(0x40)\n      dup1\n      swap2\n      sub\n      swap1\n      revert\n    tag_230:\n        /* \"contracts/Wallet/Simplewallet02.sol\":2539:2556  address lastowner */\n      0x00\n        /* \"contracts/Wallet/Simplewallet02.sol\":2567:2587  address currentowner */\n      dup1\n        /* \"contracts/Wallet/Simplewallet02.sol\":2598:2605  uint8 v */\n      0x00\n        /* \"contracts/Wallet/Simplewallet02.sol\":2616:2625  bytes32 r */\n      dup1\n        /* \"contracts/Wallet/Simplewallet02.sol\":2636:2645  bytes32 s */\n      0x00\n        /* \"contracts/Wallet/Simplewallet02.sol\":2656:2665  uint256 i */\n      dup1\n        /* \"contracts/Wallet/Simplewallet02.sol\":2682:2683  0 */\n      0x00\n        /* \"contracts/Wallet/Simplewallet02.sol\":2680:2683  i=0 */\n      swap1\n      pop\n        /* \"contracts/Wallet/Simplewallet02.sol\":2676:3145  for(i=0; i<numOfsignatures; i++){... */\n    tag_233:\n        /* \"contracts/Wallet/Simplewallet02.sol\":2687:2702  numOfsignatures */\n      dup7\n        /* \"contracts/Wallet/Simplewallet02.sol\":2685:2686  i */\n      dup2\n        /* \"contracts/Wallet/Simplewallet02.sol\":2685:2702  i<numOfsignatures */\n      lt\n        /* \"contracts/Wallet/Simplewallet02.sol\":2676:3145  for(i=0; i<numOfsignatures; i++){... */\n      iszero\n      tag_234\n      jumpi\n        /* \"contracts/Wallet/Simplewallet02.sol\":2735:2764  signatureSplit(signatures, i) */\n      tag_236\n        /* \"contracts/Wallet/Simplewallet02.sol\":2750:2760  signatures */\n      dup9\n        /* \"contracts/Wallet/Simplewallet02.sol\":2762:2763  i */\n      dup3\n        /* \"contracts/Wallet/Simplewallet02.sol\":2735:2749  signatureSplit */\n      tag_237\n        /* \"contracts/Wallet/Simplewallet02.sol\":2735:2764  signatureSplit(signatures, i) */\n      jump\t// in\n    tag_236:\n        /* \"contracts/Wallet/Simplewallet02.sol\":2723:2764  (v, r, s) = signatureSplit(signatures, i) */\n      dup1\n      swap5\n      pop\n      dup2\n      swap6\n      pop\n      dup3\n      swap7\n      pop\n      pop\n      pop\n      pop\n        /* \"contracts/Wallet/Simplewallet02.sol\":2903:2993  ecrecover(keccak256(abi.encodePacked(\"\\x19Ethereum Signed Message:\\n32\",txhash)), v, r, s) */\n      0x01\n        /* \"contracts/Wallet/Simplewallet02.sol\":2975:2981  txhash */\n      dup10\n        /* \"contracts/Wallet/Simplewallet02.sol\":2923:2982  abi.encodePacked(\"\\x19Ethereum Signed Message:\\n32\",txhash) */\n      add(0x20, mload(0x40))\n      tag_238\n      swap2\n      swap1\n      tag_239\n      jump\t// in\n    tag_238:\n      mload(0x40)\n      0x20\n      dup2\n      dup4\n      sub\n      sub\n      dup2\n      mstore\n      swap1\n      0x40\n      mstore\n        /* \"contracts/Wallet/Simplewallet02.sol\":2913:2983  keccak256(abi.encodePacked(\"\\x19Ethereum Signed Message:\\n32\",txhash)) */\n      dup1\n      mload\n      swap1\n      0x20\n      add\n      keccak256\n        /* \"contracts/Wallet/Simplewallet02.sol\":2985:2986  v */\n      dup6\n        /* \"contracts/Wallet/Simplewallet02.sol\":2988:2989  r */\n      dup6\n        /* \"contracts/Wallet/Simplewallet02.sol\":2991:2992  s */\n      dup6\n        /* \"contracts/Wallet/Simplewallet02.sol\":2903:2993  ecrecover(keccak256(abi.encodePacked(\"\\x19Ethereum Signed Message:\\n32\",txhash)), v, r, s) */\n      mload(0x40)\n      0x00\n      dup2\n      mstore\n      0x20\n      add\n      0x40\n      mstore\n      mload(0x40)\n      tag_240\n      swap5\n      swap4\n      swap3\n      swap2\n      swap1\n      tag_241\n      jump\t// in\n    tag_240:\n      0x20\n      mload(0x40)\n      0x20\n      dup2\n      sub\n      swap1\n      dup1\n      dup5\n      sub\n      swap1\n      dup6\n      gas\n      staticcall\n      iszero\n      dup1\n      iszero\n      tag_243\n      jumpi\n      returndatasize\n      0x00\n      dup1\n      returndatacopy\n      revert(0x00, returndatasize)\n    tag_243:\n      pop\n      pop\n      pop\n      mload(sub(mload(0x40), 0x20))\n        /* \"contracts/Wallet/Simplewallet02.sol\":2888:2993  currentowner = ecrecover(keccak256(abi.encodePacked(\"\\x19Ethereum Signed Message:\\n32\",txhash)), v, r, s) */\n      swap5\n      pop\n        /* \"contracts/Wallet/Simplewallet02.sol\":3031:3040  lastowner */\n      dup6\n        /* \"contracts/Wallet/Simplewallet02.sol\":3016:3040  currentowner > lastowner */\n      0xffffffffffffffffffffffffffffffffffffffff\n      and\n        /* \"contracts/Wallet/Simplewallet02.sol\":3016:3028  currentowner */\n      dup6\n        /* \"contracts/Wallet/Simplewallet02.sol\":3016:3040  currentowner > lastowner */\n      0xffffffffffffffffffffffffffffffffffffffff\n      and\n      gt\n        /* \"contracts/Wallet/Simplewallet02.sol\":3016:3068  currentowner > lastowner && ownerExist(currentowner) */\n      dup1\n      iszero\n      tag_244\n      jumpi\n      pop\n        /* \"contracts/Wallet/Simplewallet02.sol\":3044:3068  ownerExist(currentowner) */\n      tag_245\n        /* \"contracts/Wallet/Simplewallet02.sol\":3055:3067  currentowner */\n      dup6\n        /* \"contracts/Wallet/Simplewallet02.sol\":3044:3054  ownerExist */\n      tag_101\n        /* \"contracts/Wallet/Simplewallet02.sol\":3044:3068  ownerExist(currentowner) */\n      jump\t// in\n    tag_245:\n        /* \"contracts/Wallet/Simplewallet02.sol\":3016:3068  currentowner > lastowner && ownerExist(currentowner) */\n    tag_244:\n        /* \"contracts/Wallet/Simplewallet02.sol\":3008:3080  require(currentowner > lastowner && ownerExist(currentowner), \"error06\") */\n      tag_246\n      jumpi\n      mload(0x40)\n      0x08c379a000000000000000000000000000000000000000000000000000000000\n      dup2\n      mstore\n      0x04\n      add\n      tag_247\n      swap1\n      tag_248\n      jump\t// in\n    tag_247:\n      mload(0x40)\n      dup1\n      swap2\n      sub\n      swap1\n      revert\n    tag_246:\n        /* \"contracts/Wallet/Simplewallet02.sol\":3121:3133  currentowner */\n      dup5\n        /* \"contracts/Wallet/Simplewallet02.sol\":3109:3133  lastowner = currentowner */\n      swap6\n      pop\n        /* \"contracts/Wallet/Simplewallet02.sol\":2704:2707  i++ */\n      dup1\n      dup1\n      tag_249\n      swap1\n      tag_121\n      jump\t// in\n    tag_249:\n      swap2\n      pop\n      pop\n        /* \"contracts/Wallet/Simplewallet02.sol\":2676:3145  for(i=0; i<numOfsignatures; i++){... */\n      jump(tag_233)\n    tag_234:\n        /* \"contracts/Wallet/Simplewallet02.sol\":2162:3152  {... */\n      pop\n      pop\n      pop\n      pop\n      pop\n      pop\n        /* \"contracts/Wallet/Simplewallet02.sol\":2053:3152  function startCheckSignature (bytes32 txhash, bytes memory signatures, uint256 numOfsignatures)internal view {... */\n      pop\n      pop\n      pop\n      jump\t// out\n        /* \"contracts/Wallet/ManageOwner.sol\":5098:5385  function removeowner(address preowner)internal {... */\n    tag_192:\n        /* \"contracts/Wallet/ManageOwner.sol\":5164:5184  ownerExist(preowner) */\n      tag_251\n        /* \"contracts/Wallet/ManageOwner.sol\":5175:5183  preowner */\n      dup2\n        /* \"contracts/Wallet/ManageOwner.sol\":5164:5174  ownerExist */\n      tag_101\n        /* \"contracts/Wallet/ManageOwner.sol\":5164:5184  ownerExist(preowner) */\n      jump\t// in\n    tag_251:\n        /* \"contracts/Wallet/ManageOwner.sol\":5156:5195  require(ownerExist(preowner),\"error07\") */\n      tag_252\n      jumpi\n      mload(0x40)\n      0x08c379a000000000000000000000000000000000000000000000000000000000\n      dup2\n      mstore\n      0x04\n      add\n      tag_253\n      swap1\n      tag_190\n      jump\t// in\n    tag_253:\n      mload(0x40)\n      dup1\n      swap2\n      sub\n      swap1\n      revert\n    tag_252:\n        /* \"contracts/Wallet/ManageOwner.sol\":5206:5273  _createLink(owners[preowner][_PRE], owners[preowner][_NEXT], _NEXT) */\n      tag_254\n        /* \"contracts/Wallet/ManageOwner.sol\":5218:5224  owners */\n      0x02\n        /* \"contracts/Wallet/ManageOwner.sol\":5218:5234  owners[preowner] */\n      0x00\n        /* \"contracts/Wallet/ManageOwner.sol\":5225:5233  preowner */\n      dup4\n        /* \"contracts/Wallet/ManageOwner.sol\":5218:5234  owners[preowner] */\n      0xffffffffffffffffffffffffffffffffffffffff\n      and\n      0xffffffffffffffffffffffffffffffffffffffff\n      and\n      dup2\n      mstore\n      0x20\n      add\n      swap1\n      dup2\n      mstore\n      0x20\n      add\n      0x00\n      keccak256\n        /* \"contracts/Wallet/ManageOwner.sol\":5218:5240  owners[preowner][_PRE] */\n      0x00\n        /* \"contracts/Wallet/ManageOwner.sol\":593:598  false */\n      dup1\n        /* \"contracts/Wallet/ManageOwner.sol\":5218:5240  owners[preowner][_PRE] */\n      iszero\n      iszero\n      iszero\n      iszero\n      dup2\n      mstore\n      0x20\n      add\n      swap1\n      dup2\n      mstore\n      0x20\n      add\n      0x00\n      keccak256\n      0x00\n      swap1\n      sload\n      swap1\n      0x0100\n      exp\n      swap1\n      div\n      0xffffffffffffffffffffffffffffffffffffffff\n      and\n        /* \"contracts/Wallet/ManageOwner.sol\":5242:5248  owners */\n      0x02\n        /* \"contracts/Wallet/ManageOwner.sol\":5242:5258  owners[preowner] */\n      0x00\n        /* \"contracts/Wallet/ManageOwner.sol\":5249:5257  preowner */\n      dup5\n        /* \"contracts/Wallet/ManageOwner.sol\":5242:5258  owners[preowner] */\n      0xffffffffffffffffffffffffffffffffffffffff\n      and\n      0xffffffffffffffffffffffffffffffffffffffff\n      and\n      dup2\n      mstore\n      0x20\n      add\n      swap1\n      dup2\n      mstore\n      0x20\n      add\n      0x00\n      keccak256\n        /* \"contracts/Wallet/ManageOwner.sol\":5242:5265  owners[preowner][_NEXT] */\n      0x00\n        /* \"contracts/Wallet/ManageOwner.sol\":636:640  true */\n      0x01\n        /* \"contracts/Wallet/ManageOwner.sol\":5242:5265  owners[preowner][_NEXT] */\n      iszero\n      iszero\n      iszero\n      iszero\n      dup2\n      mstore\n      0x20\n      add\n      swap1\n      dup2\n      mstore\n      0x20\n      add\n      0x00\n      keccak256\n      0x00\n      swap1\n      sload\n      swap1\n      0x0100\n      exp\n      swap1\n      div\n      0xffffffffffffffffffffffffffffffffffffffff\n      and\n        /* \"contracts/Wallet/ManageOwner.sol\":636:640  true */\n      0x01\n        /* \"contracts/Wallet/ManageOwner.sol\":5206:5217  _createLink */\n      tag_255\n        /* \"contracts/Wallet/ManageOwner.sol\":5206:5273  _createLink(owners[preowner][_PRE], owners[preowner][_NEXT], _NEXT) */\n      jump\t// in\n    tag_254:\n        /* \"contracts/Wallet/ManageOwner.sol\":5291:5297  owners */\n      0x02\n        /* \"contracts/Wallet/ManageOwner.sol\":5291:5307  owners[preowner] */\n      0x00\n        /* \"contracts/Wallet/ManageOwner.sol\":5298:5306  preowner */\n      dup3\n        /* \"contracts/Wallet/ManageOwner.sol\":5291:5307  owners[preowner] */\n      0xffffffffffffffffffffffffffffffffffffffff\n      and\n      0xffffffffffffffffffffffffffffffffffffffff\n      and\n      dup2\n      mstore\n      0x20\n      add\n      swap1\n      dup2\n      mstore\n      0x20\n      add\n      0x00\n      keccak256\n        /* \"contracts/Wallet/ManageOwner.sol\":5291:5313  owners[preowner][_PRE] */\n      0x00\n        /* \"contracts/Wallet/ManageOwner.sol\":593:598  false */\n      dup1\n        /* \"contracts/Wallet/ManageOwner.sol\":5291:5313  owners[preowner][_PRE] */\n      iszero\n      iszero\n      iszero\n      iszero\n      dup2\n      mstore\n      0x20\n      add\n      swap1\n      dup2\n      mstore\n      0x20\n      add\n      0x00\n      keccak256\n      0x00\n        /* \"contracts/Wallet/ManageOwner.sol\":5284:5313  delete owners[preowner][_PRE] */\n      0x0100\n      exp\n      dup2\n      sload\n      swap1\n      0xffffffffffffffffffffffffffffffffffffffff\n      mul\n      not\n      and\n      swap1\n      sstore\n        /* \"contracts/Wallet/ManageOwner.sol\":5331:5337  owners */\n      0x02\n        /* \"contracts/Wallet/ManageOwner.sol\":5331:5347  owners[preowner] */\n      0x00\n        /* \"contracts/Wallet/ManageOwner.sol\":5338:5346  preowner */\n      dup3\n        /* \"contracts/Wallet/ManageOwner.sol\":5331:5347  owners[preowner] */\n      0xffffffffffffffffffffffffffffffffffffffff\n      and\n      0xffffffffffffffffffffffffffffffffffffffff\n      and\n      dup2\n      mstore\n      0x20\n      add\n      swap1\n      dup2\n      mstore\n      0x20\n      add\n      0x00\n      keccak256\n        /* \"contracts/Wallet/ManageOwner.sol\":5331:5354  owners[preowner][_NEXT] */\n      0x00\n        /* \"contracts/Wallet/ManageOwner.sol\":636:640  true */\n      0x01\n        /* \"contracts/Wallet/ManageOwner.sol\":5331:5354  owners[preowner][_NEXT] */\n      iszero\n      iszero\n      iszero\n      iszero\n      dup2\n      mstore\n      0x20\n      add\n      swap1\n      dup2\n      mstore\n      0x20\n      add\n      0x00\n      keccak256\n      0x00\n        /* \"contracts/Wallet/ManageOwner.sol\":5324:5354  delete owners[preowner][_NEXT] */\n      0x0100\n      exp\n      dup2\n      sload\n      swap1\n      0xffffffffffffffffffffffffffffffffffffffff\n      mul\n      not\n      and\n      swap1\n      sstore\n        /* \"contracts/Wallet/ManageOwner.sol\":5365:5375  owners_num */\n      0x00\n      dup1\n        /* \"contracts/Wallet/ManageOwner.sol\":5365:5377  owners_num-- */\n      dup2\n      sload\n      dup1\n      swap3\n      swap2\n      swap1\n      tag_256\n      swap1\n      tag_257\n      jump\t// in\n    tag_256:\n      swap2\n      swap1\n      pop\n      sstore\n      pop\n        /* \"contracts/Wallet/ManageOwner.sol\":5098:5385  function removeowner(address preowner)internal {... */\n      pop\n      jump\t// out\n        /* \"contracts/Wallet/ManageOwner.sol\":5424:5662  function _insert( address _owner, address _newowner, bool _direction)internal {... */\n    tag_215:\n        /* \"contracts/Wallet/ManageOwner.sol\":5513:5522  address c */\n      0x00\n        /* \"contracts/Wallet/ManageOwner.sol\":5525:5531  owners */\n      0x02\n        /* \"contracts/Wallet/ManageOwner.sol\":5525:5539  owners[_owner] */\n      0x00\n        /* \"contracts/Wallet/ManageOwner.sol\":5532:5538  _owner */\n      dup6\n        /* \"contracts/Wallet/ManageOwner.sol\":5525:5539  owners[_owner] */\n      0xffffffffffffffffffffffffffffffffffffffff\n      and\n      0xffffffffffffffffffffffffffffffffffffffff\n      and\n      dup2\n      mstore\n      0x20\n      add\n      swap1\n      dup2\n      mstore\n      0x20\n      add\n      0x00\n      keccak256\n        /* \"contracts/Wallet/ManageOwner.sol\":5525:5551  owners[_owner][_direction] */\n      0x00\n        /* \"contracts/Wallet/ManageOwner.sol\":5540:5550  _direction */\n      dup4\n        /* \"contracts/Wallet/ManageOwner.sol\":5525:5551  owners[_owner][_direction] */\n      iszero\n      iszero\n      iszero\n      iszero\n      dup2\n      mstore\n      0x20\n      add\n      swap1\n      dup2\n      mstore\n      0x20\n      add\n      0x00\n      keccak256\n      0x00\n      swap1\n      sload\n      swap1\n      0x0100\n      exp\n      swap1\n      div\n      0xffffffffffffffffffffffffffffffffffffffff\n      and\n        /* \"contracts/Wallet/ManageOwner.sol\":5513:5551  address c = owners[_owner][_direction] */\n      swap1\n      pop\n        /* \"contracts/Wallet/ManageOwner.sol\":5562:5604  _createLink(_owner, _newowner, _direction) */\n      tag_259\n        /* \"contracts/Wallet/ManageOwner.sol\":5574:5580  _owner */\n      dup5\n        /* \"contracts/Wallet/ManageOwner.sol\":5582:5591  _newowner */\n      dup5\n        /* \"contracts/Wallet/ManageOwner.sol\":5593:5603  _direction */\n      dup5\n        /* \"contracts/Wallet/ManageOwner.sol\":5562:5573  _createLink */\n      tag_255\n        /* \"contracts/Wallet/ManageOwner.sol\":5562:5604  _createLink(_owner, _newowner, _direction) */\n      jump\t// in\n    tag_259:\n        /* \"contracts/Wallet/ManageOwner.sol\":5615:5652  _createLink(_newowner, c, _direction) */\n      tag_260\n        /* \"contracts/Wallet/ManageOwner.sol\":5627:5636  _newowner */\n      dup4\n        /* \"contracts/Wallet/ManageOwner.sol\":5638:5639  c */\n      dup3\n        /* \"contracts/Wallet/ManageOwner.sol\":5641:5651  _direction */\n      dup5\n        /* \"contracts/Wallet/ManageOwner.sol\":5615:5626  _createLink */\n      tag_255\n        /* \"contracts/Wallet/ManageOwner.sol\":5615:5652  _createLink(_newowner, c, _direction) */\n      jump\t// in\n    tag_260:\n        /* \"contracts/Wallet/ManageOwner.sol\":5502:5662  {... */\n      pop\n        /* \"contracts/Wallet/ManageOwner.sol\":5424:5662  function _insert( address _owner, address _newowner, bool _direction)internal {... */\n      pop\n      pop\n      pop\n      jump\t// out\n        /* \"contracts/Wallet/Simplewallet02.sol\":3218:5188  function signatureSplit(bytes memory signatures, uint256 pos)internal pure returns(uint8 v,bytes32 r,bytes32 s){... */\n    tag_237:\n        /* \"contracts/Wallet/Simplewallet02.sol\":3301:3308  uint8 v */\n      0x00\n        /* \"contracts/Wallet/Simplewallet02.sol\":3309:3318  bytes32 r */\n      dup1\n        /* \"contracts/Wallet/Simplewallet02.sol\":3319:3328  bytes32 s */\n      0x00\n        /* \"contracts/Wallet/Simplewallet02.sol\":3839:3842  pos */\n      dup4\n        /* \"contracts/Wallet/Simplewallet02.sol\":3833:3837  0x41 */\n      0x41\n        /* \"contracts/Wallet/Simplewallet02.sol\":3829:3843  mul(0x41, pos) */\n      mul\n        /* \"contracts/Wallet/Simplewallet02.sol\":4298:4302  0x20 */\n      0x20\n        /* \"contracts/Wallet/Simplewallet02.sol\":4284:4296  signaturePos */\n      dup2\n        /* \"contracts/Wallet/Simplewallet02.sol\":4280:4303  add(signaturePos, 0x20) */\n      add\n        /* \"contracts/Wallet/Simplewallet02.sol\":4268:4278  signatures */\n      dup7\n        /* \"contracts/Wallet/Simplewallet02.sol\":4264:4304  add(signatures, add(signaturePos, 0x20)) */\n      add\n        /* \"contracts/Wallet/Simplewallet02.sol\":4258:4305  mload(add(signatures, add(signaturePos, 0x20))) */\n      mload\n        /* \"contracts/Wallet/Simplewallet02.sol\":4253:4305  r := mload(add(signatures, add(signaturePos, 0x20))) */\n      swap3\n      pop\n        /* \"contracts/Wallet/Simplewallet02.sol\":4746:4750  0x40 */\n      0x40\n        /* \"contracts/Wallet/Simplewallet02.sol\":4732:4744  signaturePos */\n      dup2\n        /* \"contracts/Wallet/Simplewallet02.sol\":4728:4751  add(signaturePos, 0x40) */\n      add\n        /* \"contracts/Wallet/Simplewallet02.sol\":4716:4726  signatures */\n      dup7\n        /* \"contracts/Wallet/Simplewallet02.sol\":4712:4752  add(signatures, add(signaturePos, 0x40)) */\n      add\n        /* \"contracts/Wallet/Simplewallet02.sol\":4706:4753  mload(add(signatures, add(signaturePos, 0x40))) */\n      mload\n        /* \"contracts/Wallet/Simplewallet02.sol\":4701:4753  s := mload(add(signatures, add(signaturePos, 0x40))) */\n      swap2\n      pop\n        /* \"contracts/Wallet/Simplewallet02.sol\":5162:5166  0x60 */\n      0x60\n        /* \"contracts/Wallet/Simplewallet02.sol\":5148:5160  signaturePos */\n      dup2\n        /* \"contracts/Wallet/Simplewallet02.sol\":5144:5167  add(signaturePos, 0x60) */\n      add\n        /* \"contracts/Wallet/Simplewallet02.sol\":5132:5142  signatures */\n      dup7\n        /* \"contracts/Wallet/Simplewallet02.sol\":5128:5168  add(signatures, add(signaturePos, 0x60)) */\n      add\n        /* \"contracts/Wallet/Simplewallet02.sol\":5122:5169  mload(add(signatures, add(signaturePos, 0x60))) */\n      mload\n        /* \"contracts/Wallet/Simplewallet02.sol\":5119:5120  0 */\n      0x00\n        /* \"contracts/Wallet/Simplewallet02.sol\":5114:5170  byte(0, mload(add(signatures, add(signaturePos, 0x60)))) */\n      byte\n        /* \"contracts/Wallet/Simplewallet02.sol\":5109:5170  v := byte(0, mload(add(signatures, add(signaturePos, 0x60)))) */\n      swap4\n      pop\n        /* \"contracts/Wallet/Simplewallet02.sol\":3411:5181  {... */\n      pop\n        /* \"contracts/Wallet/Simplewallet02.sol\":3218:5188  function signatureSplit(bytes memory signatures, uint256 pos)internal pure returns(uint8 v,bytes32 r,bytes32 s){... */\n      swap3\n      pop\n      swap3\n      pop\n      swap3\n      jump\t// out\n        /* \"contracts/Wallet/ManageOwner.sol\":5896:6096  function _createLink(address _preowner, address _nextowner, bool _direction)internal {... */\n    tag_255:\n        /* \"contracts/Wallet/ManageOwner.sol\":6026:6035  _preowner */\n      dup3\n        /* \"contracts/Wallet/ManageOwner.sol\":5992:5998  owners */\n      0x02\n        /* \"contracts/Wallet/ManageOwner.sol\":5992:6010  owners[_nextowner] */\n      0x00\n        /* \"contracts/Wallet/ManageOwner.sol\":5999:6009  _nextowner */\n      dup5\n        /* \"contracts/Wallet/ManageOwner.sol\":5992:6010  owners[_nextowner] */\n      0xffffffffffffffffffffffffffffffffffffffff\n      and\n      0xffffffffffffffffffffffffffffffffffffffff\n      and\n      dup2\n      mstore\n      0x20\n      add\n      swap1\n      dup2\n      mstore\n      0x20\n      add\n      0x00\n      keccak256\n        /* \"contracts/Wallet/ManageOwner.sol\":5992:6023  owners[_nextowner][!_direction] */\n      0x00\n        /* \"contracts/Wallet/ManageOwner.sol\":6012:6022  _direction */\n      dup4\n        /* \"contracts/Wallet/ManageOwner.sol\":6011:6022  !_direction */\n      iszero\n        /* \"contracts/Wallet/ManageOwner.sol\":5992:6023  owners[_nextowner][!_direction] */\n      iszero\n      iszero\n      iszero\n      iszero\n      dup2\n      mstore\n      0x20\n      add\n      swap1\n      dup2\n      mstore\n      0x20\n      add\n      0x00\n      keccak256\n      0x00\n        /* \"contracts/Wallet/ManageOwner.sol\":5992:6035  owners[_nextowner][!_direction] = _preowner */\n      0x0100\n      exp\n      dup2\n      sload\n      dup2\n      0xffffffffffffffffffffffffffffffffffffffff\n      mul\n      not\n      and\n      swap1\n      dup4\n      0xffffffffffffffffffffffffffffffffffffffff\n      and\n      mul\n      or\n      swap1\n      sstore\n      pop\n        /* \"contracts/Wallet/ManageOwner.sol\":6078:6088  _nextowner */\n      dup2\n        /* \"contracts/Wallet/ManageOwner.sol\":6046:6052  owners */\n      0x02\n        /* \"contracts/Wallet/ManageOwner.sol\":6046:6063  owners[_preowner] */\n      0x00\n        /* \"contracts/Wallet/ManageOwner.sol\":6053:6062  _preowner */\n      dup6\n        /* \"contracts/Wallet/ManageOwner.sol\":6046:6063  owners[_preowner] */\n      0xffffffffffffffffffffffffffffffffffffffff\n      and\n      0xffffffffffffffffffffffffffffffffffffffff\n      and\n      dup2\n      mstore\n      0x20\n      add\n      swap1\n      dup2\n      mstore\n      0x20\n      add\n      0x00\n      keccak256\n        /* \"contracts/Wallet/ManageOwner.sol\":6046:6075  owners[_preowner][_direction] */\n      0x00\n        /* \"contracts/Wallet/ManageOwner.sol\":6064:6074  _direction */\n      dup4\n        /* \"contracts/Wallet/ManageOwner.sol\":6046:6075  owners[_preowner][_direction] */\n      iszero\n      iszero\n      iszero\n      iszero\n      dup2\n      mstore\n      0x20\n      add\n      swap1\n      dup2\n      mstore\n      0x20\n      add\n      0x00\n      keccak256\n      0x00\n        /* \"contracts/Wallet/ManageOwner.sol\":6046:6088  owners[_preowner][_direction] = _nextowner */\n      0x0100\n      exp\n      dup2\n      sload\n      dup2\n      0xffffffffffffffffffffffffffffffffffffffff\n      mul\n      not\n      and\n      swap1\n      dup4\n      0xffffffffffffffffffffffffffffffffffffffff\n      and\n      mul\n      or\n      swap1\n      sstore\n      pop\n        /* \"contracts/Wallet/ManageOwner.sol\":5896:6096  function _createLink(address _preowner, address _nextowner, bool _direction)internal {... */\n      pop\n      pop\n      pop\n      jump\t// out\n        /* \"#utility.yul\":7:84   */\n    tag_263:\n        /* \"#utility.yul\":44:51   */\n      0x00\n        /* \"#utility.yul\":73:78   */\n      dup2\n        /* \"#utility.yul\":62:78   */\n      swap1\n      pop\n        /* \"#utility.yul\":7:84   */\n      swap2\n      swap1\n      pop\n      jump\t// out\n        /* \"#utility.yul\":90:208   */\n    tag_264:\n        /* \"#utility.yul\":177:201   */\n      tag_337\n        /* \"#utility.yul\":195:200   */\n      dup2\n        /* \"#utility.yul\":177:201   */\n      tag_263\n      jump\t// in\n    tag_337:\n        /* \"#utility.yul\":172:175   */\n      dup3\n        /* \"#utility.yul\":165:202   */\n      mstore\n        /* \"#utility.yul\":90:208   */\n      pop\n      pop\n      jump\t// out\n        /* \"#utility.yul\":214:436   */\n    tag_25:\n        /* \"#utility.yul\":307:311   */\n      0x00\n        /* \"#utility.yul\":345:347   */\n      0x20\n        /* \"#utility.yul\":334:343   */\n      dup3\n        /* \"#utility.yul\":330:348   */\n      add\n        /* \"#utility.yul\":322:348   */\n      swap1\n      pop\n        /* \"#utility.yul\":358:429   */\n      tag_339\n        /* \"#utility.yul\":426:427   */\n      0x00\n        /* \"#utility.yul\":415:424   */\n      dup4\n        /* \"#utility.yul\":411:428   */\n      add\n        /* \"#utility.yul\":402:408   */\n      dup5\n        /* \"#utility.yul\":358:429   */\n      tag_264\n      jump\t// in\n    tag_339:\n        /* \"#utility.yul\":214:436   */\n      swap3\n      swap2\n      pop\n      pop\n      jump\t// out\n        /* \"#utility.yul\":442:610   */\n    tag_265:\n        /* \"#utility.yul\":525:536   */\n      0x00\n        /* \"#utility.yul\":559:565   */\n      dup3\n        /* \"#utility.yul\":554:557   */\n      dup3\n        /* \"#utility.yul\":547:566   */\n      mstore\n        /* \"#utility.yul\":599:603   */\n      0x20\n        /* \"#utility.yul\":594:597   */\n      dup3\n        /* \"#utility.yul\":590:604   */\n      add\n        /* \"#utility.yul\":575:604   */\n      swap1\n      pop\n        /* \"#utility.yul\":442:610   */\n      swap3\n      swap2\n      pop\n      pop\n      jump\t// out\n        /* \"#utility.yul\":616:762   */\n    tag_266:\n        /* \"#utility.yul\":713:719   */\n      dup3\n        /* \"#utility.yul\":708:711   */\n      dup2\n        /* \"#utility.yul\":703:706   */\n      dup4\n        /* \"#utility.yul\":690:720   */\n      calldatacopy\n        /* \"#utility.yul\":754:755   */\n      0x00\n        /* \"#utility.yul\":745:751   */\n      dup4\n        /* \"#utility.yul\":740:743   */\n      dup4\n        /* \"#utility.yul\":736:752   */\n      add\n        /* \"#utility.yul\":729:756   */\n      mstore\n        /* \"#utility.yul\":616:762   */\n      pop\n      pop\n      pop\n      jump\t// out\n        /* \"#utility.yul\":768:870   */\n    tag_267:\n        /* \"#utility.yul\":809:815   */\n      0x00\n        /* \"#utility.yul\":860:862   */\n      0x1f\n        /* \"#utility.yul\":856:863   */\n      not\n        /* \"#utility.yul\":851:853   */\n      0x1f\n        /* \"#utility.yul\":844:849   */\n      dup4\n        /* \"#utility.yul\":840:854   */\n      add\n        /* \"#utility.yul\":836:864   */\n      and\n        /* \"#utility.yul\":826:864   */\n      swap1\n      pop\n        /* \"#utility.yul\":768:870   */\n      swap2\n      swap1\n      pop\n      jump\t// out\n        /* \"#utility.yul\":898:1212   */\n    tag_268:\n        /* \"#utility.yul\":994:997   */\n      0x00\n        /* \"#utility.yul\":1015:1085   */\n      tag_344\n        /* \"#utility.yul\":1078:1084   */\n      dup4\n        /* \"#utility.yul\":1073:1076   */\n      dup6\n        /* \"#utility.yul\":1015:1085   */\n      tag_265\n      jump\t// in\n    tag_344:\n        /* \"#utility.yul\":1008:1085   */\n      swap4\n      pop\n        /* \"#utility.yul\":1095:1151   */\n      tag_345\n        /* \"#utility.yul\":1144:1150   */\n      dup4\n        /* \"#utility.yul\":1139:1142   */\n      dup6\n        /* \"#utility.yul\":1132:1137   */\n      dup5\n        /* \"#utility.yul\":1095:1151   */\n      tag_266\n      jump\t// in\n    tag_345:\n        /* \"#utility.yul\":1176:1205   */\n      tag_346\n        /* \"#utility.yul\":1198:1204   */\n      dup4\n        /* \"#utility.yul\":1176:1205   */\n      tag_267\n      jump\t// in\n    tag_346:\n        /* \"#utility.yul\":1171:1174   */\n      dup5\n        /* \"#utility.yul\":1167:1206   */\n      add\n        /* \"#utility.yul\":1160:1206   */\n      swap1\n      pop\n        /* \"#utility.yul\":898:1212   */\n      swap4\n      swap3\n      pop\n      pop\n      pop\n      jump\t// out\n        /* \"#utility.yul\":1218:1657   */\n    tag_29:\n        /* \"#utility.yul\":1367:1371   */\n      0x00\n        /* \"#utility.yul\":1405:1407   */\n      0x40\n        /* \"#utility.yul\":1394:1403   */\n      dup3\n        /* \"#utility.yul\":1390:1408   */\n      add\n        /* \"#utility.yul\":1382:1408   */\n      swap1\n      pop\n        /* \"#utility.yul\":1418:1489   */\n      tag_348\n        /* \"#utility.yul\":1486:1487   */\n      0x00\n        /* \"#utility.yul\":1475:1484   */\n      dup4\n        /* \"#utility.yul\":1471:1488   */\n      add\n        /* \"#utility.yul\":1462:1468   */\n      dup7\n        /* \"#utility.yul\":1418:1489   */\n      tag_264\n      jump\t// in\n    tag_348:\n        /* \"#utility.yul\":1536:1545   */\n      dup2\n        /* \"#utility.yul\":1530:1534   */\n      dup2\n        /* \"#utility.yul\":1526:1546   */\n      sub\n        /* \"#utility.yul\":1521:1523   */\n      0x20\n        /* \"#utility.yul\":1510:1519   */\n      dup4\n        /* \"#utility.yul\":1506:1524   */\n      add\n        /* \"#utility.yul\":1499:1547   */\n      mstore\n        /* \"#utility.yul\":1564:1650   */\n      tag_349\n        /* \"#utility.yul\":1645:1649   */\n      dup2\n        /* \"#utility.yul\":1636:1642   */\n      dup5\n        /* \"#utility.yul\":1628:1634   */\n      dup7\n        /* \"#utility.yul\":1564:1650   */\n      tag_268\n      jump\t// in\n    tag_349:\n        /* \"#utility.yul\":1556:1650   */\n      swap1\n      pop\n        /* \"#utility.yul\":1218:1657   */\n      swap5\n      swap4\n      pop\n      pop\n      pop\n      pop\n      jump\t// out\n        /* \"#utility.yul\":1663:1777   */\n    tag_269:\n        /* \"#utility.yul\":1730:1736   */\n      0x00\n        /* \"#utility.yul\":1764:1769   */\n      dup2\n        /* \"#utility.yul\":1758:1770   */\n      mload\n        /* \"#utility.yul\":1748:1770   */\n      swap1\n      pop\n        /* \"#utility.yul\":1663:1777   */\n      swap2\n      swap1\n      pop\n      jump\t// out\n        /* \"#utility.yul\":1783:1967   */\n    tag_270:\n        /* \"#utility.yul\":1882:1893   */\n      0x00\n        /* \"#utility.yul\":1916:1922   */\n      dup3\n        /* \"#utility.yul\":1911:1914   */\n      dup3\n        /* \"#utility.yul\":1904:1923   */\n      mstore\n        /* \"#utility.yul\":1956:1960   */\n      0x20\n        /* \"#utility.yul\":1951:1954   */\n      dup3\n        /* \"#utility.yul\":1947:1961   */\n      add\n        /* \"#utility.yul\":1932:1961   */\n      swap1\n      pop\n        /* \"#utility.yul\":1783:1967   */\n      swap3\n      swap2\n      pop\n      pop\n      jump\t// out\n        /* \"#utility.yul\":1973:2105   */\n    tag_271:\n        /* \"#utility.yul\":2040:2044   */\n      0x00\n        /* \"#utility.yul\":2063:2066   */\n      dup2\n        /* \"#utility.yul\":2055:2066   */\n      swap1\n      pop\n        /* \"#utility.yul\":2093:2097   */\n      0x20\n        /* \"#utility.yul\":2088:2091   */\n      dup3\n        /* \"#utility.yul\":2084:2098   */\n      add\n        /* \"#utility.yul\":2076:2098   */\n      swap1\n      pop\n        /* \"#utility.yul\":1973:2105   */\n      swap2\n      swap1\n      pop\n      jump\t// out\n        /* \"#utility.yul\":2111:2237   */\n    tag_272:\n        /* \"#utility.yul\":2148:2155   */\n      0x00\n        /* \"#utility.yul\":2188:2230   */\n      0xffffffffffffffffffffffffffffffffffffffff\n        /* \"#utility.yul\":2181:2186   */\n      dup3\n        /* \"#utility.yul\":2177:2231   */\n      and\n        /* \"#utility.yul\":2166:2231   */\n      swap1\n      pop\n        /* \"#utility.yul\":2111:2237   */\n      swap2\n      swap1\n      pop\n      jump\t// out\n        /* \"#utility.yul\":2243:2339   */\n    tag_273:\n        /* \"#utility.yul\":2280:2287   */\n      0x00\n        /* \"#utility.yul\":2309:2333   */\n      tag_355\n        /* \"#utility.yul\":2327:2332   */\n      dup3\n        /* \"#utility.yul\":2309:2333   */\n      tag_272\n      jump\t// in\n    tag_355:\n        /* \"#utility.yul\":2298:2333   */\n      swap1\n      pop\n        /* \"#utility.yul\":2243:2339   */\n      swap2\n      swap1\n      pop\n      jump\t// out\n        /* \"#utility.yul\":2345:2453   */\n    tag_274:\n        /* \"#utility.yul\":2422:2446   */\n      tag_357\n        /* \"#utility.yul\":2440:2445   */\n      dup2\n        /* \"#utility.yul\":2422:2446   */\n      tag_273\n      jump\t// in\n    tag_357:\n        /* \"#utility.yul\":2417:2420   */\n      dup3\n        /* \"#utility.yul\":2410:2447   */\n      mstore\n        /* \"#utility.yul\":2345:2453   */\n      pop\n      pop\n      jump\t// out\n        /* \"#utility.yul\":2459:2638   */\n    tag_275:\n        /* \"#utility.yul\":2528:2538   */\n      0x00\n        /* \"#utility.yul\":2549:2595   */\n      tag_359\n        /* \"#utility.yul\":2591:2594   */\n      dup4\n        /* \"#utility.yul\":2583:2589   */\n      dup4\n        /* \"#utility.yul\":2549:2595   */\n      tag_274\n      jump\t// in\n    tag_359:\n        /* \"#utility.yul\":2627:2631   */\n      0x20\n        /* \"#utility.yul\":2622:2625   */\n      dup4\n        /* \"#utility.yul\":2618:2632   */\n      add\n        /* \"#utility.yul\":2604:2632   */\n      swap1\n      pop\n        /* \"#utility.yul\":2459:2638   */\n      swap3\n      swap2\n      pop\n      pop\n      jump\t// out\n        /* \"#utility.yul\":2644:2757   */\n    tag_276:\n        /* \"#utility.yul\":2714:2718   */\n      0x00\n        /* \"#utility.yul\":2746:2750   */\n      0x20\n        /* \"#utility.yul\":2741:2744   */\n      dup3\n        /* \"#utility.yul\":2737:2751   */\n      add\n        /* \"#utility.yul\":2729:2751   */\n      swap1\n      pop\n        /* \"#utility.yul\":2644:2757   */\n      swap2\n      swap1\n      pop\n      jump\t// out\n        /* \"#utility.yul\":2793:3525   */\n    tag_277:\n        /* \"#utility.yul\":2912:2915   */\n      0x00\n        /* \"#utility.yul\":2941:2995   */\n      tag_362\n        /* \"#utility.yul\":2989:2994   */\n      dup3\n        /* \"#utility.yul\":2941:2995   */\n      tag_269\n      jump\t// in\n    tag_362:\n        /* \"#utility.yul\":3011:3097   */\n      tag_363\n        /* \"#utility.yul\":3090:3096   */\n      dup2\n        /* \"#utility.yul\":3085:3088   */\n      dup6\n        /* \"#utility.yul\":3011:3097   */\n      tag_270\n      jump\t// in\n    tag_363:\n        /* \"#utility.yul\":3004:3097   */\n      swap4\n      pop\n        /* \"#utility.yul\":3121:3177   */\n      tag_364\n        /* \"#utility.yul\":3171:3176   */\n      dup4\n        /* \"#utility.yul\":3121:3177   */\n      tag_271\n      jump\t// in\n    tag_364:\n        /* \"#utility.yul\":3200:3207   */\n      dup1\n        /* \"#utility.yul\":3231:3232   */\n      0x00\n        /* \"#utility.yul\":3216:3500   */\n    tag_365:\n        /* \"#utility.yul\":3241:3247   */\n      dup4\n        /* \"#utility.yul\":3238:3239   */\n      dup2\n        /* \"#utility.yul\":3235:3248   */\n      lt\n        /* \"#utility.yul\":3216:3500   */\n      iszero\n      tag_367\n      jumpi\n        /* \"#utility.yul\":3317:3323   */\n      dup2\n        /* \"#utility.yul\":3311:3324   */\n      mload\n        /* \"#utility.yul\":3344:3407   */\n      tag_368\n        /* \"#utility.yul\":3403:3406   */\n      dup9\n        /* \"#utility.yul\":3388:3401   */\n      dup3\n        /* \"#utility.yul\":3344:3407   */\n      tag_275\n      jump\t// in\n    tag_368:\n        /* \"#utility.yul\":3337:3407   */\n      swap8\n      pop\n        /* \"#utility.yul\":3430:3490   */\n      tag_369\n        /* \"#utility.yul\":3483:3489   */\n      dup4\n        /* \"#utility.yul\":3430:3490   */\n      tag_276\n      jump\t// in\n    tag_369:\n        /* \"#utility.yul\":3420:3490   */\n      swap3\n      pop\n        /* \"#utility.yul\":3276:3500   */\n      pop\n        /* \"#utility.yul\":3263:3264   */\n      0x01\n        /* \"#utility.yul\":3260:3261   */\n      dup2\n        /* \"#utility.yul\":3256:3265   */\n      add\n        /* \"#utility.yul\":3251:3265   */\n      swap1\n      pop\n        /* \"#utility.yul\":3216:3500   */\n      jump(tag_365)\n    tag_367:\n        /* \"#utility.yul\":3220:3234   */\n      pop\n        /* \"#utility.yul\":3516:3519   */\n      dup6\n        /* \"#utility.yul\":3509:3519   */\n      swap4\n      pop\n        /* \"#utility.yul\":2917:3525   */\n      pop\n      pop\n      pop\n        /* \"#utility.yul\":2793:3525   */\n      swap3\n      swap2\n      pop\n      pop\n      jump\t// out\n        /* \"#utility.yul\":3531:3904   */\n    tag_34:\n        /* \"#utility.yul\":3674:3678   */\n      0x00\n        /* \"#utility.yul\":3712:3714   */\n      0x20\n        /* \"#utility.yul\":3701:3710   */\n      dup3\n        /* \"#utility.yul\":3697:3715   */\n      add\n        /* \"#utility.yul\":3689:3715   */\n      swap1\n      pop\n        /* \"#utility.yul\":3761:3770   */\n      dup2\n        /* \"#utility.yul\":3755:3759   */\n      dup2\n        /* \"#utility.yul\":3751:3771   */\n      sub\n        /* \"#utility.yul\":3747:3748   */\n      0x00\n        /* \"#utility.yul\":3736:3745   */\n      dup4\n        /* \"#utility.yul\":3732:3749   */\n      add\n        /* \"#utility.yul\":3725:3772   */\n      mstore\n        /* \"#utility.yul\":3789:3897   */\n      tag_371\n        /* \"#utility.yul\":3892:3896   */\n      dup2\n        /* \"#utility.yul\":3883:3889   */\n      dup5\n        /* \"#utility.yul\":3789:3897   */\n      tag_277\n      jump\t// in\n    tag_371:\n        /* \"#utility.yul\":3781:3897   */\n      swap1\n      pop\n        /* \"#utility.yul\":3531:3904   */\n      swap3\n      swap2\n      pop\n      pop\n      jump\t// out\n        /* \"#utility.yul\":3910:3985   */\n    tag_278:\n        /* \"#utility.yul\":3943:3949   */\n      0x00\n        /* \"#utility.yul\":3976:3978   */\n      0x40\n        /* \"#utility.yul\":3970:3979   */\n      mload\n        /* \"#utility.yul\":3960:3979   */\n      swap1\n      pop\n        /* \"#utility.yul\":3910:3985   */\n      swap1\n      jump\t// out\n        /* \"#utility.yul\":3991:4108   */\n    tag_279:\n        /* \"#utility.yul\":4100:4101   */\n      0x00\n        /* \"#utility.yul\":4097:4098   */\n      dup1\n        /* \"#utility.yul\":4090:4102   */\n      revert\n        /* \"#utility.yul\":4114:4231   */\n    tag_280:\n        /* \"#utility.yul\":4223:4224   */\n      0x00\n        /* \"#utility.yul\":4220:4221   */\n      dup1\n        /* \"#utility.yul\":4213:4225   */\n      revert\n        /* \"#utility.yul\":4237:4359   */\n    tag_281:\n        /* \"#utility.yul\":4310:4334   */\n      tag_376\n        /* \"#utility.yul\":4328:4333   */\n      dup2\n        /* \"#utility.yul\":4310:4334   */\n      tag_273\n      jump\t// in\n    tag_376:\n        /* \"#utility.yul\":4303:4308   */\n      dup2\n        /* \"#utility.yul\":4300:4335   */\n      eq\n        /* \"#utility.yul\":4290:4353   */\n      tag_377\n      jumpi\n        /* \"#utility.yul\":4349:4350   */\n      0x00\n        /* \"#utility.yul\":4346:4347   */\n      dup1\n        /* \"#utility.yul\":4339:4351   */\n      revert\n        /* \"#utility.yul\":4290:4353   */\n    tag_377:\n        /* \"#utility.yul\":4237:4359   */\n      pop\n      jump\t// out\n        /* \"#utility.yul\":4365:4504   */\n    tag_282:\n        /* \"#utility.yul\":4411:4416   */\n      0x00\n        /* \"#utility.yul\":4449:4455   */\n      dup2\n        /* \"#utility.yul\":4436:4456   */\n      calldataload\n        /* \"#utility.yul\":4427:4456   */\n      swap1\n      pop\n        /* \"#utility.yul\":4465:4498   */\n      tag_379\n        /* \"#utility.yul\":4492:4497   */\n      dup2\n        /* \"#utility.yul\":4465:4498   */\n      tag_281\n      jump\t// in\n    tag_379:\n        /* \"#utility.yul\":4365:4504   */\n      swap3\n      swap2\n      pop\n      pop\n      jump\t// out\n        /* \"#utility.yul\":4510:4632   */\n    tag_283:\n        /* \"#utility.yul\":4583:4607   */\n      tag_381\n        /* \"#utility.yul\":4601:4606   */\n      dup2\n        /* \"#utility.yul\":4583:4607   */\n      tag_263\n      jump\t// in\n    tag_381:\n        /* \"#utility.yul\":4576:4581   */\n      dup2\n        /* \"#utility.yul\":4573:4608   */\n      eq\n        /* \"#utility.yul\":4563:4626   */\n      tag_382\n      jumpi\n        /* \"#utility.yul\":4622:4623   */\n      0x00\n        /* \"#utility.yul\":4619:4620   */\n      dup1\n        /* \"#utility.yul\":4612:4624   */\n      revert\n        /* \"#utility.yul\":4563:4626   */\n    tag_382:\n        /* \"#utility.yul\":4510:4632   */\n      pop\n      jump\t// out\n        /* \"#utility.yul\":4638:4777   */\n    tag_284:\n        /* \"#utility.yul\":4684:4689   */\n      0x00\n        /* \"#utility.yul\":4722:4728   */\n      dup2\n        /* \"#utility.yul\":4709:4729   */\n      calldataload\n        /* \"#utility.yul\":4700:4729   */\n      swap1\n      pop\n        /* \"#utility.yul\":4738:4771   */\n      tag_384\n        /* \"#utility.yul\":4765:4770   */\n      dup2\n        /* \"#utility.yul\":4738:4771   */\n      tag_283\n      jump\t// in\n    tag_384:\n        /* \"#utility.yul\":4638:4777   */\n      swap3\n      swap2\n      pop\n      pop\n      jump\t// out\n        /* \"#utility.yul\":4783:5257   */\n    tag_42:\n        /* \"#utility.yul\":4851:4857   */\n      0x00\n        /* \"#utility.yul\":4859:4865   */\n      dup1\n        /* \"#utility.yul\":4908:4910   */\n      0x40\n        /* \"#utility.yul\":4896:4905   */\n      dup4\n        /* \"#utility.yul\":4887:4894   */\n      dup6\n        /* \"#utility.yul\":4883:4906   */\n      sub\n        /* \"#utility.yul\":4879:4911   */\n      slt\n        /* \"#utility.yul\":4876:4995   */\n      iszero\n      tag_386\n      jumpi\n        /* \"#utility.yul\":4914:4993   */\n      tag_387\n      tag_279\n      jump\t// in\n    tag_387:\n        /* \"#utility.yul\":4876:4995   */\n    tag_386:\n        /* \"#utility.yul\":5034:5035   */\n      0x00\n        /* \"#utility.yul\":5059:5112   */\n      tag_388\n        /* \"#utility.yul\":5104:5111   */\n      dup6\n        /* \"#utility.yul\":5095:5101   */\n      dup3\n        /* \"#utility.yul\":5084:5093   */\n      dup7\n        /* \"#utility.yul\":5080:5102   */\n      add\n        /* \"#utility.yul\":5059:5112   */\n      tag_282\n      jump\t// in\n    tag_388:\n        /* \"#utility.yul\":5049:5112   */\n      swap3\n      pop\n        /* \"#utility.yul\":5005:5122   */\n      pop\n        /* \"#utility.yul\":5161:5163   */\n      0x20\n        /* \"#utility.yul\":5187:5240   */\n      tag_389\n        /* \"#utility.yul\":5232:5239   */\n      dup6\n        /* \"#utility.yul\":5223:5229   */\n      dup3\n        /* \"#utility.yul\":5212:5221   */\n      dup7\n        /* \"#utility.yul\":5208:5230   */\n      add\n        /* \"#utility.yul\":5187:5240   */\n      tag_284\n      jump\t// in\n    tag_389:\n        /* \"#utility.yul\":5177:5240   */\n      swap2\n      pop\n        /* \"#utility.yul\":5132:5250   */\n      pop\n        /* \"#utility.yul\":4783:5257   */\n      swap3\n      pop\n      swap3\n      swap1\n      pop\n      jump\t// out\n        /* \"#utility.yul\":5263:5380   */\n    tag_285:\n        /* \"#utility.yul\":5372:5373   */\n      0x00\n        /* \"#utility.yul\":5369:5370   */\n      dup1\n        /* \"#utility.yul\":5362:5374   */\n      revert\n        /* \"#utility.yul\":5386:5503   */\n    tag_286:\n        /* \"#utility.yul\":5495:5496   */\n      0x00\n        /* \"#utility.yul\":5492:5493   */\n      dup1\n        /* \"#utility.yul\":5485:5497   */\n      revert\n        /* \"#utility.yul\":5509:5626   */\n    tag_287:\n        /* \"#utility.yul\":5618:5619   */\n      0x00\n        /* \"#utility.yul\":5615:5616   */\n      dup1\n        /* \"#utility.yul\":5608:5620   */\n      revert\n        /* \"#utility.yul\":5645:6197   */\n    tag_288:\n        /* \"#utility.yul\":5702:5710   */\n      0x00\n        /* \"#utility.yul\":5712:5718   */\n      dup1\n        /* \"#utility.yul\":5762:5765   */\n      dup4\n        /* \"#utility.yul\":5755:5759   */\n      0x1f\n        /* \"#utility.yul\":5747:5753   */\n      dup5\n        /* \"#utility.yul\":5743:5760   */\n      add\n        /* \"#utility.yul\":5739:5766   */\n      slt\n        /* \"#utility.yul\":5729:5851   */\n      tag_394\n      jumpi\n        /* \"#utility.yul\":5770:5849   */\n      tag_395\n      tag_285\n      jump\t// in\n    tag_395:\n        /* \"#utility.yul\":5729:5851   */\n    tag_394:\n        /* \"#utility.yul\":5883:5889   */\n      dup3\n        /* \"#utility.yul\":5870:5890   */\n      calldataload\n        /* \"#utility.yul\":5860:5890   */\n      swap1\n      pop\n        /* \"#utility.yul\":5913:5931   */\n      0xffffffffffffffff\n        /* \"#utility.yul\":5905:5911   */\n      dup2\n        /* \"#utility.yul\":5902:5932   */\n      gt\n        /* \"#utility.yul\":5899:6016   */\n      iszero\n      tag_396\n      jumpi\n        /* \"#utility.yul\":5935:6014   */\n      tag_397\n      tag_286\n      jump\t// in\n    tag_397:\n        /* \"#utility.yul\":5899:6016   */\n    tag_396:\n        /* \"#utility.yul\":6049:6053   */\n      0x20\n        /* \"#utility.yul\":6041:6047   */\n      dup4\n        /* \"#utility.yul\":6037:6054   */\n      add\n        /* \"#utility.yul\":6025:6054   */\n      swap2\n      pop\n        /* \"#utility.yul\":6103:6106   */\n      dup4\n        /* \"#utility.yul\":6095:6099   */\n      0x01\n        /* \"#utility.yul\":6087:6093   */\n      dup3\n        /* \"#utility.yul\":6083:6100   */\n      mul\n        /* \"#utility.yul\":6073:6081   */\n      dup4\n        /* \"#utility.yul\":6069:6101   */\n      add\n        /* \"#utility.yul\":6066:6107   */\n      gt\n        /* \"#utility.yul\":6063:6191   */\n      iszero\n      tag_398\n      jumpi\n        /* \"#utility.yul\":6110:6189   */\n      tag_399\n      tag_287\n      jump\t// in\n    tag_399:\n        /* \"#utility.yul\":6063:6191   */\n    tag_398:\n        /* \"#utility.yul\":5645:6197   */\n      swap3\n      pop\n      swap3\n      swap1\n      pop\n      jump\t// out\n        /* \"#utility.yul\":6203:6320   */\n    tag_289:\n        /* \"#utility.yul\":6312:6313   */\n      0x00\n        /* \"#utility.yul\":6309:6310   */\n      dup1\n        /* \"#utility.yul\":6302:6314   */\n      revert\n        /* \"#utility.yul\":6326:6506   */\n    tag_111:\n        /* \"#utility.yul\":6374:6451   */\n      0x4e487b7100000000000000000000000000000000000000000000000000000000\n        /* \"#utility.yul\":6371:6372   */\n      0x00\n        /* \"#utility.yul\":6364:6452   */\n      mstore\n        /* \"#utility.yul\":6471:6475   */\n      0x41\n        /* \"#utility.yul\":6468:6469   */\n      0x04\n        /* \"#utility.yul\":6461:6476   */\n      mstore\n        /* \"#utility.yul\":6495:6499   */\n      0x24\n        /* \"#utility.yul\":6492:6493   */\n      0x00\n        /* \"#utility.yul\":6485:6500   */\n      revert\n        /* \"#utility.yul\":6512:6793   */\n    tag_290:\n        /* \"#utility.yul\":6595:6622   */\n      tag_403\n        /* \"#utility.yul\":6617:6621   */\n      dup3\n        /* \"#utility.yul\":6595:6622   */\n      tag_267\n      jump\t// in\n    tag_403:\n        /* \"#utility.yul\":6587:6593   */\n      dup2\n        /* \"#utility.yul\":6583:6623   */\n      add\n        /* \"#utility.yul\":6725:6731   */\n      dup2\n        /* \"#utility.yul\":6713:6723   */\n      dup2\n        /* \"#utility.yul\":6710:6732   */\n      lt\n        /* \"#utility.yul\":6689:6707   */\n      0xffffffffffffffff\n        /* \"#utility.yul\":6677:6687   */\n      dup3\n        /* \"#utility.yul\":6674:6708   */\n      gt\n        /* \"#utility.yul\":6671:6733   */\n      or\n        /* \"#utility.yul\":6668:6756   */\n      iszero\n      tag_404\n      jumpi\n        /* \"#utility.yul\":6736:6754   */\n      tag_405\n      tag_111\n      jump\t// in\n    tag_405:\n        /* \"#utility.yul\":6668:6756   */\n    tag_404:\n        /* \"#utility.yul\":6776:6786   */\n      dup1\n        /* \"#utility.yul\":6772:6774   */\n      0x40\n        /* \"#utility.yul\":6765:6787   */\n      mstore\n        /* \"#utility.yul\":6555:6793   */\n      pop\n        /* \"#utility.yul\":6512:6793   */\n      pop\n      pop\n      jump\t// out\n        /* \"#utility.yul\":6799:6928   */\n    tag_291:\n        /* \"#utility.yul\":6833:6839   */\n      0x00\n        /* \"#utility.yul\":6860:6880   */\n      tag_407\n      tag_278\n      jump\t// in\n    tag_407:\n        /* \"#utility.yul\":6850:6880   */\n      swap1\n      pop\n        /* \"#utility.yul\":6889:6922   */\n      tag_408\n        /* \"#utility.yul\":6917:6921   */\n      dup3\n        /* \"#utility.yul\":6909:6915   */\n      dup3\n        /* \"#utility.yul\":6889:6922   */\n      tag_290\n      jump\t// in\n    tag_408:\n        /* \"#utility.yul\":6799:6928   */\n      swap2\n      swap1\n      pop\n      jump\t// out\n        /* \"#utility.yul\":6934:7241   */\n    tag_292:\n        /* \"#utility.yul\":6995:6999   */\n      0x00\n        /* \"#utility.yul\":7085:7103   */\n      0xffffffffffffffff\n        /* \"#utility.yul\":7077:7083   */\n      dup3\n        /* \"#utility.yul\":7074:7104   */\n      gt\n        /* \"#utility.yul\":7071:7127   */\n      iszero\n      tag_410\n      jumpi\n        /* \"#utility.yul\":7107:7125   */\n      tag_411\n      tag_111\n      jump\t// in\n    tag_411:\n        /* \"#utility.yul\":7071:7127   */\n    tag_410:\n        /* \"#utility.yul\":7145:7174   */\n      tag_412\n        /* \"#utility.yul\":7167:7173   */\n      dup3\n        /* \"#utility.yul\":7145:7174   */\n      tag_267\n      jump\t// in\n    tag_412:\n        /* \"#utility.yul\":7137:7174   */\n      swap1\n      pop\n        /* \"#utility.yul\":7229:7233   */\n      0x20\n        /* \"#utility.yul\":7223:7227   */\n      dup2\n        /* \"#utility.yul\":7219:7234   */\n      add\n        /* \"#utility.yul\":7211:7234   */\n      swap1\n      pop\n        /* \"#utility.yul\":6934:7241   */\n      swap2\n      swap1\n      pop\n      jump\t// out\n        /* \"#utility.yul\":7247:7670   */\n    tag_293:\n        /* \"#utility.yul\":7324:7329   */\n      0x00\n        /* \"#utility.yul\":7349:7414   */\n      tag_414\n        /* \"#utility.yul\":7365:7413   */\n      tag_415\n        /* \"#utility.yul\":7406:7412   */\n      dup5\n        /* \"#utility.yul\":7365:7413   */\n      tag_292\n      jump\t// in\n    tag_415:\n        /* \"#utility.yul\":7349:7414   */\n      tag_291\n      jump\t// in\n    tag_414:\n        /* \"#utility.yul\":7340:7414   */\n      swap1\n      pop\n        /* \"#utility.yul\":7437:7443   */\n      dup3\n        /* \"#utility.yul\":7430:7435   */\n      dup2\n        /* \"#utility.yul\":7423:7444   */\n      mstore\n        /* \"#utility.yul\":7475:7479   */\n      0x20\n        /* \"#utility.yul\":7468:7473   */\n      dup2\n        /* \"#utility.yul\":7464:7480   */\n      add\n        /* \"#utility.yul\":7513:7516   */\n      dup5\n        /* \"#utility.yul\":7504:7510   */\n      dup5\n        /* \"#utility.yul\":7499:7502   */\n      dup5\n        /* \"#utility.yul\":7495:7511   */\n      add\n        /* \"#utility.yul\":7492:7517   */\n      gt\n        /* \"#utility.yul\":7489:7601   */\n      iszero\n      tag_416\n      jumpi\n        /* \"#utility.yul\":7520:7599   */\n      tag_417\n      tag_289\n      jump\t// in\n    tag_417:\n        /* \"#utility.yul\":7489:7601   */\n    tag_416:\n        /* \"#utility.yul\":7610:7664   */\n      tag_418\n        /* \"#utility.yul\":7657:7663   */\n      dup5\n        /* \"#utility.yul\":7652:7655   */\n      dup3\n        /* \"#utility.yul\":7647:7650   */\n      dup6\n        /* \"#utility.yul\":7610:7664   */\n      tag_266\n      jump\t// in\n    tag_418:\n        /* \"#utility.yul\":7330:7670   */\n      pop\n        /* \"#utility.yul\":7247:7670   */\n      swap4\n      swap3\n      pop\n      pop\n      pop\n      jump\t// out\n        /* \"#utility.yul\":7689:8027   */\n    tag_294:\n        /* \"#utility.yul\":7744:7749   */\n      0x00\n        /* \"#utility.yul\":7793:7796   */\n      dup3\n        /* \"#utility.yul\":7786:7790   */\n      0x1f\n        /* \"#utility.yul\":7778:7784   */\n      dup4\n        /* \"#utility.yul\":7774:7791   */\n      add\n        /* \"#utility.yul\":7770:7797   */\n      slt\n        /* \"#utility.yul\":7760:7882   */\n      tag_420\n      jumpi\n        /* \"#utility.yul\":7801:7880   */\n      tag_421\n      tag_285\n      jump\t// in\n    tag_421:\n        /* \"#utility.yul\":7760:7882   */\n    tag_420:\n        /* \"#utility.yul\":7918:7924   */\n      dup2\n        /* \"#utility.yul\":7905:7925   */\n      calldataload\n        /* \"#utility.yul\":7943:8021   */\n      tag_422\n        /* \"#utility.yul\":8017:8020   */\n      dup5\n        /* \"#utility.yul\":8009:8015   */\n      dup3\n        /* \"#utility.yul\":8002:8006   */\n      0x20\n        /* \"#utility.yul\":7994:8000   */\n      dup7\n        /* \"#utility.yul\":7990:8007   */\n      add\n        /* \"#utility.yul\":7943:8021   */\n      tag_293\n      jump\t// in\n    tag_422:\n        /* \"#utility.yul\":7934:8021   */\n      swap2\n      pop\n        /* \"#utility.yul\":7750:8027   */\n      pop\n        /* \"#utility.yul\":7689:8027   */\n      swap3\n      swap2\n      pop\n      pop\n      jump\t// out\n        /* \"#utility.yul\":8033:9174   */\n    tag_46:\n        /* \"#utility.yul\":8139:8145   */\n      0x00\n        /* \"#utility.yul\":8147:8153   */\n      dup1\n        /* \"#utility.yul\":8155:8161   */\n      0x00\n        /* \"#utility.yul\":8163:8169   */\n      dup1\n        /* \"#utility.yul\":8171:8177   */\n      0x00\n        /* \"#utility.yul\":8220:8223   */\n      0x80\n        /* \"#utility.yul\":8208:8217   */\n      dup7\n        /* \"#utility.yul\":8199:8206   */\n      dup9\n        /* \"#utility.yul\":8195:8218   */\n      sub\n        /* \"#utility.yul\":8191:8224   */\n      slt\n        /* \"#utility.yul\":8188:8308   */\n      iszero\n      tag_424\n      jumpi\n        /* \"#utility.yul\":8227:8306   */\n      tag_425\n      tag_279\n      jump\t// in\n    tag_425:\n        /* \"#utility.yul\":8188:8308   */\n    tag_424:\n        /* \"#utility.yul\":8347:8348   */\n      0x00\n        /* \"#utility.yul\":8372:8425   */\n      tag_426\n        /* \"#utility.yul\":8417:8424   */\n      dup9\n        /* \"#utility.yul\":8408:8414   */\n      dup3\n        /* \"#utility.yul\":8397:8406   */\n      dup10\n        /* \"#utility.yul\":8393:8415   */\n      add\n        /* \"#utility.yul\":8372:8425   */\n      tag_282\n      jump\t// in\n    tag_426:\n        /* \"#utility.yul\":8362:8425   */\n      swap6\n      pop\n        /* \"#utility.yul\":8318:8435   */\n      pop\n        /* \"#utility.yul\":8474:8476   */\n      0x20\n        /* \"#utility.yul\":8500:8553   */\n      tag_427\n        /* \"#utility.yul\":8545:8552   */\n      dup9\n        /* \"#utility.yul\":8536:8542   */\n      dup3\n        /* \"#utility.yul\":8525:8534   */\n      dup10\n        /* \"#utility.yul\":8521:8543   */\n      add\n        /* \"#utility.yul\":8500:8553   */\n      tag_284\n      jump\t// in\n    tag_427:\n        /* \"#utility.yul\":8490:8553   */\n      swap5\n      pop\n        /* \"#utility.yul\":8445:8563   */\n      pop\n        /* \"#utility.yul\":8630:8632   */\n      0x40\n        /* \"#utility.yul\":8619:8628   */\n      dup7\n        /* \"#utility.yul\":8615:8633   */\n      add\n        /* \"#utility.yul\":8602:8634   */\n      calldataload\n        /* \"#utility.yul\":8661:8679   */\n      0xffffffffffffffff\n        /* \"#utility.yul\":8653:8659   */\n      dup2\n        /* \"#utility.yul\":8650:8680   */\n      gt\n        /* \"#utility.yul\":8647:8764   */\n      iszero\n      tag_428\n      jumpi\n        /* \"#utility.yul\":8683:8762   */\n      tag_429\n      tag_280\n      jump\t// in\n    tag_429:\n        /* \"#utility.yul\":8647:8764   */\n    tag_428:\n        /* \"#utility.yul\":8796:8860   */\n      tag_430\n        /* \"#utility.yul\":8852:8859   */\n      dup9\n        /* \"#utility.yul\":8843:8849   */\n      dup3\n        /* \"#utility.yul\":8832:8841   */\n      dup10\n        /* \"#utility.yul\":8828:8850   */\n      add\n        /* \"#utility.yul\":8796:8860   */\n      tag_288\n      jump\t// in\n    tag_430:\n        /* \"#utility.yul\":8778:8860   */\n      swap4\n      pop\n      swap4\n      pop\n        /* \"#utility.yul\":8573:8870   */\n      pop\n        /* \"#utility.yul\":8937:8939   */\n      0x60\n        /* \"#utility.yul\":8926:8935   */\n      dup7\n        /* \"#utility.yul\":8922:8940   */\n      add\n        /* \"#utility.yul\":8909:8941   */\n      calldataload\n        /* \"#utility.yul\":8968:8986   */\n      0xffffffffffffffff\n        /* \"#utility.yul\":8960:8966   */\n      dup2\n        /* \"#utility.yul\":8957:8987   */\n      gt\n        /* \"#utility.yul\":8954:9071   */\n      iszero\n      tag_431\n      jumpi\n        /* \"#utility.yul\":8990:9069   */\n      tag_432\n      tag_280\n      jump\t// in\n    tag_432:\n        /* \"#utility.yul\":8954:9071   */\n    tag_431:\n        /* \"#utility.yul\":9095:9157   */\n      tag_433\n        /* \"#utility.yul\":9149:9156   */\n      dup9\n        /* \"#utility.yul\":9140:9146   */\n      dup3\n        /* \"#utility.yul\":9129:9138   */\n      dup10\n        /* \"#utility.yul\":9125:9147   */\n      add\n        /* \"#utility.yul\":9095:9157   */\n      tag_294\n      jump\t// in\n    tag_433:\n        /* \"#utility.yul\":9085:9157   */\n      swap2\n      pop\n        /* \"#utility.yul\":8880:9167   */\n      pop\n        /* \"#utility.yul\":8033:9174   */\n      swap3\n      swap6\n      pop\n      swap3\n      swap6\n      swap1\n      swap4\n      pop\n      jump\t// out\n        /* \"#utility.yul\":9180:9270   */\n    tag_295:\n        /* \"#utility.yul\":9214:9221   */\n      0x00\n        /* \"#utility.yul\":9257:9262   */\n      dup2\n        /* \"#utility.yul\":9250:9263   */\n      iszero\n        /* \"#utility.yul\":9243:9264   */\n      iszero\n        /* \"#utility.yul\":9232:9264   */\n      swap1\n      pop\n        /* \"#utility.yul\":9180:9270   */\n      swap2\n      swap1\n      pop\n      jump\t// out\n        /* \"#utility.yul\":9276:9385   */\n    tag_296:\n        /* \"#utility.yul\":9357:9378   */\n      tag_436\n        /* \"#utility.yul\":9372:9377   */\n      dup2\n        /* \"#utility.yul\":9357:9378   */\n      tag_295\n      jump\t// in\n    tag_436:\n        /* \"#utility.yul\":9352:9355   */\n      dup3\n        /* \"#utility.yul\":9345:9379   */\n      mstore\n        /* \"#utility.yul\":9276:9385   */\n      pop\n      pop\n      jump\t// out\n        /* \"#utility.yul\":9391:9601   */\n    tag_49:\n        /* \"#utility.yul\":9478:9482   */\n      0x00\n        /* \"#utility.yul\":9516:9518   */\n      0x20\n        /* \"#utility.yul\":9505:9514   */\n      dup3\n        /* \"#utility.yul\":9501:9519   */\n      add\n        /* \"#utility.yul\":9493:9519   */\n      swap1\n      pop\n        /* \"#utility.yul\":9529:9594   */\n      tag_438\n        /* \"#utility.yul\":9591:9592   */\n      0x00\n        /* \"#utility.yul\":9580:9589   */\n      dup4\n        /* \"#utility.yul\":9576:9593   */\n      add\n        /* \"#utility.yul\":9567:9573   */\n      dup5\n        /* \"#utility.yul\":9529:9594   */\n      tag_296\n      jump\t// in\n    tag_438:\n        /* \"#utility.yul\":9391:9601   */\n      swap3\n      swap2\n      pop\n      pop\n      jump\t// out\n        /* \"#utility.yul\":9607:9723   */\n    tag_297:\n        /* \"#utility.yul\":9677:9698   */\n      tag_440\n        /* \"#utility.yul\":9692:9697   */\n      dup2\n        /* \"#utility.yul\":9677:9698   */\n      tag_295\n      jump\t// in\n    tag_440:\n        /* \"#utility.yul\":9670:9675   */\n      dup2\n        /* \"#utility.yul\":9667:9699   */\n      eq\n        /* \"#utility.yul\":9657:9717   */\n      tag_441\n      jumpi\n        /* \"#utility.yul\":9713:9714   */\n      0x00\n        /* \"#utility.yul\":9710:9711   */\n      dup1\n        /* \"#utility.yul\":9703:9715   */\n      revert\n        /* \"#utility.yul\":9657:9717   */\n    tag_441:\n        /* \"#utility.yul\":9607:9723   */\n      pop\n      jump\t// out\n        /* \"#utility.yul\":9729:9862   */\n    tag_298:\n        /* \"#utility.yul\":9772:9777   */\n      0x00\n        /* \"#utility.yul\":9810:9816   */\n      dup2\n        /* \"#utility.yul\":9797:9817   */\n      calldataload\n        /* \"#utility.yul\":9788:9817   */\n      swap1\n      pop\n        /* \"#utility.yul\":9826:9856   */\n      tag_443\n        /* \"#utility.yul\":9850:9855   */\n      dup2\n        /* \"#utility.yul\":9826:9856   */\n      tag_297\n      jump\t// in\n    tag_443:\n        /* \"#utility.yul\":9729:9862   */\n      swap3\n      swap2\n      pop\n      pop\n      jump\t// out\n        /* \"#utility.yul\":9868:10336   */\n    tag_53:\n        /* \"#utility.yul\":9933:9939   */\n      0x00\n        /* \"#utility.yul\":9941:9947   */\n      dup1\n        /* \"#utility.yul\":9990:9992   */\n      0x40\n        /* \"#utility.yul\":9978:9987   */\n      dup4\n        /* \"#utility.yul\":9969:9976   */\n      dup6\n        /* \"#utility.yul\":9965:9988   */\n      sub\n        /* \"#utility.yul\":9961:9993   */\n      slt\n        /* \"#utility.yul\":9958:10077   */\n      iszero\n      tag_445\n      jumpi\n        /* \"#utility.yul\":9996:10075   */\n      tag_446\n      tag_279\n      jump\t// in\n    tag_446:\n        /* \"#utility.yul\":9958:10077   */\n    tag_445:\n        /* \"#utility.yul\":10116:10117   */\n      0x00\n        /* \"#utility.yul\":10141:10194   */\n      tag_447\n        /* \"#utility.yul\":10186:10193   */\n      dup6\n        /* \"#utility.yul\":10177:10183   */\n      dup3\n        /* \"#utility.yul\":10166:10175   */\n      dup7\n        /* \"#utility.yul\":10162:10184   */\n      add\n        /* \"#utility.yul\":10141:10194   */\n      tag_282\n      jump\t// in\n    tag_447:\n        /* \"#utility.yul\":10131:10194   */\n      swap3\n      pop\n        /* \"#utility.yul\":10087:10204   */\n      pop\n        /* \"#utility.yul\":10243:10245   */\n      0x20\n        /* \"#utility.yul\":10269:10319   */\n      tag_448\n        /* \"#utility.yul\":10311:10318   */\n      dup6\n        /* \"#utility.yul\":10302:10308   */\n      dup3\n        /* \"#utility.yul\":10291:10300   */\n      dup7\n        /* \"#utility.yul\":10287:10309   */\n      add\n        /* \"#utility.yul\":10269:10319   */\n      tag_298\n      jump\t// in\n    tag_448:\n        /* \"#utility.yul\":10259:10319   */\n      swap2\n      pop\n        /* \"#utility.yul\":10214:10329   */\n      pop\n        /* \"#utility.yul\":9868:10336   */\n      swap3\n      pop\n      swap3\n      swap1\n      pop\n      jump\t// out\n        /* \"#utility.yul\":10342:10460   */\n    tag_299:\n        /* \"#utility.yul\":10429:10453   */\n      tag_450\n        /* \"#utility.yul\":10447:10452   */\n      dup2\n        /* \"#utility.yul\":10429:10453   */\n      tag_273\n      jump\t// in\n    tag_450:\n        /* \"#utility.yul\":10424:10427   */\n      dup3\n        /* \"#utility.yul\":10417:10454   */\n      mstore\n        /* \"#utility.yul\":10342:10460   */\n      pop\n      pop\n      jump\t// out\n        /* \"#utility.yul\":10466:10786   */\n    tag_56:\n        /* \"#utility.yul\":10581:10585   */\n      0x00\n        /* \"#utility.yul\":10619:10621   */\n      0x40\n        /* \"#utility.yul\":10608:10617   */\n      dup3\n        /* \"#utility.yul\":10604:10622   */\n      add\n        /* \"#utility.yul\":10596:10622   */\n      swap1\n      pop\n        /* \"#utility.yul\":10632:10697   */\n      tag_452\n        /* \"#utility.yul\":10694:10695   */\n      0x00\n        /* \"#utility.yul\":10683:10692   */\n      dup4\n        /* \"#utility.yul\":10679:10696   */\n      add\n        /* \"#utility.yul\":10670:10676   */\n      dup6\n        /* \"#utility.yul\":10632:10697   */\n      tag_296\n      jump\t// in\n    tag_452:\n        /* \"#utility.yul\":10707:10779   */\n      tag_453\n        /* \"#utility.yul\":10775:10777   */\n      0x20\n        /* \"#utility.yul\":10764:10773   */\n      dup4\n        /* \"#utility.yul\":10760:10778   */\n      add\n        /* \"#utility.yul\":10751:10757   */\n      dup5\n        /* \"#utility.yul\":10707:10779   */\n      tag_299\n      jump\t// in\n    tag_453:\n        /* \"#utility.yul\":10466:10786   */\n      swap4\n      swap3\n      pop\n      pop\n      pop\n      jump\t// out\n        /* \"#utility.yul\":10792:10890   */\n    tag_300:\n        /* \"#utility.yul\":10843:10849   */\n      0x00\n        /* \"#utility.yul\":10877:10882   */\n      dup2\n        /* \"#utility.yul\":10871:10883   */\n      mload\n        /* \"#utility.yul\":10861:10883   */\n      swap1\n      pop\n        /* \"#utility.yul\":10792:10890   */\n      swap2\n      swap1\n      pop\n      jump\t// out\n        /* \"#utility.yul\":10896:11142   */\n    tag_301:\n        /* \"#utility.yul\":10977:10978   */\n      0x00\n        /* \"#utility.yul\":10987:11100   */\n    tag_456:\n        /* \"#utility.yul\":11001:11007   */\n      dup4\n        /* \"#utility.yul\":10998:10999   */\n      dup2\n        /* \"#utility.yul\":10995:11008   */\n      lt\n        /* \"#utility.yul\":10987:11100   */\n      iszero\n      tag_458\n      jumpi\n        /* \"#utility.yul\":11086:11087   */\n      dup1\n        /* \"#utility.yul\":11081:11084   */\n      dup3\n        /* \"#utility.yul\":11077:11088   */\n      add\n        /* \"#utility.yul\":11071:11089   */\n      mload\n        /* \"#utility.yul\":11067:11068   */\n      dup2\n        /* \"#utility.yul\":11062:11065   */\n      dup5\n        /* \"#utility.yul\":11058:11069   */\n      add\n        /* \"#utility.yul\":11051:11090   */\n      mstore\n        /* \"#utility.yul\":11023:11025   */\n      0x20\n        /* \"#utility.yul\":11020:11021   */\n      dup2\n        /* \"#utility.yul\":11016:11026   */\n      add\n        /* \"#utility.yul\":11011:11026   */\n      swap1\n      pop\n        /* \"#utility.yul\":10987:11100   */\n      jump(tag_456)\n    tag_458:\n        /* \"#utility.yul\":11134:11135   */\n      0x00\n        /* \"#utility.yul\":11125:11131   */\n      dup5\n        /* \"#utility.yul\":11120:11123   */\n      dup5\n        /* \"#utility.yul\":11116:11132   */\n      add\n        /* \"#utility.yul\":11109:11136   */\n      mstore\n        /* \"#utility.yul\":10958:11142   */\n      pop\n        /* \"#utility.yul\":10896:11142   */\n      pop\n      pop\n      pop\n      jump\t// out\n        /* \"#utility.yul\":11148:11521   */\n    tag_302:\n        /* \"#utility.yul\":11234:11237   */\n      0x00\n        /* \"#utility.yul\":11262:11300   */\n      tag_460\n        /* \"#utility.yul\":11294:11299   */\n      dup3\n        /* \"#utility.yul\":11262:11300   */\n      tag_300\n      jump\t// in\n    tag_460:\n        /* \"#utility.yul\":11316:11386   */\n      tag_461\n        /* \"#utility.yul\":11379:11385   */\n      dup2\n        /* \"#utility.yul\":11374:11377   */\n      dup6\n        /* \"#utility.yul\":11316:11386   */\n      tag_265\n      jump\t// in\n    tag_461:\n        /* \"#utility.yul\":11309:11386   */\n      swap4\n      pop\n        /* \"#utility.yul\":11395:11460   */\n      tag_462\n        /* \"#utility.yul\":11453:11459   */\n      dup2\n        /* \"#utility.yul\":11448:11451   */\n      dup6\n        /* \"#utility.yul\":11441:11445   */\n      0x20\n        /* \"#utility.yul\":11434:11439   */\n      dup7\n        /* \"#utility.yul\":11430:11446   */\n      add\n        /* \"#utility.yul\":11395:11460   */\n      tag_301\n      jump\t// in\n    tag_462:\n        /* \"#utility.yul\":11485:11514   */\n      tag_463\n        /* \"#utility.yul\":11507:11513   */\n      dup2\n        /* \"#utility.yul\":11485:11514   */\n      tag_267\n      jump\t// in\n    tag_463:\n        /* \"#utility.yul\":11480:11483   */\n      dup5\n        /* \"#utility.yul\":11476:11515   */\n      add\n        /* \"#utility.yul\":11469:11515   */\n      swap2\n      pop\n        /* \"#utility.yul\":11238:11521   */\n      pop\n        /* \"#utility.yul\":11148:11521   */\n      swap3\n      swap2\n      pop\n      pop\n      jump\t// out\n        /* \"#utility.yul\":11527:11836   */\n    tag_62:\n        /* \"#utility.yul\":11638:11642   */\n      0x00\n        /* \"#utility.yul\":11676:11678   */\n      0x20\n        /* \"#utility.yul\":11665:11674   */\n      dup3\n        /* \"#utility.yul\":11661:11679   */\n      add\n        /* \"#utility.yul\":11653:11679   */\n      swap1\n      pop\n        /* \"#utility.yul\":11725:11734   */\n      dup2\n        /* \"#utility.yul\":11719:11723   */\n      dup2\n        /* \"#utility.yul\":11715:11735   */\n      sub\n        /* \"#utility.yul\":11711:11712   */\n      0x00\n        /* \"#utility.yul\":11700:11709   */\n      dup4\n        /* \"#utility.yul\":11696:11713   */\n      add\n        /* \"#utility.yul\":11689:11736   */\n      mstore\n        /* \"#utility.yul\":11753:11829   */\n      tag_465\n        /* \"#utility.yul\":11824:11828   */\n      dup2\n        /* \"#utility.yul\":11815:11821   */\n      dup5\n        /* \"#utility.yul\":11753:11829   */\n      tag_302\n      jump\t// in\n    tag_465:\n        /* \"#utility.yul\":11745:11829   */\n      swap1\n      pop\n        /* \"#utility.yul\":11527:11836   */\n      swap3\n      swap2\n      pop\n      pop\n      jump\t// out\n        /* \"#utility.yul\":11842:12171   */\n    tag_66:\n        /* \"#utility.yul\":11901:11907   */\n      0x00\n        /* \"#utility.yul\":11950:11952   */\n      0x20\n        /* \"#utility.yul\":11938:11947   */\n      dup3\n        /* \"#utility.yul\":11929:11936   */\n      dup5\n        /* \"#utility.yul\":11925:11948   */\n      sub\n        /* \"#utility.yul\":11921:11953   */\n      slt\n        /* \"#utility.yul\":11918:12037   */\n      iszero\n      tag_467\n      jumpi\n        /* \"#utility.yul\":11956:12035   */\n      tag_468\n      tag_279\n      jump\t// in\n    tag_468:\n        /* \"#utility.yul\":11918:12037   */\n    tag_467:\n        /* \"#utility.yul\":12076:12077   */\n      0x00\n        /* \"#utility.yul\":12101:12154   */\n      tag_469\n        /* \"#utility.yul\":12146:12153   */\n      dup5\n        /* \"#utility.yul\":12137:12143   */\n      dup3\n        /* \"#utility.yul\":12126:12135   */\n      dup6\n        /* \"#utility.yul\":12122:12144   */\n      add\n        /* \"#utility.yul\":12101:12154   */\n      tag_284\n      jump\t// in\n    tag_469:\n        /* \"#utility.yul\":12091:12154   */\n      swap2\n      pop\n        /* \"#utility.yul\":12047:12164   */\n      pop\n        /* \"#utility.yul\":11842:12171   */\n      swap3\n      swap2\n      pop\n      pop\n      jump\t// out\n        /* \"#utility.yul\":12177:12254   */\n    tag_303:\n        /* \"#utility.yul\":12214:12221   */\n      0x00\n        /* \"#utility.yul\":12243:12248   */\n      dup2\n        /* \"#utility.yul\":12232:12248   */\n      swap1\n      pop\n        /* \"#utility.yul\":12177:12254   */\n      swap2\n      swap1\n      pop\n      jump\t// out\n        /* \"#utility.yul\":12260:12382   */\n    tag_304:\n        /* \"#utility.yul\":12333:12357   */\n      tag_472\n        /* \"#utility.yul\":12351:12356   */\n      dup2\n        /* \"#utility.yul\":12333:12357   */\n      tag_303\n      jump\t// in\n    tag_472:\n        /* \"#utility.yul\":12326:12331   */\n      dup2\n        /* \"#utility.yul\":12323:12358   */\n      eq\n        /* \"#utility.yul\":12313:12376   */\n      tag_473\n      jumpi\n        /* \"#utility.yul\":12372:12373   */\n      0x00\n        /* \"#utility.yul\":12369:12370   */\n      dup1\n        /* \"#utility.yul\":12362:12374   */\n      revert\n        /* \"#utility.yul\":12313:12376   */\n    tag_473:\n        /* \"#utility.yul\":12260:12382   */\n      pop\n      jump\t// out\n        /* \"#utility.yul\":12388:12527   */\n    tag_305:\n        /* \"#utility.yul\":12434:12439   */\n      0x00\n        /* \"#utility.yul\":12472:12478   */\n      dup2\n        /* \"#utility.yul\":12459:12479   */\n      calldataload\n        /* \"#utility.yul\":12450:12479   */\n      swap1\n      pop\n        /* \"#utility.yul\":12488:12521   */\n      tag_475\n        /* \"#utility.yul\":12515:12520   */\n      dup2\n        /* \"#utility.yul\":12488:12521   */\n      tag_304\n      jump\t// in\n    tag_475:\n        /* \"#utility.yul\":12388:12527   */\n      swap3\n      swap2\n      pop\n      pop\n      jump\t// out\n        /* \"#utility.yul\":12533:13185   */\n    tag_80:\n        /* \"#utility.yul\":12610:12616   */\n      0x00\n        /* \"#utility.yul\":12618:12624   */\n      dup1\n        /* \"#utility.yul\":12667:12669   */\n      0x40\n        /* \"#utility.yul\":12655:12664   */\n      dup4\n        /* \"#utility.yul\":12646:12653   */\n      dup6\n        /* \"#utility.yul\":12642:12665   */\n      sub\n        /* \"#utility.yul\":12638:12670   */\n      slt\n        /* \"#utility.yul\":12635:12754   */\n      iszero\n      tag_477\n      jumpi\n        /* \"#utility.yul\":12673:12752   */\n      tag_478\n      tag_279\n      jump\t// in\n    tag_478:\n        /* \"#utility.yul\":12635:12754   */\n    tag_477:\n        /* \"#utility.yul\":12793:12794   */\n      0x00\n        /* \"#utility.yul\":12818:12871   */\n      tag_479\n        /* \"#utility.yul\":12863:12870   */\n      dup6\n        /* \"#utility.yul\":12854:12860   */\n      dup3\n        /* \"#utility.yul\":12843:12852   */\n      dup7\n        /* \"#utility.yul\":12839:12861   */\n      add\n        /* \"#utility.yul\":12818:12871   */\n      tag_305\n      jump\t// in\n    tag_479:\n        /* \"#utility.yul\":12808:12871   */\n      swap3\n      pop\n        /* \"#utility.yul\":12764:12881   */\n      pop\n        /* \"#utility.yul\":12948:12950   */\n      0x20\n        /* \"#utility.yul\":12937:12946   */\n      dup4\n        /* \"#utility.yul\":12933:12951   */\n      add\n        /* \"#utility.yul\":12920:12952   */\n      calldataload\n        /* \"#utility.yul\":12979:12997   */\n      0xffffffffffffffff\n        /* \"#utility.yul\":12971:12977   */\n      dup2\n        /* \"#utility.yul\":12968:12998   */\n      gt\n        /* \"#utility.yul\":12965:13082   */\n      iszero\n      tag_480\n      jumpi\n        /* \"#utility.yul\":13001:13080   */\n      tag_481\n      tag_280\n      jump\t// in\n    tag_481:\n        /* \"#utility.yul\":12965:13082   */\n    tag_480:\n        /* \"#utility.yul\":13106:13168   */\n      tag_482\n        /* \"#utility.yul\":13160:13167   */\n      dup6\n        /* \"#utility.yul\":13151:13157   */\n      dup3\n        /* \"#utility.yul\":13140:13149   */\n      dup7\n        /* \"#utility.yul\":13136:13158   */\n      add\n        /* \"#utility.yul\":13106:13168   */\n      tag_294\n      jump\t// in\n    tag_482:\n        /* \"#utility.yul\":13096:13168   */\n      swap2\n      pop\n        /* \"#utility.yul\":12891:13178   */\n      pop\n        /* \"#utility.yul\":12533:13185   */\n      swap3\n      pop\n      swap3\n      swap1\n      pop\n      jump\t// out\n        /* \"#utility.yul\":13191:13988   */\n    tag_85:\n        /* \"#utility.yul\":13277:13283   */\n      0x00\n        /* \"#utility.yul\":13285:13291   */\n      dup1\n        /* \"#utility.yul\":13293:13299   */\n      0x00\n        /* \"#utility.yul\":13342:13344   */\n      0x60\n        /* \"#utility.yul\":13330:13339   */\n      dup5\n        /* \"#utility.yul\":13321:13328   */\n      dup7\n        /* \"#utility.yul\":13317:13340   */\n      sub\n        /* \"#utility.yul\":13313:13345   */\n      slt\n        /* \"#utility.yul\":13310:13429   */\n      iszero\n      tag_484\n      jumpi\n        /* \"#utility.yul\":13348:13427   */\n      tag_485\n      tag_279\n      jump\t// in\n    tag_485:\n        /* \"#utility.yul\":13310:13429   */\n    tag_484:\n        /* \"#utility.yul\":13468:13469   */\n      0x00\n        /* \"#utility.yul\":13493:13546   */\n      tag_486\n        /* \"#utility.yul\":13538:13545   */\n      dup7\n        /* \"#utility.yul\":13529:13535   */\n      dup3\n        /* \"#utility.yul\":13518:13527   */\n      dup8\n        /* \"#utility.yul\":13514:13536   */\n      add\n        /* \"#utility.yul\":13493:13546   */\n      tag_282\n      jump\t// in\n    tag_486:\n        /* \"#utility.yul\":13483:13546   */\n      swap4\n      pop\n        /* \"#utility.yul\":13439:13556   */\n      pop\n        /* \"#utility.yul\":13595:13597   */\n      0x20\n        /* \"#utility.yul\":13621:13674   */\n      tag_487\n        /* \"#utility.yul\":13666:13673   */\n      dup7\n        /* \"#utility.yul\":13657:13663   */\n      dup3\n        /* \"#utility.yul\":13646:13655   */\n      dup8\n        /* \"#utility.yul\":13642:13664   */\n      add\n        /* \"#utility.yul\":13621:13674   */\n      tag_284\n      jump\t// in\n    tag_487:\n        /* \"#utility.yul\":13611:13674   */\n      swap3\n      pop\n        /* \"#utility.yul\":13566:13684   */\n      pop\n        /* \"#utility.yul\":13751:13753   */\n      0x40\n        /* \"#utility.yul\":13740:13749   */\n      dup5\n        /* \"#utility.yul\":13736:13754   */\n      add\n        /* \"#utility.yul\":13723:13755   */\n      calldataload\n        /* \"#utility.yul\":13782:13800   */\n      0xffffffffffffffff\n        /* \"#utility.yul\":13774:13780   */\n      dup2\n        /* \"#utility.yul\":13771:13801   */\n      gt\n        /* \"#utility.yul\":13768:13885   */\n      iszero\n      tag_488\n      jumpi\n        /* \"#utility.yul\":13804:13883   */\n      tag_489\n      tag_280\n      jump\t// in\n    tag_489:\n        /* \"#utility.yul\":13768:13885   */\n    tag_488:\n        /* \"#utility.yul\":13909:13971   */\n      tag_490\n        /* \"#utility.yul\":13963:13970   */\n      dup7\n        /* \"#utility.yul\":13954:13960   */\n      dup3\n        /* \"#utility.yul\":13943:13952   */\n      dup8\n        /* \"#utility.yul\":13939:13961   */\n      add\n        /* \"#utility.yul\":13909:13971   */\n      tag_294\n      jump\t// in\n    tag_490:\n        /* \"#utility.yul\":13899:13971   */\n      swap2\n      pop\n        /* \"#utility.yul\":13694:13981   */\n      pop\n        /* \"#utility.yul\":13191:13988   */\n      swap3\n      pop\n      swap3\n      pop\n      swap3\n      jump\t// out\n        /* \"#utility.yul\":13994:14112   */\n    tag_306:\n        /* \"#utility.yul\":14081:14105   */\n      tag_492\n        /* \"#utility.yul\":14099:14104   */\n      dup2\n        /* \"#utility.yul\":14081:14105   */\n      tag_303\n      jump\t// in\n    tag_492:\n        /* \"#utility.yul\":14076:14079   */\n      dup3\n        /* \"#utility.yul\":14069:14106   */\n      mstore\n        /* \"#utility.yul\":13994:14112   */\n      pop\n      pop\n      jump\t// out\n        /* \"#utility.yul\":14118:14340   */\n    tag_88:\n        /* \"#utility.yul\":14211:14215   */\n      0x00\n        /* \"#utility.yul\":14249:14251   */\n      0x20\n        /* \"#utility.yul\":14238:14247   */\n      dup3\n        /* \"#utility.yul\":14234:14252   */\n      add\n        /* \"#utility.yul\":14226:14252   */\n      swap1\n      pop\n        /* \"#utility.yul\":14262:14333   */\n      tag_494\n        /* \"#utility.yul\":14330:14331   */\n      0x00\n        /* \"#utility.yul\":14319:14328   */\n      dup4\n        /* \"#utility.yul\":14315:14332   */\n      add\n        /* \"#utility.yul\":14306:14312   */\n      dup5\n        /* \"#utility.yul\":14262:14333   */\n      tag_306\n      jump\t// in\n    tag_494:\n        /* \"#utility.yul\":14118:14340   */\n      swap3\n      swap2\n      pop\n      pop\n      jump\t// out\n        /* \"#utility.yul\":14346:14675   */\n    tag_100:\n        /* \"#utility.yul\":14405:14411   */\n      0x00\n        /* \"#utility.yul\":14454:14456   */\n      0x20\n        /* \"#utility.yul\":14442:14451   */\n      dup3\n        /* \"#utility.yul\":14433:14440   */\n      dup5\n        /* \"#utility.yul\":14429:14452   */\n      sub\n        /* \"#utility.yul\":14425:14457   */\n      slt\n        /* \"#utility.yul\":14422:14541   */\n      iszero\n      tag_496\n      jumpi\n        /* \"#utility.yul\":14460:14539   */\n      tag_497\n      tag_279\n      jump\t// in\n    tag_497:\n        /* \"#utility.yul\":14422:14541   */\n    tag_496:\n        /* \"#utility.yul\":14580:14581   */\n      0x00\n        /* \"#utility.yul\":14605:14658   */\n      tag_498\n        /* \"#utility.yul\":14650:14657   */\n      dup5\n        /* \"#utility.yul\":14641:14647   */\n      dup3\n        /* \"#utility.yul\":14630:14639   */\n      dup6\n        /* \"#utility.yul\":14626:14648   */\n      add\n        /* \"#utility.yul\":14605:14658   */\n      tag_282\n      jump\t// in\n    tag_498:\n        /* \"#utility.yul\":14595:14658   */\n      swap2\n      pop\n        /* \"#utility.yul\":14551:14668   */\n      pop\n        /* \"#utility.yul\":14346:14675   */\n      swap3\n      swap2\n      pop\n      pop\n      jump\t// out\n        /* \"#utility.yul\":14681:14861   */\n    tag_118:\n        /* \"#utility.yul\":14729:14806   */\n      0x4e487b7100000000000000000000000000000000000000000000000000000000\n        /* \"#utility.yul\":14726:14727   */\n      0x00\n        /* \"#utility.yul\":14719:14807   */\n      mstore\n        /* \"#utility.yul\":14826:14830   */\n      0x32\n        /* \"#utility.yul\":14823:14824   */\n      0x04\n        /* \"#utility.yul\":14816:14831   */\n      mstore\n        /* \"#utility.yul\":14850:14854   */\n      0x24\n        /* \"#utility.yul\":14847:14848   */\n      0x00\n        /* \"#utility.yul\":14840:14855   */\n      revert\n        /* \"#utility.yul\":14867:15047   */\n    tag_307:\n        /* \"#utility.yul\":14915:14992   */\n      0x4e487b7100000000000000000000000000000000000000000000000000000000\n        /* \"#utility.yul\":14912:14913   */\n      0x00\n        /* \"#utility.yul\":14905:14993   */\n      mstore\n        /* \"#utility.yul\":15012:15016   */\n      0x11\n        /* \"#utility.yul\":15009:15010   */\n      0x04\n        /* \"#utility.yul\":15002:15017   */\n      mstore\n        /* \"#utility.yul\":15036:15040   */\n      0x24\n        /* \"#utility.yul\":15033:15034   */\n      0x00\n        /* \"#utility.yul\":15026:15041   */\n      revert\n        /* \"#utility.yul\":15053:15286   */\n    tag_121:\n        /* \"#utility.yul\":15092:15095   */\n      0x00\n        /* \"#utility.yul\":15115:15139   */\n      tag_502\n        /* \"#utility.yul\":15133:15138   */\n      dup3\n        /* \"#utility.yul\":15115:15139   */\n      tag_263\n      jump\t// in\n    tag_502:\n        /* \"#utility.yul\":15106:15139   */\n      swap2\n      pop\n        /* \"#utility.yul\":15161:15227   */\n      0xffffffffffffffffffffffffffffffffffffffffffffffffffffffffffffffff\n        /* \"#utility.yul\":15154:15159   */\n      dup3\n        /* \"#utility.yul\":15151:15228   */\n      sub\n        /* \"#utility.yul\":15148:15251   */\n      tag_503\n      jumpi\n        /* \"#utility.yul\":15231:15249   */\n      tag_504\n      tag_307\n      jump\t// in\n    tag_504:\n        /* \"#utility.yul\":15148:15251   */\n    tag_503:\n        /* \"#utility.yul\":15278:15279   */\n      0x01\n        /* \"#utility.yul\":15271:15276   */\n      dup3\n        /* \"#utility.yul\":15267:15280   */\n      add\n        /* \"#utility.yul\":15260:15280   */\n      swap1\n      pop\n        /* \"#utility.yul\":15053:15286   */\n      swap2\n      swap1\n      pop\n      jump\t// out\n        /* \"#utility.yul\":15292:15483   */\n    tag_127:\n        /* \"#utility.yul\":15332:15335   */\n      0x00\n        /* \"#utility.yul\":15351:15371   */\n      tag_506\n        /* \"#utility.yul\":15369:15370   */\n      dup3\n        /* \"#utility.yul\":15351:15371   */\n      tag_263\n      jump\t// in\n    tag_506:\n        /* \"#utility.yul\":15346:15371   */\n      swap2\n      pop\n        /* \"#utility.yul\":15385:15405   */\n      tag_507\n        /* \"#utility.yul\":15403:15404   */\n      dup4\n        /* \"#utility.yul\":15385:15405   */\n      tag_263\n      jump\t// in\n    tag_507:\n        /* \"#utility.yul\":15380:15405   */\n      swap3\n      pop\n        /* \"#utility.yul\":15428:15429   */\n      dup3\n        /* \"#utility.yul\":15425:15426   */\n      dup3\n        /* \"#utility.yul\":15421:15430   */\n      add\n        /* \"#utility.yul\":15414:15430   */\n      swap1\n      pop\n        /* \"#utility.yul\":15449:15452   */\n      dup1\n        /* \"#utility.yul\":15446:15447   */\n      dup3\n        /* \"#utility.yul\":15443:15453   */\n      gt\n        /* \"#utility.yul\":15440:15476   */\n      iszero\n      tag_508\n      jumpi\n        /* \"#utility.yul\":15456:15474   */\n      tag_509\n      tag_307\n      jump\t// in\n    tag_509:\n        /* \"#utility.yul\":15440:15476   */\n    tag_508:\n        /* \"#utility.yul\":15292:15483   */\n      swap3\n      swap2\n      pop\n      pop\n      jump\t// out\n        /* \"#utility.yul\":15489:15658   */\n    tag_308:\n        /* \"#utility.yul\":15573:15584   */\n      0x00\n        /* \"#utility.yul\":15607:15613   */\n      dup3\n        /* \"#utility.yul\":15602:15605   */\n      dup3\n        /* \"#utility.yul\":15595:15614   */\n      mstore\n        /* \"#utility.yul\":15647:15651   */\n      0x20\n        /* \"#utility.yul\":15642:15645   */\n      dup3\n        /* \"#utility.yul\":15638:15652   */\n      add\n        /* \"#utility.yul\":15623:15652   */\n      swap1\n      pop\n        /* \"#utility.yul\":15489:15658   */\n      swap3\n      swap2\n      pop\n      pop\n      jump\t// out\n        /* \"#utility.yul\":15664:15821   */\n    tag_309:\n        /* \"#utility.yul\":15804:15813   */\n      0x6572726f72303400000000000000000000000000000000000000000000000000\n        /* \"#utility.yul\":15800:15801   */\n      0x00\n        /* \"#utility.yul\":15792:15798   */\n      dup3\n        /* \"#utility.yul\":15788:15802   */\n      add\n        /* \"#utility.yul\":15781:15814   */\n      mstore\n        /* \"#utility.yul\":15664:15821   */\n      pop\n      jump\t// out\n        /* \"#utility.yul\":15827:16192   */\n    tag_310:\n        /* \"#utility.yul\":15969:15972   */\n      0x00\n        /* \"#utility.yul\":15990:16056   */\n      tag_513\n        /* \"#utility.yul\":16054:16055   */\n      0x07\n        /* \"#utility.yul\":16049:16052   */\n      dup4\n        /* \"#utility.yul\":15990:16056   */\n      tag_308\n      jump\t// in\n    tag_513:\n        /* \"#utility.yul\":15983:16056   */\n      swap2\n      pop\n        /* \"#utility.yul\":16065:16158   */\n      tag_514\n        /* \"#utility.yul\":16154:16157   */\n      dup3\n        /* \"#utility.yul\":16065:16158   */\n      tag_309\n      jump\t// in\n    tag_514:\n        /* \"#utility.yul\":16183:16185   */\n      0x20\n        /* \"#utility.yul\":16178:16181   */\n      dup3\n        /* \"#utility.yul\":16174:16186   */\n      add\n        /* \"#utility.yul\":16167:16186   */\n      swap1\n      pop\n        /* \"#utility.yul\":15827:16192   */\n      swap2\n      swap1\n      pop\n      jump\t// out\n        /* \"#utility.yul\":16198:16617   */\n    tag_135:\n        /* \"#utility.yul\":16364:16368   */\n      0x00\n        /* \"#utility.yul\":16402:16404   */\n      0x20\n        /* \"#utility.yul\":16391:16400   */\n      dup3\n        /* \"#utility.yul\":16387:16405   */\n      add\n        /* \"#utility.yul\":16379:16405   */\n      swap1\n      pop\n        /* \"#utility.yul\":16451:16460   */\n      dup2\n        /* \"#utility.yul\":16445:16449   */\n      dup2\n        /* \"#utility.yul\":16441:16461   */\n      sub\n        /* \"#utility.yul\":16437:16438   */\n      0x00\n        /* \"#utility.yul\":16426:16435   */\n      dup4\n        /* \"#utility.yul\":16422:16439   */\n      add\n        /* \"#utility.yul\":16415:16462   */\n      mstore\n        /* \"#utility.yul\":16479:16610   */\n      tag_516\n        /* \"#utility.yul\":16605:16609   */\n      dup2\n        /* \"#utility.yul\":16479:16610   */\n      tag_310\n      jump\t// in\n    tag_516:\n        /* \"#utility.yul\":16471:16610   */\n      swap1\n      pop\n        /* \"#utility.yul\":16198:16617   */\n      swap2\n      swap1\n      pop\n      jump\t// out\n        /* \"#utility.yul\":16623:16770   */\n    tag_311:\n        /* \"#utility.yul\":16724:16735   */\n      0x00\n        /* \"#utility.yul\":16761:16764   */\n      dup2\n        /* \"#utility.yul\":16746:16764   */\n      swap1\n      pop\n        /* \"#utility.yul\":16623:16770   */\n      swap3\n      swap2\n      pop\n      pop\n      jump\t// out\n        /* \"#utility.yul\":16798:17125   */\n    tag_312:\n        /* \"#utility.yul\":16912:16915   */\n      0x00\n        /* \"#utility.yul\":16933:17021   */\n      tag_519\n        /* \"#utility.yul\":17014:17020   */\n      dup4\n        /* \"#utility.yul\":17009:17012   */\n      dup6\n        /* \"#utility.yul\":16933:17021   */\n      tag_311\n      jump\t// in\n    tag_519:\n        /* \"#utility.yul\":16926:17021   */\n      swap4\n      pop\n        /* \"#utility.yul\":17031:17087   */\n      tag_520\n        /* \"#utility.yul\":17080:17086   */\n      dup4\n        /* \"#utility.yul\":17075:17078   */\n      dup6\n        /* \"#utility.yul\":17068:17073   */\n      dup5\n        /* \"#utility.yul\":17031:17087   */\n      tag_266\n      jump\t// in\n    tag_520:\n        /* \"#utility.yul\":17112:17118   */\n      dup3\n        /* \"#utility.yul\":17107:17110   */\n      dup5\n        /* \"#utility.yul\":17103:17119   */\n      add\n        /* \"#utility.yul\":17096:17119   */\n      swap1\n      pop\n        /* \"#utility.yul\":16798:17125   */\n      swap4\n      swap3\n      pop\n      pop\n      pop\n      jump\t// out\n        /* \"#utility.yul\":17131:17422   */\n    tag_146:\n        /* \"#utility.yul\":17271:17274   */\n      0x00\n        /* \"#utility.yul\":17293:17396   */\n      tag_522\n        /* \"#utility.yul\":17392:17395   */\n      dup3\n        /* \"#utility.yul\":17383:17389   */\n      dup5\n        /* \"#utility.yul\":17375:17381   */\n      dup7\n        /* \"#utility.yul\":17293:17396   */\n      tag_312\n      jump\t// in\n    tag_522:\n        /* \"#utility.yul\":17286:17396   */\n      swap2\n      pop\n        /* \"#utility.yul\":17413:17416   */\n      dup2\n        /* \"#utility.yul\":17406:17416   */\n      swap1\n      pop\n        /* \"#utility.yul\":17131:17422   */\n      swap4\n      swap3\n      pop\n      pop\n      pop\n      jump\t// out\n        /* \"#utility.yul\":17428:17760   */\n    tag_158:\n        /* \"#utility.yul\":17549:17553   */\n      0x00\n        /* \"#utility.yul\":17587:17589   */\n      0x40\n        /* \"#utility.yul\":17576:17585   */\n      dup3\n        /* \"#utility.yul\":17572:17590   */\n      add\n        /* \"#utility.yul\":17564:17590   */\n      swap1\n      pop\n        /* \"#utility.yul\":17600:17671   */\n      tag_524\n        /* \"#utility.yul\":17668:17669   */\n      0x00\n        /* \"#utility.yul\":17657:17666   */\n      dup4\n        /* \"#utility.yul\":17653:17670   */\n      add\n        /* \"#utility.yul\":17644:17650   */\n      dup6\n        /* \"#utility.yul\":17600:17671   */\n      tag_299\n      jump\t// in\n    tag_524:\n        /* \"#utility.yul\":17681:17753   */\n      tag_525\n        /* \"#utility.yul\":17749:17751   */\n      0x20\n        /* \"#utility.yul\":17738:17747   */\n      dup4\n        /* \"#utility.yul\":17734:17752   */\n      add\n        /* \"#utility.yul\":17725:17731   */\n      dup5\n        /* \"#utility.yul\":17681:17753   */\n      tag_264\n      jump\t// in\n    tag_525:\n        /* \"#utility.yul\":17428:17760   */\n      swap4\n      swap3\n      pop\n      pop\n      pop\n      jump\t// out\n        /* \"#utility.yul\":17766:17923   */\n    tag_313:\n        /* \"#utility.yul\":17906:17915   */\n      0x6572726f72303200000000000000000000000000000000000000000000000000\n        /* \"#utility.yul\":17902:17903   */\n      0x00\n        /* \"#utility.yul\":17894:17900   */\n      dup3\n        /* \"#utility.yul\":17890:17904   */\n      add\n        /* \"#utility.yul\":17883:17916   */\n      mstore\n        /* \"#utility.yul\":17766:17923   */\n      pop\n      jump\t// out\n        /* \"#utility.yul\":17929:18294   */\n    tag_314:\n        /* \"#utility.yul\":18071:18074   */\n      0x00\n        /* \"#utility.yul\":18092:18158   */\n      tag_528\n        /* \"#utility.yul\":18156:18157   */\n      0x07\n        /* \"#utility.yul\":18151:18154   */\n      dup4\n        /* \"#utility.yul\":18092:18158   */\n      tag_308\n      jump\t// in\n    tag_528:\n        /* \"#utility.yul\":18085:18158   */\n      swap2\n      pop\n        /* \"#utility.yul\":18167:18260   */\n      tag_529\n        /* \"#utility.yul\":18256:18259   */\n      dup3\n        /* \"#utility.yul\":18167:18260   */\n      tag_313\n      jump\t// in\n    tag_529:\n        /* \"#utility.yul\":18285:18287   */\n      0x20\n        /* \"#utility.yul\":18280:18283   */\n      dup3\n        /* \"#utility.yul\":18276:18288   */\n      add\n        /* \"#utility.yul\":18269:18288   */\n      swap1\n      pop\n        /* \"#utility.yul\":17929:18294   */\n      swap2\n      swap1\n      pop\n      jump\t// out\n        /* \"#utility.yul\":18300:18719   */\n    tag_166:\n        /* \"#utility.yul\":18466:18470   */\n      0x00\n        /* \"#utility.yul\":18504:18506   */\n      0x20\n        /* \"#utility.yul\":18493:18502   */\n      dup3\n        /* \"#utility.yul\":18489:18507   */\n      add\n        /* \"#utility.yul\":18481:18507   */\n      swap1\n      pop\n        /* \"#utility.yul\":18553:18562   */\n      dup2\n        /* \"#utility.yul\":18547:18551   */\n      dup2\n        /* \"#utility.yul\":18543:18563   */\n      sub\n        /* \"#utility.yul\":18539:18540   */\n      0x00\n        /* \"#utility.yul\":18528:18537   */\n      dup4\n        /* \"#utility.yul\":18524:18541   */\n      add\n        /* \"#utility.yul\":18517:18564   */\n      mstore\n        /* \"#utility.yul\":18581:18712   */\n      tag_531\n        /* \"#utility.yul\":18707:18711   */\n      dup2\n        /* \"#utility.yul\":18581:18712   */\n      tag_314\n      jump\t// in\n    tag_531:\n        /* \"#utility.yul\":18573:18712   */\n      swap1\n      pop\n        /* \"#utility.yul\":18300:18719   */\n      swap2\n      swap1\n      pop\n      jump\t// out\n        /* \"#utility.yul\":18725:18882   */\n    tag_315:\n        /* \"#utility.yul\":18865:18874   */\n      0x6572726f72303300000000000000000000000000000000000000000000000000\n        /* \"#utility.yul\":18861:18862   */\n      0x00\n        /* \"#utility.yul\":18853:18859   */\n      dup3\n        /* \"#utility.yul\":18849:18863   */\n      add\n        /* \"#utility.yul\":18842:18875   */\n      mstore\n        /* \"#utility.yul\":18725:18882   */\n      pop\n      jump\t// out\n        /* \"#utility.yul\":18888:19253   */\n    tag_316:\n        /* \"#utility.yul\":19030:19033   */\n      0x00\n        /* \"#utility.yul\":19051:19117   */\n      tag_534\n        /* \"#utility.yul\":19115:19116   */\n      0x07\n        /* \"#utility.yul\":19110:19113   */\n      dup4\n        /* \"#utility.yul\":19051:19117   */\n      tag_308\n      jump\t// in\n    tag_534:\n        /* \"#utility.yul\":19044:19117   */\n      swap2\n      pop\n        /* \"#utility.yul\":19126:19219   */\n      tag_535\n        /* \"#utility.yul\":19215:19218   */\n      dup3\n        /* \"#utility.yul\":19126:19219   */\n      tag_315\n      jump\t// in\n    tag_535:\n        /* \"#utility.yul\":19244:19246   */\n      0x20\n        /* \"#utility.yul\":19239:19242   */\n      dup3\n        /* \"#utility.yul\":19235:19247   */\n      add\n        /* \"#utility.yul\":19228:19247   */\n      swap1\n      pop\n        /* \"#utility.yul\":18888:19253   */\n      swap2\n      swap1\n      pop\n      jump\t// out\n        /* \"#utility.yul\":19259:19678   */\n    tag_169:\n        /* \"#utility.yul\":19425:19429   */\n      0x00\n        /* \"#utility.yul\":19463:19465   */\n      0x20\n        /* \"#utility.yul\":19452:19461   */\n      dup3\n        /* \"#utility.yul\":19448:19466   */\n      add\n        /* \"#utility.yul\":19440:19466   */\n      swap1\n      pop\n        /* \"#utility.yul\":19512:19521   */\n      dup2\n        /* \"#utility.yul\":19506:19510   */\n      dup2\n        /* \"#utility.yul\":19502:19522   */\n      sub\n        /* \"#utility.yul\":19498:19499   */\n      0x00\n        /* \"#utility.yul\":19487:19496   */\n      dup4\n        /* \"#utility.yul\":19483:19500   */\n      add\n        /* \"#utility.yul\":19476:19523   */\n      mstore\n        /* \"#utility.yul\":19540:19671   */\n      tag_537\n        /* \"#utility.yul\":19666:19670   */\n      dup2\n        /* \"#utility.yul\":19540:19671   */\n      tag_316\n      jump\t// in\n    tag_537:\n        /* \"#utility.yul\":19532:19671   */\n      swap1\n      pop\n        /* \"#utility.yul\":19259:19678   */\n      swap2\n      swap1\n      pop\n      jump\t// out\n        /* \"#utility.yul\":19684:19841   */\n    tag_317:\n        /* \"#utility.yul\":19824:19833   */\n      0x6572726f72303500000000000000000000000000000000000000000000000000\n        /* \"#utility.yul\":19820:19821   */\n      0x00\n        /* \"#utility.yul\":19812:19818   */\n      dup3\n        /* \"#utility.yul\":19808:19822   */\n      add\n        /* \"#utility.yul\":19801:19834   */\n      mstore\n        /* \"#utility.yul\":19684:19841   */\n      pop\n      jump\t// out\n        /* \"#utility.yul\":19847:20212   */\n    tag_318:\n        /* \"#utility.yul\":19989:19992   */\n      0x00\n        /* \"#utility.yul\":20010:20076   */\n      tag_540\n        /* \"#utility.yul\":20074:20075   */\n      0x07\n        /* \"#utility.yul\":20069:20072   */\n      dup4\n        /* \"#utility.yul\":20010:20076   */\n      tag_308\n      jump\t// in\n    tag_540:\n        /* \"#utility.yul\":20003:20076   */\n      swap2\n      pop\n        /* \"#utility.yul\":20085:20178   */\n      tag_541\n        /* \"#utility.yul\":20174:20177   */\n      dup3\n        /* \"#utility.yul\":20085:20178   */\n      tag_317\n      jump\t// in\n    tag_541:\n        /* \"#utility.yul\":20203:20205   */\n      0x20\n        /* \"#utility.yul\":20198:20201   */\n      dup3\n        /* \"#utility.yul\":20194:20206   */\n      add\n        /* \"#utility.yul\":20187:20206   */\n      swap1\n      pop\n        /* \"#utility.yul\":19847:20212   */\n      swap2\n      swap1\n      pop\n      jump\t// out\n        /* \"#utility.yul\":20218:20637   */\n    tag_175:\n        /* \"#utility.yul\":20384:20388   */\n      0x00\n        /* \"#utility.yul\":20422:20424   */\n      0x20\n        /* \"#utility.yul\":20411:20420   */\n      dup3\n        /* \"#utility.yul\":20407:20425   */\n      add\n        /* \"#utility.yul\":20399:20425   */\n      swap1\n      pop\n        /* \"#utility.yul\":20471:20480   */\n      dup2\n        /* \"#utility.yul\":20465:20469   */\n      dup2\n        /* \"#utility.yul\":20461:20481   */\n      sub\n        /* \"#utility.yul\":20457:20458   */\n      0x00\n        /* \"#utility.yul\":20446:20455   */\n      dup4\n        /* \"#utility.yul\":20442:20459   */\n      add\n        /* \"#utility.yul\":20435:20482   */\n      mstore\n        /* \"#utility.yul\":20499:20630   */\n      tag_543\n        /* \"#utility.yul\":20625:20629   */\n      dup2\n        /* \"#utility.yul\":20499:20630   */\n      tag_318\n      jump\t// in\n    tag_543:\n        /* \"#utility.yul\":20491:20630   */\n      swap1\n      pop\n        /* \"#utility.yul\":20218:20637   */\n      swap2\n      swap1\n      pop\n      jump\t// out\n        /* \"#utility.yul\":20643:20837   */\n    tag_184:\n        /* \"#utility.yul\":20683:20687   */\n      0x00\n        /* \"#utility.yul\":20703:20723   */\n      tag_545\n        /* \"#utility.yul\":20721:20722   */\n      dup3\n        /* \"#utility.yul\":20703:20723   */\n      tag_263\n      jump\t// in\n    tag_545:\n        /* \"#utility.yul\":20698:20723   */\n      swap2\n      pop\n        /* \"#utility.yul\":20737:20757   */\n      tag_546\n        /* \"#utility.yul\":20755:20756   */\n      dup4\n        /* \"#utility.yul\":20737:20757   */\n      tag_263\n      jump\t// in\n    tag_546:\n        /* \"#utility.yul\":20732:20757   */\n      swap3\n      pop\n        /* \"#utility.yul\":20781:20782   */\n      dup3\n        /* \"#utility.yul\":20778:20779   */\n      dup3\n        /* \"#utility.yul\":20774:20783   */\n      sub\n        /* \"#utility.yul\":20766:20783   */\n      swap1\n      pop\n        /* \"#utility.yul\":20805:20806   */\n      dup2\n        /* \"#utility.yul\":20799:20803   */\n      dup2\n        /* \"#utility.yul\":20796:20807   */\n      gt\n        /* \"#utility.yul\":20793:20830   */\n      iszero\n      tag_547\n      jumpi\n        /* \"#utility.yul\":20810:20828   */\n      tag_548\n      tag_307\n      jump\t// in\n    tag_548:\n        /* \"#utility.yul\":20793:20830   */\n    tag_547:\n        /* \"#utility.yul\":20643:20837   */\n      swap3\n      swap2\n      pop\n      pop\n      jump\t// out\n        /* \"#utility.yul\":20843:21000   */\n    tag_319:\n        /* \"#utility.yul\":20983:20992   */\n      0x6572726f72303700000000000000000000000000000000000000000000000000\n        /* \"#utility.yul\":20979:20980   */\n      0x00\n        /* \"#utility.yul\":20971:20977   */\n      dup3\n        /* \"#utility.yul\":20967:20981   */\n      add\n        /* \"#utility.yul\":20960:20993   */\n      mstore\n        /* \"#utility.yul\":20843:21000   */\n      pop\n      jump\t// out\n        /* \"#utility.yul\":21006:21371   */\n    tag_320:\n        /* \"#utility.yul\":21148:21151   */\n      0x00\n        /* \"#utility.yul\":21169:21235   */\n      tag_551\n        /* \"#utility.yul\":21233:21234   */\n      0x07\n        /* \"#utility.yul\":21228:21231   */\n      dup4\n        /* \"#utility.yul\":21169:21235   */\n      tag_308\n      jump\t// in\n    tag_551:\n        /* \"#utility.yul\":21162:21235   */\n      swap2\n      pop\n        /* \"#utility.yul\":21244:21337   */\n      tag_552\n        /* \"#utility.yul\":21333:21336   */\n      dup3\n        /* \"#utility.yul\":21244:21337   */\n      tag_319\n      jump\t// in\n    tag_552:\n        /* \"#utility.yul\":21362:21364   */\n      0x20\n        /* \"#utility.yul\":21357:21360   */\n      dup3\n        /* \"#utility.yul\":21353:21365   */\n      add\n        /* \"#utility.yul\":21346:21365   */\n      swap1\n      pop\n        /* \"#utility.yul\":21006:21371   */\n      swap2\n      swap1\n      pop\n      jump\t// out\n        /* \"#utility.yul\":21377:21796   */\n    tag_190:\n        /* \"#utility.yul\":21543:21547   */\n      0x00\n        /* \"#utility.yul\":21581:21583   */\n      0x20\n        /* \"#utility.yul\":21570:21579   */\n      dup3\n        /* \"#utility.yul\":21566:21584   */\n      add\n        /* \"#utility.yul\":21558:21584   */\n      swap1\n      pop\n        /* \"#utility.yul\":21630:21639   */\n      dup2\n        /* \"#utility.yul\":21624:21628   */\n      dup2\n        /* \"#utility.yul\":21620:21640   */\n      sub\n        /* \"#utility.yul\":21616:21617   */\n      0x00\n        /* \"#utility.yul\":21605:21614   */\n      dup4\n        /* \"#utility.yul\":21601:21618   */\n      add\n        /* \"#utility.yul\":21594:21641   */\n      mstore\n        /* \"#utility.yul\":21658:21789   */\n      tag_554\n        /* \"#utility.yul\":21784:21788   */\n      dup2\n        /* \"#utility.yul\":21658:21789   */\n      tag_320\n      jump\t// in\n    tag_554:\n        /* \"#utility.yul\":21650:21789   */\n      swap1\n      pop\n        /* \"#utility.yul\":21377:21796   */\n      swap2\n      swap1\n      pop\n      jump\t// out\n        /* \"#utility.yul\":21802:21966   */\n    tag_321:\n        /* \"#utility.yul\":21942:21958   */\n      0x4e6f7420617574686f72697a6564000000000000000000000000000000000000\n        /* \"#utility.yul\":21938:21939   */\n      0x00\n        /* \"#utility.yul\":21930:21936   */\n      dup3\n        /* \"#utility.yul\":21926:21940   */\n      add\n        /* \"#utility.yul\":21919:21959   */\n      mstore\n        /* \"#utility.yul\":21802:21966   */\n      pop\n      jump\t// out\n        /* \"#utility.yul\":21972:22338   */\n    tag_322:\n        /* \"#utility.yul\":22114:22117   */\n      0x00\n        /* \"#utility.yul\":22135:22202   */\n      tag_557\n        /* \"#utility.yul\":22199:22201   */\n      0x0e\n        /* \"#utility.yul\":22194:22197   */\n      dup4\n        /* \"#utility.yul\":22135:22202   */\n      tag_308\n      jump\t// in\n    tag_557:\n        /* \"#utility.yul\":22128:22202   */\n      swap2\n      pop\n        /* \"#utility.yul\":22211:22304   */\n      tag_558\n        /* \"#utility.yul\":22300:22303   */\n      dup3\n        /* \"#utility.yul\":22211:22304   */\n      tag_321\n      jump\t// in\n    tag_558:\n        /* \"#utility.yul\":22329:22331   */\n      0x20\n        /* \"#utility.yul\":22324:22327   */\n      dup3\n        /* \"#utility.yul\":22320:22332   */\n      add\n        /* \"#utility.yul\":22313:22332   */\n      swap1\n      pop\n        /* \"#utility.yul\":21972:22338   */\n      swap2\n      swap1\n      pop\n      jump\t// out\n        /* \"#utility.yul\":22344:22763   */\n    tag_202:\n        /* \"#utility.yul\":22510:22514   */\n      0x00\n        /* \"#utility.yul\":22548:22550   */\n      0x20\n        /* \"#utility.yul\":22537:22546   */\n      dup3\n        /* \"#utility.yul\":22533:22551   */\n      add\n        /* \"#utility.yul\":22525:22551   */\n      swap1\n      pop\n        /* \"#utility.yul\":22597:22606   */\n      dup2\n        /* \"#utility.yul\":22591:22595   */\n      dup2\n        /* \"#utility.yul\":22587:22607   */\n      sub\n        /* \"#utility.yul\":22583:22584   */\n      0x00\n        /* \"#utility.yul\":22572:22581   */\n      dup4\n        /* \"#utility.yul\":22568:22585   */\n      add\n        /* \"#utility.yul\":22561:22608   */\n      mstore\n        /* \"#utility.yul\":22625:22756   */\n      tag_560\n        /* \"#utility.yul\":22751:22755   */\n      dup2\n        /* \"#utility.yul\":22625:22756   */\n      tag_322\n      jump\t// in\n    tag_560:\n        /* \"#utility.yul\":22617:22756   */\n      swap1\n      pop\n        /* \"#utility.yul\":22344:22763   */\n      swap2\n      swap1\n      pop\n      jump\t// out\n        /* \"#utility.yul\":22769:23433   */\n    tag_226:\n        /* \"#utility.yul\":22974:22978   */\n      0x00\n        /* \"#utility.yul\":23012:23015   */\n      0xa0\n        /* \"#utility.yul\":23001:23010   */\n      dup3\n        /* \"#utility.yul\":22997:23016   */\n      add\n        /* \"#utility.yul\":22989:23016   */\n      swap1\n      pop\n        /* \"#utility.yul\":23026:23097   */\n      tag_562\n        /* \"#utility.yul\":23094:23095   */\n      0x00\n        /* \"#utility.yul\":23083:23092   */\n      dup4\n        /* \"#utility.yul\":23079:23096   */\n      add\n        /* \"#utility.yul\":23070:23076   */\n      dup9\n        /* \"#utility.yul\":23026:23097   */\n      tag_299\n      jump\t// in\n    tag_562:\n        /* \"#utility.yul\":23107:23179   */\n      tag_563\n        /* \"#utility.yul\":23175:23177   */\n      0x20\n        /* \"#utility.yul\":23164:23173   */\n      dup4\n        /* \"#utility.yul\":23160:23178   */\n      add\n        /* \"#utility.yul\":23151:23157   */\n      dup8\n        /* \"#utility.yul\":23107:23179   */\n      tag_264\n      jump\t// in\n    tag_563:\n        /* \"#utility.yul\":23189:23261   */\n      tag_564\n        /* \"#utility.yul\":23257:23259   */\n      0x40\n        /* \"#utility.yul\":23246:23255   */\n      dup4\n        /* \"#utility.yul\":23242:23260   */\n      add\n        /* \"#utility.yul\":23233:23239   */\n      dup7\n        /* \"#utility.yul\":23189:23261   */\n      tag_306\n      jump\t// in\n    tag_564:\n        /* \"#utility.yul\":23271:23343   */\n      tag_565\n        /* \"#utility.yul\":23339:23341   */\n      0x60\n        /* \"#utility.yul\":23328:23337   */\n      dup4\n        /* \"#utility.yul\":23324:23342   */\n      add\n        /* \"#utility.yul\":23315:23321   */\n      dup6\n        /* \"#utility.yul\":23271:23343   */\n      tag_264\n      jump\t// in\n    tag_565:\n        /* \"#utility.yul\":23353:23426   */\n      tag_566\n        /* \"#utility.yul\":23421:23424   */\n      0x80\n        /* \"#utility.yul\":23410:23419   */\n      dup4\n        /* \"#utility.yul\":23406:23425   */\n      add\n        /* \"#utility.yul\":23397:23403   */\n      dup5\n        /* \"#utility.yul\":23353:23426   */\n      tag_264\n      jump\t// in\n    tag_566:\n        /* \"#utility.yul\":22769:23433   */\n      swap7\n      swap6\n      pop\n      pop\n      pop\n      pop\n      pop\n      pop\n      jump\t// out\n        /* \"#utility.yul\":23439:23849   */\n    tag_229:\n        /* \"#utility.yul\":23479:23486   */\n      0x00\n        /* \"#utility.yul\":23502:23522   */\n      tag_568\n        /* \"#utility.yul\":23520:23521   */\n      dup3\n        /* \"#utility.yul\":23502:23522   */\n      tag_263\n      jump\t// in\n    tag_568:\n        /* \"#utility.yul\":23497:23522   */\n      swap2\n      pop\n        /* \"#utility.yul\":23536:23556   */\n      tag_569\n        /* \"#utility.yul\":23554:23555   */\n      dup4\n        /* \"#utility.yul\":23536:23556   */\n      tag_263\n      jump\t// in\n    tag_569:\n        /* \"#utility.yul\":23531:23556   */\n      swap3\n      pop\n        /* \"#utility.yul\":23591:23592   */\n      dup3\n        /* \"#utility.yul\":23588:23589   */\n      dup3\n        /* \"#utility.yul\":23584:23593   */\n      mul\n        /* \"#utility.yul\":23613:23643   */\n      tag_570\n        /* \"#utility.yul\":23631:23642   */\n      dup2\n        /* \"#utility.yul\":23613:23643   */\n      tag_263\n      jump\t// in\n    tag_570:\n        /* \"#utility.yul\":23602:23643   */\n      swap2\n      pop\n        /* \"#utility.yul\":23792:23793   */\n      dup3\n        /* \"#utility.yul\":23783:23790   */\n      dup3\n        /* \"#utility.yul\":23779:23794   */\n      div\n        /* \"#utility.yul\":23776:23777   */\n      dup5\n        /* \"#utility.yul\":23773:23795   */\n      eq\n        /* \"#utility.yul\":23753:23754   */\n      dup4\n        /* \"#utility.yul\":23746:23755   */\n      iszero\n        /* \"#utility.yul\":23726:23809   */\n      or\n        /* \"#utility.yul\":23703:23842   */\n      tag_571\n      jumpi\n        /* \"#utility.yul\":23822:23840   */\n      tag_572\n      tag_307\n      jump\t// in\n    tag_572:\n        /* \"#utility.yul\":23703:23842   */\n    tag_571:\n        /* \"#utility.yul\":23487:23849   */\n      pop\n        /* \"#utility.yul\":23439:23849   */\n      swap3\n      swap2\n      pop\n      pop\n      jump\t// out\n        /* \"#utility.yul\":23855:24025   */\n    tag_323:\n        /* \"#utility.yul\":23995:24017   */\n      0x5369676e61747572657320746f6f2073686f7274000000000000000000000000\n        /* \"#utility.yul\":23991:23992   */\n      0x00\n        /* \"#utility.yul\":23983:23989   */\n      dup3\n        /* \"#utility.yul\":23979:23993   */\n      add\n        /* \"#utility.yul\":23972:24018   */\n      mstore\n        /* \"#utility.yul\":23855:24025   */\n      pop\n      jump\t// out\n        /* \"#utility.yul\":24031:24397   */\n    tag_324:\n        /* \"#utility.yul\":24173:24176   */\n      0x00\n        /* \"#utility.yul\":24194:24261   */\n      tag_575\n        /* \"#utility.yul\":24258:24260   */\n      0x14\n        /* \"#utility.yul\":24253:24256   */\n      dup4\n        /* \"#utility.yul\":24194:24261   */\n      tag_308\n      jump\t// in\n    tag_575:\n        /* \"#utility.yul\":24187:24261   */\n      swap2\n      pop\n        /* \"#utility.yul\":24270:24363   */\n      tag_576\n        /* \"#utility.yul\":24359:24362   */\n      dup3\n        /* \"#utility.yul\":24270:24363   */\n      tag_323\n      jump\t// in\n    tag_576:\n        /* \"#utility.yul\":24388:24390   */\n      0x20\n        /* \"#utility.yul\":24383:24386   */\n      dup3\n        /* \"#utility.yul\":24379:24391   */\n      add\n        /* \"#utility.yul\":24372:24391   */\n      swap1\n      pop\n        /* \"#utility.yul\":24031:24397   */\n      swap2\n      swap1\n      pop\n      jump\t// out\n        /* \"#utility.yul\":24403:24822   */\n    tag_232:\n        /* \"#utility.yul\":24569:24573   */\n      0x00\n        /* \"#utility.yul\":24607:24609   */\n      0x20\n        /* \"#utility.yul\":24596:24605   */\n      dup3\n        /* \"#utility.yul\":24592:24610   */\n      add\n        /* \"#utility.yul\":24584:24610   */\n      swap1\n      pop\n        /* \"#utility.yul\":24656:24665   */\n      dup2\n        /* \"#utility.yul\":24650:24654   */\n      dup2\n        /* \"#utility.yul\":24646:24666   */\n      sub\n        /* \"#utility.yul\":24642:24643   */\n      0x00\n        /* \"#utility.yul\":24631:24640   */\n      dup4\n        /* \"#utility.yul\":24627:24644   */\n      add\n        /* \"#utility.yul\":24620:24667   */\n      mstore\n        /* \"#utility.yul\":24684:24815   */\n      tag_578\n        /* \"#utility.yul\":24810:24814   */\n      dup2\n        /* \"#utility.yul\":24684:24815   */\n      tag_324\n      jump\t// in\n    tag_578:\n        /* \"#utility.yul\":24676:24815   */\n      swap1\n      pop\n        /* \"#utility.yul\":24403:24822   */\n      swap2\n      swap1\n      pop\n      jump\t// out\n        /* \"#utility.yul\":24828:24976   */\n    tag_325:\n        /* \"#utility.yul\":24930:24941   */\n      0x00\n        /* \"#utility.yul\":24967:24970   */\n      dup2\n        /* \"#utility.yul\":24952:24970   */\n      swap1\n      pop\n        /* \"#utility.yul\":24828:24976   */\n      swap3\n      swap2\n      pop\n      pop\n      jump\t// out\n        /* \"#utility.yul\":24982:25196   */\n    tag_326:\n        /* \"#utility.yul\":25122:25188   */\n      0x19457468657265756d205369676e6564204d6573736167653a0a333200000000\n        /* \"#utility.yul\":25118:25119   */\n      0x00\n        /* \"#utility.yul\":25110:25116   */\n      dup3\n        /* \"#utility.yul\":25106:25120   */\n      add\n        /* \"#utility.yul\":25099:25189   */\n      mstore\n        /* \"#utility.yul\":24982:25196   */\n      pop\n      jump\t// out\n        /* \"#utility.yul\":25202:25604   */\n    tag_327:\n        /* \"#utility.yul\":25362:25365   */\n      0x00\n        /* \"#utility.yul\":25383:25468   */\n      tag_582\n        /* \"#utility.yul\":25465:25467   */\n      0x1c\n        /* \"#utility.yul\":25460:25463   */\n      dup4\n        /* \"#utility.yul\":25383:25468   */\n      tag_325\n      jump\t// in\n    tag_582:\n        /* \"#utility.yul\":25376:25468   */\n      swap2\n      pop\n        /* \"#utility.yul\":25477:25570   */\n      tag_583\n        /* \"#utility.yul\":25566:25569   */\n      dup3\n        /* \"#utility.yul\":25477:25570   */\n      tag_326\n      jump\t// in\n    tag_583:\n        /* \"#utility.yul\":25595:25597   */\n      0x1c\n        /* \"#utility.yul\":25590:25593   */\n      dup3\n        /* \"#utility.yul\":25586:25598   */\n      add\n        /* \"#utility.yul\":25579:25598   */\n      swap1\n      pop\n        /* \"#utility.yul\":25202:25604   */\n      swap2\n      swap1\n      pop\n      jump\t// out\n        /* \"#utility.yul\":25610:25689   */\n    tag_328:\n        /* \"#utility.yul\":25649:25656   */\n      0x00\n        /* \"#utility.yul\":25678:25683   */\n      dup2\n        /* \"#utility.yul\":25667:25683   */\n      swap1\n      pop\n        /* \"#utility.yul\":25610:25689   */\n      swap2\n      swap1\n      pop\n      jump\t// out\n        /* \"#utility.yul\":25695:25852   */\n    tag_329:\n        /* \"#utility.yul\":25800:25845   */\n      tag_586\n        /* \"#utility.yul\":25820:25844   */\n      tag_587\n        /* \"#utility.yul\":25838:25843   */\n      dup3\n        /* \"#utility.yul\":25820:25844   */\n      tag_303\n      jump\t// in\n    tag_587:\n        /* \"#utility.yul\":25800:25845   */\n      tag_328\n      jump\t// in\n    tag_586:\n        /* \"#utility.yul\":25795:25798   */\n      dup3\n        /* \"#utility.yul\":25788:25846   */\n      mstore\n        /* \"#utility.yul\":25695:25852   */\n      pop\n      pop\n      jump\t// out\n        /* \"#utility.yul\":25858:26380   */\n    tag_239:\n        /* \"#utility.yul\":26071:26074   */\n      0x00\n        /* \"#utility.yul\":26093:26241   */\n      tag_589\n        /* \"#utility.yul\":26237:26240   */\n      dup3\n        /* \"#utility.yul\":26093:26241   */\n      tag_327\n      jump\t// in\n    tag_589:\n        /* \"#utility.yul\":26086:26241   */\n      swap2\n      pop\n        /* \"#utility.yul\":26251:26326   */\n      tag_590\n        /* \"#utility.yul\":26322:26325   */\n      dup3\n        /* \"#utility.yul\":26313:26319   */\n      dup5\n        /* \"#utility.yul\":26251:26326   */\n      tag_329\n      jump\t// in\n    tag_590:\n        /* \"#utility.yul\":26351:26353   */\n      0x20\n        /* \"#utility.yul\":26346:26349   */\n      dup3\n        /* \"#utility.yul\":26342:26354   */\n      add\n        /* \"#utility.yul\":26335:26354   */\n      swap2\n      pop\n        /* \"#utility.yul\":26371:26374   */\n      dup2\n        /* \"#utility.yul\":26364:26374   */\n      swap1\n      pop\n        /* \"#utility.yul\":25858:26380   */\n      swap3\n      swap2\n      pop\n      pop\n      jump\t// out\n        /* \"#utility.yul\":26386:26472   */\n    tag_330:\n        /* \"#utility.yul\":26421:26428   */\n      0x00\n        /* \"#utility.yul\":26461:26465   */\n      0xff\n        /* \"#utility.yul\":26454:26459   */\n      dup3\n        /* \"#utility.yul\":26450:26466   */\n      and\n        /* \"#utility.yul\":26439:26466   */\n      swap1\n      pop\n        /* \"#utility.yul\":26386:26472   */\n      swap2\n      swap1\n      pop\n      jump\t// out\n        /* \"#utility.yul\":26478:26590   */\n    tag_331:\n        /* \"#utility.yul\":26561:26583   */\n      tag_593\n        /* \"#utility.yul\":26577:26582   */\n      dup2\n        /* \"#utility.yul\":26561:26583   */\n      tag_330\n      jump\t// in\n    tag_593:\n        /* \"#utility.yul\":26556:26559   */\n      dup3\n        /* \"#utility.yul\":26549:26584   */\n      mstore\n        /* \"#utility.yul\":26478:26590   */\n      pop\n      pop\n      jump\t// out\n        /* \"#utility.yul\":26596:27141   */\n    tag_241:\n        /* \"#utility.yul\":26769:26773   */\n      0x00\n        /* \"#utility.yul\":26807:26810   */\n      0x80\n        /* \"#utility.yul\":26796:26805   */\n      dup3\n        /* \"#utility.yul\":26792:26811   */\n      add\n        /* \"#utility.yul\":26784:26811   */\n      swap1\n      pop\n        /* \"#utility.yul\":26821:26892   */\n      tag_595\n        /* \"#utility.yul\":26889:26890   */\n      0x00\n        /* \"#utility.yul\":26878:26887   */\n      dup4\n        /* \"#utility.yul\":26874:26891   */\n      add\n        /* \"#utility.yul\":26865:26871   */\n      dup8\n        /* \"#utility.yul\":26821:26892   */\n      tag_306\n      jump\t// in\n    tag_595:\n        /* \"#utility.yul\":26902:26970   */\n      tag_596\n        /* \"#utility.yul\":26966:26968   */\n      0x20\n        /* \"#utility.yul\":26955:26964   */\n      dup4\n        /* \"#utility.yul\":26951:26969   */\n      add\n        /* \"#utility.yul\":26942:26948   */\n      dup7\n        /* \"#utility.yul\":26902:26970   */\n      tag_331\n      jump\t// in\n    tag_596:\n        /* \"#utility.yul\":26980:27052   */\n      tag_597\n        /* \"#utility.yul\":27048:27050   */\n      0x40\n        /* \"#utility.yul\":27037:27046   */\n      dup4\n        /* \"#utility.yul\":27033:27051   */\n      add\n        /* \"#utility.yul\":27024:27030   */\n      dup6\n        /* \"#utility.yul\":26980:27052   */\n      tag_306\n      jump\t// in\n    tag_597:\n        /* \"#utility.yul\":27062:27134   */\n      tag_598\n        /* \"#utility.yul\":27130:27132   */\n      0x60\n        /* \"#utility.yul\":27119:27128   */\n      dup4\n        /* \"#utility.yul\":27115:27133   */\n      add\n        /* \"#utility.yul\":27106:27112   */\n      dup5\n        /* \"#utility.yul\":27062:27134   */\n      tag_306\n      jump\t// in\n    tag_598:\n        /* \"#utility.yul\":26596:27141   */\n      swap6\n      swap5\n      pop\n      pop\n      pop\n      pop\n      pop\n      jump\t// out\n        /* \"#utility.yul\":27147:27304   */\n    tag_332:\n        /* \"#utility.yul\":27287:27296   */\n      0x6572726f72303600000000000000000000000000000000000000000000000000\n        /* \"#utility.yul\":27283:27284   */\n      0x00\n        /* \"#utility.yul\":27275:27281   */\n      dup3\n        /* \"#utility.yul\":27271:27285   */\n      add\n        /* \"#utility.yul\":27264:27297   */\n      mstore\n        /* \"#utility.yul\":27147:27304   */\n      pop\n      jump\t// out\n        /* \"#utility.yul\":27310:27675   */\n    tag_333:\n        /* \"#utility.yul\":27452:27455   */\n      0x00\n        /* \"#utility.yul\":27473:27539   */\n      tag_601\n        /* \"#utility.yul\":27537:27538   */\n      0x07\n        /* \"#utility.yul\":27532:27535   */\n      dup4\n        /* \"#utility.yul\":27473:27539   */\n      tag_308\n      jump\t// in\n    tag_601:\n        /* \"#utility.yul\":27466:27539   */\n      swap2\n      pop\n        /* \"#utility.yul\":27548:27641   */\n      tag_602\n        /* \"#utility.yul\":27637:27640   */\n      dup3\n        /* \"#utility.yul\":27548:27641   */\n      tag_332\n      jump\t// in\n    tag_602:\n        /* \"#utility.yul\":27666:27668   */\n      0x20\n        /* \"#utility.yul\":27661:27664   */\n      dup3\n        /* \"#utility.yul\":27657:27669   */\n      add\n        /* \"#utility.yul\":27650:27669   */\n      swap1\n      pop\n        /* \"#utility.yul\":27310:27675   */\n      swap2\n      swap1\n      pop\n      jump\t// out\n        /* \"#utility.yul\":27681:28100   */\n    tag_248:\n        /* \"#utility.yul\":27847:27851   */\n      0x00\n        /* \"#utility.yul\":27885:27887   */\n      0x20\n        /* \"#utility.yul\":27874:27883   */\n      dup3\n        /* \"#utility.yul\":27870:27888   */\n      add\n        /* \"#utility.yul\":27862:27888   */\n      swap1\n      pop\n        /* \"#utility.yul\":27934:27943   */\n      dup2\n        /* \"#utility.yul\":27928:27932   */\n      dup2\n        /* \"#utility.yul\":27924:27944   */\n      sub\n        /* \"#utility.yul\":27920:27921   */\n      0x00\n        /* \"#utility.yul\":27909:27918   */\n      dup4\n        /* \"#utility.yul\":27905:27922   */\n      add\n        /* \"#utility.yul\":27898:27945   */\n      mstore\n        /* \"#utility.yul\":27962:28093   */\n      tag_604\n        /* \"#utility.yul\":28088:28092   */\n      dup2\n        /* \"#utility.yul\":27962:28093   */\n      tag_333\n      jump\t// in\n    tag_604:\n        /* \"#utility.yul\":27954:28093   */\n      swap1\n      pop\n        /* \"#utility.yul\":27681:28100   */\n      swap2\n      swap1\n      pop\n      jump\t// out\n        /* \"#utility.yul\":28106:28277   */\n    tag_257:\n        /* \"#utility.yul\":28145:28148   */\n      0x00\n        /* \"#utility.yul\":28168:28192   */\n      tag_606\n        /* \"#utility.yul\":28186:28191   */\n      dup3\n        /* \"#utility.yul\":28168:28192   */\n      tag_263\n      jump\t// in\n    tag_606:\n        /* \"#utility.yul\":28159:28192   */\n      swap2\n      pop\n        /* \"#utility.yul\":28214:28218   */\n      0x00\n        /* \"#utility.yul\":28207:28212   */\n      dup3\n        /* \"#utility.yul\":28204:28219   */\n      sub\n        /* \"#utility.yul\":28201:28242   */\n      tag_607\n      jumpi\n        /* \"#utility.yul\":28222:28240   */\n      tag_608\n      tag_307\n      jump\t// in\n    tag_608:\n        /* \"#utility.yul\":28201:28242   */\n    tag_607:\n        /* \"#utility.yul\":28269:28270   */\n      0x01\n        /* \"#utility.yul\":28262:28267   */\n      dup3\n        /* \"#utility.yul\":28258:28271   */\n      sub\n        /* \"#utility.yul\":28251:28271   */\n      swap1\n      pop\n        /* \"#utility.yul\":28106:28277   */\n      swap2\n      swap1\n      pop\n      jump\t// out\n\n    auxdata: 0xa26469706673582212206a12b8a7f121bd08fda225434e98a57fae8e7b74be24e40a6eb4c8bde6f74ee964736f6c63430008120033\n}\n",
				"bytecode": {
					"linkReferences": {},
					"object": "60806040523480156200001157600080fd5b506040516200353738038062003537833981810160405281019062000037919062000b30565b620000498282620000a360201b60201c565b3373ffffffffffffffffffffffffffffffffffffffff167fc2299a3f10cab8985284b1cf766783d642bb5b112256e73f1d32cdaf64ff3e5483836040516200009392919062000c75565b60405180910390a2505062000f2d565b600060015414620000eb576040517f08c379a0000000000000000000000000000000000000000000000000000000008152600401620000e29062000d0a565b60405180910390fd5b815181111562000132576040517f08c379a0000000000000000000000000000000000000000000000000000000008152600401620001299062000d7c565b60405180910390fd5b600181101562000179576040517f08c379a0000000000000000000000000000000000000000000000000000000008152600401620001709062000dee565b60405180910390fd5b60005b8251811015620002975760008382815181106200019e576200019d62000e10565b5b60200260200101519050600073ffffffffffffffffffffffffffffffffffffffff168173ffffffffffffffffffffffffffffffffffffffff16141580156200021257503073ffffffffffffffffffffffffffffffffffffffff168173ffffffffffffffffffffffffffffffffffffffff1614155b80156200022d57506200022b81620002ab60201b60201c565b155b6200026f576040517f08c379a0000000000000000000000000000000000000000000000000000000008152600401620002669062000e8f565b60405180910390fd5b62000280816200040660201b60201c565b5080806200028e9062000ee0565b9150506200017c565b508060018190555081516000819055505050565b60008073ffffffffffffffffffffffffffffffffffffffff16600260008473ffffffffffffffffffffffffffffffffffffffff1673ffffffffffffffffffffffffffffffffffffffff16815260200190815260200160002060008015151515815260200190815260200160002060009054906101000a900473ffffffffffffffffffffffffffffffffffffffff1673ffffffffffffffffffffffffffffffffffffffff16141580620003ff5750600073ffffffffffffffffffffffffffffffffffffffff16600260008473ffffffffffffffffffffffffffffffffffffffff1673ffffffffffffffffffffffffffffffffffffffff1681526020019081526020016000206000600115151515815260200190815260200160002060009054906101000a900473ffffffffffffffffffffffffffffffffffffffff1673ffffffffffffffffffffffffffffffffffffffff1614155b9050919050565b600073ffffffffffffffffffffffffffffffffffffffff168173ffffffffffffffffffffffffffffffffffffffff16141580156200047057503073ffffffffffffffffffffffffffffffffffffffff168173ffffffffffffffffffffffffffffffffffffffff1614155b80156200048b57506200048981620002ab60201b60201c565b155b620004cd576040517f08c379a0000000000000000000000000000000000000000000000000000000008152600401620004c49062000e8f565b60405180910390fd5b6000600190506000620004e88260016200068d60201b60201c565b9050809150505b600073ffffffffffffffffffffffffffffffffffffffff168173ffffffffffffffffffffffffffffffffffffffff161462000625578273ffffffffffffffffffffffffffffffffffffffff168173ffffffffffffffffffffffffffffffffffffffff161180156200058b57508273ffffffffffffffffffffffffffffffffffffffff168273ffffffffffffffffffffffffffffffffffffffff16105b15620005ab57620005a5828460016200073660201b60201c565b62000625565b8273ffffffffffffffffffffffffffffffffffffffff168173ffffffffffffffffffffffffffffffffffffffff1611156200060257819050620005f68260006200068d60201b60201c565b9050809250506200061f565b809150620006188160016200068d60201b60201c565b9050809150505b620004ef565b600073ffffffffffffffffffffffffffffffffffffffff168173ffffffffffffffffffffffffffffffffffffffff16036200066f576200066e828460016200073660201b60201c565b5b600080815480929190620006839062000ee0565b9190505550505050565b600080620006a184620002ab60201b60201c565b620006b357600080915091506200072f565b6001600260008673ffffffffffffffffffffffffffffffffffffffff1673ffffffffffffffffffffffffffffffffffffffff16815260200190815260200160002060008515151515815260200190815260200160002060009054906101000a900473ffffffffffffffffffffffffffffffffffffffff16915091505b9250929050565b6000600260008573ffffffffffffffffffffffffffffffffffffffff1673ffffffffffffffffffffffffffffffffffffffff16815260200190815260200160002060008315151515815260200190815260200160002060009054906101000a900473ffffffffffffffffffffffffffffffffffffffff169050620007c2848484620007db60201b60201c565b620007d5838284620007db60201b60201c565b50505050565b82600260008473ffffffffffffffffffffffffffffffffffffffff1673ffffffffffffffffffffffffffffffffffffffff1681526020019081526020016000206000831515151515815260200190815260200160002060006101000a81548173ffffffffffffffffffffffffffffffffffffffff021916908373ffffffffffffffffffffffffffffffffffffffff16021790555081600260008573ffffffffffffffffffffffffffffffffffffffff1673ffffffffffffffffffffffffffffffffffffffff16815260200190815260200160002060008315151515815260200190815260200160002060006101000a81548173ffffffffffffffffffffffffffffffffffffffff021916908373ffffffffffffffffffffffffffffffffffffffff160217905550505050565b6000604051905090565b600080fd5b600080fd5b600080fd5b6000601f19601f8301169050919050565b7f4e487b7100000000000000000000000000000000000000000000000000000000600052604160045260246000fd5b6200096b8262000920565b810181811067ffffffffffffffff821117156200098d576200098c62000931565b5b80604052505050565b6000620009a262000907565b9050620009b0828262000960565b919050565b600067ffffffffffffffff821115620009d357620009d262000931565b5b602082029050602081019050919050565b600080fd5b600073ffffffffffffffffffffffffffffffffffffffff82169050919050565b600062000a1682620009e9565b9050919050565b62000a288162000a09565b811462000a3457600080fd5b50565b60008151905062000a488162000a1d565b92915050565b600062000a6562000a5f84620009b5565b62000996565b9050808382526020820190506020840283018581111562000a8b5762000a8a620009e4565b5b835b8181101562000ab8578062000aa3888262000a37565b84526020840193505060208101905062000a8d565b5050509392505050565b600082601f83011262000ada5762000ad96200091b565b5b815162000aec84826020860162000a4e565b91505092915050565b6000819050919050565b62000b0a8162000af5565b811462000b1657600080fd5b50565b60008151905062000b2a8162000aff565b92915050565b6000806040838503121562000b4a5762000b4962000911565b5b600083015167ffffffffffffffff81111562000b6b5762000b6a62000916565b5b62000b798582860162000ac2565b925050602062000b8c8582860162000b19565b9150509250929050565b600081519050919050565b600082825260208201905092915050565b6000819050602082019050919050565b62000bcd8162000a09565b82525050565b600062000be1838362000bc2565b60208301905092915050565b6000602082019050919050565b600062000c078262000b96565b62000c13818562000ba1565b935062000c208362000bb2565b8060005b8381101562000c5757815162000c3b888262000bd3565b975062000c488362000bed565b92505060018101905062000c24565b5085935050505092915050565b62000c6f8162000af5565b82525050565b6000604082019050818103600083015262000c91818562000bfa565b905062000ca2602083018462000c64565b9392505050565b600082825260208201905092915050565b7f6572726f72303100000000000000000000000000000000000000000000000000600082015250565b600062000cf260078362000ca9565b915062000cff8262000cba565b602082019050919050565b6000602082019050818103600083015262000d258162000ce3565b9050919050565b7f6572726f72303200000000000000000000000000000000000000000000000000600082015250565b600062000d6460078362000ca9565b915062000d718262000d2c565b602082019050919050565b6000602082019050818103600083015262000d978162000d55565b9050919050565b7f6572726f72303300000000000000000000000000000000000000000000000000600082015250565b600062000dd660078362000ca9565b915062000de38262000d9e565b602082019050919050565b6000602082019050818103600083015262000e098162000dc7565b9050919050565b7f4e487b7100000000000000000000000000000000000000000000000000000000600052603260045260246000fd5b7f6572726f72303400000000000000000000000000000000000000000000000000600082015250565b600062000e7760078362000ca9565b915062000e848262000e3f565b602082019050919050565b6000602082019050818103600083015262000eaa8162000e68565b9050919050565b7f4e487b7100000000000000000000000000000000000000000000000000000000600052601160045260246000fd5b600062000eed8262000af5565b91507fffffffffffffffffffffffffffffffffffffffffffffffffffffffffffffffff820362000f225762000f2162000eb1565b5b600182019050919050565b6125fa8062000f3d6000396000f3fe6080604052600436106100ec5760003560e01c8063694e80c31161008a578063affed0e011610059578063affed0e0146103c1578063c0f0b3f1146103ec578063ef11783c14610415578063ff87578c146104525761014b565b8063694e80c31461030757806381244e5d14610330578063831c9e2e1461035b5780638b30486c146103845761014b565b80630fce747a116100c65780630fce747a1461021f5780632413478f1461024f578063549102981461028d5780636876a95e146102ca5761014b565b8063029c81e3146101a05780630c3dfc1a146101cb5780630c546204146101f65761014b565b3661014b576000341115610149573373ffffffffffffffffffffffffffffffffffffffff167ff1ca750cb49a8b378da1fb044f0ee23f5680cb13efa35534d997ecd41fc2ab7d346040516101409190611794565b60405180910390a25b005b3373ffffffffffffffffffffffffffffffffffffffff167f2bea9f513d6a7645811142f0cca7029aff10f0a1475f5c8b65e953a735109e5a346000366040516101969392919061180d565b60405180910390a2005b3480156101ac57600080fd5b506101b561048f565b6040516101c2919061192f565b60405180910390f35b3480156101d757600080fd5b506101e06105e2565b6040516101ed9190611794565b60405180910390f35b34801561020257600080fd5b5061021d600480360381019061021891906119bd565b6105e8565b005b61023960048036038101906102349190611b83565b610735565b6040516102469190611c42565b60405180910390f35b34801561025b57600080fd5b5061027660048036038101906102719190611c89565b61088f565b604051610284929190611cd8565b60405180910390f35b34801561029957600080fd5b506102b460048036038101906102af91906119bd565b61092e565b6040516102c19190611d6f565b60405180910390f35b3480156102d657600080fd5b506102f160048036038101906102ec9190611d91565b6109c9565b6040516102fe9190611d6f565b60405180910390f35b34801561031357600080fd5b5061032e60048036038101906103299190611d91565b610a61565b005b34801561033c57600080fd5b50610345610b35565b6040516103529190611794565b60405180910390f35b34801561036757600080fd5b50610382600480360381019061037d9190611df4565b610b3f565b005b34801561039057600080fd5b506103ab60048036038101906103a69190611e50565b610b99565b6040516103b89190611ece565b60405180910390f35b3480156103cd57600080fd5b506103d6610bb3565b6040516103e39190611794565b60405180910390f35b3480156103f857600080fd5b50610413600480360381019061040e91906119bd565b610bb9565b005b34801561042157600080fd5b5061043c60048036038101906104379190611ee9565b610cbd565b6040516104499190611c42565b60405180910390f35b34801561045e57600080fd5b50610479600480360381019061047491906119bd565b610e17565b6040516104869190611d6f565b60405180910390f35b60606000805467ffffffffffffffff8111156104ae576104ad611a67565b5b6040519080825280602002602001820160405280156104dc5781602001602082028036833780820191505090505b509050600060026000600173ffffffffffffffffffffffffffffffffffffffff1673ffffffffffffffffffffffffffffffffffffffff1681526020019081526020016000206000600115151515815260200190815260200160002060009054906101000a900473ffffffffffffffffffffffffffffffffffffffff16905060005b6000548110156105d9578183828151811061057b5761057a611f16565b5b602002602001019073ffffffffffffffffffffffffffffffffffffffff16908173ffffffffffffffffffffffffffffffffffffffff16815250506105c082600161088f565b90508092505080806105d190611f74565b91505061055d565b82935050505090565b60005481565b6105f0610eb2565b8060016000546106009190611fbc565b1015801561060f575060008110155b61061857600080fd5b600073ffffffffffffffffffffffffffffffffffffffff168273ffffffffffffffffffffffffffffffffffffffff161415801561068157503073ffffffffffffffffffffffffffffffffffffffff168273ffffffffffffffffffffffffffffffffffffffff1614155b8015610693575061069182610cbd565b155b6106d2576040517f08c379a00000000000000000000000000000000000000000000000000000000081526004016106c99061204d565b60405180910390fd5b6106db82610f22565b8173ffffffffffffffffffffffffffffffffffffffff167fac1e9ef41b54c676ccf449d83ae6f2624bcdce8f5b93a6b48ce95874c332693d60405160405180910390a260015481146107315761073081610a61565b5b5050565b60008061078b878787878080601f016020809104026020016040519081016040528093929190818152602001838380828437600081840152601f19601f820116905080830192505050505050506003544661116a565b9050600360008154809291906107a090611f74565b91905055506107af8184610b3f565b8673ffffffffffffffffffffffffffffffffffffffff168686866040516107d792919061209d565b60006040518083038185875af1925050503d8060008114610814576040519150601f19603f3d011682016040523d82523d6000602084013e610819565b606091505b505080925050811561085757807fdc29884a71d2bb98d3c53dc09718be05c7bfd142b7773a5c5cf2517629290ac060405160405180910390a2610885565b807fdbe42d02a4e07d7eeff2874efe172540c93b297d206f6d691c9782a257323e3260405160405180910390a25b5095945050505050565b60008061089b84610cbd565b6108ab5760008091509150610927565b6001600260008673ffffffffffffffffffffffffffffffffffffffff1673ffffffffffffffffffffffffffffffffffffffff16815260200190815260200160002060008515151515815260200190815260200160002060009054906101000a900473ffffffffffffffffffffffffffffffffffffffff16915091505b9250929050565b60607fc0f0b3f17d4cd2b558f2e7888914cd773111e1da10e55baf4d1f32e1f6c2222f83836040516024016109649291906120b6565b604051602081830303815290604052907bffffffffffffffffffffffffffffffffffffffffffffffffffffffff19166020820180517bffffffffffffffffffffffffffffffffffffffffffffffffffffffff8381831617835250505050905092915050565b60607f694e80c37192d74d6099f3d3b41506932ab644a24442ee51857cfeb9eb01ac2f826040516024016109fd9190611794565b604051602081830303815290604052907bffffffffffffffffffffffffffffffffffffffffffffffffffffffff19166020820180517bffffffffffffffffffffffffffffffffffffffffffffffffffffffff83818316178352505050509050919050565b610a69610eb2565b600054811115610aae576040517f08c379a0000000000000000000000000000000000000000000000000000000008152600401610aa59061212b565b60405180910390fd5b6001811015610af2576040517f08c379a0000000000000000000000000000000000000000000000000000000008152600401610ae990612197565b60405180910390fd5b806001819055507f9947ac58e204d2da07b9748298663b3b77da7fb0638201d778987ded7c90fbaa600154604051610b2a9190611794565b60405180910390a150565b6000600154905090565b6000600154905060008111610b89576040517f08c379a0000000000000000000000000000000000000000000000000000000008152600401610b8090612203565b60405180910390fd5b610b948383836111b2565b505050565b6000610baa8484846003544661116a565b90509392505050565b60035481565b610bc1610eb2565b806001600054610bd19190612223565b1015610c12576040517f08c379a0000000000000000000000000000000000000000000000000000000008152600401610c099061212b565b60405180910390fd5b610c1b82610cbd565b610c5a576040517f08c379a0000000000000000000000000000000000000000000000000000000008152600401610c51906122a3565b60405180910390fd5b610c6382611345565b8173ffffffffffffffffffffffffffffffffffffffff167fac6e8398676cf37429d530b81144d7079e99f4fe9d28b0d88c4a749ceccbe8cd60405160405180910390a26001548114610cb957610cb881610a61565b5b5050565b60008073ffffffffffffffffffffffffffffffffffffffff16600260008473ffffffffffffffffffffffffffffffffffffffff1673ffffffffffffffffffffffffffffffffffffffff16815260200190815260200160002060008015151515815260200190815260200160002060009054906101000a900473ffffffffffffffffffffffffffffffffffffffff1673ffffffffffffffffffffffffffffffffffffffff16141580610e105750600073ffffffffffffffffffffffffffffffffffffffff16600260008473ffffffffffffffffffffffffffffffffffffffff1673ffffffffffffffffffffffffffffffffffffffff1681526020019081526020016000206000600115151515815260200190815260200160002060009054906101000a900473ffffffffffffffffffffffffffffffffffffffff1673ffffffffffffffffffffffffffffffffffffffff1614155b9050919050565b60607f0c54620469a3eeff8e01e9971bcf46e640abbf3fa3139aa3afa97959f3d744998383604051602401610e4d9291906120b6565b604051602081830303815290604052907bffffffffffffffffffffffffffffffffffffffffffffffffffffffff19166020820180517bffffffffffffffffffffffffffffffffffffffffffffffffffffffff8381831617835250505050905092915050565b3073ffffffffffffffffffffffffffffffffffffffff163373ffffffffffffffffffffffffffffffffffffffff1614610f20576040517f08c379a0000000000000000000000000000000000000000000000000000000008152600401610f179061230f565b60405180910390fd5b565b600073ffffffffffffffffffffffffffffffffffffffff168173ffffffffffffffffffffffffffffffffffffffff1614158015610f8b57503073ffffffffffffffffffffffffffffffffffffffff168173ffffffffffffffffffffffffffffffffffffffff1614155b8015610f9d5750610f9b81610cbd565b155b610fdc576040517f08c379a0000000000000000000000000000000000000000000000000000000008152600401610fd39061204d565b60405180910390fd5b6000600190506000610fef82600161088f565b9050809150505b600073ffffffffffffffffffffffffffffffffffffffff168173ffffffffffffffffffffffffffffffffffffffff161461110d578273ffffffffffffffffffffffffffffffffffffffff168173ffffffffffffffffffffffffffffffffffffffff1611801561109057508273ffffffffffffffffffffffffffffffffffffffff168273ffffffffffffffffffffffffffffffffffffffff16105b156110a6576110a18284600161158b565b61110d565b8273ffffffffffffffffffffffffffffffffffffffff168173ffffffffffffffffffffffffffffffffffffffff1611156110f3578190506110e882600061088f565b905080925050611108565b80915061110181600161088f565b9050809150505b610ff6565b600073ffffffffffffffffffffffffffffffffffffffff168173ffffffffffffffffffffffffffffffffffffffff160361114e5761114d8284600161158b565b5b60008081548092919061116090611f74565b9190505550505050565b60008086868680519060200120868660405160200161118d95949392919061232f565b6040516020818303038152906040528051906020012090508091505095945050505050565b6041816111bf9190612382565b82511015611202576040517f08c379a00000000000000000000000000000000000000000000000000000000081526004016111f990612410565b60405180910390fd5b600080600080600080600090505b8681101561133a576112228882611620565b80945081955082965050505060018960405160200161124191906124a8565b604051602081830303815290604052805190602001208585856040516000815260200160405260405161127794939291906124ea565b6020604051602081039080840390855afa158015611299573d6000803e3d6000fd5b5050506020604051035194508573ffffffffffffffffffffffffffffffffffffffff168573ffffffffffffffffffffffffffffffffffffffff161180156112e557506112e485610cbd565b5b611324576040517f08c379a000000000000000000000000000000000000000000000000000000000815260040161131b9061257b565b60405180910390fd5b849550808061133290611f74565b915050611210565b505050505050505050565b61134e81610cbd565b61138d576040517f08c379a0000000000000000000000000000000000000000000000000000000008152600401611384906122a3565b60405180910390fd5b611482600260008373ffffffffffffffffffffffffffffffffffffffff1673ffffffffffffffffffffffffffffffffffffffff16815260200190815260200160002060008015151515815260200190815260200160002060009054906101000a900473ffffffffffffffffffffffffffffffffffffffff16600260008473ffffffffffffffffffffffffffffffffffffffff1673ffffffffffffffffffffffffffffffffffffffff1681526020019081526020016000206000600115151515815260200190815260200160002060009054906101000a900473ffffffffffffffffffffffffffffffffffffffff16600161164f565b600260008273ffffffffffffffffffffffffffffffffffffffff1673ffffffffffffffffffffffffffffffffffffffff16815260200190815260200160002060008015151515815260200190815260200160002060006101000a81549073ffffffffffffffffffffffffffffffffffffffff0219169055600260008273ffffffffffffffffffffffffffffffffffffffff1673ffffffffffffffffffffffffffffffffffffffff1681526020019081526020016000206000600115151515815260200190815260200160002060006101000a81549073ffffffffffffffffffffffffffffffffffffffff02191690556000808154809291906115839061259b565b919050555050565b6000600260008573ffffffffffffffffffffffffffffffffffffffff1673ffffffffffffffffffffffffffffffffffffffff16815260200190815260200160002060008315151515815260200190815260200160002060009054906101000a900473ffffffffffffffffffffffffffffffffffffffff16905061160f84848461164f565b61161a83828461164f565b50505050565b6000806000836041026020810186015192506040810186015191506060810186015160001a9350509250925092565b82600260008473ffffffffffffffffffffffffffffffffffffffff1673ffffffffffffffffffffffffffffffffffffffff1681526020019081526020016000206000831515151515815260200190815260200160002060006101000a81548173ffffffffffffffffffffffffffffffffffffffff021916908373ffffffffffffffffffffffffffffffffffffffff16021790555081600260008573ffffffffffffffffffffffffffffffffffffffff1673ffffffffffffffffffffffffffffffffffffffff16815260200190815260200160002060008315151515815260200190815260200160002060006101000a81548173ffffffffffffffffffffffffffffffffffffffff021916908373ffffffffffffffffffffffffffffffffffffffff160217905550505050565b6000819050919050565b61178e8161177b565b82525050565b60006020820190506117a96000830184611785565b92915050565b600082825260208201905092915050565b82818337600083830152505050565b6000601f19601f8301169050919050565b60006117ec83856117af565b93506117f98385846117c0565b611802836117cf565b840190509392505050565b60006040820190506118226000830186611785565b81810360208301526118358184866117e0565b9050949350505050565b600081519050919050565b600082825260208201905092915050565b6000819050602082019050919050565b600073ffffffffffffffffffffffffffffffffffffffff82169050919050565b60006118968261186b565b9050919050565b6118a68161188b565b82525050565b60006118b8838361189d565b60208301905092915050565b6000602082019050919050565b60006118dc8261183f565b6118e6818561184a565b93506118f18361185b565b8060005b8381101561192257815161190988826118ac565b9750611914836118c4565b9250506001810190506118f5565b5085935050505092915050565b6000602082019050818103600083015261194981846118d1565b905092915050565b6000604051905090565b600080fd5b600080fd5b61196e8161188b565b811461197957600080fd5b50565b60008135905061198b81611965565b92915050565b61199a8161177b565b81146119a557600080fd5b50565b6000813590506119b781611991565b92915050565b600080604083850312156119d4576119d361195b565b5b60006119e28582860161197c565b92505060206119f3858286016119a8565b9150509250929050565b600080fd5b600080fd5b600080fd5b60008083601f840112611a2257611a216119fd565b5b8235905067ffffffffffffffff811115611a3f57611a3e611a02565b5b602083019150836001820283011115611a5b57611a5a611a07565b5b9250929050565b600080fd5b7f4e487b7100000000000000000000000000000000000000000000000000000000600052604160045260246000fd5b611a9f826117cf565b810181811067ffffffffffffffff82111715611abe57611abd611a67565b5b80604052505050565b6000611ad1611951565b9050611add8282611a96565b919050565b600067ffffffffffffffff821115611afd57611afc611a67565b5b611b06826117cf565b9050602081019050919050565b6000611b26611b2184611ae2565b611ac7565b905082815260208101848484011115611b4257611b41611a62565b5b611b4d8482856117c0565b509392505050565b600082601f830112611b6a57611b696119fd565b5b8135611b7a848260208601611b13565b91505092915050565b600080600080600060808688031215611b9f57611b9e61195b565b5b6000611bad8882890161197c565b9550506020611bbe888289016119a8565b945050604086013567ffffffffffffffff811115611bdf57611bde611960565b5b611beb88828901611a0c565b9350935050606086013567ffffffffffffffff811115611c0e57611c0d611960565b5b611c1a88828901611b55565b9150509295509295909350565b60008115159050919050565b611c3c81611c27565b82525050565b6000602082019050611c576000830184611c33565b92915050565b611c6681611c27565b8114611c7157600080fd5b50565b600081359050611c8381611c5d565b92915050565b60008060408385031215611ca057611c9f61195b565b5b6000611cae8582860161197c565b9250506020611cbf85828601611c74565b9150509250929050565b611cd28161188b565b82525050565b6000604082019050611ced6000830185611c33565b611cfa6020830184611cc9565b9392505050565b600081519050919050565b60005b83811015611d2a578082015181840152602081019050611d0f565b60008484015250505050565b6000611d4182611d01565b611d4b81856117af565b9350611d5b818560208601611d0c565b611d64816117cf565b840191505092915050565b60006020820190508181036000830152611d898184611d36565b905092915050565b600060208284031215611da757611da661195b565b5b6000611db5848285016119a8565b91505092915050565b6000819050919050565b611dd181611dbe565b8114611ddc57600080fd5b50565b600081359050611dee81611dc8565b92915050565b60008060408385031215611e0b57611e0a61195b565b5b6000611e1985828601611ddf565b925050602083013567ffffffffffffffff811115611e3a57611e39611960565b5b611e4685828601611b55565b9150509250929050565b600080600060608486031215611e6957611e6861195b565b5b6000611e778682870161197c565b9350506020611e88868287016119a8565b925050604084013567ffffffffffffffff811115611ea957611ea8611960565b5b611eb586828701611b55565b9150509250925092565b611ec881611dbe565b82525050565b6000602082019050611ee36000830184611ebf565b92915050565b600060208284031215611eff57611efe61195b565b5b6000611f0d8482850161197c565b91505092915050565b7f4e487b7100000000000000000000000000000000000000000000000000000000600052603260045260246000fd5b7f4e487b7100000000000000000000000000000000000000000000000000000000600052601160045260246000fd5b6000611f7f8261177b565b91507fffffffffffffffffffffffffffffffffffffffffffffffffffffffffffffffff8203611fb157611fb0611f45565b5b600182019050919050565b6000611fc78261177b565b9150611fd28361177b565b9250828201905080821115611fea57611fe9611f45565b5b92915050565b600082825260208201905092915050565b7f6572726f72303400000000000000000000000000000000000000000000000000600082015250565b6000612037600783611ff0565b915061204282612001565b602082019050919050565b600060208201905081810360008301526120668161202a565b9050919050565b600081905092915050565b6000612084838561206d565b93506120918385846117c0565b82840190509392505050565b60006120aa828486612078565b91508190509392505050565b60006040820190506120cb6000830185611cc9565b6120d86020830184611785565b9392505050565b7f6572726f72303200000000000000000000000000000000000000000000000000600082015250565b6000612115600783611ff0565b9150612120826120df565b602082019050919050565b6000602082019050818103600083015261214481612108565b9050919050565b7f6572726f72303300000000000000000000000000000000000000000000000000600082015250565b6000612181600783611ff0565b915061218c8261214b565b602082019050919050565b600060208201905081810360008301526121b081612174565b9050919050565b7f6572726f72303500000000000000000000000000000000000000000000000000600082015250565b60006121ed600783611ff0565b91506121f8826121b7565b602082019050919050565b6000602082019050818103600083015261221c816121e0565b9050919050565b600061222e8261177b565b91506122398361177b565b925082820390508181111561225157612250611f45565b5b92915050565b7f6572726f72303700000000000000000000000000000000000000000000000000600082015250565b600061228d600783611ff0565b915061229882612257565b602082019050919050565b600060208201905081810360008301526122bc81612280565b9050919050565b7f4e6f7420617574686f72697a6564000000000000000000000000000000000000600082015250565b60006122f9600e83611ff0565b9150612304826122c3565b602082019050919050565b60006020820190508181036000830152612328816122ec565b9050919050565b600060a0820190506123446000830188611cc9565b6123516020830187611785565b61235e6040830186611ebf565b61236b6060830185611785565b6123786080830184611785565b9695505050505050565b600061238d8261177b565b91506123988361177b565b92508282026123a68161177b565b915082820484148315176123bd576123bc611f45565b5b5092915050565b7f5369676e61747572657320746f6f2073686f7274000000000000000000000000600082015250565b60006123fa601483611ff0565b9150612405826123c4565b602082019050919050565b60006020820190508181036000830152612429816123ed565b9050919050565b600081905092915050565b7f19457468657265756d205369676e6564204d6573736167653a0a333200000000600082015250565b6000612471601c83612430565b915061247c8261243b565b601c82019050919050565b6000819050919050565b6124a261249d82611dbe565b612487565b82525050565b60006124b382612464565b91506124bf8284612491565b60208201915081905092915050565b600060ff82169050919050565b6124e4816124ce565b82525050565b60006080820190506124ff6000830187611ebf565b61250c60208301866124db565b6125196040830185611ebf565b6125266060830184611ebf565b95945050505050565b7f6572726f72303600000000000000000000000000000000000000000000000000600082015250565b6000612565600783611ff0565b91506125708261252f565b602082019050919050565b6000602082019050818103600083015261259481612558565b9050919050565b60006125a68261177b565b9150600082036125b9576125b8611f45565b5b60018203905091905056fea26469706673582212206a12b8a7f121bd08fda225434e98a57fae8e7b74be24e40a6eb4c8bde6f74ee964736f6c63430008120033",
					"opcodes": "PUSH1 0x80 PUSH1 0x40 MSTORE CALLVALUE DUP1 ISZERO PUSH3 0x11 JUMPI PUSH1 0x0 DUP1 REVERT JUMPDEST POP PUSH1 0x40 MLOAD PUSH3 0x3537 CODESIZE SUB DUP1 PUSH3 0x3537 DUP4 CODECOPY DUP2 DUP2 ADD PUSH1 0x40 MSTORE DUP2 ADD SWAP1 PUSH3 0x37 SWAP2 SWAP1 PUSH3 0xB30 JUMP JUMPDEST PUSH3 0x49 DUP3 DUP3 PUSH3 0xA3 PUSH1 0x20 SHL PUSH1 0x20 SHR JUMP JUMPDEST CALLER PUSH20 0xFFFFFFFFFFFFFFFFFFFFFFFFFFFFFFFFFFFFFFFF AND PUSH32 0xC2299A3F10CAB8985284B1CF766783D642BB5B112256E73F1D32CDAF64FF3E54 DUP4 DUP4 PUSH1 0x40 MLOAD PUSH3 0x93 SWAP3 SWAP2 SWAP1 PUSH3 0xC75 JUMP JUMPDEST PUSH1 0x40 MLOAD DUP1 SWAP2 SUB SWAP1 LOG2 POP POP PUSH3 0xF2D JUMP JUMPDEST PUSH1 0x0 PUSH1 0x1 SLOAD EQ PUSH3 0xEB JUMPI PUSH1 0x40 MLOAD PUSH32 0x8C379A000000000000000000000000000000000000000000000000000000000 DUP2 MSTORE PUSH1 0x4 ADD PUSH3 0xE2 SWAP1 PUSH3 0xD0A JUMP JUMPDEST PUSH1 0x40 MLOAD DUP1 SWAP2 SUB SWAP1 REVERT JUMPDEST DUP2 MLOAD DUP2 GT ISZERO PUSH3 0x132 JUMPI PUSH1 0x40 MLOAD PUSH32 0x8C379A000000000000000000000000000000000000000000000000000000000 DUP2 MSTORE PUSH1 0x4 ADD PUSH3 0x129 SWAP1 PUSH3 0xD7C JUMP JUMPDEST PUSH1 0x40 MLOAD DUP1 SWAP2 SUB SWAP1 REVERT JUMPDEST PUSH1 0x1 DUP2 LT ISZERO PUSH3 0x179 JUMPI PUSH1 0x40 MLOAD PUSH32 0x8C379A000000000000000000000000000000000000000000000000000000000 DUP2 MSTORE PUSH1 0x4 ADD PUSH3 0x170 SWAP1 PUSH3 0xDEE JUMP JUMPDEST PUSH1 0x40 MLOAD DUP1 SWAP2 SUB SWAP1 REVERT JUMPDEST PUSH1 0x0 JUMPDEST DUP3 MLOAD DUP2 LT ISZERO PUSH3 0x297 JUMPI PUSH1 0x0 DUP4 DUP3 DUP2 MLOAD DUP2 LT PUSH3 0x19E JUMPI PUSH3 0x19D PUSH3 0xE10 JUMP JUMPDEST JUMPDEST PUSH1 0x20 MUL PUSH1 0x20 ADD ADD MLOAD SWAP1 POP PUSH1 0x0 PUSH20 0xFFFFFFFFFFFFFFFFFFFFFFFFFFFFFFFFFFFFFFFF AND DUP2 PUSH20 0xFFFFFFFFFFFFFFFFFFFFFFFFFFFFFFFFFFFFFFFF AND EQ ISZERO DUP1 ISZERO PUSH3 0x212 JUMPI POP ADDRESS PUSH20 0xFFFFFFFFFFFFFFFFFFFFFFFFFFFFFFFFFFFFFFFF AND DUP2 PUSH20 0xFFFFFFFFFFFFFFFFFFFFFFFFFFFFFFFFFFFFFFFF AND EQ ISZERO JUMPDEST DUP1 ISZERO PUSH3 0x22D JUMPI POP PUSH3 0x22B DUP2 PUSH3 0x2AB PUSH1 0x20 SHL PUSH1 0x20 SHR JUMP JUMPDEST ISZERO JUMPDEST PUSH3 0x26F JUMPI PUSH1 0x40 MLOAD PUSH32 0x8C379A000000000000000000000000000000000000000000000000000000000 DUP2 MSTORE PUSH1 0x4 ADD PUSH3 0x266 SWAP1 PUSH3 0xE8F JUMP JUMPDEST PUSH1 0x40 MLOAD DUP1 SWAP2 SUB SWAP1 REVERT JUMPDEST PUSH3 0x280 DUP2 PUSH3 0x406 PUSH1 0x20 SHL PUSH1 0x20 SHR JUMP JUMPDEST POP DUP1 DUP1 PUSH3 0x28E SWAP1 PUSH3 0xEE0 JUMP JUMPDEST SWAP2 POP POP PUSH3 0x17C JUMP JUMPDEST POP DUP1 PUSH1 0x1 DUP2 SWAP1 SSTORE POP DUP2 MLOAD PUSH1 0x0 DUP2 SWAP1 SSTORE POP POP POP JUMP JUMPDEST PUSH1 0x0 DUP1 PUSH20 0xFFFFFFFFFFFFFFFFFFFFFFFFFFFFFFFFFFFFFFFF AND PUSH1 0x2 PUSH1 0x0 DUP5 PUSH20 0xFFFFFFFFFFFFFFFFFFFFFFFFFFFFFFFFFFFFFFFF AND PUSH20 0xFFFFFFFFFFFFFFFFFFFFFFFFFFFFFFFFFFFFFFFF AND DUP2 MSTORE PUSH1 0x20 ADD SWAP1 DUP2 MSTORE PUSH1 0x20 ADD PUSH1 0x0 KECCAK256 PUSH1 0x0 DUP1 ISZERO ISZERO ISZERO ISZERO DUP2 MSTORE PUSH1 0x20 ADD SWAP1 DUP2 MSTORE PUSH1 0x20 ADD PUSH1 0x0 KECCAK256 PUSH1 0x0 SWAP1 SLOAD SWAP1 PUSH2 0x100 EXP SWAP1 DIV PUSH20 0xFFFFFFFFFFFFFFFFFFFFFFFFFFFFFFFFFFFFFFFF AND PUSH20 0xFFFFFFFFFFFFFFFFFFFFFFFFFFFFFFFFFFFFFFFF AND EQ ISZERO DUP1 PUSH3 0x3FF JUMPI POP PUSH1 0x0 PUSH20 0xFFFFFFFFFFFFFFFFFFFFFFFFFFFFFFFFFFFFFFFF AND PUSH1 0x2 PUSH1 0x0 DUP5 PUSH20 0xFFFFFFFFFFFFFFFFFFFFFFFFFFFFFFFFFFFFFFFF AND PUSH20 0xFFFFFFFFFFFFFFFFFFFFFFFFFFFFFFFFFFFFFFFF AND DUP2 MSTORE PUSH1 0x20 ADD SWAP1 DUP2 MSTORE PUSH1 0x20 ADD PUSH1 0x0 KECCAK256 PUSH1 0x0 PUSH1 0x1 ISZERO ISZERO ISZERO ISZERO DUP2 MSTORE PUSH1 0x20 ADD SWAP1 DUP2 MSTORE PUSH1 0x20 ADD PUSH1 0x0 KECCAK256 PUSH1 0x0 SWAP1 SLOAD SWAP1 PUSH2 0x100 EXP SWAP1 DIV PUSH20 0xFFFFFFFFFFFFFFFFFFFFFFFFFFFFFFFFFFFFFFFF AND PUSH20 0xFFFFFFFFFFFFFFFFFFFFFFFFFFFFFFFFFFFFFFFF AND EQ ISZERO JUMPDEST SWAP1 POP SWAP2 SWAP1 POP JUMP JUMPDEST PUSH1 0x0 PUSH20 0xFFFFFFFFFFFFFFFFFFFFFFFFFFFFFFFFFFFFFFFF AND DUP2 PUSH20 0xFFFFFFFFFFFFFFFFFFFFFFFFFFFFFFFFFFFFFFFF AND EQ ISZERO DUP1 ISZERO PUSH3 0x470 JUMPI POP ADDRESS PUSH20 0xFFFFFFFFFFFFFFFFFFFFFFFFFFFFFFFFFFFFFFFF AND DUP2 PUSH20 0xFFFFFFFFFFFFFFFFFFFFFFFFFFFFFFFFFFFFFFFF AND EQ ISZERO JUMPDEST DUP1 ISZERO PUSH3 0x48B JUMPI POP PUSH3 0x489 DUP2 PUSH3 0x2AB PUSH1 0x20 SHL PUSH1 0x20 SHR JUMP JUMPDEST ISZERO JUMPDEST PUSH3 0x4CD JUMPI PUSH1 0x40 MLOAD PUSH32 0x8C379A000000000000000000000000000000000000000000000000000000000 DUP2 MSTORE PUSH1 0x4 ADD PUSH3 0x4C4 SWAP1 PUSH3 0xE8F JUMP JUMPDEST PUSH1 0x40 MLOAD DUP1 SWAP2 SUB SWAP1 REVERT JUMPDEST PUSH1 0x0 PUSH1 0x1 SWAP1 POP PUSH1 0x0 PUSH3 0x4E8 DUP3 PUSH1 0x1 PUSH3 0x68D PUSH1 0x20 SHL PUSH1 0x20 SHR JUMP JUMPDEST SWAP1 POP DUP1 SWAP2 POP POP JUMPDEST PUSH1 0x0 PUSH20 0xFFFFFFFFFFFFFFFFFFFFFFFFFFFFFFFFFFFFFFFF AND DUP2 PUSH20 0xFFFFFFFFFFFFFFFFFFFFFFFFFFFFFFFFFFFFFFFF AND EQ PUSH3 0x625 JUMPI DUP3 PUSH20 0xFFFFFFFFFFFFFFFFFFFFFFFFFFFFFFFFFFFFFFFF AND DUP2 PUSH20 0xFFFFFFFFFFFFFFFFFFFFFFFFFFFFFFFFFFFFFFFF AND GT DUP1 ISZERO PUSH3 0x58B JUMPI POP DUP3 PUSH20 0xFFFFFFFFFFFFFFFFFFFFFFFFFFFFFFFFFFFFFFFF AND DUP3 PUSH20 0xFFFFFFFFFFFFFFFFFFFFFFFFFFFFFFFFFFFFFFFF AND LT JUMPDEST ISZERO PUSH3 0x5AB JUMPI PUSH3 0x5A5 DUP3 DUP5 PUSH1 0x1 PUSH3 0x736 PUSH1 0x20 SHL PUSH1 0x20 SHR JUMP JUMPDEST PUSH3 0x625 JUMP JUMPDEST DUP3 PUSH20 0xFFFFFFFFFFFFFFFFFFFFFFFFFFFFFFFFFFFFFFFF AND DUP2 PUSH20 0xFFFFFFFFFFFFFFFFFFFFFFFFFFFFFFFFFFFFFFFF AND GT ISZERO PUSH3 0x602 JUMPI DUP2 SWAP1 POP PUSH3 0x5F6 DUP3 PUSH1 0x0 PUSH3 0x68D PUSH1 0x20 SHL PUSH1 0x20 SHR JUMP JUMPDEST SWAP1 POP DUP1 SWAP3 POP POP PUSH3 0x61F JUMP JUMPDEST DUP1 SWAP2 POP PUSH3 0x618 DUP2 PUSH1 0x1 PUSH3 0x68D PUSH1 0x20 SHL PUSH1 0x20 SHR JUMP JUMPDEST SWAP1 POP DUP1 SWAP2 POP POP JUMPDEST PUSH3 0x4EF JUMP JUMPDEST PUSH1 0x0 PUSH20 0xFFFFFFFFFFFFFFFFFFFFFFFFFFFFFFFFFFFFFFFF AND DUP2 PUSH20 0xFFFFFFFFFFFFFFFFFFFFFFFFFFFFFFFFFFFFFFFF AND SUB PUSH3 0x66F JUMPI PUSH3 0x66E DUP3 DUP5 PUSH1 0x1 PUSH3 0x736 PUSH1 0x20 SHL PUSH1 0x20 SHR JUMP JUMPDEST JUMPDEST PUSH1 0x0 DUP1 DUP2 SLOAD DUP1 SWAP3 SWAP2 SWAP1 PUSH3 0x683 SWAP1 PUSH3 0xEE0 JUMP JUMPDEST SWAP2 SWAP1 POP SSTORE POP POP POP POP JUMP JUMPDEST PUSH1 0x0 DUP1 PUSH3 0x6A1 DUP5 PUSH3 0x2AB PUSH1 0x20 SHL PUSH1 0x20 SHR JUMP JUMPDEST PUSH3 0x6B3 JUMPI PUSH1 0x0 DUP1 SWAP2 POP SWAP2 POP PUSH3 0x72F JUMP JUMPDEST PUSH1 0x1 PUSH1 0x2 PUSH1 0x0 DUP7 PUSH20 0xFFFFFFFFFFFFFFFFFFFFFFFFFFFFFFFFFFFFFFFF AND PUSH20 0xFFFFFFFFFFFFFFFFFFFFFFFFFFFFFFFFFFFFFFFF AND DUP2 MSTORE PUSH1 0x20 ADD SWAP1 DUP2 MSTORE PUSH1 0x20 ADD PUSH1 0x0 KECCAK256 PUSH1 0x0 DUP6 ISZERO ISZERO ISZERO ISZERO DUP2 MSTORE PUSH1 0x20 ADD SWAP1 DUP2 MSTORE PUSH1 0x20 ADD PUSH1 0x0 KECCAK256 PUSH1 0x0 SWAP1 SLOAD SWAP1 PUSH2 0x100 EXP SWAP1 DIV PUSH20 0xFFFFFFFFFFFFFFFFFFFFFFFFFFFFFFFFFFFFFFFF AND SWAP2 POP SWAP2 POP JUMPDEST SWAP3 POP SWAP3 SWAP1 POP JUMP JUMPDEST PUSH1 0x0 PUSH1 0x2 PUSH1 0x0 DUP6 PUSH20 0xFFFFFFFFFFFFFFFFFFFFFFFFFFFFFFFFFFFFFFFF AND PUSH20 0xFFFFFFFFFFFFFFFFFFFFFFFFFFFFFFFFFFFFFFFF AND DUP2 MSTORE PUSH1 0x20 ADD SWAP1 DUP2 MSTORE PUSH1 0x20 ADD PUSH1 0x0 KECCAK256 PUSH1 0x0 DUP4 ISZERO ISZERO ISZERO ISZERO DUP2 MSTORE PUSH1 0x20 ADD SWAP1 DUP2 MSTORE PUSH1 0x20 ADD PUSH1 0x0 KECCAK256 PUSH1 0x0 SWAP1 SLOAD SWAP1 PUSH2 0x100 EXP SWAP1 DIV PUSH20 0xFFFFFFFFFFFFFFFFFFFFFFFFFFFFFFFFFFFFFFFF AND SWAP1 POP PUSH3 0x7C2 DUP5 DUP5 DUP5 PUSH3 0x7DB PUSH1 0x20 SHL PUSH1 0x20 SHR JUMP JUMPDEST PUSH3 0x7D5 DUP4 DUP3 DUP5 PUSH3 0x7DB PUSH1 0x20 SHL PUSH1 0x20 SHR JUMP JUMPDEST POP POP POP POP JUMP JUMPDEST DUP3 PUSH1 0x2 PUSH1 0x0 DUP5 PUSH20 0xFFFFFFFFFFFFFFFFFFFFFFFFFFFFFFFFFFFFFFFF AND PUSH20 0xFFFFFFFFFFFFFFFFFFFFFFFFFFFFFFFFFFFFFFFF AND DUP2 MSTORE PUSH1 0x20 ADD SWAP1 DUP2 MSTORE PUSH1 0x20 ADD PUSH1 0x0 KECCAK256 PUSH1 0x0 DUP4 ISZERO ISZERO ISZERO ISZERO ISZERO DUP2 MSTORE PUSH1 0x20 ADD SWAP1 DUP2 MSTORE PUSH1 0x20 ADD PUSH1 0x0 KECCAK256 PUSH1 0x0 PUSH2 0x100 EXP DUP2 SLOAD DUP2 PUSH20 0xFFFFFFFFFFFFFFFFFFFFFFFFFFFFFFFFFFFFFFFF MUL NOT AND SWAP1 DUP4 PUSH20 0xFFFFFFFFFFFFFFFFFFFFFFFFFFFFFFFFFFFFFFFF AND MUL OR SWAP1 SSTORE POP DUP2 PUSH1 0x2 PUSH1 0x0 DUP6 PUSH20 0xFFFFFFFFFFFFFFFFFFFFFFFFFFFFFFFFFFFFFFFF AND PUSH20 0xFFFFFFFFFFFFFFFFFFFFFFFFFFFFFFFFFFFFFFFF AND DUP2 MSTORE PUSH1 0x20 ADD SWAP1 DUP2 MSTORE PUSH1 0x20 ADD PUSH1 0x0 KECCAK256 PUSH1 0x0 DUP4 ISZERO ISZERO ISZERO ISZERO DUP2 MSTORE PUSH1 0x20 ADD SWAP1 DUP2 MSTORE PUSH1 0x20 ADD PUSH1 0x0 KECCAK256 PUSH1 0x0 PUSH2 0x100 EXP DUP2 SLOAD DUP2 PUSH20 0xFFFFFFFFFFFFFFFFFFFFFFFFFFFFFFFFFFFFFFFF MUL NOT AND SWAP1 DUP4 PUSH20 0xFFFFFFFFFFFFFFFFFFFFFFFFFFFFFFFFFFFFFFFF AND MUL OR SWAP1 SSTORE POP POP POP POP JUMP JUMPDEST PUSH1 0x0 PUSH1 0x40 MLOAD SWAP1 POP SWAP1 JUMP JUMPDEST PUSH1 0x0 DUP1 REVERT JUMPDEST PUSH1 0x0 DUP1 REVERT JUMPDEST PUSH1 0x0 DUP1 REVERT JUMPDEST PUSH1 0x0 PUSH1 0x1F NOT PUSH1 0x1F DUP4 ADD AND SWAP1 POP SWAP2 SWAP1 POP JUMP JUMPDEST PUSH32 0x4E487B7100000000000000000000000000000000000000000000000000000000 PUSH1 0x0 MSTORE PUSH1 0x41 PUSH1 0x4 MSTORE PUSH1 0x24 PUSH1 0x0 REVERT JUMPDEST PUSH3 0x96B DUP3 PUSH3 0x920 JUMP JUMPDEST DUP2 ADD DUP2 DUP2 LT PUSH8 0xFFFFFFFFFFFFFFFF DUP3 GT OR ISZERO PUSH3 0x98D JUMPI PUSH3 0x98C PUSH3 0x931 JUMP JUMPDEST JUMPDEST DUP1 PUSH1 0x40 MSTORE POP POP POP JUMP JUMPDEST PUSH1 0x0 PUSH3 0x9A2 PUSH3 0x907 JUMP JUMPDEST SWAP1 POP PUSH3 0x9B0 DUP3 DUP3 PUSH3 0x960 JUMP JUMPDEST SWAP2 SWAP1 POP JUMP JUMPDEST PUSH1 0x0 PUSH8 0xFFFFFFFFFFFFFFFF DUP3 GT ISZERO PUSH3 0x9D3 JUMPI PUSH3 0x9D2 PUSH3 0x931 JUMP JUMPDEST JUMPDEST PUSH1 0x20 DUP3 MUL SWAP1 POP PUSH1 0x20 DUP2 ADD SWAP1 POP SWAP2 SWAP1 POP JUMP JUMPDEST PUSH1 0x0 DUP1 REVERT JUMPDEST PUSH1 0x0 PUSH20 0xFFFFFFFFFFFFFFFFFFFFFFFFFFFFFFFFFFFFFFFF DUP3 AND SWAP1 POP SWAP2 SWAP1 POP JUMP JUMPDEST PUSH1 0x0 PUSH3 0xA16 DUP3 PUSH3 0x9E9 JUMP JUMPDEST SWAP1 POP SWAP2 SWAP1 POP JUMP JUMPDEST PUSH3 0xA28 DUP2 PUSH3 0xA09 JUMP JUMPDEST DUP2 EQ PUSH3 0xA34 JUMPI PUSH1 0x0 DUP1 REVERT JUMPDEST POP JUMP JUMPDEST PUSH1 0x0 DUP2 MLOAD SWAP1 POP PUSH3 0xA48 DUP2 PUSH3 0xA1D JUMP JUMPDEST SWAP3 SWAP2 POP POP JUMP JUMPDEST PUSH1 0x0 PUSH3 0xA65 PUSH3 0xA5F DUP5 PUSH3 0x9B5 JUMP JUMPDEST PUSH3 0x996 JUMP JUMPDEST SWAP1 POP DUP1 DUP4 DUP3 MSTORE PUSH1 0x20 DUP3 ADD SWAP1 POP PUSH1 0x20 DUP5 MUL DUP4 ADD DUP6 DUP2 GT ISZERO PUSH3 0xA8B JUMPI PUSH3 0xA8A PUSH3 0x9E4 JUMP JUMPDEST JUMPDEST DUP4 JUMPDEST DUP2 DUP2 LT ISZERO PUSH3 0xAB8 JUMPI DUP1 PUSH3 0xAA3 DUP9 DUP3 PUSH3 0xA37 JUMP JUMPDEST DUP5 MSTORE PUSH1 0x20 DUP5 ADD SWAP4 POP POP PUSH1 0x20 DUP2 ADD SWAP1 POP PUSH3 0xA8D JUMP JUMPDEST POP POP POP SWAP4 SWAP3 POP POP POP JUMP JUMPDEST PUSH1 0x0 DUP3 PUSH1 0x1F DUP4 ADD SLT PUSH3 0xADA JUMPI PUSH3 0xAD9 PUSH3 0x91B JUMP JUMPDEST JUMPDEST DUP2 MLOAD PUSH3 0xAEC DUP5 DUP3 PUSH1 0x20 DUP7 ADD PUSH3 0xA4E JUMP JUMPDEST SWAP2 POP POP SWAP3 SWAP2 POP POP JUMP JUMPDEST PUSH1 0x0 DUP2 SWAP1 POP SWAP2 SWAP1 POP JUMP JUMPDEST PUSH3 0xB0A DUP2 PUSH3 0xAF5 JUMP JUMPDEST DUP2 EQ PUSH3 0xB16 JUMPI PUSH1 0x0 DUP1 REVERT JUMPDEST POP JUMP JUMPDEST PUSH1 0x0 DUP2 MLOAD SWAP1 POP PUSH3 0xB2A DUP2 PUSH3 0xAFF JUMP JUMPDEST SWAP3 SWAP2 POP POP JUMP JUMPDEST PUSH1 0x0 DUP1 PUSH1 0x40 DUP4 DUP6 SUB SLT ISZERO PUSH3 0xB4A JUMPI PUSH3 0xB49 PUSH3 0x911 JUMP JUMPDEST JUMPDEST PUSH1 0x0 DUP4 ADD MLOAD PUSH8 0xFFFFFFFFFFFFFFFF DUP2 GT ISZERO PUSH3 0xB6B JUMPI PUSH3 0xB6A PUSH3 0x916 JUMP JUMPDEST JUMPDEST PUSH3 0xB79 DUP6 DUP3 DUP7 ADD PUSH3 0xAC2 JUMP JUMPDEST SWAP3 POP POP PUSH1 0x20 PUSH3 0xB8C DUP6 DUP3 DUP7 ADD PUSH3 0xB19 JUMP JUMPDEST SWAP2 POP POP SWAP3 POP SWAP3 SWAP1 POP JUMP JUMPDEST PUSH1 0x0 DUP2 MLOAD SWAP1 POP SWAP2 SWAP1 POP JUMP JUMPDEST PUSH1 0x0 DUP3 DUP3 MSTORE PUSH1 0x20 DUP3 ADD SWAP1 POP SWAP3 SWAP2 POP POP JUMP JUMPDEST PUSH1 0x0 DUP2 SWAP1 POP PUSH1 0x20 DUP3 ADD SWAP1 POP SWAP2 SWAP1 POP JUMP JUMPDEST PUSH3 0xBCD DUP2 PUSH3 0xA09 JUMP JUMPDEST DUP3 MSTORE POP POP JUMP JUMPDEST PUSH1 0x0 PUSH3 0xBE1 DUP4 DUP4 PUSH3 0xBC2 JUMP JUMPDEST PUSH1 0x20 DUP4 ADD SWAP1 POP SWAP3 SWAP2 POP POP JUMP JUMPDEST PUSH1 0x0 PUSH1 0x20 DUP3 ADD SWAP1 POP SWAP2 SWAP1 POP JUMP JUMPDEST PUSH1 0x0 PUSH3 0xC07 DUP3 PUSH3 0xB96 JUMP JUMPDEST PUSH3 0xC13 DUP2 DUP6 PUSH3 0xBA1 JUMP JUMPDEST SWAP4 POP PUSH3 0xC20 DUP4 PUSH3 0xBB2 JUMP JUMPDEST DUP1 PUSH1 0x0 JUMPDEST DUP4 DUP2 LT ISZERO PUSH3 0xC57 JUMPI DUP2 MLOAD PUSH3 0xC3B DUP9 DUP3 PUSH3 0xBD3 JUMP JUMPDEST SWAP8 POP PUSH3 0xC48 DUP4 PUSH3 0xBED JUMP JUMPDEST SWAP3 POP POP PUSH1 0x1 DUP2 ADD SWAP1 POP PUSH3 0xC24 JUMP JUMPDEST POP DUP6 SWAP4 POP POP POP POP SWAP3 SWAP2 POP POP JUMP JUMPDEST PUSH3 0xC6F DUP2 PUSH3 0xAF5 JUMP JUMPDEST DUP3 MSTORE POP POP JUMP JUMPDEST PUSH1 0x0 PUSH1 0x40 DUP3 ADD SWAP1 POP DUP2 DUP2 SUB PUSH1 0x0 DUP4 ADD MSTORE PUSH3 0xC91 DUP2 DUP6 PUSH3 0xBFA JUMP JUMPDEST SWAP1 POP PUSH3 0xCA2 PUSH1 0x20 DUP4 ADD DUP5 PUSH3 0xC64 JUMP JUMPDEST SWAP4 SWAP3 POP POP POP JUMP JUMPDEST PUSH1 0x0 DUP3 DUP3 MSTORE PUSH1 0x20 DUP3 ADD SWAP1 POP SWAP3 SWAP2 POP POP JUMP JUMPDEST PUSH32 0x6572726F72303100000000000000000000000000000000000000000000000000 PUSH1 0x0 DUP3 ADD MSTORE POP JUMP JUMPDEST PUSH1 0x0 PUSH3 0xCF2 PUSH1 0x7 DUP4 PUSH3 0xCA9 JUMP JUMPDEST SWAP2 POP PUSH3 0xCFF DUP3 PUSH3 0xCBA JUMP JUMPDEST PUSH1 0x20 DUP3 ADD SWAP1 POP SWAP2 SWAP1 POP JUMP JUMPDEST PUSH1 0x0 PUSH1 0x20 DUP3 ADD SWAP1 POP DUP2 DUP2 SUB PUSH1 0x0 DUP4 ADD MSTORE PUSH3 0xD25 DUP2 PUSH3 0xCE3 JUMP JUMPDEST SWAP1 POP SWAP2 SWAP1 POP JUMP JUMPDEST PUSH32 0x6572726F72303200000000000000000000000000000000000000000000000000 PUSH1 0x0 DUP3 ADD MSTORE POP JUMP JUMPDEST PUSH1 0x0 PUSH3 0xD64 PUSH1 0x7 DUP4 PUSH3 0xCA9 JUMP JUMPDEST SWAP2 POP PUSH3 0xD71 DUP3 PUSH3 0xD2C JUMP JUMPDEST PUSH1 0x20 DUP3 ADD SWAP1 POP SWAP2 SWAP1 POP JUMP JUMPDEST PUSH1 0x0 PUSH1 0x20 DUP3 ADD SWAP1 POP DUP2 DUP2 SUB PUSH1 0x0 DUP4 ADD MSTORE PUSH3 0xD97 DUP2 PUSH3 0xD55 JUMP JUMPDEST SWAP1 POP SWAP2 SWAP1 POP JUMP JUMPDEST PUSH32 0x6572726F72303300000000000000000000000000000000000000000000000000 PUSH1 0x0 DUP3 ADD MSTORE POP JUMP JUMPDEST PUSH1 0x0 PUSH3 0xDD6 PUSH1 0x7 DUP4 PUSH3 0xCA9 JUMP JUMPDEST SWAP2 POP PUSH3 0xDE3 DUP3 PUSH3 0xD9E JUMP JUMPDEST PUSH1 0x20 DUP3 ADD SWAP1 POP SWAP2 SWAP1 POP JUMP JUMPDEST PUSH1 0x0 PUSH1 0x20 DUP3 ADD SWAP1 POP DUP2 DUP2 SUB PUSH1 0x0 DUP4 ADD MSTORE PUSH3 0xE09 DUP2 PUSH3 0xDC7 JUMP JUMPDEST SWAP1 POP SWAP2 SWAP1 POP JUMP JUMPDEST PUSH32 0x4E487B7100000000000000000000000000000000000000000000000000000000 PUSH1 0x0 MSTORE PUSH1 0x32 PUSH1 0x4 MSTORE PUSH1 0x24 PUSH1 0x0 REVERT JUMPDEST PUSH32 0x6572726F72303400000000000000000000000000000000000000000000000000 PUSH1 0x0 DUP3 ADD MSTORE POP JUMP JUMPDEST PUSH1 0x0 PUSH3 0xE77 PUSH1 0x7 DUP4 PUSH3 0xCA9 JUMP JUMPDEST SWAP2 POP PUSH3 0xE84 DUP3 PUSH3 0xE3F JUMP JUMPDEST PUSH1 0x20 DUP3 ADD SWAP1 POP SWAP2 SWAP1 POP JUMP JUMPDEST PUSH1 0x0 PUSH1 0x20 DUP3 ADD SWAP1 POP DUP2 DUP2 SUB PUSH1 0x0 DUP4 ADD MSTORE PUSH3 0xEAA DUP2 PUSH3 0xE68 JUMP JUMPDEST SWAP1 POP SWAP2 SWAP1 POP JUMP JUMPDEST PUSH32 0x4E487B7100000000000000000000000000000000000000000000000000000000 PUSH1 0x0 MSTORE PUSH1 0x11 PUSH1 0x4 MSTORE PUSH1 0x24 PUSH1 0x0 REVERT JUMPDEST PUSH1 0x0 PUSH3 0xEED DUP3 PUSH3 0xAF5 JUMP JUMPDEST SWAP2 POP PUSH32 0xFFFFFFFFFFFFFFFFFFFFFFFFFFFFFFFFFFFFFFFFFFFFFFFFFFFFFFFFFFFFFFFF DUP3 SUB PUSH3 0xF22 JUMPI PUSH3 0xF21 PUSH3 0xEB1 JUMP JUMPDEST JUMPDEST PUSH1 0x1 DUP3 ADD SWAP1 POP SWAP2 SWAP1 POP JUMP JUMPDEST PUSH2 0x25FA DUP1 PUSH3 0xF3D PUSH1 0x0 CODECOPY PUSH1 0x0 RETURN INVALID PUSH1 0x80 PUSH1 0x40 MSTORE PUSH1 0x4 CALLDATASIZE LT PUSH2 0xEC JUMPI PUSH1 0x0 CALLDATALOAD PUSH1 0xE0 SHR DUP1 PUSH4 0x694E80C3 GT PUSH2 0x8A JUMPI DUP1 PUSH4 0xAFFED0E0 GT PUSH2 0x59 JUMPI DUP1 PUSH4 0xAFFED0E0 EQ PUSH2 0x3C1 JUMPI DUP1 PUSH4 0xC0F0B3F1 EQ PUSH2 0x3EC JUMPI DUP1 PUSH4 0xEF11783C EQ PUSH2 0x415 JUMPI DUP1 PUSH4 0xFF87578C EQ PUSH2 0x452 JUMPI PUSH2 0x14B JUMP JUMPDEST DUP1 PUSH4 0x694E80C3 EQ PUSH2 0x307 JUMPI DUP1 PUSH4 0x81244E5D EQ PUSH2 0x330 JUMPI DUP1 PUSH4 0x831C9E2E EQ PUSH2 0x35B JUMPI DUP1 PUSH4 0x8B30486C EQ PUSH2 0x384 JUMPI PUSH2 0x14B JUMP JUMPDEST DUP1 PUSH4 0xFCE747A GT PUSH2 0xC6 JUMPI DUP1 PUSH4 0xFCE747A EQ PUSH2 0x21F JUMPI DUP1 PUSH4 0x2413478F EQ PUSH2 0x24F JUMPI DUP1 PUSH4 0x54910298 EQ PUSH2 0x28D JUMPI DUP1 PUSH4 0x6876A95E EQ PUSH2 0x2CA JUMPI PUSH2 0x14B JUMP JUMPDEST DUP1 PUSH4 0x29C81E3 EQ PUSH2 0x1A0 JUMPI DUP1 PUSH4 0xC3DFC1A EQ PUSH2 0x1CB JUMPI DUP1 PUSH4 0xC546204 EQ PUSH2 0x1F6 JUMPI PUSH2 0x14B JUMP JUMPDEST CALLDATASIZE PUSH2 0x14B JUMPI PUSH1 0x0 CALLVALUE GT ISZERO PUSH2 0x149 JUMPI CALLER PUSH20 0xFFFFFFFFFFFFFFFFFFFFFFFFFFFFFFFFFFFFFFFF AND PUSH32 0xF1CA750CB49A8B378DA1FB044F0EE23F5680CB13EFA35534D997ECD41FC2AB7D CALLVALUE PUSH1 0x40 MLOAD PUSH2 0x140 SWAP2 SWAP1 PUSH2 0x1794 JUMP JUMPDEST PUSH1 0x40 MLOAD DUP1 SWAP2 SUB SWAP1 LOG2 JUMPDEST STOP JUMPDEST CALLER PUSH20 0xFFFFFFFFFFFFFFFFFFFFFFFFFFFFFFFFFFFFFFFF AND PUSH32 0x2BEA9F513D6A7645811142F0CCA7029AFF10F0A1475F5C8B65E953A735109E5A CALLVALUE PUSH1 0x0 CALLDATASIZE PUSH1 0x40 MLOAD PUSH2 0x196 SWAP4 SWAP3 SWAP2 SWAP1 PUSH2 0x180D JUMP JUMPDEST PUSH1 0x40 MLOAD DUP1 SWAP2 SUB SWAP1 LOG2 STOP JUMPDEST CALLVALUE DUP1 ISZERO PUSH2 0x1AC JUMPI PUSH1 0x0 DUP1 REVERT JUMPDEST POP PUSH2 0x1B5 PUSH2 0x48F JUMP JUMPDEST PUSH1 0x40 MLOAD PUSH2 0x1C2 SWAP2 SWAP1 PUSH2 0x192F JUMP JUMPDEST PUSH1 0x40 MLOAD DUP1 SWAP2 SUB SWAP1 RETURN JUMPDEST CALLVALUE DUP1 ISZERO PUSH2 0x1D7 JUMPI PUSH1 0x0 DUP1 REVERT JUMPDEST POP PUSH2 0x1E0 PUSH2 0x5E2 JUMP JUMPDEST PUSH1 0x40 MLOAD PUSH2 0x1ED SWAP2 SWAP1 PUSH2 0x1794 JUMP JUMPDEST PUSH1 0x40 MLOAD DUP1 SWAP2 SUB SWAP1 RETURN JUMPDEST CALLVALUE DUP1 ISZERO PUSH2 0x202 JUMPI PUSH1 0x0 DUP1 REVERT JUMPDEST POP PUSH2 0x21D PUSH1 0x4 DUP1 CALLDATASIZE SUB DUP2 ADD SWAP1 PUSH2 0x218 SWAP2 SWAP1 PUSH2 0x19BD JUMP JUMPDEST PUSH2 0x5E8 JUMP JUMPDEST STOP JUMPDEST PUSH2 0x239 PUSH1 0x4 DUP1 CALLDATASIZE SUB DUP2 ADD SWAP1 PUSH2 0x234 SWAP2 SWAP1 PUSH2 0x1B83 JUMP JUMPDEST PUSH2 0x735 JUMP JUMPDEST PUSH1 0x40 MLOAD PUSH2 0x246 SWAP2 SWAP1 PUSH2 0x1C42 JUMP JUMPDEST PUSH1 0x40 MLOAD DUP1 SWAP2 SUB SWAP1 RETURN JUMPDEST CALLVALUE DUP1 ISZERO PUSH2 0x25B JUMPI PUSH1 0x0 DUP1 REVERT JUMPDEST POP PUSH2 0x276 PUSH1 0x4 DUP1 CALLDATASIZE SUB DUP2 ADD SWAP1 PUSH2 0x271 SWAP2 SWAP1 PUSH2 0x1C89 JUMP JUMPDEST PUSH2 0x88F JUMP JUMPDEST PUSH1 0x40 MLOAD PUSH2 0x284 SWAP3 SWAP2 SWAP1 PUSH2 0x1CD8 JUMP JUMPDEST PUSH1 0x40 MLOAD DUP1 SWAP2 SUB SWAP1 RETURN JUMPDEST CALLVALUE DUP1 ISZERO PUSH2 0x299 JUMPI PUSH1 0x0 DUP1 REVERT JUMPDEST POP PUSH2 0x2B4 PUSH1 0x4 DUP1 CALLDATASIZE SUB DUP2 ADD SWAP1 PUSH2 0x2AF SWAP2 SWAP1 PUSH2 0x19BD JUMP JUMPDEST PUSH2 0x92E JUMP JUMPDEST PUSH1 0x40 MLOAD PUSH2 0x2C1 SWAP2 SWAP1 PUSH2 0x1D6F JUMP JUMPDEST PUSH1 0x40 MLOAD DUP1 SWAP2 SUB SWAP1 RETURN JUMPDEST CALLVALUE DUP1 ISZERO PUSH2 0x2D6 JUMPI PUSH1 0x0 DUP1 REVERT JUMPDEST POP PUSH2 0x2F1 PUSH1 0x4 DUP1 CALLDATASIZE SUB DUP2 ADD SWAP1 PUSH2 0x2EC SWAP2 SWAP1 PUSH2 0x1D91 JUMP JUMPDEST PUSH2 0x9C9 JUMP JUMPDEST PUSH1 0x40 MLOAD PUSH2 0x2FE SWAP2 SWAP1 PUSH2 0x1D6F JUMP JUMPDEST PUSH1 0x40 MLOAD DUP1 SWAP2 SUB SWAP1 RETURN JUMPDEST CALLVALUE DUP1 ISZERO PUSH2 0x313 JUMPI PUSH1 0x0 DUP1 REVERT JUMPDEST POP PUSH2 0x32E PUSH1 0x4 DUP1 CALLDATASIZE SUB DUP2 ADD SWAP1 PUSH2 0x329 SWAP2 SWAP1 PUSH2 0x1D91 JUMP JUMPDEST PUSH2 0xA61 JUMP JUMPDEST STOP JUMPDEST CALLVALUE DUP1 ISZERO PUSH2 0x33C JUMPI PUSH1 0x0 DUP1 REVERT JUMPDEST POP PUSH2 0x345 PUSH2 0xB35 JUMP JUMPDEST PUSH1 0x40 MLOAD PUSH2 0x352 SWAP2 SWAP1 PUSH2 0x1794 JUMP JUMPDEST PUSH1 0x40 MLOAD DUP1 SWAP2 SUB SWAP1 RETURN JUMPDEST CALLVALUE DUP1 ISZERO PUSH2 0x367 JUMPI PUSH1 0x0 DUP1 REVERT JUMPDEST POP PUSH2 0x382 PUSH1 0x4 DUP1 CALLDATASIZE SUB DUP2 ADD SWAP1 PUSH2 0x37D SWAP2 SWAP1 PUSH2 0x1DF4 JUMP JUMPDEST PUSH2 0xB3F JUMP JUMPDEST STOP JUMPDEST CALLVALUE DUP1 ISZERO PUSH2 0x390 JUMPI PUSH1 0x0 DUP1 REVERT JUMPDEST POP PUSH2 0x3AB PUSH1 0x4 DUP1 CALLDATASIZE SUB DUP2 ADD SWAP1 PUSH2 0x3A6 SWAP2 SWAP1 PUSH2 0x1E50 JUMP JUMPDEST PUSH2 0xB99 JUMP JUMPDEST PUSH1 0x40 MLOAD PUSH2 0x3B8 SWAP2 SWAP1 PUSH2 0x1ECE JUMP JUMPDEST PUSH1 0x40 MLOAD DUP1 SWAP2 SUB SWAP1 RETURN JUMPDEST CALLVALUE DUP1 ISZERO PUSH2 0x3CD JUMPI PUSH1 0x0 DUP1 REVERT JUMPDEST POP PUSH2 0x3D6 PUSH2 0xBB3 JUMP JUMPDEST PUSH1 0x40 MLOAD PUSH2 0x3E3 SWAP2 SWAP1 PUSH2 0x1794 JUMP JUMPDEST PUSH1 0x40 MLOAD DUP1 SWAP2 SUB SWAP1 RETURN JUMPDEST CALLVALUE DUP1 ISZERO PUSH2 0x3F8 JUMPI PUSH1 0x0 DUP1 REVERT JUMPDEST POP PUSH2 0x413 PUSH1 0x4 DUP1 CALLDATASIZE SUB DUP2 ADD SWAP1 PUSH2 0x40E SWAP2 SWAP1 PUSH2 0x19BD JUMP JUMPDEST PUSH2 0xBB9 JUMP JUMPDEST STOP JUMPDEST CALLVALUE DUP1 ISZERO PUSH2 0x421 JUMPI PUSH1 0x0 DUP1 REVERT JUMPDEST POP PUSH2 0x43C PUSH1 0x4 DUP1 CALLDATASIZE SUB DUP2 ADD SWAP1 PUSH2 0x437 SWAP2 SWAP1 PUSH2 0x1EE9 JUMP JUMPDEST PUSH2 0xCBD JUMP JUMPDEST PUSH1 0x40 MLOAD PUSH2 0x449 SWAP2 SWAP1 PUSH2 0x1C42 JUMP JUMPDEST PUSH1 0x40 MLOAD DUP1 SWAP2 SUB SWAP1 RETURN JUMPDEST CALLVALUE DUP1 ISZERO PUSH2 0x45E JUMPI PUSH1 0x0 DUP1 REVERT JUMPDEST POP PUSH2 0x479 PUSH1 0x4 DUP1 CALLDATASIZE SUB DUP2 ADD SWAP1 PUSH2 0x474 SWAP2 SWAP1 PUSH2 0x19BD JUMP JUMPDEST PUSH2 0xE17 JUMP JUMPDEST PUSH1 0x40 MLOAD PUSH2 0x486 SWAP2 SWAP1 PUSH2 0x1D6F JUMP JUMPDEST PUSH1 0x40 MLOAD DUP1 SWAP2 SUB SWAP1 RETURN JUMPDEST PUSH1 0x60 PUSH1 0x0 DUP1 SLOAD PUSH8 0xFFFFFFFFFFFFFFFF DUP2 GT ISZERO PUSH2 0x4AE JUMPI PUSH2 0x4AD PUSH2 0x1A67 JUMP JUMPDEST JUMPDEST PUSH1 0x40 MLOAD SWAP1 DUP1 DUP3 MSTORE DUP1 PUSH1 0x20 MUL PUSH1 0x20 ADD DUP3 ADD PUSH1 0x40 MSTORE DUP1 ISZERO PUSH2 0x4DC JUMPI DUP2 PUSH1 0x20 ADD PUSH1 0x20 DUP3 MUL DUP1 CALLDATASIZE DUP4 CALLDATACOPY DUP1 DUP3 ADD SWAP2 POP POP SWAP1 POP JUMPDEST POP SWAP1 POP PUSH1 0x0 PUSH1 0x2 PUSH1 0x0 PUSH1 0x1 PUSH20 0xFFFFFFFFFFFFFFFFFFFFFFFFFFFFFFFFFFFFFFFF AND PUSH20 0xFFFFFFFFFFFFFFFFFFFFFFFFFFFFFFFFFFFFFFFF AND DUP2 MSTORE PUSH1 0x20 ADD SWAP1 DUP2 MSTORE PUSH1 0x20 ADD PUSH1 0x0 KECCAK256 PUSH1 0x0 PUSH1 0x1 ISZERO ISZERO ISZERO ISZERO DUP2 MSTORE PUSH1 0x20 ADD SWAP1 DUP2 MSTORE PUSH1 0x20 ADD PUSH1 0x0 KECCAK256 PUSH1 0x0 SWAP1 SLOAD SWAP1 PUSH2 0x100 EXP SWAP1 DIV PUSH20 0xFFFFFFFFFFFFFFFFFFFFFFFFFFFFFFFFFFFFFFFF AND SWAP1 POP PUSH1 0x0 JUMPDEST PUSH1 0x0 SLOAD DUP2 LT ISZERO PUSH2 0x5D9 JUMPI DUP2 DUP4 DUP3 DUP2 MLOAD DUP2 LT PUSH2 0x57B JUMPI PUSH2 0x57A PUSH2 0x1F16 JUMP JUMPDEST JUMPDEST PUSH1 0x20 MUL PUSH1 0x20 ADD ADD SWAP1 PUSH20 0xFFFFFFFFFFFFFFFFFFFFFFFFFFFFFFFFFFFFFFFF AND SWAP1 DUP2 PUSH20 0xFFFFFFFFFFFFFFFFFFFFFFFFFFFFFFFFFFFFFFFF AND DUP2 MSTORE POP POP PUSH2 0x5C0 DUP3 PUSH1 0x1 PUSH2 0x88F JUMP JUMPDEST SWAP1 POP DUP1 SWAP3 POP POP DUP1 DUP1 PUSH2 0x5D1 SWAP1 PUSH2 0x1F74 JUMP JUMPDEST SWAP2 POP POP PUSH2 0x55D JUMP JUMPDEST DUP3 SWAP4 POP POP POP POP SWAP1 JUMP JUMPDEST PUSH1 0x0 SLOAD DUP2 JUMP JUMPDEST PUSH2 0x5F0 PUSH2 0xEB2 JUMP JUMPDEST DUP1 PUSH1 0x1 PUSH1 0x0 SLOAD PUSH2 0x600 SWAP2 SWAP1 PUSH2 0x1FBC JUMP JUMPDEST LT ISZERO DUP1 ISZERO PUSH2 0x60F JUMPI POP PUSH1 0x0 DUP2 LT ISZERO JUMPDEST PUSH2 0x618 JUMPI PUSH1 0x0 DUP1 REVERT JUMPDEST PUSH1 0x0 PUSH20 0xFFFFFFFFFFFFFFFFFFFFFFFFFFFFFFFFFFFFFFFF AND DUP3 PUSH20 0xFFFFFFFFFFFFFFFFFFFFFFFFFFFFFFFFFFFFFFFF AND EQ ISZERO DUP1 ISZERO PUSH2 0x681 JUMPI POP ADDRESS PUSH20 0xFFFFFFFFFFFFFFFFFFFFFFFFFFFFFFFFFFFFFFFF AND DUP3 PUSH20 0xFFFFFFFFFFFFFFFFFFFFFFFFFFFFFFFFFFFFFFFF AND EQ ISZERO JUMPDEST DUP1 ISZERO PUSH2 0x693 JUMPI POP PUSH2 0x691 DUP3 PUSH2 0xCBD JUMP JUMPDEST ISZERO JUMPDEST PUSH2 0x6D2 JUMPI PUSH1 0x40 MLOAD PUSH32 0x8C379A000000000000000000000000000000000000000000000000000000000 DUP2 MSTORE PUSH1 0x4 ADD PUSH2 0x6C9 SWAP1 PUSH2 0x204D JUMP JUMPDEST PUSH1 0x40 MLOAD DUP1 SWAP2 SUB SWAP1 REVERT JUMPDEST PUSH2 0x6DB DUP3 PUSH2 0xF22 JUMP JUMPDEST DUP2 PUSH20 0xFFFFFFFFFFFFFFFFFFFFFFFFFFFFFFFFFFFFFFFF AND PUSH32 0xAC1E9EF41B54C676CCF449D83AE6F2624BCDCE8F5B93A6B48CE95874C332693D PUSH1 0x40 MLOAD PUSH1 0x40 MLOAD DUP1 SWAP2 SUB SWAP1 LOG2 PUSH1 0x1 SLOAD DUP2 EQ PUSH2 0x731 JUMPI PUSH2 0x730 DUP2 PUSH2 0xA61 JUMP JUMPDEST JUMPDEST POP POP JUMP JUMPDEST PUSH1 0x0 DUP1 PUSH2 0x78B DUP8 DUP8 DUP8 DUP8 DUP1 DUP1 PUSH1 0x1F ADD PUSH1 0x20 DUP1 SWAP2 DIV MUL PUSH1 0x20 ADD PUSH1 0x40 MLOAD SWAP1 DUP2 ADD PUSH1 0x40 MSTORE DUP1 SWAP4 SWAP3 SWAP2 SWAP1 DUP2 DUP2 MSTORE PUSH1 0x20 ADD DUP4 DUP4 DUP1 DUP3 DUP5 CALLDATACOPY PUSH1 0x0 DUP2 DUP5 ADD MSTORE PUSH1 0x1F NOT PUSH1 0x1F DUP3 ADD AND SWAP1 POP DUP1 DUP4 ADD SWAP3 POP POP POP POP POP POP POP PUSH1 0x3 SLOAD CHAINID PUSH2 0x116A JUMP JUMPDEST SWAP1 POP PUSH1 0x3 PUSH1 0x0 DUP2 SLOAD DUP1 SWAP3 SWAP2 SWAP1 PUSH2 0x7A0 SWAP1 PUSH2 0x1F74 JUMP JUMPDEST SWAP2 SWAP1 POP SSTORE POP PUSH2 0x7AF DUP2 DUP5 PUSH2 0xB3F JUMP JUMPDEST DUP7 PUSH20 0xFFFFFFFFFFFFFFFFFFFFFFFFFFFFFFFFFFFFFFFF AND DUP7 DUP7 DUP7 PUSH1 0x40 MLOAD PUSH2 0x7D7 SWAP3 SWAP2 SWAP1 PUSH2 0x209D JUMP JUMPDEST PUSH1 0x0 PUSH1 0x40 MLOAD DUP1 DUP4 SUB DUP2 DUP6 DUP8 GAS CALL SWAP3 POP POP POP RETURNDATASIZE DUP1 PUSH1 0x0 DUP2 EQ PUSH2 0x814 JUMPI PUSH1 0x40 MLOAD SWAP2 POP PUSH1 0x1F NOT PUSH1 0x3F RETURNDATASIZE ADD AND DUP3 ADD PUSH1 0x40 MSTORE RETURNDATASIZE DUP3 MSTORE RETURNDATASIZE PUSH1 0x0 PUSH1 0x20 DUP5 ADD RETURNDATACOPY PUSH2 0x819 JUMP JUMPDEST PUSH1 0x60 SWAP2 POP JUMPDEST POP POP DUP1 SWAP3 POP POP DUP2 ISZERO PUSH2 0x857 JUMPI DUP1 PUSH32 0xDC29884A71D2BB98D3C53DC09718BE05C7BFD142B7773A5C5CF2517629290AC0 PUSH1 0x40 MLOAD PUSH1 0x40 MLOAD DUP1 SWAP2 SUB SWAP1 LOG2 PUSH2 0x885 JUMP JUMPDEST DUP1 PUSH32 0xDBE42D02A4E07D7EEFF2874EFE172540C93B297D206F6D691C9782A257323E32 PUSH1 0x40 MLOAD PUSH1 0x40 MLOAD DUP1 SWAP2 SUB SWAP1 LOG2 JUMPDEST POP SWAP6 SWAP5 POP POP POP POP POP JUMP JUMPDEST PUSH1 0x0 DUP1 PUSH2 0x89B DUP5 PUSH2 0xCBD JUMP JUMPDEST PUSH2 0x8AB JUMPI PUSH1 0x0 DUP1 SWAP2 POP SWAP2 POP PUSH2 0x927 JUMP JUMPDEST PUSH1 0x1 PUSH1 0x2 PUSH1 0x0 DUP7 PUSH20 0xFFFFFFFFFFFFFFFFFFFFFFFFFFFFFFFFFFFFFFFF AND PUSH20 0xFFFFFFFFFFFFFFFFFFFFFFFFFFFFFFFFFFFFFFFF AND DUP2 MSTORE PUSH1 0x20 ADD SWAP1 DUP2 MSTORE PUSH1 0x20 ADD PUSH1 0x0 KECCAK256 PUSH1 0x0 DUP6 ISZERO ISZERO ISZERO ISZERO DUP2 MSTORE PUSH1 0x20 ADD SWAP1 DUP2 MSTORE PUSH1 0x20 ADD PUSH1 0x0 KECCAK256 PUSH1 0x0 SWAP1 SLOAD SWAP1 PUSH2 0x100 EXP SWAP1 DIV PUSH20 0xFFFFFFFFFFFFFFFFFFFFFFFFFFFFFFFFFFFFFFFF AND SWAP2 POP SWAP2 POP JUMPDEST SWAP3 POP SWAP3 SWAP1 POP JUMP JUMPDEST PUSH1 0x60 PUSH32 0xC0F0B3F17D4CD2B558F2E7888914CD773111E1DA10E55BAF4D1F32E1F6C2222F DUP4 DUP4 PUSH1 0x40 MLOAD PUSH1 0x24 ADD PUSH2 0x964 SWAP3 SWAP2 SWAP1 PUSH2 0x20B6 JUMP JUMPDEST PUSH1 0x40 MLOAD PUSH1 0x20 DUP2 DUP4 SUB SUB DUP2 MSTORE SWAP1 PUSH1 0x40 MSTORE SWAP1 PUSH28 0xFFFFFFFFFFFFFFFFFFFFFFFFFFFFFFFFFFFFFFFFFFFFFFFFFFFFFFFF NOT AND PUSH1 0x20 DUP3 ADD DUP1 MLOAD PUSH28 0xFFFFFFFFFFFFFFFFFFFFFFFFFFFFFFFFFFFFFFFFFFFFFFFFFFFFFFFF DUP4 DUP2 DUP4 AND OR DUP4 MSTORE POP POP POP POP SWAP1 POP SWAP3 SWAP2 POP POP JUMP JUMPDEST PUSH1 0x60 PUSH32 0x694E80C37192D74D6099F3D3B41506932AB644A24442EE51857CFEB9EB01AC2F DUP3 PUSH1 0x40 MLOAD PUSH1 0x24 ADD PUSH2 0x9FD SWAP2 SWAP1 PUSH2 0x1794 JUMP JUMPDEST PUSH1 0x40 MLOAD PUSH1 0x20 DUP2 DUP4 SUB SUB DUP2 MSTORE SWAP1 PUSH1 0x40 MSTORE SWAP1 PUSH28 0xFFFFFFFFFFFFFFFFFFFFFFFFFFFFFFFFFFFFFFFFFFFFFFFFFFFFFFFF NOT AND PUSH1 0x20 DUP3 ADD DUP1 MLOAD PUSH28 0xFFFFFFFFFFFFFFFFFFFFFFFFFFFFFFFFFFFFFFFFFFFFFFFFFFFFFFFF DUP4 DUP2 DUP4 AND OR DUP4 MSTORE POP POP POP POP SWAP1 POP SWAP2 SWAP1 POP JUMP JUMPDEST PUSH2 0xA69 PUSH2 0xEB2 JUMP JUMPDEST PUSH1 0x0 SLOAD DUP2 GT ISZERO PUSH2 0xAAE JUMPI PUSH1 0x40 MLOAD PUSH32 0x8C379A000000000000000000000000000000000000000000000000000000000 DUP2 MSTORE PUSH1 0x4 ADD PUSH2 0xAA5 SWAP1 PUSH2 0x212B JUMP JUMPDEST PUSH1 0x40 MLOAD DUP1 SWAP2 SUB SWAP1 REVERT JUMPDEST PUSH1 0x1 DUP2 LT ISZERO PUSH2 0xAF2 JUMPI PUSH1 0x40 MLOAD PUSH32 0x8C379A000000000000000000000000000000000000000000000000000000000 DUP2 MSTORE PUSH1 0x4 ADD PUSH2 0xAE9 SWAP1 PUSH2 0x2197 JUMP JUMPDEST PUSH1 0x40 MLOAD DUP1 SWAP2 SUB SWAP1 REVERT JUMPDEST DUP1 PUSH1 0x1 DUP2 SWAP1 SSTORE POP PUSH32 0x9947AC58E204D2DA07B9748298663B3B77DA7FB0638201D778987DED7C90FBAA PUSH1 0x1 SLOAD PUSH1 0x40 MLOAD PUSH2 0xB2A SWAP2 SWAP1 PUSH2 0x1794 JUMP JUMPDEST PUSH1 0x40 MLOAD DUP1 SWAP2 SUB SWAP1 LOG1 POP JUMP JUMPDEST PUSH1 0x0 PUSH1 0x1 SLOAD SWAP1 POP SWAP1 JUMP JUMPDEST PUSH1 0x0 PUSH1 0x1 SLOAD SWAP1 POP PUSH1 0x0 DUP2 GT PUSH2 0xB89 JUMPI PUSH1 0x40 MLOAD PUSH32 0x8C379A000000000000000000000000000000000000000000000000000000000 DUP2 MSTORE PUSH1 0x4 ADD PUSH2 0xB80 SWAP1 PUSH2 0x2203 JUMP JUMPDEST PUSH1 0x40 MLOAD DUP1 SWAP2 SUB SWAP1 REVERT JUMPDEST PUSH2 0xB94 DUP4 DUP4 DUP4 PUSH2 0x11B2 JUMP JUMPDEST POP POP POP JUMP JUMPDEST PUSH1 0x0 PUSH2 0xBAA DUP5 DUP5 DUP5 PUSH1 0x3 SLOAD CHAINID PUSH2 0x116A JUMP JUMPDEST SWAP1 POP SWAP4 SWAP3 POP POP POP JUMP JUMPDEST PUSH1 0x3 SLOAD DUP2 JUMP JUMPDEST PUSH2 0xBC1 PUSH2 0xEB2 JUMP JUMPDEST DUP1 PUSH1 0x1 PUSH1 0x0 SLOAD PUSH2 0xBD1 SWAP2 SWAP1 PUSH2 0x2223 JUMP JUMPDEST LT ISZERO PUSH2 0xC12 JUMPI PUSH1 0x40 MLOAD PUSH32 0x8C379A000000000000000000000000000000000000000000000000000000000 DUP2 MSTORE PUSH1 0x4 ADD PUSH2 0xC09 SWAP1 PUSH2 0x212B JUMP JUMPDEST PUSH1 0x40 MLOAD DUP1 SWAP2 SUB SWAP1 REVERT JUMPDEST PUSH2 0xC1B DUP3 PUSH2 0xCBD JUMP JUMPDEST PUSH2 0xC5A JUMPI PUSH1 0x40 MLOAD PUSH32 0x8C379A000000000000000000000000000000000000000000000000000000000 DUP2 MSTORE PUSH1 0x4 ADD PUSH2 0xC51 SWAP1 PUSH2 0x22A3 JUMP JUMPDEST PUSH1 0x40 MLOAD DUP1 SWAP2 SUB SWAP1 REVERT JUMPDEST PUSH2 0xC63 DUP3 PUSH2 0x1345 JUMP JUMPDEST DUP2 PUSH20 0xFFFFFFFFFFFFFFFFFFFFFFFFFFFFFFFFFFFFFFFF AND PUSH32 0xAC6E8398676CF37429D530B81144D7079E99F4FE9D28B0D88C4A749CECCBE8CD PUSH1 0x40 MLOAD PUSH1 0x40 MLOAD DUP1 SWAP2 SUB SWAP1 LOG2 PUSH1 0x1 SLOAD DUP2 EQ PUSH2 0xCB9 JUMPI PUSH2 0xCB8 DUP2 PUSH2 0xA61 JUMP JUMPDEST JUMPDEST POP POP JUMP JUMPDEST PUSH1 0x0 DUP1 PUSH20 0xFFFFFFFFFFFFFFFFFFFFFFFFFFFFFFFFFFFFFFFF AND PUSH1 0x2 PUSH1 0x0 DUP5 PUSH20 0xFFFFFFFFFFFFFFFFFFFFFFFFFFFFFFFFFFFFFFFF AND PUSH20 0xFFFFFFFFFFFFFFFFFFFFFFFFFFFFFFFFFFFFFFFF AND DUP2 MSTORE PUSH1 0x20 ADD SWAP1 DUP2 MSTORE PUSH1 0x20 ADD PUSH1 0x0 KECCAK256 PUSH1 0x0 DUP1 ISZERO ISZERO ISZERO ISZERO DUP2 MSTORE PUSH1 0x20 ADD SWAP1 DUP2 MSTORE PUSH1 0x20 ADD PUSH1 0x0 KECCAK256 PUSH1 0x0 SWAP1 SLOAD SWAP1 PUSH2 0x100 EXP SWAP1 DIV PUSH20 0xFFFFFFFFFFFFFFFFFFFFFFFFFFFFFFFFFFFFFFFF AND PUSH20 0xFFFFFFFFFFFFFFFFFFFFFFFFFFFFFFFFFFFFFFFF AND EQ ISZERO DUP1 PUSH2 0xE10 JUMPI POP PUSH1 0x0 PUSH20 0xFFFFFFFFFFFFFFFFFFFFFFFFFFFFFFFFFFFFFFFF AND PUSH1 0x2 PUSH1 0x0 DUP5 PUSH20 0xFFFFFFFFFFFFFFFFFFFFFFFFFFFFFFFFFFFFFFFF AND PUSH20 0xFFFFFFFFFFFFFFFFFFFFFFFFFFFFFFFFFFFFFFFF AND DUP2 MSTORE PUSH1 0x20 ADD SWAP1 DUP2 MSTORE PUSH1 0x20 ADD PUSH1 0x0 KECCAK256 PUSH1 0x0 PUSH1 0x1 ISZERO ISZERO ISZERO ISZERO DUP2 MSTORE PUSH1 0x20 ADD SWAP1 DUP2 MSTORE PUSH1 0x20 ADD PUSH1 0x0 KECCAK256 PUSH1 0x0 SWAP1 SLOAD SWAP1 PUSH2 0x100 EXP SWAP1 DIV PUSH20 0xFFFFFFFFFFFFFFFFFFFFFFFFFFFFFFFFFFFFFFFF AND PUSH20 0xFFFFFFFFFFFFFFFFFFFFFFFFFFFFFFFFFFFFFFFF AND EQ ISZERO JUMPDEST SWAP1 POP SWAP2 SWAP1 POP JUMP JUMPDEST PUSH1 0x60 PUSH32 0xC54620469A3EEFF8E01E9971BCF46E640ABBF3FA3139AA3AFA97959F3D74499 DUP4 DUP4 PUSH1 0x40 MLOAD PUSH1 0x24 ADD PUSH2 0xE4D SWAP3 SWAP2 SWAP1 PUSH2 0x20B6 JUMP JUMPDEST PUSH1 0x40 MLOAD PUSH1 0x20 DUP2 DUP4 SUB SUB DUP2 MSTORE SWAP1 PUSH1 0x40 MSTORE SWAP1 PUSH28 0xFFFFFFFFFFFFFFFFFFFFFFFFFFFFFFFFFFFFFFFFFFFFFFFFFFFFFFFF NOT AND PUSH1 0x20 DUP3 ADD DUP1 MLOAD PUSH28 0xFFFFFFFFFFFFFFFFFFFFFFFFFFFFFFFFFFFFFFFFFFFFFFFFFFFFFFFF DUP4 DUP2 DUP4 AND OR DUP4 MSTORE POP POP POP POP SWAP1 POP SWAP3 SWAP2 POP POP JUMP JUMPDEST ADDRESS PUSH20 0xFFFFFFFFFFFFFFFFFFFFFFFFFFFFFFFFFFFFFFFF AND CALLER PUSH20 0xFFFFFFFFFFFFFFFFFFFFFFFFFFFFFFFFFFFFFFFF AND EQ PUSH2 0xF20 JUMPI PUSH1 0x40 MLOAD PUSH32 0x8C379A000000000000000000000000000000000000000000000000000000000 DUP2 MSTORE PUSH1 0x4 ADD PUSH2 0xF17 SWAP1 PUSH2 0x230F JUMP JUMPDEST PUSH1 0x40 MLOAD DUP1 SWAP2 SUB SWAP1 REVERT JUMPDEST JUMP JUMPDEST PUSH1 0x0 PUSH20 0xFFFFFFFFFFFFFFFFFFFFFFFFFFFFFFFFFFFFFFFF AND DUP2 PUSH20 0xFFFFFFFFFFFFFFFFFFFFFFFFFFFFFFFFFFFFFFFF AND EQ ISZERO DUP1 ISZERO PUSH2 0xF8B JUMPI POP ADDRESS PUSH20 0xFFFFFFFFFFFFFFFFFFFFFFFFFFFFFFFFFFFFFFFF AND DUP2 PUSH20 0xFFFFFFFFFFFFFFFFFFFFFFFFFFFFFFFFFFFFFFFF AND EQ ISZERO JUMPDEST DUP1 ISZERO PUSH2 0xF9D JUMPI POP PUSH2 0xF9B DUP2 PUSH2 0xCBD JUMP JUMPDEST ISZERO JUMPDEST PUSH2 0xFDC JUMPI PUSH1 0x40 MLOAD PUSH32 0x8C379A000000000000000000000000000000000000000000000000000000000 DUP2 MSTORE PUSH1 0x4 ADD PUSH2 0xFD3 SWAP1 PUSH2 0x204D JUMP JUMPDEST PUSH1 0x40 MLOAD DUP1 SWAP2 SUB SWAP1 REVERT JUMPDEST PUSH1 0x0 PUSH1 0x1 SWAP1 POP PUSH1 0x0 PUSH2 0xFEF DUP3 PUSH1 0x1 PUSH2 0x88F JUMP JUMPDEST SWAP1 POP DUP1 SWAP2 POP POP JUMPDEST PUSH1 0x0 PUSH20 0xFFFFFFFFFFFFFFFFFFFFFFFFFFFFFFFFFFFFFFFF AND DUP2 PUSH20 0xFFFFFFFFFFFFFFFFFFFFFFFFFFFFFFFFFFFFFFFF AND EQ PUSH2 0x110D JUMPI DUP3 PUSH20 0xFFFFFFFFFFFFFFFFFFFFFFFFFFFFFFFFFFFFFFFF AND DUP2 PUSH20 0xFFFFFFFFFFFFFFFFFFFFFFFFFFFFFFFFFFFFFFFF AND GT DUP1 ISZERO PUSH2 0x1090 JUMPI POP DUP3 PUSH20 0xFFFFFFFFFFFFFFFFFFFFFFFFFFFFFFFFFFFFFFFF AND DUP3 PUSH20 0xFFFFFFFFFFFFFFFFFFFFFFFFFFFFFFFFFFFFFFFF AND LT JUMPDEST ISZERO PUSH2 0x10A6 JUMPI PUSH2 0x10A1 DUP3 DUP5 PUSH1 0x1 PUSH2 0x158B JUMP JUMPDEST PUSH2 0x110D JUMP JUMPDEST DUP3 PUSH20 0xFFFFFFFFFFFFFFFFFFFFFFFFFFFFFFFFFFFFFFFF AND DUP2 PUSH20 0xFFFFFFFFFFFFFFFFFFFFFFFFFFFFFFFFFFFFFFFF AND GT ISZERO PUSH2 0x10F3 JUMPI DUP2 SWAP1 POP PUSH2 0x10E8 DUP3 PUSH1 0x0 PUSH2 0x88F JUMP JUMPDEST SWAP1 POP DUP1 SWAP3 POP POP PUSH2 0x1108 JUMP JUMPDEST DUP1 SWAP2 POP PUSH2 0x1101 DUP2 PUSH1 0x1 PUSH2 0x88F JUMP JUMPDEST SWAP1 POP DUP1 SWAP2 POP POP JUMPDEST PUSH2 0xFF6 JUMP JUMPDEST PUSH1 0x0 PUSH20 0xFFFFFFFFFFFFFFFFFFFFFFFFFFFFFFFFFFFFFFFF AND DUP2 PUSH20 0xFFFFFFFFFFFFFFFFFFFFFFFFFFFFFFFFFFFFFFFF AND SUB PUSH2 0x114E JUMPI PUSH2 0x114D DUP3 DUP5 PUSH1 0x1 PUSH2 0x158B JUMP JUMPDEST JUMPDEST PUSH1 0x0 DUP1 DUP2 SLOAD DUP1 SWAP3 SWAP2 SWAP1 PUSH2 0x1160 SWAP1 PUSH2 0x1F74 JUMP JUMPDEST SWAP2 SWAP1 POP SSTORE POP POP POP POP JUMP JUMPDEST PUSH1 0x0 DUP1 DUP7 DUP7 DUP7 DUP1 MLOAD SWAP1 PUSH1 0x20 ADD KECCAK256 DUP7 DUP7 PUSH1 0x40 MLOAD PUSH1 0x20 ADD PUSH2 0x118D SWAP6 SWAP5 SWAP4 SWAP3 SWAP2 SWAP1 PUSH2 0x232F JUMP JUMPDEST PUSH1 0x40 MLOAD PUSH1 0x20 DUP2 DUP4 SUB SUB DUP2 MSTORE SWAP1 PUSH1 0x40 MSTORE DUP1 MLOAD SWAP1 PUSH1 0x20 ADD KECCAK256 SWAP1 POP DUP1 SWAP2 POP POP SWAP6 SWAP5 POP POP POP POP POP JUMP JUMPDEST PUSH1 0x41 DUP2 PUSH2 0x11BF SWAP2 SWAP1 PUSH2 0x2382 JUMP JUMPDEST DUP3 MLOAD LT ISZERO PUSH2 0x1202 JUMPI PUSH1 0x40 MLOAD PUSH32 0x8C379A000000000000000000000000000000000000000000000000000000000 DUP2 MSTORE PUSH1 0x4 ADD PUSH2 0x11F9 SWAP1 PUSH2 0x2410 JUMP JUMPDEST PUSH1 0x40 MLOAD DUP1 SWAP2 SUB SWAP1 REVERT JUMPDEST PUSH1 0x0 DUP1 PUSH1 0x0 DUP1 PUSH1 0x0 DUP1 PUSH1 0x0 SWAP1 POP JUMPDEST DUP7 DUP2 LT ISZERO PUSH2 0x133A JUMPI PUSH2 0x1222 DUP9 DUP3 PUSH2 0x1620 JUMP JUMPDEST DUP1 SWAP5 POP DUP2 SWAP6 POP DUP3 SWAP7 POP POP POP POP PUSH1 0x1 DUP10 PUSH1 0x40 MLOAD PUSH1 0x20 ADD PUSH2 0x1241 SWAP2 SWAP1 PUSH2 0x24A8 JUMP JUMPDEST PUSH1 0x40 MLOAD PUSH1 0x20 DUP2 DUP4 SUB SUB DUP2 MSTORE SWAP1 PUSH1 0x40 MSTORE DUP1 MLOAD SWAP1 PUSH1 0x20 ADD KECCAK256 DUP6 DUP6 DUP6 PUSH1 0x40 MLOAD PUSH1 0x0 DUP2 MSTORE PUSH1 0x20 ADD PUSH1 0x40 MSTORE PUSH1 0x40 MLOAD PUSH2 0x1277 SWAP5 SWAP4 SWAP3 SWAP2 SWAP1 PUSH2 0x24EA JUMP JUMPDEST PUSH1 0x20 PUSH1 0x40 MLOAD PUSH1 0x20 DUP2 SUB SWAP1 DUP1 DUP5 SUB SWAP1 DUP6 GAS STATICCALL ISZERO DUP1 ISZERO PUSH2 0x1299 JUMPI RETURNDATASIZE PUSH1 0x0 DUP1 RETURNDATACOPY RETURNDATASIZE PUSH1 0x0 REVERT JUMPDEST POP POP POP PUSH1 0x20 PUSH1 0x40 MLOAD SUB MLOAD SWAP5 POP DUP6 PUSH20 0xFFFFFFFFFFFFFFFFFFFFFFFFFFFFFFFFFFFFFFFF AND DUP6 PUSH20 0xFFFFFFFFFFFFFFFFFFFFFFFFFFFFFFFFFFFFFFFF AND GT DUP1 ISZERO PUSH2 0x12E5 JUMPI POP PUSH2 0x12E4 DUP6 PUSH2 0xCBD JUMP JUMPDEST JUMPDEST PUSH2 0x1324 JUMPI PUSH1 0x40 MLOAD PUSH32 0x8C379A000000000000000000000000000000000000000000000000000000000 DUP2 MSTORE PUSH1 0x4 ADD PUSH2 0x131B SWAP1 PUSH2 0x257B JUMP JUMPDEST PUSH1 0x40 MLOAD DUP1 SWAP2 SUB SWAP1 REVERT JUMPDEST DUP5 SWAP6 POP DUP1 DUP1 PUSH2 0x1332 SWAP1 PUSH2 0x1F74 JUMP JUMPDEST SWAP2 POP POP PUSH2 0x1210 JUMP JUMPDEST POP POP POP POP POP POP POP POP POP JUMP JUMPDEST PUSH2 0x134E DUP2 PUSH2 0xCBD JUMP JUMPDEST PUSH2 0x138D JUMPI PUSH1 0x40 MLOAD PUSH32 0x8C379A000000000000000000000000000000000000000000000000000000000 DUP2 MSTORE PUSH1 0x4 ADD PUSH2 0x1384 SWAP1 PUSH2 0x22A3 JUMP JUMPDEST PUSH1 0x40 MLOAD DUP1 SWAP2 SUB SWAP1 REVERT JUMPDEST PUSH2 0x1482 PUSH1 0x2 PUSH1 0x0 DUP4 PUSH20 0xFFFFFFFFFFFFFFFFFFFFFFFFFFFFFFFFFFFFFFFF AND PUSH20 0xFFFFFFFFFFFFFFFFFFFFFFFFFFFFFFFFFFFFFFFF AND DUP2 MSTORE PUSH1 0x20 ADD SWAP1 DUP2 MSTORE PUSH1 0x20 ADD PUSH1 0x0 KECCAK256 PUSH1 0x0 DUP1 ISZERO ISZERO ISZERO ISZERO DUP2 MSTORE PUSH1 0x20 ADD SWAP1 DUP2 MSTORE PUSH1 0x20 ADD PUSH1 0x0 KECCAK256 PUSH1 0x0 SWAP1 SLOAD SWAP1 PUSH2 0x100 EXP SWAP1 DIV PUSH20 0xFFFFFFFFFFFFFFFFFFFFFFFFFFFFFFFFFFFFFFFF AND PUSH1 0x2 PUSH1 0x0 DUP5 PUSH20 0xFFFFFFFFFFFFFFFFFFFFFFFFFFFFFFFFFFFFFFFF AND PUSH20 0xFFFFFFFFFFFFFFFFFFFFFFFFFFFFFFFFFFFFFFFF AND DUP2 MSTORE PUSH1 0x20 ADD SWAP1 DUP2 MSTORE PUSH1 0x20 ADD PUSH1 0x0 KECCAK256 PUSH1 0x0 PUSH1 0x1 ISZERO ISZERO ISZERO ISZERO DUP2 MSTORE PUSH1 0x20 ADD SWAP1 DUP2 MSTORE PUSH1 0x20 ADD PUSH1 0x0 KECCAK256 PUSH1 0x0 SWAP1 SLOAD SWAP1 PUSH2 0x100 EXP SWAP1 DIV PUSH20 0xFFFFFFFFFFFFFFFFFFFFFFFFFFFFFFFFFFFFFFFF AND PUSH1 0x1 PUSH2 0x164F JUMP JUMPDEST PUSH1 0x2 PUSH1 0x0 DUP3 PUSH20 0xFFFFFFFFFFFFFFFFFFFFFFFFFFFFFFFFFFFFFFFF AND PUSH20 0xFFFFFFFFFFFFFFFFFFFFFFFFFFFFFFFFFFFFFFFF AND DUP2 MSTORE PUSH1 0x20 ADD SWAP1 DUP2 MSTORE PUSH1 0x20 ADD PUSH1 0x0 KECCAK256 PUSH1 0x0 DUP1 ISZERO ISZERO ISZERO ISZERO DUP2 MSTORE PUSH1 0x20 ADD SWAP1 DUP2 MSTORE PUSH1 0x20 ADD PUSH1 0x0 KECCAK256 PUSH1 0x0 PUSH2 0x100 EXP DUP2 SLOAD SWAP1 PUSH20 0xFFFFFFFFFFFFFFFFFFFFFFFFFFFFFFFFFFFFFFFF MUL NOT AND SWAP1 SSTORE PUSH1 0x2 PUSH1 0x0 DUP3 PUSH20 0xFFFFFFFFFFFFFFFFFFFFFFFFFFFFFFFFFFFFFFFF AND PUSH20 0xFFFFFFFFFFFFFFFFFFFFFFFFFFFFFFFFFFFFFFFF AND DUP2 MSTORE PUSH1 0x20 ADD SWAP1 DUP2 MSTORE PUSH1 0x20 ADD PUSH1 0x0 KECCAK256 PUSH1 0x0 PUSH1 0x1 ISZERO ISZERO ISZERO ISZERO DUP2 MSTORE PUSH1 0x20 ADD SWAP1 DUP2 MSTORE PUSH1 0x20 ADD PUSH1 0x0 KECCAK256 PUSH1 0x0 PUSH2 0x100 EXP DUP2 SLOAD SWAP1 PUSH20 0xFFFFFFFFFFFFFFFFFFFFFFFFFFFFFFFFFFFFFFFF MUL NOT AND SWAP1 SSTORE PUSH1 0x0 DUP1 DUP2 SLOAD DUP1 SWAP3 SWAP2 SWAP1 PUSH2 0x1583 SWAP1 PUSH2 0x259B JUMP JUMPDEST SWAP2 SWAP1 POP SSTORE POP POP JUMP JUMPDEST PUSH1 0x0 PUSH1 0x2 PUSH1 0x0 DUP6 PUSH20 0xFFFFFFFFFFFFFFFFFFFFFFFFFFFFFFFFFFFFFFFF AND PUSH20 0xFFFFFFFFFFFFFFFFFFFFFFFFFFFFFFFFFFFFFFFF AND DUP2 MSTORE PUSH1 0x20 ADD SWAP1 DUP2 MSTORE PUSH1 0x20 ADD PUSH1 0x0 KECCAK256 PUSH1 0x0 DUP4 ISZERO ISZERO ISZERO ISZERO DUP2 MSTORE PUSH1 0x20 ADD SWAP1 DUP2 MSTORE PUSH1 0x20 ADD PUSH1 0x0 KECCAK256 PUSH1 0x0 SWAP1 SLOAD SWAP1 PUSH2 0x100 EXP SWAP1 DIV PUSH20 0xFFFFFFFFFFFFFFFFFFFFFFFFFFFFFFFFFFFFFFFF AND SWAP1 POP PUSH2 0x160F DUP5 DUP5 DUP5 PUSH2 0x164F JUMP JUMPDEST PUSH2 0x161A DUP4 DUP3 DUP5 PUSH2 0x164F JUMP JUMPDEST POP POP POP POP JUMP JUMPDEST PUSH1 0x0 DUP1 PUSH1 0x0 DUP4 PUSH1 0x41 MUL PUSH1 0x20 DUP2 ADD DUP7 ADD MLOAD SWAP3 POP PUSH1 0x40 DUP2 ADD DUP7 ADD MLOAD SWAP2 POP PUSH1 0x60 DUP2 ADD DUP7 ADD MLOAD PUSH1 0x0 BYTE SWAP4 POP POP SWAP3 POP SWAP3 POP SWAP3 JUMP JUMPDEST DUP3 PUSH1 0x2 PUSH1 0x0 DUP5 PUSH20 0xFFFFFFFFFFFFFFFFFFFFFFFFFFFFFFFFFFFFFFFF AND PUSH20 0xFFFFFFFFFFFFFFFFFFFFFFFFFFFFFFFFFFFFFFFF AND DUP2 MSTORE PUSH1 0x20 ADD SWAP1 DUP2 MSTORE PUSH1 0x20 ADD PUSH1 0x0 KECCAK256 PUSH1 0x0 DUP4 ISZERO ISZERO ISZERO ISZERO ISZERO DUP2 MSTORE PUSH1 0x20 ADD SWAP1 DUP2 MSTORE PUSH1 0x20 ADD PUSH1 0x0 KECCAK256 PUSH1 0x0 PUSH2 0x100 EXP DUP2 SLOAD DUP2 PUSH20 0xFFFFFFFFFFFFFFFFFFFFFFFFFFFFFFFFFFFFFFFF MUL NOT AND SWAP1 DUP4 PUSH20 0xFFFFFFFFFFFFFFFFFFFFFFFFFFFFFFFFFFFFFFFF AND MUL OR SWAP1 SSTORE POP DUP2 PUSH1 0x2 PUSH1 0x0 DUP6 PUSH20 0xFFFFFFFFFFFFFFFFFFFFFFFFFFFFFFFFFFFFFFFF AND PUSH20 0xFFFFFFFFFFFFFFFFFFFFFFFFFFFFFFFFFFFFFFFF AND DUP2 MSTORE PUSH1 0x20 ADD SWAP1 DUP2 MSTORE PUSH1 0x20 ADD PUSH1 0x0 KECCAK256 PUSH1 0x0 DUP4 ISZERO ISZERO ISZERO ISZERO DUP2 MSTORE PUSH1 0x20 ADD SWAP1 DUP2 MSTORE PUSH1 0x20 ADD PUSH1 0x0 KECCAK256 PUSH1 0x0 PUSH2 0x100 EXP DUP2 SLOAD DUP2 PUSH20 0xFFFFFFFFFFFFFFFFFFFFFFFFFFFFFFFFFFFFFFFF MUL NOT AND SWAP1 DUP4 PUSH20 0xFFFFFFFFFFFFFFFFFFFFFFFFFFFFFFFFFFFFFFFF AND MUL OR SWAP1 SSTORE POP POP POP POP JUMP JUMPDEST PUSH1 0x0 DUP2 SWAP1 POP SWAP2 SWAP1 POP JUMP JUMPDEST PUSH2 0x178E DUP2 PUSH2 0x177B JUMP JUMPDEST DUP3 MSTORE POP POP JUMP JUMPDEST PUSH1 0x0 PUSH1 0x20 DUP3 ADD SWAP1 POP PUSH2 0x17A9 PUSH1 0x0 DUP4 ADD DUP5 PUSH2 0x1785 JUMP JUMPDEST SWAP3 SWAP2 POP POP JUMP JUMPDEST PUSH1 0x0 DUP3 DUP3 MSTORE PUSH1 0x20 DUP3 ADD SWAP1 POP SWAP3 SWAP2 POP POP JUMP JUMPDEST DUP3 DUP2 DUP4 CALLDATACOPY PUSH1 0x0 DUP4 DUP4 ADD MSTORE POP POP POP JUMP JUMPDEST PUSH1 0x0 PUSH1 0x1F NOT PUSH1 0x1F DUP4 ADD AND SWAP1 POP SWAP2 SWAP1 POP JUMP JUMPDEST PUSH1 0x0 PUSH2 0x17EC DUP4 DUP6 PUSH2 0x17AF JUMP JUMPDEST SWAP4 POP PUSH2 0x17F9 DUP4 DUP6 DUP5 PUSH2 0x17C0 JUMP JUMPDEST PUSH2 0x1802 DUP4 PUSH2 0x17CF JUMP JUMPDEST DUP5 ADD SWAP1 POP SWAP4 SWAP3 POP POP POP JUMP JUMPDEST PUSH1 0x0 PUSH1 0x40 DUP3 ADD SWAP1 POP PUSH2 0x1822 PUSH1 0x0 DUP4 ADD DUP7 PUSH2 0x1785 JUMP JUMPDEST DUP2 DUP2 SUB PUSH1 0x20 DUP4 ADD MSTORE PUSH2 0x1835 DUP2 DUP5 DUP7 PUSH2 0x17E0 JUMP JUMPDEST SWAP1 POP SWAP5 SWAP4 POP POP POP POP JUMP JUMPDEST PUSH1 0x0 DUP2 MLOAD SWAP1 POP SWAP2 SWAP1 POP JUMP JUMPDEST PUSH1 0x0 DUP3 DUP3 MSTORE PUSH1 0x20 DUP3 ADD SWAP1 POP SWAP3 SWAP2 POP POP JUMP JUMPDEST PUSH1 0x0 DUP2 SWAP1 POP PUSH1 0x20 DUP3 ADD SWAP1 POP SWAP2 SWAP1 POP JUMP JUMPDEST PUSH1 0x0 PUSH20 0xFFFFFFFFFFFFFFFFFFFFFFFFFFFFFFFFFFFFFFFF DUP3 AND SWAP1 POP SWAP2 SWAP1 POP JUMP JUMPDEST PUSH1 0x0 PUSH2 0x1896 DUP3 PUSH2 0x186B JUMP JUMPDEST SWAP1 POP SWAP2 SWAP1 POP JUMP JUMPDEST PUSH2 0x18A6 DUP2 PUSH2 0x188B JUMP JUMPDEST DUP3 MSTORE POP POP JUMP JUMPDEST PUSH1 0x0 PUSH2 0x18B8 DUP4 DUP4 PUSH2 0x189D JUMP JUMPDEST PUSH1 0x20 DUP4 ADD SWAP1 POP SWAP3 SWAP2 POP POP JUMP JUMPDEST PUSH1 0x0 PUSH1 0x20 DUP3 ADD SWAP1 POP SWAP2 SWAP1 POP JUMP JUMPDEST PUSH1 0x0 PUSH2 0x18DC DUP3 PUSH2 0x183F JUMP JUMPDEST PUSH2 0x18E6 DUP2 DUP6 PUSH2 0x184A JUMP JUMPDEST SWAP4 POP PUSH2 0x18F1 DUP4 PUSH2 0x185B JUMP JUMPDEST DUP1 PUSH1 0x0 JUMPDEST DUP4 DUP2 LT ISZERO PUSH2 0x1922 JUMPI DUP2 MLOAD PUSH2 0x1909 DUP9 DUP3 PUSH2 0x18AC JUMP JUMPDEST SWAP8 POP PUSH2 0x1914 DUP4 PUSH2 0x18C4 JUMP JUMPDEST SWAP3 POP POP PUSH1 0x1 DUP2 ADD SWAP1 POP PUSH2 0x18F5 JUMP JUMPDEST POP DUP6 SWAP4 POP POP POP POP SWAP3 SWAP2 POP POP JUMP JUMPDEST PUSH1 0x0 PUSH1 0x20 DUP3 ADD SWAP1 POP DUP2 DUP2 SUB PUSH1 0x0 DUP4 ADD MSTORE PUSH2 0x1949 DUP2 DUP5 PUSH2 0x18D1 JUMP JUMPDEST SWAP1 POP SWAP3 SWAP2 POP POP JUMP JUMPDEST PUSH1 0x0 PUSH1 0x40 MLOAD SWAP1 POP SWAP1 JUMP JUMPDEST PUSH1 0x0 DUP1 REVERT JUMPDEST PUSH1 0x0 DUP1 REVERT JUMPDEST PUSH2 0x196E DUP2 PUSH2 0x188B JUMP JUMPDEST DUP2 EQ PUSH2 0x1979 JUMPI PUSH1 0x0 DUP1 REVERT JUMPDEST POP JUMP JUMPDEST PUSH1 0x0 DUP2 CALLDATALOAD SWAP1 POP PUSH2 0x198B DUP2 PUSH2 0x1965 JUMP JUMPDEST SWAP3 SWAP2 POP POP JUMP JUMPDEST PUSH2 0x199A DUP2 PUSH2 0x177B JUMP JUMPDEST DUP2 EQ PUSH2 0x19A5 JUMPI PUSH1 0x0 DUP1 REVERT JUMPDEST POP JUMP JUMPDEST PUSH1 0x0 DUP2 CALLDATALOAD SWAP1 POP PUSH2 0x19B7 DUP2 PUSH2 0x1991 JUMP JUMPDEST SWAP3 SWAP2 POP POP JUMP JUMPDEST PUSH1 0x0 DUP1 PUSH1 0x40 DUP4 DUP6 SUB SLT ISZERO PUSH2 0x19D4 JUMPI PUSH2 0x19D3 PUSH2 0x195B JUMP JUMPDEST JUMPDEST PUSH1 0x0 PUSH2 0x19E2 DUP6 DUP3 DUP7 ADD PUSH2 0x197C JUMP JUMPDEST SWAP3 POP POP PUSH1 0x20 PUSH2 0x19F3 DUP6 DUP3 DUP7 ADD PUSH2 0x19A8 JUMP JUMPDEST SWAP2 POP POP SWAP3 POP SWAP3 SWAP1 POP JUMP JUMPDEST PUSH1 0x0 DUP1 REVERT JUMPDEST PUSH1 0x0 DUP1 REVERT JUMPDEST PUSH1 0x0 DUP1 REVERT JUMPDEST PUSH1 0x0 DUP1 DUP4 PUSH1 0x1F DUP5 ADD SLT PUSH2 0x1A22 JUMPI PUSH2 0x1A21 PUSH2 0x19FD JUMP JUMPDEST JUMPDEST DUP3 CALLDATALOAD SWAP1 POP PUSH8 0xFFFFFFFFFFFFFFFF DUP2 GT ISZERO PUSH2 0x1A3F JUMPI PUSH2 0x1A3E PUSH2 0x1A02 JUMP JUMPDEST JUMPDEST PUSH1 0x20 DUP4 ADD SWAP2 POP DUP4 PUSH1 0x1 DUP3 MUL DUP4 ADD GT ISZERO PUSH2 0x1A5B JUMPI PUSH2 0x1A5A PUSH2 0x1A07 JUMP JUMPDEST JUMPDEST SWAP3 POP SWAP3 SWAP1 POP JUMP JUMPDEST PUSH1 0x0 DUP1 REVERT JUMPDEST PUSH32 0x4E487B7100000000000000000000000000000000000000000000000000000000 PUSH1 0x0 MSTORE PUSH1 0x41 PUSH1 0x4 MSTORE PUSH1 0x24 PUSH1 0x0 REVERT JUMPDEST PUSH2 0x1A9F DUP3 PUSH2 0x17CF JUMP JUMPDEST DUP2 ADD DUP2 DUP2 LT PUSH8 0xFFFFFFFFFFFFFFFF DUP3 GT OR ISZERO PUSH2 0x1ABE JUMPI PUSH2 0x1ABD PUSH2 0x1A67 JUMP JUMPDEST JUMPDEST DUP1 PUSH1 0x40 MSTORE POP POP POP JUMP JUMPDEST PUSH1 0x0 PUSH2 0x1AD1 PUSH2 0x1951 JUMP JUMPDEST SWAP1 POP PUSH2 0x1ADD DUP3 DUP3 PUSH2 0x1A96 JUMP JUMPDEST SWAP2 SWAP1 POP JUMP JUMPDEST PUSH1 0x0 PUSH8 0xFFFFFFFFFFFFFFFF DUP3 GT ISZERO PUSH2 0x1AFD JUMPI PUSH2 0x1AFC PUSH2 0x1A67 JUMP JUMPDEST JUMPDEST PUSH2 0x1B06 DUP3 PUSH2 0x17CF JUMP JUMPDEST SWAP1 POP PUSH1 0x20 DUP2 ADD SWAP1 POP SWAP2 SWAP1 POP JUMP JUMPDEST PUSH1 0x0 PUSH2 0x1B26 PUSH2 0x1B21 DUP5 PUSH2 0x1AE2 JUMP JUMPDEST PUSH2 0x1AC7 JUMP JUMPDEST SWAP1 POP DUP3 DUP2 MSTORE PUSH1 0x20 DUP2 ADD DUP5 DUP5 DUP5 ADD GT ISZERO PUSH2 0x1B42 JUMPI PUSH2 0x1B41 PUSH2 0x1A62 JUMP JUMPDEST JUMPDEST PUSH2 0x1B4D DUP5 DUP3 DUP6 PUSH2 0x17C0 JUMP JUMPDEST POP SWAP4 SWAP3 POP POP POP JUMP JUMPDEST PUSH1 0x0 DUP3 PUSH1 0x1F DUP4 ADD SLT PUSH2 0x1B6A JUMPI PUSH2 0x1B69 PUSH2 0x19FD JUMP JUMPDEST JUMPDEST DUP2 CALLDATALOAD PUSH2 0x1B7A DUP5 DUP3 PUSH1 0x20 DUP7 ADD PUSH2 0x1B13 JUMP JUMPDEST SWAP2 POP POP SWAP3 SWAP2 POP POP JUMP JUMPDEST PUSH1 0x0 DUP1 PUSH1 0x0 DUP1 PUSH1 0x0 PUSH1 0x80 DUP7 DUP9 SUB SLT ISZERO PUSH2 0x1B9F JUMPI PUSH2 0x1B9E PUSH2 0x195B JUMP JUMPDEST JUMPDEST PUSH1 0x0 PUSH2 0x1BAD DUP9 DUP3 DUP10 ADD PUSH2 0x197C JUMP JUMPDEST SWAP6 POP POP PUSH1 0x20 PUSH2 0x1BBE DUP9 DUP3 DUP10 ADD PUSH2 0x19A8 JUMP JUMPDEST SWAP5 POP POP PUSH1 0x40 DUP7 ADD CALLDATALOAD PUSH8 0xFFFFFFFFFFFFFFFF DUP2 GT ISZERO PUSH2 0x1BDF JUMPI PUSH2 0x1BDE PUSH2 0x1960 JUMP JUMPDEST JUMPDEST PUSH2 0x1BEB DUP9 DUP3 DUP10 ADD PUSH2 0x1A0C JUMP JUMPDEST SWAP4 POP SWAP4 POP POP PUSH1 0x60 DUP7 ADD CALLDATALOAD PUSH8 0xFFFFFFFFFFFFFFFF DUP2 GT ISZERO PUSH2 0x1C0E JUMPI PUSH2 0x1C0D PUSH2 0x1960 JUMP JUMPDEST JUMPDEST PUSH2 0x1C1A DUP9 DUP3 DUP10 ADD PUSH2 0x1B55 JUMP JUMPDEST SWAP2 POP POP SWAP3 SWAP6 POP SWAP3 SWAP6 SWAP1 SWAP4 POP JUMP JUMPDEST PUSH1 0x0 DUP2 ISZERO ISZERO SWAP1 POP SWAP2 SWAP1 POP JUMP JUMPDEST PUSH2 0x1C3C DUP2 PUSH2 0x1C27 JUMP JUMPDEST DUP3 MSTORE POP POP JUMP JUMPDEST PUSH1 0x0 PUSH1 0x20 DUP3 ADD SWAP1 POP PUSH2 0x1C57 PUSH1 0x0 DUP4 ADD DUP5 PUSH2 0x1C33 JUMP JUMPDEST SWAP3 SWAP2 POP POP JUMP JUMPDEST PUSH2 0x1C66 DUP2 PUSH2 0x1C27 JUMP JUMPDEST DUP2 EQ PUSH2 0x1C71 JUMPI PUSH1 0x0 DUP1 REVERT JUMPDEST POP JUMP JUMPDEST PUSH1 0x0 DUP2 CALLDATALOAD SWAP1 POP PUSH2 0x1C83 DUP2 PUSH2 0x1C5D JUMP JUMPDEST SWAP3 SWAP2 POP POP JUMP JUMPDEST PUSH1 0x0 DUP1 PUSH1 0x40 DUP4 DUP6 SUB SLT ISZERO PUSH2 0x1CA0 JUMPI PUSH2 0x1C9F PUSH2 0x195B JUMP JUMPDEST JUMPDEST PUSH1 0x0 PUSH2 0x1CAE DUP6 DUP3 DUP7 ADD PUSH2 0x197C JUMP JUMPDEST SWAP3 POP POP PUSH1 0x20 PUSH2 0x1CBF DUP6 DUP3 DUP7 ADD PUSH2 0x1C74 JUMP JUMPDEST SWAP2 POP POP SWAP3 POP SWAP3 SWAP1 POP JUMP JUMPDEST PUSH2 0x1CD2 DUP2 PUSH2 0x188B JUMP JUMPDEST DUP3 MSTORE POP POP JUMP JUMPDEST PUSH1 0x0 PUSH1 0x40 DUP3 ADD SWAP1 POP PUSH2 0x1CED PUSH1 0x0 DUP4 ADD DUP6 PUSH2 0x1C33 JUMP JUMPDEST PUSH2 0x1CFA PUSH1 0x20 DUP4 ADD DUP5 PUSH2 0x1CC9 JUMP JUMPDEST SWAP4 SWAP3 POP POP POP JUMP JUMPDEST PUSH1 0x0 DUP2 MLOAD SWAP1 POP SWAP2 SWAP1 POP JUMP JUMPDEST PUSH1 0x0 JUMPDEST DUP4 DUP2 LT ISZERO PUSH2 0x1D2A JUMPI DUP1 DUP3 ADD MLOAD DUP2 DUP5 ADD MSTORE PUSH1 0x20 DUP2 ADD SWAP1 POP PUSH2 0x1D0F JUMP JUMPDEST PUSH1 0x0 DUP5 DUP5 ADD MSTORE POP POP POP POP JUMP JUMPDEST PUSH1 0x0 PUSH2 0x1D41 DUP3 PUSH2 0x1D01 JUMP JUMPDEST PUSH2 0x1D4B DUP2 DUP6 PUSH2 0x17AF JUMP JUMPDEST SWAP4 POP PUSH2 0x1D5B DUP2 DUP6 PUSH1 0x20 DUP7 ADD PUSH2 0x1D0C JUMP JUMPDEST PUSH2 0x1D64 DUP2 PUSH2 0x17CF JUMP JUMPDEST DUP5 ADD SWAP2 POP POP SWAP3 SWAP2 POP POP JUMP JUMPDEST PUSH1 0x0 PUSH1 0x20 DUP3 ADD SWAP1 POP DUP2 DUP2 SUB PUSH1 0x0 DUP4 ADD MSTORE PUSH2 0x1D89 DUP2 DUP5 PUSH2 0x1D36 JUMP JUMPDEST SWAP1 POP SWAP3 SWAP2 POP POP JUMP JUMPDEST PUSH1 0x0 PUSH1 0x20 DUP3 DUP5 SUB SLT ISZERO PUSH2 0x1DA7 JUMPI PUSH2 0x1DA6 PUSH2 0x195B JUMP JUMPDEST JUMPDEST PUSH1 0x0 PUSH2 0x1DB5 DUP5 DUP3 DUP6 ADD PUSH2 0x19A8 JUMP JUMPDEST SWAP2 POP POP SWAP3 SWAP2 POP POP JUMP JUMPDEST PUSH1 0x0 DUP2 SWAP1 POP SWAP2 SWAP1 POP JUMP JUMPDEST PUSH2 0x1DD1 DUP2 PUSH2 0x1DBE JUMP JUMPDEST DUP2 EQ PUSH2 0x1DDC JUMPI PUSH1 0x0 DUP1 REVERT JUMPDEST POP JUMP JUMPDEST PUSH1 0x0 DUP2 CALLDATALOAD SWAP1 POP PUSH2 0x1DEE DUP2 PUSH2 0x1DC8 JUMP JUMPDEST SWAP3 SWAP2 POP POP JUMP JUMPDEST PUSH1 0x0 DUP1 PUSH1 0x40 DUP4 DUP6 SUB SLT ISZERO PUSH2 0x1E0B JUMPI PUSH2 0x1E0A PUSH2 0x195B JUMP JUMPDEST JUMPDEST PUSH1 0x0 PUSH2 0x1E19 DUP6 DUP3 DUP7 ADD PUSH2 0x1DDF JUMP JUMPDEST SWAP3 POP POP PUSH1 0x20 DUP4 ADD CALLDATALOAD PUSH8 0xFFFFFFFFFFFFFFFF DUP2 GT ISZERO PUSH2 0x1E3A JUMPI PUSH2 0x1E39 PUSH2 0x1960 JUMP JUMPDEST JUMPDEST PUSH2 0x1E46 DUP6 DUP3 DUP7 ADD PUSH2 0x1B55 JUMP JUMPDEST SWAP2 POP POP SWAP3 POP SWAP3 SWAP1 POP JUMP JUMPDEST PUSH1 0x0 DUP1 PUSH1 0x0 PUSH1 0x60 DUP5 DUP7 SUB SLT ISZERO PUSH2 0x1E69 JUMPI PUSH2 0x1E68 PUSH2 0x195B JUMP JUMPDEST JUMPDEST PUSH1 0x0 PUSH2 0x1E77 DUP7 DUP3 DUP8 ADD PUSH2 0x197C JUMP JUMPDEST SWAP4 POP POP PUSH1 0x20 PUSH2 0x1E88 DUP7 DUP3 DUP8 ADD PUSH2 0x19A8 JUMP JUMPDEST SWAP3 POP POP PUSH1 0x40 DUP5 ADD CALLDATALOAD PUSH8 0xFFFFFFFFFFFFFFFF DUP2 GT ISZERO PUSH2 0x1EA9 JUMPI PUSH2 0x1EA8 PUSH2 0x1960 JUMP JUMPDEST JUMPDEST PUSH2 0x1EB5 DUP7 DUP3 DUP8 ADD PUSH2 0x1B55 JUMP JUMPDEST SWAP2 POP POP SWAP3 POP SWAP3 POP SWAP3 JUMP JUMPDEST PUSH2 0x1EC8 DUP2 PUSH2 0x1DBE JUMP JUMPDEST DUP3 MSTORE POP POP JUMP JUMPDEST PUSH1 0x0 PUSH1 0x20 DUP3 ADD SWAP1 POP PUSH2 0x1EE3 PUSH1 0x0 DUP4 ADD DUP5 PUSH2 0x1EBF JUMP JUMPDEST SWAP3 SWAP2 POP POP JUMP JUMPDEST PUSH1 0x0 PUSH1 0x20 DUP3 DUP5 SUB SLT ISZERO PUSH2 0x1EFF JUMPI PUSH2 0x1EFE PUSH2 0x195B JUMP JUMPDEST JUMPDEST PUSH1 0x0 PUSH2 0x1F0D DUP5 DUP3 DUP6 ADD PUSH2 0x197C JUMP JUMPDEST SWAP2 POP POP SWAP3 SWAP2 POP POP JUMP JUMPDEST PUSH32 0x4E487B7100000000000000000000000000000000000000000000000000000000 PUSH1 0x0 MSTORE PUSH1 0x32 PUSH1 0x4 MSTORE PUSH1 0x24 PUSH1 0x0 REVERT JUMPDEST PUSH32 0x4E487B7100000000000000000000000000000000000000000000000000000000 PUSH1 0x0 MSTORE PUSH1 0x11 PUSH1 0x4 MSTORE PUSH1 0x24 PUSH1 0x0 REVERT JUMPDEST PUSH1 0x0 PUSH2 0x1F7F DUP3 PUSH2 0x177B JUMP JUMPDEST SWAP2 POP PUSH32 0xFFFFFFFFFFFFFFFFFFFFFFFFFFFFFFFFFFFFFFFFFFFFFFFFFFFFFFFFFFFFFFFF DUP3 SUB PUSH2 0x1FB1 JUMPI PUSH2 0x1FB0 PUSH2 0x1F45 JUMP JUMPDEST JUMPDEST PUSH1 0x1 DUP3 ADD SWAP1 POP SWAP2 SWAP1 POP JUMP JUMPDEST PUSH1 0x0 PUSH2 0x1FC7 DUP3 PUSH2 0x177B JUMP JUMPDEST SWAP2 POP PUSH2 0x1FD2 DUP4 PUSH2 0x177B JUMP JUMPDEST SWAP3 POP DUP3 DUP3 ADD SWAP1 POP DUP1 DUP3 GT ISZERO PUSH2 0x1FEA JUMPI PUSH2 0x1FE9 PUSH2 0x1F45 JUMP JUMPDEST JUMPDEST SWAP3 SWAP2 POP POP JUMP JUMPDEST PUSH1 0x0 DUP3 DUP3 MSTORE PUSH1 0x20 DUP3 ADD SWAP1 POP SWAP3 SWAP2 POP POP JUMP JUMPDEST PUSH32 0x6572726F72303400000000000000000000000000000000000000000000000000 PUSH1 0x0 DUP3 ADD MSTORE POP JUMP JUMPDEST PUSH1 0x0 PUSH2 0x2037 PUSH1 0x7 DUP4 PUSH2 0x1FF0 JUMP JUMPDEST SWAP2 POP PUSH2 0x2042 DUP3 PUSH2 0x2001 JUMP JUMPDEST PUSH1 0x20 DUP3 ADD SWAP1 POP SWAP2 SWAP1 POP JUMP JUMPDEST PUSH1 0x0 PUSH1 0x20 DUP3 ADD SWAP1 POP DUP2 DUP2 SUB PUSH1 0x0 DUP4 ADD MSTORE PUSH2 0x2066 DUP2 PUSH2 0x202A JUMP JUMPDEST SWAP1 POP SWAP2 SWAP1 POP JUMP JUMPDEST PUSH1 0x0 DUP2 SWAP1 POP SWAP3 SWAP2 POP POP JUMP JUMPDEST PUSH1 0x0 PUSH2 0x2084 DUP4 DUP6 PUSH2 0x206D JUMP JUMPDEST SWAP4 POP PUSH2 0x2091 DUP4 DUP6 DUP5 PUSH2 0x17C0 JUMP JUMPDEST DUP3 DUP5 ADD SWAP1 POP SWAP4 SWAP3 POP POP POP JUMP JUMPDEST PUSH1 0x0 PUSH2 0x20AA DUP3 DUP5 DUP7 PUSH2 0x2078 JUMP JUMPDEST SWAP2 POP DUP2 SWAP1 POP SWAP4 SWAP3 POP POP POP JUMP JUMPDEST PUSH1 0x0 PUSH1 0x40 DUP3 ADD SWAP1 POP PUSH2 0x20CB PUSH1 0x0 DUP4 ADD DUP6 PUSH2 0x1CC9 JUMP JUMPDEST PUSH2 0x20D8 PUSH1 0x20 DUP4 ADD DUP5 PUSH2 0x1785 JUMP JUMPDEST SWAP4 SWAP3 POP POP POP JUMP JUMPDEST PUSH32 0x6572726F72303200000000000000000000000000000000000000000000000000 PUSH1 0x0 DUP3 ADD MSTORE POP JUMP JUMPDEST PUSH1 0x0 PUSH2 0x2115 PUSH1 0x7 DUP4 PUSH2 0x1FF0 JUMP JUMPDEST SWAP2 POP PUSH2 0x2120 DUP3 PUSH2 0x20DF JUMP JUMPDEST PUSH1 0x20 DUP3 ADD SWAP1 POP SWAP2 SWAP1 POP JUMP JUMPDEST PUSH1 0x0 PUSH1 0x20 DUP3 ADD SWAP1 POP DUP2 DUP2 SUB PUSH1 0x0 DUP4 ADD MSTORE PUSH2 0x2144 DUP2 PUSH2 0x2108 JUMP JUMPDEST SWAP1 POP SWAP2 SWAP1 POP JUMP JUMPDEST PUSH32 0x6572726F72303300000000000000000000000000000000000000000000000000 PUSH1 0x0 DUP3 ADD MSTORE POP JUMP JUMPDEST PUSH1 0x0 PUSH2 0x2181 PUSH1 0x7 DUP4 PUSH2 0x1FF0 JUMP JUMPDEST SWAP2 POP PUSH2 0x218C DUP3 PUSH2 0x214B JUMP JUMPDEST PUSH1 0x20 DUP3 ADD SWAP1 POP SWAP2 SWAP1 POP JUMP JUMPDEST PUSH1 0x0 PUSH1 0x20 DUP3 ADD SWAP1 POP DUP2 DUP2 SUB PUSH1 0x0 DUP4 ADD MSTORE PUSH2 0x21B0 DUP2 PUSH2 0x2174 JUMP JUMPDEST SWAP1 POP SWAP2 SWAP1 POP JUMP JUMPDEST PUSH32 0x6572726F72303500000000000000000000000000000000000000000000000000 PUSH1 0x0 DUP3 ADD MSTORE POP JUMP JUMPDEST PUSH1 0x0 PUSH2 0x21ED PUSH1 0x7 DUP4 PUSH2 0x1FF0 JUMP JUMPDEST SWAP2 POP PUSH2 0x21F8 DUP3 PUSH2 0x21B7 JUMP JUMPDEST PUSH1 0x20 DUP3 ADD SWAP1 POP SWAP2 SWAP1 POP JUMP JUMPDEST PUSH1 0x0 PUSH1 0x20 DUP3 ADD SWAP1 POP DUP2 DUP2 SUB PUSH1 0x0 DUP4 ADD MSTORE PUSH2 0x221C DUP2 PUSH2 0x21E0 JUMP JUMPDEST SWAP1 POP SWAP2 SWAP1 POP JUMP JUMPDEST PUSH1 0x0 PUSH2 0x222E DUP3 PUSH2 0x177B JUMP JUMPDEST SWAP2 POP PUSH2 0x2239 DUP4 PUSH2 0x177B JUMP JUMPDEST SWAP3 POP DUP3 DUP3 SUB SWAP1 POP DUP2 DUP2 GT ISZERO PUSH2 0x2251 JUMPI PUSH2 0x2250 PUSH2 0x1F45 JUMP JUMPDEST JUMPDEST SWAP3 SWAP2 POP POP JUMP JUMPDEST PUSH32 0x6572726F72303700000000000000000000000000000000000000000000000000 PUSH1 0x0 DUP3 ADD MSTORE POP JUMP JUMPDEST PUSH1 0x0 PUSH2 0x228D PUSH1 0x7 DUP4 PUSH2 0x1FF0 JUMP JUMPDEST SWAP2 POP PUSH2 0x2298 DUP3 PUSH2 0x2257 JUMP JUMPDEST PUSH1 0x20 DUP3 ADD SWAP1 POP SWAP2 SWAP1 POP JUMP JUMPDEST PUSH1 0x0 PUSH1 0x20 DUP3 ADD SWAP1 POP DUP2 DUP2 SUB PUSH1 0x0 DUP4 ADD MSTORE PUSH2 0x22BC DUP2 PUSH2 0x2280 JUMP JUMPDEST SWAP1 POP SWAP2 SWAP1 POP JUMP JUMPDEST PUSH32 0x4E6F7420617574686F72697A6564000000000000000000000000000000000000 PUSH1 0x0 DUP3 ADD MSTORE POP JUMP JUMPDEST PUSH1 0x0 PUSH2 0x22F9 PUSH1 0xE DUP4 PUSH2 0x1FF0 JUMP JUMPDEST SWAP2 POP PUSH2 0x2304 DUP3 PUSH2 0x22C3 JUMP JUMPDEST PUSH1 0x20 DUP3 ADD SWAP1 POP SWAP2 SWAP1 POP JUMP JUMPDEST PUSH1 0x0 PUSH1 0x20 DUP3 ADD SWAP1 POP DUP2 DUP2 SUB PUSH1 0x0 DUP4 ADD MSTORE PUSH2 0x2328 DUP2 PUSH2 0x22EC JUMP JUMPDEST SWAP1 POP SWAP2 SWAP1 POP JUMP JUMPDEST PUSH1 0x0 PUSH1 0xA0 DUP3 ADD SWAP1 POP PUSH2 0x2344 PUSH1 0x0 DUP4 ADD DUP9 PUSH2 0x1CC9 JUMP JUMPDEST PUSH2 0x2351 PUSH1 0x20 DUP4 ADD DUP8 PUSH2 0x1785 JUMP JUMPDEST PUSH2 0x235E PUSH1 0x40 DUP4 ADD DUP7 PUSH2 0x1EBF JUMP JUMPDEST PUSH2 0x236B PUSH1 0x60 DUP4 ADD DUP6 PUSH2 0x1785 JUMP JUMPDEST PUSH2 0x2378 PUSH1 0x80 DUP4 ADD DUP5 PUSH2 0x1785 JUMP JUMPDEST SWAP7 SWAP6 POP POP POP POP POP POP JUMP JUMPDEST PUSH1 0x0 PUSH2 0x238D DUP3 PUSH2 0x177B JUMP JUMPDEST SWAP2 POP PUSH2 0x2398 DUP4 PUSH2 0x177B JUMP JUMPDEST SWAP3 POP DUP3 DUP3 MUL PUSH2 0x23A6 DUP2 PUSH2 0x177B JUMP JUMPDEST SWAP2 POP DUP3 DUP3 DIV DUP5 EQ DUP4 ISZERO OR PUSH2 0x23BD JUMPI PUSH2 0x23BC PUSH2 0x1F45 JUMP JUMPDEST JUMPDEST POP SWAP3 SWAP2 POP POP JUMP JUMPDEST PUSH32 0x5369676E61747572657320746F6F2073686F7274000000000000000000000000 PUSH1 0x0 DUP3 ADD MSTORE POP JUMP JUMPDEST PUSH1 0x0 PUSH2 0x23FA PUSH1 0x14 DUP4 PUSH2 0x1FF0 JUMP JUMPDEST SWAP2 POP PUSH2 0x2405 DUP3 PUSH2 0x23C4 JUMP JUMPDEST PUSH1 0x20 DUP3 ADD SWAP1 POP SWAP2 SWAP1 POP JUMP JUMPDEST PUSH1 0x0 PUSH1 0x20 DUP3 ADD SWAP1 POP DUP2 DUP2 SUB PUSH1 0x0 DUP4 ADD MSTORE PUSH2 0x2429 DUP2 PUSH2 0x23ED JUMP JUMPDEST SWAP1 POP SWAP2 SWAP1 POP JUMP JUMPDEST PUSH1 0x0 DUP2 SWAP1 POP SWAP3 SWAP2 POP POP JUMP JUMPDEST PUSH32 0x19457468657265756D205369676E6564204D6573736167653A0A333200000000 PUSH1 0x0 DUP3 ADD MSTORE POP JUMP JUMPDEST PUSH1 0x0 PUSH2 0x2471 PUSH1 0x1C DUP4 PUSH2 0x2430 JUMP JUMPDEST SWAP2 POP PUSH2 0x247C DUP3 PUSH2 0x243B JUMP JUMPDEST PUSH1 0x1C DUP3 ADD SWAP1 POP SWAP2 SWAP1 POP JUMP JUMPDEST PUSH1 0x0 DUP2 SWAP1 POP SWAP2 SWAP1 POP JUMP JUMPDEST PUSH2 0x24A2 PUSH2 0x249D DUP3 PUSH2 0x1DBE JUMP JUMPDEST PUSH2 0x2487 JUMP JUMPDEST DUP3 MSTORE POP POP JUMP JUMPDEST PUSH1 0x0 PUSH2 0x24B3 DUP3 PUSH2 0x2464 JUMP JUMPDEST SWAP2 POP PUSH2 0x24BF DUP3 DUP5 PUSH2 0x2491 JUMP JUMPDEST PUSH1 0x20 DUP3 ADD SWAP2 POP DUP2 SWAP1 POP SWAP3 SWAP2 POP POP JUMP JUMPDEST PUSH1 0x0 PUSH1 0xFF DUP3 AND SWAP1 POP SWAP2 SWAP1 POP JUMP JUMPDEST PUSH2 0x24E4 DUP2 PUSH2 0x24CE JUMP JUMPDEST DUP3 MSTORE POP POP JUMP JUMPDEST PUSH1 0x0 PUSH1 0x80 DUP3 ADD SWAP1 POP PUSH2 0x24FF PUSH1 0x0 DUP4 ADD DUP8 PUSH2 0x1EBF JUMP JUMPDEST PUSH2 0x250C PUSH1 0x20 DUP4 ADD DUP7 PUSH2 0x24DB JUMP JUMPDEST PUSH2 0x2519 PUSH1 0x40 DUP4 ADD DUP6 PUSH2 0x1EBF JUMP JUMPDEST PUSH2 0x2526 PUSH1 0x60 DUP4 ADD DUP5 PUSH2 0x1EBF JUMP JUMPDEST SWAP6 SWAP5 POP POP POP POP POP JUMP JUMPDEST PUSH32 0x6572726F72303600000000000000000000000000000000000000000000000000 PUSH1 0x0 DUP3 ADD MSTORE POP JUMP JUMPDEST PUSH1 0x0 PUSH2 0x2565 PUSH1 0x7 DUP4 PUSH2 0x1FF0 JUMP JUMPDEST SWAP2 POP PUSH2 0x2570 DUP3 PUSH2 0x252F JUMP JUMPDEST PUSH1 0x20 DUP3 ADD SWAP1 POP SWAP2 SWAP1 POP JUMP JUMPDEST PUSH1 0x0 PUSH1 0x20 DUP3 ADD SWAP1 POP DUP2 DUP2 SUB PUSH1 0x0 DUP4 ADD MSTORE PUSH2 0x2594 DUP2 PUSH2 0x2558 JUMP JUMPDEST SWAP1 POP SWAP2 SWAP1 POP JUMP JUMPDEST PUSH1 0x0 PUSH2 0x25A6 DUP3 PUSH2 0x177B JUMP JUMPDEST SWAP2 POP PUSH1 0x0 DUP3 SUB PUSH2 0x25B9 JUMPI PUSH2 0x25B8 PUSH2 0x1F45 JUMP JUMPDEST JUMPDEST PUSH1 0x1 DUP3 SUB SWAP1 POP SWAP2 SWAP1 POP JUMP INVALID LOG2 PUSH5 0x6970667358 0x22 SLT KECCAK256 PUSH11 0x12B8A7F121BD08FDA22543 0x4E SWAP9 0xA5 PUSH32 0xAE8E7B74BE24E40A6EB4C8BDE6F74EE964736F6C634300081200330000000000 "
				},
				"gasEstimates": {
					"creation": {
						"codeDepositCost": "1944400",
						"executionCost": "infinite",
						"totalCost": "infinite"
					},
					"external": {
						"": "infinite",
						"addOwnersAndThreshold(address,uint256)": "infinite",
						"addOwnersencode(address,uint256)": "infinite",
						"changeThreshold(uint256)": "infinite",
						"changeThresholdencode(uint256)": "infinite",
						"checkOwners()": "infinite",
						"checkSignature(bytes32,bytes)": "infinite",
						"checkThreshold()": "2482",
						"exertransact(address,uint256,bytes,bytes)": "infinite",
						"getAdjacent(address,bool)": "infinite",
						"getTxhash(address,uint256,bytes)": "infinite",
						"nonce()": "2451",
						"ownerExist(address)": "5419",
						"owners_num()": "2475",
						"removeOwners(address,uint256)": "infinite",
						"removeOwnersencode(address,uint256)": "infinite"
					},
					"internal": {
						"encodetx(address,uint256,bytes memory,uint256,uint256)": "infinite",
						"signatureSplit(bytes memory,uint256)": "infinite",
						"startCheckSignature(bytes32,bytes memory,uint256)": "infinite"
					}
				},
				"methodIdentifiers": {
					"addOwnersAndThreshold(address,uint256)": "0c546204",
					"addOwnersencode(address,uint256)": "ff87578c",
					"changeThreshold(uint256)": "694e80c3",
					"changeThresholdencode(uint256)": "6876a95e",
					"checkOwners()": "029c81e3",
					"checkSignature(bytes32,bytes)": "831c9e2e",
					"checkThreshold()": "81244e5d",
					"exertransact(address,uint256,bytes,bytes)": "0fce747a",
					"getAdjacent(address,bool)": "2413478f",
					"getTxhash(address,uint256,bytes)": "8b30486c",
					"nonce()": "affed0e0",
					"ownerExist(address)": "ef11783c",
					"owners_num()": "0c3dfc1a",
					"removeOwners(address,uint256)": "c0f0b3f1",
					"removeOwnersencode(address,uint256)": "54910298"
				}
			},
			"storageLayout": {
				"storage": [
					{
						"astId": 93,
						"contract": "contracts/Wallet/Simplewallet02.sol:Wallet",
						"label": "owners_num",
						"offset": 0,
						"slot": "0",
						"type": "t_uint256"
					},
					{
						"astId": 95,
						"contract": "contracts/Wallet/Simplewallet02.sol:Wallet",
						"label": "threshold",
						"offset": 0,
						"slot": "1",
						"type": "t_uint256"
					},
					{
						"astId": 101,
						"contract": "contracts/Wallet/Simplewallet02.sol:Wallet",
						"label": "owners",
						"offset": 0,
						"slot": "2",
						"type": "t_mapping(t_address,t_mapping(t_bool,t_address))"
					},
					{
						"astId": 736,
						"contract": "contracts/Wallet/Simplewallet02.sol:Wallet",
						"label": "nonce",
						"offset": 0,
						"slot": "3",
						"type": "t_uint256"
					}
				],
				"types": {
					"t_address": {
						"encoding": "inplace",
						"label": "address",
						"numberOfBytes": "20"
					},
					"t_bool": {
						"encoding": "inplace",
						"label": "bool",
						"numberOfBytes": "1"
					},
					"t_mapping(t_address,t_mapping(t_bool,t_address))": {
						"encoding": "mapping",
						"key": "t_address",
						"label": "mapping(address => mapping(bool => address))",
						"numberOfBytes": "32",
						"value": "t_mapping(t_bool,t_address)"
					},
					"t_mapping(t_bool,t_address)": {
						"encoding": "mapping",
						"key": "t_bool",
						"label": "mapping(bool => address)",
						"numberOfBytes": "32",
						"value": "t_address"
					},
					"t_uint256": {
						"encoding": "inplace",
						"label": "uint256",
						"numberOfBytes": "32"
					}
				}
			},
			"userdoc": {
				"kind": "user",
				"methods": {},
				"version": 1
			}
		}
	}
}